:020000040800F2
:100000000000022099060008950600081D3D000822
:1000100095060008950600089506000800000000F7
:10002000000000000000000000000000950600082D
:10003000950600080000000095060008A13C000895
:100040009506000895060008950600089506000824
:100050009506000895060008950600089506000814
:10006000950600089506000895060008A9380008BE
:10007000B538000801280008C1380008CD3800084C
:1000800091F00008D52D0008950600089506000897
:1000900095060008950600089506000895060008D4
:1000A00095060008950600089506000895060008C4
:1000B00065E4000871E400087DE40008092E0008EA
:1000C00095060008152E000895060008D5DC0008E6
:1000D000E1DC0008C5EE0008F5EE000829EF000895
:1000E0009506000895060008000000009506000827
:1000F0009506000895060008950600089506000874
:10010000950600089506000889E40008EDDC000863
:100110005DEF000891EF00089506000895060008BD
:10012000950600089506000811DD000845DD000869
:10013000C5F0000895060008950600089506000819
:1001400000000000000000000000000000000000AF
:10015000950600089506000895060008C5EF0008FA
:10016000212E000895060008B13C0008D53C000887
:1001700095060008F93C0008950600089506000859
:100180009506000895060008F9EF000829F0000818
:10019000F9DC000805DD0008950600089506000852
:1001A00095060008950600089506000895060008C3
:1001B000C935000895060008950600089506000850
:1001C000950600089506000815230008212300085D
:1001D000950600082D2300089506000895060008DE
:1001E0009506000895060008950600089506000883
:1001F0009506000895060008950600089506000873
:100200009506000895060008950600089506000862
:100210009506000895060008950600089506000852
:1002200095060008950600089506000800000000E5
:1002300095060008950600080000000095060008D5
:100240009506000895060008950600089506000822
:100250009506000895060008950600089506000812
:100260009506000895060008950600089506000802
:1002700095060008950600085DF0000800000000E3
:100280009506000895060008950600080000000085
:080290000000000095060008C3
:1002A00010B5054C237833B9044B13B10448AFF3B0
:1002B00000800123237010BDA0070024000000006F
:1002C000F453010808B5034B1BB103490348AFF3CE
:1002D000008008BD00000000A4070024F4530108BA
:1002E000034613F8012B002AFBD1181A0138704776
:1002F00001F0FF01102A2BDB10F0070F08D010F8D7
:10030000013B013A8B422DD010F0070F42B3F6D1DA
:10031000F0B441EA012141EA014122F007047FF0F3
:1003200000070023F0E80256083C85EA010586EA4A
:10033000010685FA47F5A3FA87F586FA47F6A5FA86
:1003400087F68EB9EED1F0BC01F0FF0102F0070292
:1003500032B110F8013B013A83EA010313B1F8D13D
:100360000020704701387047002D06BF354603381E
:10037000073815F0010F07D1013015F4807F02BF57
:10038000013015F4C03F0130F0BC0138704700BFA8
:1003900053B94AB9002908BF00281CBF4FF0FF31EC
:1003A0004FF0FF3000F074B9ADF1080C6DE904CEE8
:1003B00000F006F8DDF804E0DDE9022304B0704740
:1003C0002DE9F047089D04468E46002B4DD18A4208
:1003D000944669D9B2FA82F252B101FA02F3C2F13B
:1003E000200120FA01F10CFA02FC41EA030E9440CC
:1003F0004FEA1C48210CBEFBF8F61FFA8CF708FBED
:1004000016E341EA034306FB07F199420AD91CEBC4
:10041000030306F1FF3080F01F81994240F21C81F6
:10042000023E63445B1AA4B2B3FBF8F008FB10333E
:1004300044EA034400FB07F7A7420AD91CEB040473
:1004400000F1FF3380F00A81A74240F20781644443
:10045000023840EA0640E41B00261DB1D4400023C8
:10046000C5E900433146BDE8F0878B4209D9002D2C
:1004700000F0EF800026C5E9000130463146BDE8B6
:10048000F087B3FA83F6002E4AD18B4202D3824220
:1004900000F2F980841A61EB030301209E46002DCF
:1004A000E0D0C5E9004EDDE702B9FFDEB2FA82F224
:1004B000002A40F09280A1EB0C014FEA1C471FFA82
:1004C0008CFE0126200CB1FBF7F307FB131140EA69
:1004D00001410EFB03F0884208D91CEB010103F136
:1004E000FF3802D2884200F2CB804346091AA4B2F8
:1004F000B1FBF7F007FB101144EA01440EFB00FECC
:10050000A64508D91CEB040400F1FF3102D2A64530
:1005100000F2BB800846A4EB0E0440EA03409CE7CF
:10052000C6F12007B34022FA07FC4CEA030C20FA7C
:1005300007F401FA06F31C43F9404FEA1C4900FA9C
:1005400006F3B1FBF9F8200C1FFA8CFE09FB181119
:1005500040EA014108FB0EF0884202FA06F20BD98C
:100560001CEB010108F1FF3A80F08880884240F2DC
:100570008580A8F102086144091AA4B2B1FBF9F020
:1005800009FB101144EA014100FB0EFE8E4508D91B
:100590001CEB010100F1FF346CD28E456AD90238A0
:1005A000614440EA0840A0FB0294A1EB0E01A14285
:1005B000C846A64656D353D05DB1B3EB080261EBF3
:1005C0000E0101FA07F722FA06F3F1401F43C5E9CD
:1005D000007100263146BDE8F087C2F12003D84003
:1005E0000CFA02FC21FA03F3914001434FEA1C4745
:1005F0001FFA8CFEB3FBF7F007FB10360B0C43EA37
:10060000064300FB0EF69E4204FA02F408D91CEBE6
:10061000030300F1FF382FD29E422DD902386344E4
:100620009B1B89B2B3FBF7F607FB163341EA034184
:1006300006FB0EF38B4208D91CEB010106F1FF38D3
:1006400016D28B4214D9023E6144C91A46EA0046CA
:1006500038E72E46284605E70646E3E61846F8E65C
:100660004B45A9D2B9EB020864EB0C0E0138A3E7A5
:100670004646EAE7204694E74046D1E7D0467BE786
:10068000023B614432E7304609E76444023842E7FE
:10069000704700BFFEE700BF0B480C4A904203D0F2
:1006A000121A0B4911F04EFC0A480B4A904203D033
:1006B000121A002111F054FC03F05AFD11F00EFC47
:1006C00000F0E4F8FEE700BF000000249C070024CF
:1006D00028540108A00700241C6B0024704700BFA9
:1006E000704700BF10B5844682B00C461346019295
:1006F0000648DCE9001200F0A7F9019B0348D4E9A1
:10070000001202B0BDE8104000F0A0B910080024AB
:1007100070B5204C86B000211F4E20461F4D00F0C2
:10072000C9FA2046042100F041FA0321204600F0D6
:100730001DFA204600F036FA0C220121F0EE407A34
:100740008DF81120B3EE0E0A154B8DF81010049998
:100750001448C3ED007A01F003FD02220B23B3EE2F
:100760000E0A11488DF814208DF81530059901F006
:10077000F7FC002021460D4B0D4A0E4C02932870C9
:100780000D4BCDE9002620700C4A0D4800F0C4F84E
:1007900006B070BDD00700241C0000240D08002402
:1007A0002C0900241C0900240C0900242400002426
:1007B000140000240C0800240C0000240400002471
:1007C0001008002430B5022283B000230A4D8DF8B2
:1007D00004208DF805302846084C019901F0ACFD45
:1007E000204604230122294601F0B4FD204603B02F
:1007F000BDE8304001F092BFBC070024E8070024A8
:100800001B4A1C4B1C4910B5927A9B7AA2F1FF003F
:100810001A4CA3F1FF03FF2AB0FA80F0B3FA83F376
:100820004FEA50104FEA53130870237009D0104854
:1008300001F0B0FC237883B90E48BDE8104001F008
:10084000A9BC0F4800F038F90E4801F045FC0848F3
:1008500001F0A0FC2378002BEED0094800F038F915
:10086000094801F039FC0348BDE8104001F092BC92
:100870001C0900240C0900240D0800240C08002485
:1008800010080024B44D0108C04D010808B5FFF759
:100890003FFFFFF797FF002001F02CFC04490548BB
:1008A00000F060F9FFF7ACFF034800F085F8F9E7C6
:1008B000E5060008D00700241008002408B50E48FB
:1008C00000230E4A0360436103620D4911F0EAFA06
:1008D0000C490A4A0C4811F0E5FA084A09490B4844
:1008E00011F0E0FA0A4B0B4A9A625A66C3F8A0204C
:1008F000C3F8DC2008BD00BFD0070024000000249E
:10090000E1060008DD0600081C0900240C0900248B
:10091000100800240AD7233CF8B50546224CD0F82D
:10092000F0001F46214B0E46C5F8F8400344D5F8A9
:10093000F4401F491B1B8B4229D91E4A002111F08C
:100940000FFB1C4A2046002111F00AFB28463946BD
:1009500000F07EF8069905F13C0000F079F807995F
:1009600005F1780000F074F8089905F1B40000F082
:100970006FF800234FF07E5100226B62EB622B6315
:1009800001232E6269632A8785F83A30F8BD024652
:100990000848A64610444FF0000C42F804CB9042A1
:1009A0004EF804CBF7D1D1E700530700FF4B1D00F1
:1009B000FE973A00004C1D0010B50446006A94F8FA
:1009C0003810183001F0C0FED4ED097A94ED0A7A9F
:1009D00077EE876AB4EEE60AF1EE10FA06DC77EEFF
:1009E000C77AB4EEE70AF1EE10FA1BD594F8393065
:1009F00084ED090AD3B1012B15D1D4ED0C7A20EE88
:100A0000000A94ED0D7A37EE677AE0EE077AC4EDCE
:100A10000B7AB7EEE77A0B48BDE8104053EC172B82
:100A200001F05ABB10BDD4ED0B7AF2E7D4ED0C7A8D
:100A300094ED0D7A37EE677AE0EE077AC4ED0B7A23
:100A4000E7E700BFCC4D010800F04AB800F068B8F5
:100A500038B5154A0546154C0868EC6102446861D2
:100A60004C681349121BAC618A4210D9114A00210B
:100A700011F076FA0F4A0021204611F071FA002396
:100A800001222B802A732B61C5E9013338BD03464F
:100A9000084821461844002243F8042B984241F8A4
:100AA000042BF8D1EBE700BFFF4B1D0000530700FC
:100AB000FE973A00004C1D00037883F00103037099
:100AC00013B94268037302610023C0E90133704720
:100AD0004378002283F00103C0E90122437070478C
:100AE000F0B50478DCB1D3B1C56901EB8304466984
:100AF000013D43688769F1EC017A06EB830E9D4264
:100B000007EB830CCEED007A03F1010352F804EBFE
:100B100038BF0023A142CCF800E0ECD14360F0BD27
:100B2000F0B504780CB94478DCB1D3B1056901EBB8
:100B300083044669013D8368876906EB830E9D4205
:100B400007EB830C03F10103DEF800E038BF00235C
:100B500041F804EB8C42DCF800C042F804CBECD145
:100B60008360F0BD143001F009BA00BF38B500F160
:100B7000140504462DED028B284601F0BBF92846EA
:100B800001F0B4F92846B0EE408A01F09DF9D0EDAD
:100B9000007AF8EE677A88EE277ABDEC028B84ED56
:100BA0000E7A38BD143001F0A1B900BF38B500F19C
:100BB000140504462DED028B284601F089F92846DC
:100BC00001F094F92846B0EE408A01F07DF9D0EDAD
:100BD000007AF8EE677A88EE277ABDEC028B84ED16
:100BE0000E7A38BDF0B5032399B000270125129382
:100BF00006462C4B09A81595CDE90E7340F2045317
:100C0000ADF84030284BCDE91357099301F0A4FE0D
:100C100009A801F07DFF002836D1244B04AF04461B
:100C20000090CDF842301023394604958DF82030DD
:100C30001F4BCDE91650CDE906506846059302F0EA
:100C4000F5F80823009A01A909A8ADF804508DF819
:100C5000064009940295039300F0E4F800230EA9DE
:100C600038463024049302F0ABFE03224FF07E534B
:100C700009A906F114000B930C93CDE90942049ADB
:100C800001F0EAF819B0F0BD40F60132074B1697B3
:100C900004AFADF824200998CDF84230179500F044
:100CA00081F8DBE7040204040303000104060403E3
:100CB0000704010B2DE9F04304462DED028B83B0B0
:100CC000002948D0012140F2011200230091ADF823
:100CD00004208DF80630304A0126304B271D30495C
:100CE00004F12908626040F20272A36040F60663D4
:100CF000E16004F125092682A4F8252084F8276004
:100D0000A4F8293084F82B6003F0E8F96946054619
:100D100048B304F130008DF8066003F03DF9072D6B
:100D200034D104F114052046FFF75CFF284601F09A
:100D3000DDF82846B0EE408A01F0C6F8D0ED007A22
:100D4000F8EE677A88EE277A84ED0E7A03B0BDEC70
:100D5000028BBDE8F08340F2011300918DF806107C
:100D6000ADF80430B7E704F1300003F015F9394667
:100D7000204602F0A5FA484601F0EEFD404601F09B
:100D8000EBFD04F1120000F077F9CAE7394620467E
:100D900002F096FAC5E700BF050805090507050634
:100DA000050A060610B584B003460124ADF8040018
:100DB00003A8ADF80C30ADF80E4001F0CDFD214692
:100DC00003A801F0B3FE204603F01AF8002103A89F
:100DD00001F0ACFE204603F013F8214603A801F011
:100DE000A5FE04B010BD00BF10B5C2F3002384B04F
:100DF0000C46017C8DF80D2043EA4402FA240223BC
:100E00008DF80C2003AA009402F0A6F818B1012472
:100E1000204604B010BD04460A2002F0F1FF20462F
:100E200004B010BD034670B543F8042B044684B0EB
:100E300007C983E80700A37983B91A210B461E224C
:100E4000FA2523742046ADF80C20022303AA00954E
:100E500002F082F828B1012004B070BD1B210B46BE
:100E6000EDE70A2002F0CCFF4FF4B85200950223C0
:100E7000ADF80C20204603AA217C02F06DF8002872
:100E8000E9D10A2002F0BCFF41F202720095022370
:100E9000ADF80C20204603AA217C02F05DF8002862
:100EA000D9D10A2002F0ACFF042200950223ADF84C
:100EB0000C20204603AA217C02F04EF80028CAD15B
:100EC0000A2002F09DFF062200950223ADF80C20B7
:100ED000204603AA217C02F03FF80028BBD10A205B
:100EE00002F08EFF41F2082200950223ADF80C209B
:100EF000204603AA217C02F02FF80028ABD10A205B
:100F0000064602F07DFF0095022303AA217C2046BD
:100F1000ADF80C6002F020F800289CD1304602F0B9
:100F20006FFF009522790C232046002A8DF80C30A3
:100F300003AA4FF0020314BF622142218DF80D1065
:100F4000217C02F009F8002885D1304602F058FFD4
:100F50002279D4E902310B43DBB20AB943F04003F2
:100F600062790AB143F020030E22FA258DF80D3084
:100F70002046009502238DF80C2003AA217C01F065
:100F8000EBFF00287FF467AF0A2002F039FF102240
:100F900000950223ADF80C20204603AA217C01F025
:100FA000DBFF00287FF457AF0A2002F029FF12214F
:100FB00000950223ADF80C1003AA217C204601F015
:100FC000CBFF00287FF447AF0A2002F019FF01226F
:100FD00009212046FFF708FF003818BF01203BE732
:100FE000F0B5102387B0234C0122002501260027ED
:100FF00002A920460195CDE902234FF48052CDE9A4
:1010000004670AF0FBFA642003F0A6FE02A94FF47D
:1010100080522046CDE9046702261027CDE90267F9
:101020000AF0ECFA0322102302A92046CDE902239C
:1010300000230422CDE904234FF480520AF0DEFAA3
:1010400040F23223042202A9019310232046CDE965
:101050000223019A012305924FF4805204930AF06F
:10106000CDFA40F6060120460AF0E8FA284607B015
:10107000F0BD00BF380900241C4B00221C494FF072
:10108000400C30B5054689B00220596007219A60AE
:101090001A620124DA620A224FF4006EDC600692C2
:1010A0002022CDE9000104200821CDE9020103201E
:1010B0001021CDE9040108206946C3E904024FF478
:1010C000C072181DC3E906C24FF48052C3E909E299
:1010D0000AF06AFA38B92846FFF782FF003818BFCD
:1010E000012009B030BD204609B030BD34090024CC
:1010F00040410052614A0021D0B513688EB00A9178
:10110000002B40F0B9805E4B01214FF683700C2418
:1011100011600221D3F8D4200026032742F4805224
:10112000C3F8D420D3F8D42002F480520092009A5D
:10113000D3F8E02042F01002C3F8E020D3F8E0201A
:1011400002F010020192019AD3F8E02042F040022E
:10115000C3F8E020D3F8E02002F040020292029AA5
:10116000D3F8E02042F00802C3F8E020D3F8E020F2
:1011700002F008020392039AD3F8E02042F480724E
:10118000C3F8E020D3F8E02002F480720492049ABD
:10119000D3F8E02042F08002C3F8E020D3F8E0204A
:1011A00002F080020592059AD3F8E02042F0200276
:1011B000C3F8E020D3F8E02002F020020692069A5D
:1011C000D3F8E02042F00402C3F8E020D3F8E03086
:1011D0000C9403F0040307930323079A0B93CDE9C0
:1011E000080108A9274805F03DFC48F23712022300
:1011F00008A925480C94CDE90823CDE90A6705F034
:1012000031FC4CF20372022308A920480C94CDE96A
:101210000823CDE90A6705F025FC40F2FF620223AE
:1012200008A91B480C94CDE90823CDE90A6705F00D
:1012300019FC4FF60C72022308A916480C94CDE94C
:101240000823CDE90A6705F00DFC4FF63F020223A3
:1012500008A911480C94CDE90823CDE90A6705F0E7
:1012600001FC2022022308A90A480C94CDE90A6750
:10127000CDE9082305F0F6FB0EB0D0BD30090024FF
:10128000004402580010025800180258000C02587E
:1012900000200258001C0258001402582DE9F04F9B
:1012A000DFF8108406460D46144608F118002DEDAF
:1012B000028B89B000AF02F07BFCD8F8183073B312
:1012C000D8F81C30D8F80490002B43690BBF4FF0BE
:1012D000080A4FF0100A4FF0020B4FF0040BB9F15F
:1012E000000F2AD0A200EA46012B02F1070222F0E9
:1012F0000702ADEB020D6846ADEB020D694600F04A
:101300003F81022B00F0D680002B6FD02246C847C9
:10131000D5462437BD46BDEC028BBDE8F08FD8F82A
:101320001C30002BF5D0D8F804904FF0080A4FF08D
:10133000020B4369B9F1000FD4D1FB61D8F800303A
:10134000BB61002BE5D0D54802F0A4FC6B46BBF195
:10135000020F786108EE103AFB6900F083816A465B
:101360005146A2EBC40295466200EA46B2FBFBF28C
:10137000AAEBC40085460AEB8200EE46F861ADEBAD
:10138000010DF8690EEB820CC7F810C0EC46ADEB0E
:10139000010D00EB8201CCF80400CCF8081001EB41
:1013A00082013869E946CCF80C1000EB8201CCF8D8
:1013B00000A001EB8202C9E900E0C9E90212012B99
:1013C00000F06483022B00F06C82002B00F080811F
:1013D000620849466046BB69984718EE103A2437C0
:1013E0009D46BD46BDEC028BBDE8F08F002C8DD034
:1013F0001A46D8ED0C6A9FEDB27A8446331D36F951
:1014000022E00CF1080C07EE90EA33F922E00232F8
:10141000F8EEE77A944267EE877A67EEA67A4CEDAB
:10142000027A07EE90EAF8EEE77A67EE877A67EEDF
:10143000A67A4CED017AE2D8F9612246C847984E67
:10144000D8ED0D6A0020F9692B1D9FED9E7A9FED66
:101450009E6ADFED9E5A22E0F4EEC67AF1EE10FAB3
:10146000C0F2C88447F6FE72D1ED017A45F820201B
:1014700066EEA77AF4EEC77AF1EE10FA40F2F08049
:10148000F4EEC67AF1EE10FAC0F2D58447F6FE7299
:1014900043F820200230083184427FF639AFD1ED85
:1014A000007A66EEA77AF4EEC77AF1EE10FAD3D896
:1014B0003246D9E7002C3FF429AFD8ED0C6A8446B8
:1014C0009FED787A0022331D8E4656F822100CF1DB
:1014D000080C07EE901A53F822100232F8EEE77A61
:1014E000944267EE877A67EEA67A4CED027A07EEB1
:1014F000901AF8EEE77A67EE877A67EEA67A4CEDF7
:10150000017AE2D871462246C7F81CE0C847664E09
:10151000D8ED0D6A0020F9692B1D9FED6A7A9FEDC9
:101520006A6ADFF894C120E0F4EEC67AF1EE10FAB0
:10153000C0F279843246D1ED017A45F8202066EE7A
:10154000A77AF4EEC77AF1EE10FA40F28780F4EE53
:10155000C67AF1EE10FAC0F25E84324643F82020DB
:101560000230083184427FF6D3AED1ED007A66EEC8
:10157000A77AF4EEC77AF1EE10FAD5D86246DAE728
:10158000002C3FF4C3AED8ED0C6A86469FED477A37
:101590004FF0000C331D56F82C200EF1080E82F48B
:1015A0000002A2F5000207EE902A53F82C200CF15D
:1015B000020CF8EEE77A82F400026445A2F500021C
:1015C00067EE877A67EEA67A4EED027A07EE902AEA
:1015D000F8EEE77A67EE877A67EEA67A4EED017A43
:1015E000D9D8F9612246C847314ED8ED0D6A00209E
:1015F000F9692B1D9FED337A9FED336ADFF8BCC08C
:101600001FE0F4EEC67AF1EE10FAC0F2FC83324627
:10161000D1ED017A45F8202066EEA77AF4EEC77A7C
:10162000F1EE10FA18D9F4EEC67AF1EE10FAC0F223
:10163000DA83324643F820200230083184427FF6B4
:1016400067AED1ED007A66EEA77AF4EEC77AF1EED6
:1016500010FAD6D86246DBE76246EBE762467DE7E2
:10166000324615E7A100D6466208073121F007018E
:10167000ADEB010DEA46ADEB010D6946ADEB0E0D8C
:101680000AEB8200EC46ADEB0E0D01EB8202F86135
:10169000E946CCE900A0C9E9001290E688090024D7
:1016A0000280FFFF000000300082FF7F0000003456
:1016B00082FF7F006C090024007E00807E0080FF96
:1016C0000000003804FF7FBF04FF7F3F00FEFF469D
:1016D000002C00F0C982BBF1020FD8F8242000F0E2
:1016E000FA827969C7F8049002EB810E5FED0C5A1B
:1016F0008A00DCF808100EF104007A611A46DCF862
:101700000C303B61331DD7F810903D61FD69C7E98E
:1017100002CB8C46834636F92210D8ED0C7A06EEC1
:10172000101A33F9221006EE901A3EF92210B8EE84
:10173000C66A07EE101AF8EEE66A3BF92210B8EE18
:10174000C77A26EE256A66EEA56A27EE257A26EE8A
:10175000276A66EEA76A27EE277A07EE901A5108E5
:101760000232F8EEE77A0AEB8100944280ED006ADB
:1017700005EB810067EEA57AC0ED006A0CEB8100F5
:1017800009EB810180ED007A98ED0C7A67EE877A9B
:10179000C1ED007ABFD8D7F804903D69D7E902CBF4
:1017A00060466208BB6949469847D8F82C307A6988
:1017B000D8ED0D6A1A441FED3D7A1FED3D6A2B1DD1
:1017C000904602F1040A5FED3F5A0022A84ED9E983
:1017D00000EC51E0F4EEC67AF1EE10FAC0F2C782E6
:1017E00047F6FE7045F822000CEB0100D0ED007AC0
:1017F00066EEA77AF4EEC77AF1EE10FA4BD9F4EE62
:10180000C67AF1EE10FAC0F2BA8247F6FE70BBF16A
:10181000020F43F822002BD0D9F808000844D0ED7D
:10182000007A66EEA77AF4EEC77AF1EE10FA36D9AE
:10183000F4EEC67AF1EE10FAC0F2CD8247F6FE70F1
:1018400048F82200D9F80C000144D1ED007A66EE88
:10185000A77AF4EEC77AF1EE10FA1ED9F4EEC67A42
:10186000F1EE10FAC0F2AF8247F6FE714AF822108C
:10187000023294427FF6B1AD51080EEB810089002F
:10188000D0ED007A66EEA77AF4EEC77AF1EE10FAA0
:10189000A0D83046A6E73046B9E73146E6E73046FD
:1018A000CEE7002C00F0E081BBF1020FD8F8243025
:1018B00000F0E1817A69DCF8081003EB820EC7F8CA
:1018C00004909300DFED6B5A0EF1040000227B615F
:1018D000DCF80C303B61331DD7F810903D61FD6999
:1018E000C7E902CB8C46834656F82210D8ED0C7A15
:1018F00007EE101A53F82210B8EEC76A07EE101A56
:101900005EF82210F8EEC76A07EE101A26EE256A76
:101910005BF82210B8EEC77A66EEA56A26EE276A53
:1019200027EE257A66EEA76A27EE277A07EE901A49
:1019300051080232F8EEE77A0AEB8100944280ED1A
:10194000006A05EB810067EEA57AC0ED006A0CEB3A
:10195000810009EB810180ED007A98ED0C7A67EE49
:10196000877AC1ED007ABFD8D7F804903D69D7E9EE
:1019700002CB60466208BB6949469847D8F82C30CC
:101980007A69D8ED0D6A1A449FED3E7A9FED3E6A62
:10199000131D9246DFF8E4C00022FB612B1D364E7A
:1019A000D9E9008E4EE0F4EEC67AF1EE10FAC0F2FC
:1019B000FC81304645F822000EEB0100D0ED007AA4
:1019C00066EEA77AF4EEC77AF1EE10FA49D9F4EE92
:1019D000C67AF1EE10FAC0F2EF813046BBF1020F89
:1019E00043F822002AD0D9F808000844D0ED007A44
:1019F00066EEA77AF4EEC77AF1EE10FA35D9F4EE76
:101A0000C67AF1EE10FAC0F2C98130464AF82200D7
:101A1000D9F80C000144D1ED007A66EEA77AF4EE15
:101A2000C77AF1EE10FA1ED9F4EEC67AF1EE10FA8A
:101A3000C0F2AD813146F86940F82210023294427A
:101A40007FF6CBAC510808EB81008900D0ED007A1D
:101A500066EEA77AF4EEC77AF1EE10FAA3D86046E4
:101A6000A8E76046BAE76146E5E76046CEE700BF13
:101A70000280FFFF000000300082FF7F007E0080B8
:101A80000000003404FF7FBF04FF7F3F002C00F004
:101A9000EB807A690021D8F82430C7F8109003EB66
:101AA000820ED7F81C909300FD610EF104021FED29
:101AB0000C6A7B61331D154656F821204808D8ED85
:101AC0000C6ABBF1020F82F40002A2F5000207EEDD
:101AD000902A53F8212082F40002B8EEE77AA2F5AA
:101AE000000227EE067A07EE902A0AEB8002F8EE53
:101AF000E77A27EE267A67EE867A82ED007A09EB9E
:101B000080024FEA800067EEA67AC2ED007A27D005
:101B10005EF8212082F40002A2F5000207EE902A6E
:101B200055F8212082F40002B8EEE77AA2F500020F
:101B300027EE067A07EE902ADCF80820F8EEE77A1E
:101B4000024427EE267A67EE867A82ED007A98EDD7
:101B50000C7ADCF80C2067EE877A0244C2ED007A3A
:101B600002318C42A8D8D7F8109060466208BB6951
:101B70004946FD699847D8F82C307A69D8ED0D6A46
:101B80001A441FED407A1FED406A131D9246DFF89C
:101B9000C4C20022FB612B1DAB4ED9E9008E4EE082
:101BA000F4EEC67AF1EE10FAC0F2C580304645F880
:101BB00022000EEB0100D0ED007A66EEA77AF4EE7B
:101BC000C77AF1EE10FA49D9F4EEC67AF1EE10FABE
:101BD000C0F2BF803046BBF1020F43F822002AD08A
:101BE000D9F808000844D0ED007A66EEA77AF4EE42
:101BF000C77AF1EE10FA35D9F4EEC67AF1EE10FAA2
:101C0000C0F2AE8030464AF82200D9F80C000144F8
:101C1000D1ED007A66EEA77AF4EEC77AF1EE10FA0B
:101C20001ED9F4EEC67AF1EE10FAC0F28B8031467E
:101C3000F86940F82210023294427FF6CEAB510888
:101C400008EB81008900D0ED007A66EEA77AF4EE09
:101C5000C77AF1EE10FAA3D86046A8E76046BAE763
:101C60006146E5E76046CEE7224649466046BB69E5
:101C70009847FFF7B2BBC7F810B0002298ED0C6A86
:101C8000331DDFED726AD7F81CB0786956F8221060
:101C900007EE901A53F82210B8EEE77A07EE901A82
:101CA00051080232F8EEE77A27EE267A0AEB810E27
:101CB00094420BEB810167EEA67A27EE067A67EE77
:101CC000867A8EED007AC1ED007ADFD88300D7F8EE
:101CD00010B07B614DE61A46C7F810B098ED0C6A5B
:101CE000331DDFED5B6AD7F81CB0786936F9221036
:101CF00007EE101A33F9221007EE901AB8EEC77AE1
:101D000051080232F8EEE77A27EE267A0AEB810EC6
:101D100094420BEB810167EEA67A27EE067A67EE16
:101D2000867A8EED007AC1ED007ADFD88300D7F88D
:101D300010B07B6134E5F0EE675AFEEEE45A15EE22
:101D4000900A34E7F0EE675AFEEEE45A15EE901A68
:101D50006EE7F0EE675AFEEEE45A15EE900A3AE7A7
:101D6000F0EE675AFEEEE45A15EE900A4BE767EE86
:101D7000A57AFDEEE77A17EE900A00B232E567EE3B
:101D8000A57AFDEEE77A17EE900A00B23FE5F0EE95
:101D9000675AFEEEE05A15EE901A4CE6F0EE675ADE
:101DA000FEEEE05A15EE900A30E6F0EE675AFEEECF
:101DB000E05A15EE900AFDE5F0EE675AFEEEE05AA5
:101DC00015EE900A0AE667EEA57AFDEEE77A17EEC1
:101DD000901A09B24AE567EEA57AFDEEE77A17EEAA
:101DE000900A00B22CE5F0EE675AFEEEE45A15EECA
:101DF000902A1FE467EEA57AFDEEE77A17EE902AA7
:101E000012B2FFF731BBF0EE675AFEEEE45A15EE60
:101E1000902AFFF7FDBBF0EE675AFEEEE05A15EE92
:101E2000902AFFF79BBBF0EE675AFEEEE05A15EEE4
:101E3000902AFFF780BB67EEA57AFDEEE77A17EEF2
:101E4000902A12B2FFF724BB82FF7F00000000300F
:101E5000000000387E0080FF30B5184C154685B074
:101E6000046004F1080EEC460FC98EE80F00D4EDB3
:101E7000047AF5EEC07A8CE80F00F1EE10FA1ADD64
:101E8000B7EE006A94ED057A27EE277AC6EE276A48
:101E900084ED0D7AC4ED0C6A6DB1204640F8185FF0
:101EA00001F086FE064903690020064A2162A2620B
:101EB000E36005B030BD012005B030BD6C090024E1
:101EC000002000300000003000680830704700BF7C
:101ED000B1F5807F03680A4628BF4FF48072B1F5E0
:101EE000807F9A6094BF00200120704700681830FE
:101EF00001F0BEBE70B504688AB0A369E160CBB1E1
:101F000004F11805284601F053FE8446EE46E668C3
:101F1000BCE80F00AEE80F00BCE80F00AEE80F0011
:101F20009CE803008EE8030069462846049601F009
:101F300047FDF8B9E069D8B104F11C05284601F065
:101F400037FE8446EE46E468BCE80F00AEE80F00BA
:101F5000BCE80F00AEE80F009CE803008EE8030029
:101F600069462846049401F02BFD003818BF012073
:101F70000AB070BD01200AB070BD00BF30B5046862
:101F800083B00D46E3694BB1A3680020E26A616A41
:101F90009B00009004F11C0001F00CFEA3680748B0
:101FA000A26A9B00216A009004F1180001F002FE71
:101FB0000020C4E9005003B030BD00BF9D120008EE
:101FC00010B4074B4FF07E513024002203201961DA
:101FD0009C60D8605DF8044B5961C3E906227047E4
:101FE0006C090024704700BFF8B5134F3C687F2C84
:101FF00007D98023114A42F224411C463B60A2F8D3
:102000007E100F4D2B68012B0AD90C4E0D4D224628
:102010003146284600F074F90028F8D13860F8BD40
:1020200022460649074800F06BF90028F7D12B68D3
:10203000386001332B60F8BDA8090024AC090024E6
:10204000A40900242C0A002430B4154C2168F1B1F5
:102050004B1E144DE81810F801298C4619460A2A1F
:1020600001D00D2A02D14BB1013BF4E70CF1020380
:102070007F2B10D98023236030BC704701220223BC
:1020800023600D200A236854AB5430BC70470122F2
:102090000223044DF4E70CF101026146F0E700BFB2
:1020A000A8090024AC09002410B5094C02460B46CF
:1020B000084821680844C1F1800110F0FDFC236844
:1020C00018442060FFF7C0FFFFF78EFF10BD00BF70
:1020D000A8090024AC0900240FB400B583B004A9FA
:1020E00051F8040B0191FFF7DFFF03B05DF804EB3B
:1020F00004B0704710B5044600210A4800F07AF891
:10210000002C094B14BF0222002208481A60FFF776
:10211000E3FF0748FFF7E0FF0A20BDE8104001F0A9
:102120006FBE00BF2C0A0024A4090024E04D010862
:10213000F04D0108064A0749074808B50FF0B2FEFE
:10214000034A04490548BDE808400FF0ABBE00BF94
:1021500000000024E51F00082C0A0024300A002497
:1021600070B5044682B0C1F30726CDB2ADF80410B5
:1021700001F044FE4FF480724FF001232060A01D57
:10218000A571A280E671A36002B0BDE8704000F0C6
:10219000E3BB00BF38B5044601F030FE00222368DF
:1021A0002271834210D00122A57AE37A9540206003
:1021B0002271A01D6DB243B900F0AAFC40B22843C1
:1021C000C0B27F28A0720AD038BD00F0A1FCB0FADE
:1021D00080F040092843C0B27F28A072F4D101F0FA
:1021E0000DFE07EE900AF8EE677AC4ED037A38BD6B
:1021F000704700BF012910B506D0022915D051B192
:10220000BDE8104006F010BB0A46344834490AF0D5
:10221000A5FCE8B1FEE7334B0A46334C334934485A
:102220001C600AF09BFC68B1FEE701222C492B4898
:102230000AF094FC00B1FEE72E4928480AF0B0FCF1
:10224000C0B1FEE72B492A480AF0AAFC60B1FEE7BC
:10225000284922480AF0A4FC00B1FEE726491F489D
:102260000AF02CFC08B3FEE7244921480AF026FCBA
:10227000A8B1FEE7204919480AF020FC00B1FEE7AA
:1022800016480AF0A3FC024640B9164B164C1749F3
:1022900017481C600AF062FC68B1FEE7FEE71448CC
:1022A0000AF094FC0028ABD0FEE70C480AF08EFC44
:1022B0000028A5D0FEE70F490D480AF071FC00B1D7
:1022C000FEE70E490A480AF0F9FB00B1FEE70848AC
:1022D0000AF07CFC002893D0FEE700BFD00C00245D
:1022E000C80000246C0F0024F1210008AC00002479
:1022F000340A0024300100248C0000247C000024D7
:10230000084691B208B502F023F8003818BF012042
:1023100008BD00BF014805F065BD00BF583A002464
:10232000014805F05FBD00BF583A0024014805F0A0
:1023300059BD00BF583A002482B04FF0000C03236F
:10234000ADF80410BDF8042080F810C0028043806E
:1023500002B070472DE9F04FBE4E00258FB0BE4C45
:10236000037006F14003426007460192884620222E
:1023700029463046C4F85831C4F85461CDE90355B4
:10238000CDE90555CDE90755CDE90955CDE90B5501
:102390000FF0E6FD2022294604F59970C4F821517A
:1023A000C4F82551C4F82951C4F82D510FF0D8FDB7
:1023B000019B84F8385284F820317A68002A5FD073
:1023C0002B464146B64604F5907599464FF0010AF2
:1023D00003EB0310D1F800B0D1F804800133D1F839
:1023E00008C02218CE6844F800B0C2F80480C2F8D1
:1023F00008C0D660087C2EF8029B10740A7C05F891
:10240000012F002A69D07A68113184F838A29A42E3
:10241000DED84FF4802291489DF8043008214FF017
:1024200000084FF00009C4F874310023C4E95702D2
:102430000122C4F8643184F87031C4E95A2194F857
:102440003812C4E9608981B3C4F88821002284F875
:10245000713184F878313B78C4E96322A3B3012257
:1024600000200121013B84F89421C4E96801082B74
:102470002CD8DFE803F0ABB0B5BABFC4C9CFD600E3
:102480009DF804300121C4F86421C4F874314FF47C
:10249000802384F87021714AC4E95723082300225D
:1024A000C4E95A130023C4E960230123002284F8FD
:1024B0007131002384F878310323C4F888313B78E4
:1024C000C4E96322002BCAD184F89431644803F034
:1024D0007BF8034638B1FFBEFEE77A6811319A42B5
:1024E0003FF676AF95E703A95D48039303F0CAF979
:1024F0000546002868D1022240F2FF73CDE9082387
:1025000000230422CDE90A2394F82031002B00F0A7
:10251000D5804FF0060921E0022B00F08980012BC5
:1025200040F0C4809AF80130012B00F0C180002BEC
:102530004C4B18BF002306A94948CDE9063902F0E3
:102540006FFC002840F0BF80013594F82031EDB2D7
:10255000AB4240F2B380444B53F825902FB207EBC7
:10256000071704EB070A504600F0F6F905EB0513D0
:1025700023441B7C042B7DDC022B00F3918000F0B4
:102580008D806319002283F81021E35D002BC3D1F5
:102590009AF80130062B00F08580072B00F08A8026
:1025A000022B00F09680032B00F09580002B00F0AA
:1025B0009680012B00F09180042B00F09280052B77
:1025C0002A4B18BF0023B6E7FFBEFEE703224023D5
:1025D000C4E966237AE707226023C4E9662375E726
:1025E0000F228023C4E9662370E71F22A023C4E9D9
:1025F00066236BE73F22C023C4E9662366E77F2298
:10260000E023C4E9662361E7FF224FF48073C4E945
:1026100066235BE740F2FF124FF49073C4E9662330
:1026200054E740F2FF324FF4A073C4E966234DE74C
:102630009AF80130042B37D0052B3DD0002B40D029
:10264000012B42D0022B42D0032B094B18BF002391
:1026500071E700BF00400030780F002400200240E6
:10266000D41000240002B025004E01080000B84F2D
:102670000020903603233E1D04EB05084FF0000BAD
:10268000264488F8103130460BF1010B00F064F954
:1026900098F8103104365B45F5DC76E70123EAE76C
:1026A0000223E8E7104B46E7104B44E7002342E7DC
:1026B0000F4B40E70F4B3EE70F4B3CE70FB0BDE839
:1026C000F08F0E4B37E7FFBEFEE70D4B33E70D4BA8
:1026D00031E70D4B2FE70D4B2DE70D4B2BE70D4B46
:1026E00029E70D4B27E700BF0800900C1000C01031
:1026F0002000F0148000501D000180210004002AF9
:102700000008302E001060320040C03A0080F03ED9
:1027100000005247000021430000844B38B5094CAB
:1027200040F2FF724FF0011104F5AE75284603F038
:1027300057F894F82021D4F854112846BDE83840C1
:1027400002F0C2BD780F0024064B0F29D3F8543194
:1027500098BF03EB41031B8800EE103ABBEEC80A9A
:10276000704700BF780F0024214B02689A4200D0C6
:102770007047204A00232048D2F8D81030B51F4CAB
:1027800041F0200183B0C4F8C001092004F5E075D0
:10279000C4E971034FF48060C2F8D810D2F8D82091
:1027A0004FF40061C4E9733094F8380202F020025B
:1027B000C4F8D4114FF40051984201922846C4F84D
:1027C000D811C4E97833019B14BF00234FF4807300
:1027D000C4F8DC3103F07CFA08B1FFBEFEE704F573
:1027E000AE73C4F8A851C4F8F83103B030BD00BFCF
:1027F000002002400044025840000240780F0024AC
:10280000014803F0DDBD00BF3811002402682DE946
:10281000F84F4B4B9A4201D0BDE8F88F494D95F8DF
:102820003832002BF8D095F82031002B77D00024D7
:1028300005F10C0905F5997605F59077A04613E0AA
:1028400003F0010117F811BCA9F1080000F06EF9BE
:10285000BBF1010F25D895F82031013409F1110998
:102860000236A2B293422BD917F8012F002AF4D0D6
:10287000D5F854310021327833F81400D5F85831A6
:1028800003EB041323F81200338801339BB2338027
:102890005FFA83FA3A789A42D2D88A46A6F800803C
:1028A000D0E7CAF34001A9F1040000F03FF9BBF101
:1028B000020FCAF38001CED0484600F037F9CAE7CC
:1028C000002395F83802204909229842C5F8C831FA
:1028D0004FF48060C5F8C011C5F8C4214FF4006101
:1028E0004FF40052C5F8CC3108BF4FF48073C5F8DF
:1028F000D821C5E9740100221448C5E97732C5F82A
:10290000E42103F0E5F908B1FFBEFEE795F82021C8
:10291000D5F854110E48BDE8F84F02F0D5BC0A496D
:1029200009224FF48060C5F8C831C5E970124FF430
:1029300000614FF40052C5E97330C5E97512DAE75A
:1029400000200240780F002440000240381100248B
:10295000D4100024704700BF8378022B30B50446A2
:102960008FB037D0032B33D0012B31D000230A9303
:10297000E378012B2AD0022B28D000230B930023CD
:1029800020460C9302F0C6F80546204602F0CAF82D
:1029900023780990082B13D8DFE803F01F3245583D
:1029A0006B7E91A40500594BD3F8E02042F480726D
:1029B000C3F8E020D3F8E03003F480730893089B59
:1029C00009A9284604F04EF80FB030BD0B93D6E7A6
:1029D0000A93CDE711230A93CAE74C4B09A928466D
:1029E000D3F8E02042F00102C3F8E020D3F8E03051
:1029F00003F001030093009B04F034F80FB030BDE6
:102A0000424B09A92846D3F8E02042F00202C3F85D
:102A1000E020D3F8E03003F002030193019B04F0BF
:102A200021F80FB030BD394B09A92846D3F8E02072
:102A300042F00402C3F8E020D3F8E03003F00403CE
:102A40000293029B04F00EF80FB030BD2F4B09A982
:102A50002846D3F8E02042F00802C3F8E020D3F87B
:102A6000E03003F008030393039B03F0FBFF0FB078
:102A700030BD264B09A92846D3F8E02042F01002C9
:102A8000C3F8E020D3F8E03003F010030493049B74
:102A900003F0E8FF0FB030BD1C4B09A92846D3F85E
:102AA000E02042F02002C3F8E020D3F8E03003F049
:102AB00020030593059B03F0D5FF0FB030BD134BEA
:102AC00009A92846D3F8E02042F04002C3F8E020EC
:102AD000D3F8E03003F040030693069B03F0C2FFF7
:102AE0000FB030BD094B09A92846D3F8E02042F0C9
:102AF0008002C3F8E020D3F8E03003F080030793AE
:102B0000079B03F0AFFF0FB030BD00BF0044025879
:102B100038B5054601F0FEFF0446284602F002F8EB
:102B200001462046BDE8384004F0A4B970B5064619
:102B30000D4601F0EFFF0446304601F0F3FF2A1E78
:102B40000146204618BF0122BDE8704004F098B944
:102B50000023122270B586B0CDE9022304930368E6
:102B6000032B01D804230593061D841D304601F074
:102B7000D1FF0546304601F0D5FF034601A928469E
:102B8000019303F06FFF204601F0C4FF0346204687
:102B90001C4601F0C7FF01A903462046019303F03C
:102BA00061FF06B070BD00BF634A0368934210B571
:102BB0008CB028D0614A934258D0614A934200F0C9
:102BC0009480604A934201D00CB010BD5E4C5F48C7
:102BD000D4F8E03043F00203C4F8E030D4F8E03039
:102BE00003F002030A930A9BFFF7B2FFD4F8F43014
:102BF00043F08003C4F8F430D4F8F43003F08003D9
:102C00000B930B9BE0E7504C5148D4F8E03043F075
:102C10000203C4F8E030D4F8E03003F0020301937B
:102C2000019BFFF795FFD4F8E83000221F2043F402
:102C300000131146C4F8E830D4F8E83003F4001368
:102C40000293029BD4F8D83043F00103C4F8D83083
:102C5000D4F8D83003F001030393039B02F086FEFF
:102C60001F200CB0BDE8104002F0BEBE364C394803
:102C7000D4F8E03043F08003C4F8E030D4F8E0301A
:102C800003F080030493049BD4F8E03043F0020384
:102C9000C4F8E030D4F8E03003F002030593059B5C
:102CA000FFF756FFD4F8E8300022212043F48003D8
:102CB0001146C4F8E830D4F8E83003F480030693F2
:102CC000069BD4F8D83043F00103C4F8D830D4F8C8
:102CD000D83003F001030793079B02F047FE212041
:102CE0000CB0BDE8104002F07FBE1B48FFF730FF7C
:102CF000154B00224820D3F8E840114644F4000464
:102D0000C3F8E840D3F8E84004F400040894089CB1
:102D1000D3F8D84044F00104C3F8D840D3F8D830F1
:102D200003F001030993099B02F020FE48200CB038
:102D3000BDE8104002F058BE00540040005800406A
:102D4000005C0040001C005800440258401400245D
:102D5000B811002490120024681300242DE9F043D8
:102D60001A4B87B000254FF010099E46EC46184BD1
:102D7000FF22E04667461A700EF118060EF1300485
:102D8000CDE90055CDE90255ADF80090BCE80F0043
:102D9000CDE90455AEE80F009CE803000095ADF8BE
:102DA00000908EE80300B8E80F000FC69CE803000F
:102DB0000095ADF8009086E803000FCF0FC49CE8A3
:102DC000030084E8030007B0BDE8F0832C00002472
:102DD000B411002410B5EFF3108472B6084B1A78C2
:102DE000120602D504B962B610BD1B78D822054878
:102DF0005BB202FB0300143003F0E2FAF2E700BF1B
:102E0000B4110024B8110024014804F0D1BE00BF61
:102E100044120024014804F0CBBE00BF1C13002460
:102E2000014804F0C5BE00BFF41300242DE9F043AF
:102E30000F68D8243F4D85B007FB04F4032F05EB42
:102E40000403036040DCCB680E46012B3CD84DD018
:102E50004FF0D808B646DFF8FC9008FB0758BEE8EC
:102E60000F00C446ACE80F00DEF800300DF1100E84
:102E7000CCF80030D8F808C099E80F000EE90F0030
:102E80000EEB8703BCF1010F53F8103CC8F88C30EF
:102E900031D0BCF1020F42D0BCF1000F35D0317CF3
:102EA0008C34D823002201202C4403FB0753490013
:102EB000C3E92602C3F894102046C3E92822C3E9D7
:102EC0002A2204F067FC18B1012005B0BDE8F083A8
:102ED0000146204604F078FE0028F5D10146204640
:102EE00004F09CFE003818BF0120EEE70B7C103B7D
:102EF000672BADD9E8E701F0EFF80F4B98420CBF14
:102F00000E4B0F4BC8F89030C9E701F0E5F80A4BBB
:102F100098420CBF0B4B0C4BC8F89030BFE701F048
:102F2000DBF8054B98420CBF084B094BC8F89030B2
:102F3000B5E700BFB8110024000E27072D0FB030F1
:102F40003211D0205F4390608A62E030200BA010E5
:102F50001A098010804D01082DE9F041D0F8008059
:102F600082B00D4617461E4608F18C04204604F038
:102F700027FE2028FAD1D8F80C3073B96D0020460E
:102F8000089C33463A46A9B2009404F059FC003834
:102F900018BF012002B0BDE8F081089B32463946D7
:102FA000204604F021FDF2E7044B10221A7483F846
:102FB000E82083F8C02183F898227047B8110024D4
:102FC00030B5002395B04FF48071062204460B9370
:102FD00006921393CDE90C13CDE90E33CDE91133ED
:102FE00001F07CF807282BD004F1100541F288325B
:102FF00006A9284605F064FD28B10123184684F887
:103000005C3015B030BD0222022306A92846CDE966
:10301000002310220123CDE9022300224FF4800374
:10302000CDE9042305224FF0807306926A460F9380
:1030300041F2883305F0B0FE0028DED115B030BD76
:103040000323012084F85C3015B030BD000000007F
:1030500070B50023A4B04FF080724FF48075044621
:10306000ADF806300D93CDE910320122CDE90E53B3
:10307000CDE91223CDE91433002943D0F02300F128
:10308000100508AEADF80630C02341F28832314653
:103090002846089305F014FD28B10123184684F84A
:1030A0005C3024B070BD41F288320DF10601284633
:1030B00005F070FD03460028EFD105224FF4807122
:1030C0001E93284616924FF080721B9321931F92F5
:1030D00002AA9FED1F7BCDE91C13CDE922338DEDB4
:1030E000027B9FED1D7B41F2883316A98DED047B99
:1030F0009FED1B7B8DED067B05F04EFE0028CCD1AD
:1031000024B070BD00F1100508AE612341F2883291
:1031100031462846089305F0D3FC0028BDD141F282
:1031200088320DF10601284605F0B2FD0028B4D121
:10313000BDF80630204623F0780343F04003ADF895
:103140000630FFF73DFF00289ED0A6E7AFF30080D2
:10315000000000000100000010000000010000005D
:1031600000000000000040002DE9F04F00234FF464
:10317000807501264FF0807804462DED028BABB0B0
:103180008DF8073013932193299314950E96CDF85B
:103190005C80CDE91533CDE91863CDE91A33CDE96B
:1031A0002253CDE92433CDE9273306231C9300F0C5
:1031B00095FF072808D004F1100741F288321CA9B6
:1031C000384605F07DFC40B10123184684F85C3098
:1031D0002BB0BDEC028BBDE8F08F4FF0020A4FF030
:1031E000020B4FF0050941F2883308AA1CA93846A2
:1031F000CDF89480CDF870909FED2D8BCDE908AB84
:103200004FF0000A4FF4800B8DED0A8BCDE90CAB2B
:1032100005F0C2FD0028D7D141F2883238460EA908
:1032200005F04EFC0028CFD1402341F288320DF149
:10323000070138468DF8073005F0ACFC0028C3D1F3
:1032400041F288330EA902AA3846CDF83890CDF85D
:103250005C809FED197B8DED048BCDE906AB8DED88
:10326000027B05F099FD03460028ADD1CDF87090A2
:103270004FF00109CDF894804FF00008219308AA7F
:1032800029931CA938462295CDE92333CDE927336C
:1032900041F288338DED0A8BCDE90CABCDE908897D
:1032A00005F07AFD002893D0304684F85C608FE703
:1032B000100000000100000040000000400000007D
:1032C0002DE9F043624CA3B00D46046000F006FF08
:1032D000072800F0A980286823466968AA6807C300
:1032E0001E46AB8926F8043B3046257B677B05F0FC
:1032F000C9FBE0B9574B012D4FF00108E061236194
:1033000014BF4FF480134FF40003C4E9058893FA07
:10331000A3F3B3FA83F34FF48079013BC4F824900C
:10332000C4E90B003046236205F040FB38B10122AE
:10333000134684F85C20184623B0BDE8F08366236A
:103340000B90139041F2883206A90693CDE90C90B8
:10335000CDE90E00CDE91100304605F0B1FB0028A3
:10336000E5D1992341F2883206A93046069305F04B
:10337000A7FB0028DBD105231C9019906A46149303
:103380004FF08073219014A91D9341F288339FED73
:103390002A7BCDE91A90CDE91F008DED007B9FEDD2
:1033A000287B30468DED027B9FED277B8DED047BE6
:1033B00005F0F2FC0028BAD129462046FFF748FE66
:1033C0000028B4D12046FFF7CFFE03460028AED137
:1033D000002FB0D1189330460027002606AA14A962
:1033E000CDF86890CDE91F33EB2314934FF440637D
:1033F0001B934FF4005317934FF440431C93A023A7
:103400001693062319934FF0805321934FF0407386
:10341000CDE906671D9305F037FD034600288AD0E5
:10342000434684F85C8086E701230322184684F82B
:103430005C2023B0BDE8F083000000000100000024
:10344000100000000100000000000000000040002B
:1034500018150024005000522DE9F04F8FB0414B59
:103460000024026800AF9A427C63C7E90944C7E9B7
:103470000B4403D03C37BD46BDE8F08F3A4B40F6D5
:1034800009213A48EB46D3F8D42007F11C0607F18E
:10349000220A4FF0020942F480424FF00308C3F8B9
:1034A000D420D3F8D42002F48042BA60BA68D3F8AA
:1034B000E02042F04002C3F8E020D3F8E02002F020
:1034C0004002FA60FA68D3F8E02042F02002C3F824
:1034D000E020D3F8E02002F020023A613A69D3F804
:1034E000E02042F01002C3F8E020D3F8E02002F020
:1034F00010027A617A69D3F8E02042F00202C3F840
:10350000E020D3F8E030F86103F002033984BB61B6
:10351000174B7B60BB697B6853F8040F7B6001F03D
:10352000F9FA7B680546186801F0FCFA16F8013BC9
:10353000786207F124012846C7F830807B63C7E929
:103540000A9403F08FFA5645E5D100225C2011461B
:1035500002F00CFA5C2002F047FA3C37DD46BD462B
:10356000BDE8F08F00500052004402580A0A0909D1
:1035700074150024114B02689A4200D07047104A1B
:1035800070B5D2F8D4300F4C23F4804304F1180600
:10359000C2F8D43054F8040F01F0BCFA0546206894
:1035A00001F0C0FA0146284603F09CFBB442F1D179
:1035B0005C20BDE8704002F025BA00BF0050005208
:1035C0000044025874150024014805F0E9BC00BF0E
:1035D00028150024084B1A1D981D03F1080110B48A
:1035E0009C1C9A6603F10A02C3E91834C3E91B0163
:1035F0005DF8044B5A6770471815002438B5036806
:1036000071B9026A00F1280500F5AC74012A0CBFFB
:10361000002140218BBB1D4B5722C0F858310DE0D3
:10362000426A00F1C00500F5E874012A0CBF0021D0
:103630004021EBB1164B5A22C0F8D031002320466E
:10364000C4E901214FF480524FF4806163626261EA
:103650004FF48042C4E903314FF48073C4E9062378
:103660004FF40033236202F033FB58B1FFBEFEE794
:10367000084B5822C0F8D031E0E7074B5922C0F878
:103680005831DBE7C5E92044A56338BD100002408E
:103690007000024028000240580002402DE9F0432B
:1036A000821D05468BB0031D05F10A010830CDE9E6
:1036B000052305F10C02AB69CDE907010992002B46
:1036C0003DD0EB69B3FA83F84FEA58180123022280
:1036D00005AE0AAF4FF006090393CDE9012356F872
:1036E000044B2B792278934216D02B68F3B1012B2F
:1036F00002D1F2B10A230493204601F013FA0346E3
:103700002046009301F006FA694603F0ABF9BE4289
:10371000E5D10BB0BDE8F083697963789942E4D1D3
:10372000B8F1000FF3D02B68002BE0D1CDF810904A
:10373000E2E76378022B14BF0A230823DBE74FF08C
:103740000108C3E7534A0368934230B505468BB07E
:1037500055D02032934252D04F4A934204D0203267
:10376000934201D00BB030BD4C4C4D48D4F8E03002
:1037700043F00103C4F8E030D4F8E03003F0010373
:103780000593059BD4F8E03043F00803C4F8E0301B
:10379000D4F8E03003F008030693069BD4F8E03039
:1037A00043F04003C4F8E030D4F8E03003F04003C5
:1037B0000793079BD4F8F03043F40003C4F8F030CB
:1037C000D4F8F03003F400030893089BFFF766FF7A
:1037D000D4F8D830296843F001032F4A3048C4F8A0
:1037E000D830891AD4F8D83018BF012103F001036A
:1037F0000993099B0BB0BDE83040FFF7FFBE274C93
:103800002848D4F8E03043F00103C4F8E030D4F89D
:10381000E03003F001030093009BD4F8E03043F064
:103820001003C4F8E030D4F8E03003F01003019343
:10383000019BD4F8E03043F04003C4F8E030D4F802
:10384000E03003F040030293029BD4F8F03043F4DD
:103850008003C4F8F030D4F8F03003F4800303930D
:10386000039BFFF71BFFD4F8D830296843F001030E
:10387000084A0C48C4F8D830891AD4F8D83018BF90
:10388000012103F001030493049B0BB0BDE8304019
:10389000FFF7B4BE04580140045C014000440258E4
:1038A000EC17002490150024014802F089BD00BFE8
:1038B000E8160024014802F083BD00BF6017002411
:1038C000014802F07DBD00BF44190024014802F008
:1038D00077BD00BFBC1900241A4A0368934210B494
:1038E0000BD02032934208D0174A934216D0203290
:1038F000934213D05DF8044B7047144B0022D3F869
:103900005442C3F85822002CF4D0D3F84802D3E92B
:10391000931223465DF8044B520818470B4B0022C4
:10392000D3F8B044C3F8B424002CE3D0D3F8AC24CB
:10393000D3F8A814D3F8A404520823465DF8044B26
:10394000184700BF04580140045C01409015002452
:10395000184A0368934210B40BD02032934208D027
:10396000154A934217D02032934214D05DF8044B8D
:103970007047124BD3E994245208C3F85822002C04
:10398000F4D0D3E99201234601EB820100EB8200DF
:103990005DF8044B1847094BD3F8AC24D3F8B04476
:1039A0005208C3F8B424002CE0D0D3F8A814D3F8FC
:1039B000A404E8E704580140045C01409015002489
:1039C0002DE9F04F0C684FF41776754F87B004FB64
:1039D00006F6012C07EB060AC0F800A000F3A08051
:1039E0000D468E464FF00008D44669A3D3E9002364
:1039F00069A1D1E90001CDE9022306ABCAF85082E2
:103A000003EB8403CDE9040153F810BC53F8083CE0
:103A1000CAE992880193BEE80F00ACE80F00BEE847
:103A20000F00ACE80F00019B9EE80300CAF828B025
:103A3000CAF8C0308CE803002B69042B0CD8DFE8EF
:103A400003F0737D879103004FF41773554A03FB0E
:103A500004739A64C3F8E020AA692B6A002A43D051
:103A6000002B4FF4177308BF022203FB047318BF27
:103A70000322DA6201221A63EA696B6A002A40D1E2
:103A8000191E4FF4177318BF012103FB0473C3E918
:103A900031126B69022B05D8434A12F80380434A5E
:103AA00052F823904FF4177306F128004246494616
:103AB00003FB04740023384463646363E365C4F860
:103AC000DC30C4F8CC30C4F8F430C4E90F33C4E9B6
:103AD0001533C4E93533C4E93B33022307F002FB55
:103AE000002849D0FFBEFEE7191E4FF4177318BF18
:103AF000012103FB0473C3E90B12EA696B6A002A14
:103B0000BED0002B4FF4177308BF022203FB0473CF
:103B100018BF0322C3F8C4200122C3F8C820B8E7A5
:103B2000012007B0BDE8F08F4FF417734FF4FA523D
:103B300003FB04739A64C3F8E0208DE74FF4177316
:103B40004FF47A5203FB04739A64C3F8E02083E7CE
:103B50004FF417734FF4FA4203FB04739A64C3F8EB
:103B6000E02079E74FF417734BF6803203FB0473C0
:103B70009A64C3F8E0206FE706F1C00002234246D2
:103B80004946384407F0AEFA0028CAD0FFBEFEE727
:103B900004580140045C014024580140245C014069
:103BA0009015002400770100404E0108444E0108A2
:103BB0000068704770B5046882B015460E46C4F8B8
:103BC0005032C4E99212069AC4F85422A269012A1A
:103BD00026D0626A012A9AB211D0294604F1C000A7
:103BE000019207F03BFB236A019A012B10D0294672
:103BF00004F1280007F032FB002002B070BD04F190
:103C0000C000019207F0BCFB236A019A012BEED1A0
:103C1000314604F1280007F0B3FB002002B070BD6C
:103C2000226A012A9AB211D0294604F12800019291
:103C300007F014FB636A019A012B10D0294604F1A6
:103C4000C00007F00BFB002002B070BD04F128009B
:103C5000019207F095FB636A019A012BEED1314680
:103C600004F1C00007F08CFB002002B070BD00BF63
:103C700003681B69042B05D8044A02EB830393ED08
:103C8000000A70479FED020A704700BF504E0108BE
:103C900000803B470368D3F858027047704700BF65
:103CA00008B501F047F8BDE8084001F027BF00BFA4
:103CB000064808B503680BB103F0E6F8044803684A
:103CC0001BB1BDE8084004F08DB808BD684400246D
:103CD000603E0024064808B503680BB103F0D4F831
:103CE000044803681BB1BDE8084004F07BB808BD78
:103CF00068440024603E0024064808B503680BB100
:103D000003F0C2F8044803681BB1BDE8084004F0A2
:103D100069B808BD68440024603E0024364BDA6A66
:103D2000520062D59A6A9A6A9A6A9B6A180600D506
:103D300000BE314B9B6A990600D500BE2E4B9B6A94
:103D4000DA0600D500BE2C4B9B6A1B0700D500BECF
:103D5000294B9B6A980700D500BE274B9B6AD90761
:103D600000D500BE244B9B6A1A0400D500BE224B2E
:103D70009B6A9B0400D500BE1F4B9B6AD80400D5EC
:103D800000BE1D4B9B6A190500D500BE1A4B9B6AED
:103D90005A0500D500BE184B9B6A9B0500D500BE96
:103DA000154B9B6AD80500D500BE134B9B6A990141
:103DB00000D500BE104B9B6ADA0100D500BE0E4B49
:103DC0009B6A1B0300D500BE0B4B9B6A580300D5B2
:103DD00000BE094B9B6A990300D500BE064B9B6A47
:103DE000DA0306D400BE00BEFEE7DB6A9B07FAD505
:103DF000F8E700BEF6E700BF00ED00E000F0A6BF68
:103E000000F0AABF2DE9F041CEB004464C220021BB
:103E10000AA80EF0A5F82022002102A80EF0A0F8B2
:103E2000BC2200211EA80EF09BF8022004F0D6FC54
:103E30002368012B4FF0000354D0534A022501930D
:103E4000C820D16A514B21F00101D162D26A02F03F
:103E5000010201929A6942F440429A619B6903F41B
:103E600040430193019B494A93699B04FCD548490F
:103E70000224002201268B6A04274FF0080823F051
:103E8000030323438B62052316900AA818934FF46B
:103E900080331096179419941597CDF86880CDE962
:103EA0001B222122CDE91344CDE90A2305F080F934
:103EB00000B1FEE73F220323294602A8CDE90223F1
:103EC00000220823CDE9042340224023CDE9062324
:103ED00040234FF48062CDE9082305F097FC0346A8
:103EE000B8B1FEE7294A04250093F0209169264BDA
:103EF00041F440419161926902F440420092DA6AD1
:103F000042F00102DA62DB6A03F001030093009BD6
:103F1000A9E720224FF4805125934FF440152B92AE
:103F200080222D931EA83093269135914FF48071F5
:103F3000249234920C223394439140F22711209220
:103F40001022CDF884802A971F96CDE92E34CDE932
:103F50003B334FF48033CDE922463193002446931E
:103F60000623CDE93E4527934FF48063094C2C93FB
:103F70001E94CDE9281205F0A5FE00B1FEE704F07D
:103F800053FC4EB0BDE8F0810004005800480258D0
:103F9000004402580F130F032DE9F0410D4604466B
:103FA00084B0D1E9000184E8030000F093FEAE790B
:103FB000002E37D06F460BF073F9FEF7CFFE09F0F5
:103FC00049FE0AF001FF2B79002B54D16B799BB18C
:103FD000BFF34F8FBFF36F8F3C4B0022C3F85022CB
:103FE000BFF34F8FBFF36F8F5A6942F400325A61AB
:103FF000BFF34F8FBFF36F8F4FF0FF3200230024CA
:1040000000253946324802928DF80C30CDE9004542
:104010000AF040FA2E480AF0A5FA09F04BFA04B06B
:10402000BDE8F08120466F46FFF7ECFE012401F069
:1040300013FD4FF040534FF4807838460193254BE1
:10404000ADF80040CDE9023801F024FD19224FF00F
:10405000404338468DF80F40ADF80D808DF8014093
:104060008DF80A608DF80820019301F013FD0420FB
:1040700001F000FD9FE7154C0023C4F88430BFF326
:104080004F8FD4F8803043F6E07EC3F3C906C3F304
:104090004E334FEA431C0CEA0E00334640EA83726B
:1040A000013BC4F860225A1CF8D1ACF1200C1CF181
:1040B000200FF0D1BFF34F8F636943F48033636106
:1040C000BFF34F8FBFF36F8F80E700BF00ED00E0BD
:1040D000481A00240E00010305F0C8BC1C4B9B6865
:1040E00003F17842B2F5003F25D3B3F5803F20D3EA
:1040F00003F16042B2F5003F1FD303F15C42B2F519
:10410000002F1CD303F17042B2F5902F19D303F1A5
:104110004842B2F5803F16D303F18042B2F1806F7E
:1041200013D303F1E043B3F5000F2CBF08200720A1
:10413000704701207047002070470220704703201D
:10414000704704207047052070470620704700BF65
:1041500000ED00E003480023034A044903600DF02A
:10416000A1BE00BF481A0024000000249D3C0008A6
:1041700010B4204C0022204B83B0D4F888101F4884
:1041800041F47001C4F8881019681D4C41F0010118
:1041900019601A61196808401A4918609A61DA6151
:1041A0001A629A62DA621A635A639A63DA631A6469
:1041B0005A64186820F4802018601A66D3F8DC204E
:1041C00042F06042C3F8DC20D3F8DC300193019B5D
:1041D00023681940B1F1005F03D20B4B0122C3F8F1
:1041E0000821044B4FF000629A6003B05DF8044B65
:1041F000704700BF00ED00E0004402587FEDF6EA92
:104200000010005C0000FFFF00800051704700BFFD
:104210000020704770B50446074E0D4630462146D3
:1042200008F05EFC304608F07DFC044B2046294631
:104230001B689847002070BD340A00244C3A0024C3
:1042400070B50446074E0D463046214608F048FC3E
:10425000304608F067FC044B204629461B68984707
:10426000002070BDD00C0024503A002400220949DF
:10427000094808B508F02AFC0849074808F030FC4E
:10428000074B1A680AB1002008BD064A00201A60D0
:1042900008BD00BF4C2A0024340A00244C1A002414
:1042A0004C3A00240D42000800220949094808B58B
:1042B00008F00CFC0849074808F012FC074B1A6884
:1042C0000AB1002008BD064A00201A6008BD00BFE0
:1042D0004C320024D00C00244C220024503A0024FC
:1042E0000D42000820280AD0212806D1094B186861
:1042F0009A889B7908608A808B7100207047054BF3
:104300000868B1F804C08A7918600020A3F804C0D6
:104310009A7170479C00002420280AD0212806D1D9
:10432000094B18689A889B7908608A808B710020F5
:104330007047054B0868B1F804C08A7918600020FE
:10434000A3F804C09A717047A400002400207047AD
:1043500010B5094CD4F89032D3F814320BB10120C7
:1043600010BD0A460146204608F0B0FB2046BDE8D5
:10437000104008F0BDBB00BF340A00244B4A03685C
:1043800030B593428BB04FF00004CDE90444CDE941
:104390000644089404D0464A934249D00BB030BD3D
:1043A000444D4FF4C0524448D5F8E03043F0010387
:1043B000C5F8E030D5F8E03003F0010300930223A4
:1043C000009904A9CDE904230A23089302F04AFBCB
:1043D0004FF40072002304A937480694CDE9042362
:1043E00002F040FBD5F8D8302246214643F0006366
:1043F0006220C5F8D830D5F8D83003F000630193B7
:10440000019B01F0B3FA622001F0EEFA2246214648
:10441000632001F0ABFA632001F0E6FA2246214660
:10442000652001F0A3FA652001F0DEFA0BB030BD83
:10443000204D4FF4404204A9D5F8E03043F0020388
:10444000C5F8E030D5F8E03003F002030293022310
:1044500002981A48CDE904230C23089302F002FBCA
:10446000D5F8D830224621464A2043F00073C5F8DB
:10447000D830D5F8D83003F000730393039B01F0D4
:1044800075FA4A2001F0B0FA224621464B2001F08D
:104490006DFA4B2001F0A8FA224621464D2001F08A
:1044A00065FA4D2001F0A0FA0BB030BD00000840C5
:1044B0000000044000440258000002580004025862
:1044C00000F57171D0F8040408F098BBC1EBC1038A
:1044D00000EB8303D0F80404D3F8082208F0BCBB37
:1044E000C1EBC10300EB8303D0F804049A6C08F01D
:1044F000F1BB00BFD0F8040408F090BCC16810B54F
:10450000044619B1022900D0FEE70121D4F80404C1
:1045100008F06EFCD4F80404BDE8104008F040BC7C
:1045200010B50446D0F8040408F066FC2268D2F8FE
:10453000003E43F00103C2F8003E236A23B1034A60
:10454000136943F00603136110BD00BF00ED00E0E6
:10455000D0F8040408F05ABCD0F8040408F06EBC8B
:10456000D0F8040408F068BCD0F8040408F068BC73
:10457000D0F8040408F066BC70B5067804461EB195
:10458000012E30D0002070BD304D0923304AC5F8CF
:104590000404C0F8985228462E612E63C5E9002312
:1045A00002230222EB600023C5E906230022002338
:1045B000C5E9082301220123C5E90A2303F05AFBB8
:1045C00000B1FEE78021284604F0E8F83146402299
:1045D000284604F0B9F880220121284604F0B4F8F6
:1045E0002678012ECED11B4D09221B4B00216A607B
:1045F00002222B600223C5F804442846EB60002306
:10460000C4F898522961C5E9062300220023C5E9B0
:104610000823C5E90C2301220023C5E90A2303F07E
:1046200029FB044600B1FEE74FF40071284604F070
:10463000B5F821468022284604F086F84FF4BA7275
:104640003146284604F080F89CE700BF583A002421
:1046500000000840603E002400000440D0F89802AA
:1046600008B503F09DFB032802D8024B185C08BD77
:10467000022008BD744E01089446D0F898021A46EC
:1046800008B5634603F012FF032802D8024B185CFA
:1046900008BD022008BD00BF744E0108D0F8980282
:1046A00008B503F041FF032802D8024B185C08BD8F
:1046B000022008BD744E0108D0F8980208B503F036
:1046C000C3FF032802D8024B185C08BD022008BDB6
:1046D000744E0108D0F8980208B503F0F9FF0328DA
:1046E00002D8024B185C08BD022008BD744E0108B8
:1046F0000A06D0F8983206D4C1EBC10103EB810160
:1047000091F8FE01704701F07F01C1EBC10103EB9D
:10471000810191F83E007047D0F8980208B503F087
:10472000AFFE032802D8024B185C08BD022008BD6A
:10473000744E0108D0F8980208B503F05DFF032815
:1047400002D8024B185C08BD022008BD744E010857
:10475000D0F8980208B503F01DFF032802D8024BD9
:10476000185C08BD022008BD744E0108D0F89802FC
:1047700003F038BF122301480B807047F800002473
:10478000122301480B807047E400002404230148F1
:104790000B8070470C01002410B5044C0A460448F5
:1047A000214608F0CFFD204610BD00BF684200241E
:1047B000784E010810B5044C0A460448214608F01A
:1047C000C1FD204610BD00BF68420024884E01088C
:1047D00010B5044C0A460448214608F0B3FD2046B3
:1047E00010BD00BF684200249C4E010810B5044C67
:1047F0000A460448214608F0A5FD204610BD00BF2A
:1048000068420024A84E010810B5044C0A4604482A
:10481000214608F097FD204610BD00BF68420024E5
:10482000B84E0108042301480B8070470C01002496
:1048300010B5044C0A460448214608F083FD204682
:1048400010BD00BF68420024784E0108464A4FF070
:104850001A0CD2F80008D2F80838A1F800C0C31822
:1048600001D142487047180FB3F1204FD2F8041815
:104870004FF0000C3D4A2CBF3730303082F803C077
:104880004FF0000C9070C3F3036082F805C04FF046
:10489000000C092882F807C04FF0000C8CBF37309D
:1048A000303082F809C04FF0000C1071C3F3035090
:1048B00082F80BC04FF0000C092882F80DC08CBFA5
:1048C000373030309071C3F3034009288CBF373044
:1048D00030301072C3F3033009288CBF37303030CA
:1048E0009072C3F3032009288CBF37303030107327
:1048F000C3F3031003F00F0309288CBF37303030A7
:10490000092B90734FF0000094BF30333733B1F16F
:10491000204FD07313744FEA11734FF000002CBF77
:1049200037333033507400209374C1F30363D07471
:104930000020092B50754FF000008CBF3733303307
:10494000D0751375C1F303530848092B8CBF373357
:1049500030339375C1F30343092B94BF303337339E
:10496000137600235376704700E0F11F10010024F6
:10497000464A4FF01A0CD2F80008D2F80838A1F8CD
:1049800000C0C31801D142487047180FB3F1204F3F
:10499000D2F804184FF0000C3D4A2CBF37303030AD
:1049A00082F803C04FF0000C9070C3F3036082F8EC
:1049B00005C04FF0000C092882F807C04FF0000C2A
:1049C0008CBF3730303082F809C04FF0000C1071C6
:1049D000C3F3035082F80BC04FF0000C092882F893
:1049E0000DC08CBF373030309071C3F303400928BD
:1049F0008CBF373030301072C3F3033009288CBFBE
:104A0000373030309072C3F3032009288CBF373021
:104A100030301073C3F3031003F00F0309288CBF69
:104A200037303030092B90734FF0000094BF303393
:104A30003733B1F1204FD07313744FEA11734FF035
:104A400000002CBF37333033507400209374C1F30F
:104A50000363D0740020092B50754FF000008CBF09
:104A600037333033D0751375C1F303530848092B1E
:104A70008CBF373330339375C1F30343092B94BF95
:104A800030333733137600235376704700E0F11F3D
:104A90001001002410B5044C0A460448214608F0D1
:104AA00051FC204610BD00BF68420024A84E0108FA
:104AB00010B5044C0A460448214608F043FC204641
:104AC00010BD00BF684200249C4E0108D0F8C0020F
:104AD00008F0AABCD0F8C00208F0BEBCD0F8C002F2
:104AE00008F0C6BC704700BFD0F8C00208F0ACBCEC
:104AF000D0F8C00208F0ACBCD0F8D00308B502F082
:104B000083FD032802D8024B185C08BD022008BDB3
:104B1000CC4E0108024B027853F82200704700BFC8
:104B2000F04E0108024B427833F81200704700BF84
:104B3000D04E01088CB00A2814D8DFE800F0152305
:104B4000313F4D5B6977859306004D4BD3F8E020EC
:104B500042F48062C3F8E020D3F8E03003F48063CD
:104B60000B930B9B0CB07047454BD3F8E02042F001
:104B70000102C3F8E020D3F8E03003F00103019311
:104B8000019BEFE73E4BD3F8E02042F00202C3F86E
:104B9000E020D3F8E03003F002030293029BE1E748
:104BA000374BD3F8E02042F00402C3F8E020D3F8FA
:104BB000E03003F004030393039BD3E7304BD3F8B7
:104BC000E02042F00802C3F8E020D3F8E03003F020
:104BD00008030493049BC5E7294BD3F8E02042F077
:104BE0001002C3F8E020D3F8E03003F0100305937F
:104BF000059BB7E7224BD3F8E02042F02002C3F830
:104C0000E020D3F8E03003F020030693069BA9E7E9
:104C10001B4BD3F8E02042F04002C3F8E020D3F869
:104C2000E03003F040030793079B9BE7144BD3F856
:104C3000E02042F08002C3F8E020D3F8E03003F037
:104C400080030893089B8DE70D4BD3F8E02042F4D6
:104C50008072C3F8E020D3F8E03003F48073099346
:104C6000099B7FE7064BD3F8E02042F40072C3F8BB
:104C7000E020D3F8E03003F400730A930A9B71E755
:104C800000440258704700BF0F4B1B780BB901203E
:104C9000704710B504464FF47A700C4AB0FBF3F33A
:104CA0001068B0FBF3F000F0C1FE0F2C00D808B183
:104CB000012010BD002221464FF0FF3000F056FECB
:104CC000034B00201C6010BD2A0100247400002446
:104CD0002C01002438B50320124D00F035FE124C93
:104CE00004F0F4FC114A12499369C3F30323CB5C2B
:104CF00003F01F0320FA03F30E202B60926902F0E9
:104D00000F028A5C02F01F02D3402360FFF7BCFF52
:104D100010B10124204638BD0446FFF7B3FF2046FA
:104D200038BD00BF740000247800002400440258FD
:104D3000644E0108034A044B11681B780B4413604E
:104D4000704700BF2C4700242A010024014B18683B
:104D5000704700BF2C47002438B50446FFF7F6FF24
:104D60000546631C02D0044B1B781C44FFF7EEFF82
:104D7000431BA342FAD338BD2A010024014B186813
:104D8000000C70470010005C704700BF806B08B5D6
:104D9000FFF7FAFF08BD00BF836B5A6D12F0500F8A
:104DA0005A6D10B51DD1196842F400725A650A682F
:104DB00012F0080FCA681BD012F4406F0DD1CA68F8
:104DC00094040AD45A6D22F480725A655A6DD10443
:104DD00003D45A6D42F001025A651846FDF716FDDC
:104DE00010BDD2060AD4DB6CBDE81040DB6C18475E
:104DF0009007E7D01846FDF709FDF1E71846FDF7E3
:104E0000A9FD10BD806B08B5436D43F040034365B9
:104E1000836D43F004038365FDF79CFD08BD00BF6F
:104E2000F0B5002283B0019290F85020012A00F0E2
:104E30001C81034601201A6883F8500094686407B7
:104E400000F18A800C68C4F31305002D40F08F80B8
:104E5000C4F38464A0404D684FF01F0ED6694FEA3A
:104E6000951C30430CF00C0CD06105F01F0002F1D2
:104E7000300584400EFA00FE5CF8050020EA0E00C2
:104E800004434CF80540906840076ED4956815F0CF
:104E9000080547D10C68072002F11406B94F4FEA04
:104EA000D45CC4F304540CF0040C00FA04FE8868CB
:104EB00000FA04F45CF8060020EA0E0020434CF8E7
:104EC0000600386800F07040B0F1805F00F0C580E7
:104ED000D068D668C70600F1E880C6F38206486944
:104EE000760000FA06F60F69042F00F0C18002F187
:104EF0006004086854F827C000F0F8400CF0004C3B
:104F000040EA0C00304344F82700487E0E6901282F
:104F100054F8260008BF4FF0004520F0004005433C
:104F200044F826509068C40714D4CE68086806F088
:104F30001807954CD2F8C050FC40C0F3130704404A
:104F400025EA07052C43C2F8C040904CA64246D043
:104F5000002816DB002003E05A6D42F020025A655B
:104F6000002283F8502003B0F0BD9068DAE794FA8D
:104F7000A4F5B5FA85F5C4F3846405F01F05A840CF
:104F800069E783498A4200F0B68001F580718A4260
:104F900000F0B1807F4D804CA968A46801F0E076F4
:104FA000E44304F00104002C00F0B4807B4CA042E8
:104FB00000F0FC807A4CA04200F01A81794CA042AB
:104FC000C8D14902C6D474498A42C3D1AA68002014
:104FD00022F0E072324342F48002AA60C0E7002F60
:104FE0006AD090FAA0F4B4FA84F4013404F01F04F7
:104FF000092C00F2A48090FAA0F4B4FA84F490FA98
:10500000A0F5B5FA85F5013401260135A40605F0B1
:105010001F0504F0F84406FA05F52C4390FAA0F0B9
:10502000B0FA80F0304400F01F0000EB40000005B3
:105030002043C60D02F11405C0F30450072406F006
:10504000040604FA00F7745924EA07048F6807FA83
:1050500000F02043705108687AE7D6684869C6F3C3
:105060008206760000FA06F63DE7022003B0F0BDA6
:10507000106E0C6800F0F840A506B0EB846F30D0DD
:10508000506E00F0F840854226D0906E00F0F84057
:1050900085422BD0D06E00F0F84085427FF442AFBD
:1050A000D06E20F00040D0663CE77608486906F0F4
:1050B000080600FA06F616E7800E441C04F01F06E8
:1050C000092E2DD8A406012004F0F844B040044372
:1050D00006EB46000005ABE7506E20F0004050663E
:1050E000D3E7106E20F000401066C9E7906E20F004
:1050F00000409066CEE7264C2B4D04F58074A968DD
:1051000054F8F86CA468344301F0E076E44304F00A
:10511000010448E75A6D012042F020025A651FE75A
:1051200006EB4600A50601241E3805F0F84504FAF2
:1051300006F60005354340F00070284379E790FA01
:10514000A0F5B5FA85F590FAA0F4B4FA84F4013527
:1051500001260134AD0604F01F0405F0F84506FAF7
:1051600004F4254390FAA0F4B4FA84F4344404F02F
:105170001F0404EB4404A4F11E00000540F000707D
:10518000DBE700BF0010005CFFFF0F000000FF47DF
:10519000002002400063025800600258000084CBE7
:1051A000000052C70000B8CF0023024008023FF5BC
:1051B000D1AE17498A427FF4CDAE164AA96812686B
:1051C000154821F0E07192093143A0FB020241F43D
:1051D00000019209A96052000192019A002A3FF44D
:1051E000B9AE019A013A0192019A002AF9D1B1E6C9
:1051F00011F080707FF4AEAE05498A427FF4AAAE0A
:10520000AA6822F0E072324342F08072AA60A7E6F8
:105210000060025874000024632D3E0503689A68FC
:10522000D20701D5002070479968214A114270B514
:10523000044608D0636D012043F010036365A36D3D
:105240000343A36570BD99681A4A0A4042F00102FF
:105250009A60FFF77BFD2368174A054693421ED0EC
:1052600002F5807293421AD0144A9268114E0AE0F5
:105270009A68324042F001029A60FFF767FD401BD6
:105280000228D7D823681A68D2070FD49A68D107A2
:10529000EED5FFF75BFD401B0228F3D9CAE7084AA9
:1052A0009268D006E2D0074A9342DFD1002070BD59
:1052B0003F000080C0FFFF7F0020024000630258D3
:1052C00000230240002102402DE9F0413A4D0446FE
:1052D00000680F461646A84219D0384B984216D09F
:1052E000374DAB688068420716D494F85020012AE5
:1052F00012D003F01F080122B8F1090F84F85020E2
:105300000DD90023012084F85030BDE8F0812D4DE7
:10531000AB6880684207E8D50220BDE8F08140F222
:10532000212323FA08F3DB4313EA0205E9D12046DF
:10533000FFF774FF002839D1626D234B21681340B9
:1053400043F480736365B8F1000F02D01B4B9942A0
:1053500003D0636D23F480136365636D13F480538E
:1053600028D0A36D23F00603A365E06C3346174DE8
:105370003A464031C563164D0564164DC5641C257B
:1053800041F8405C002584F8505051F83C5C45F0F1
:10539000100541F83C5C00F059FE22680E4B916804
:1053A0000B4043F004039360BDE8F08184F8505053
:1053B000BDE8F081A365D8E700200240002102404B
:1053C0000063025800230240FEF0FFFF994D0008E1
:1053D0008D4D0008054E0008C0FFFF7F38B50368FB
:1053E0009A68910702D59B68002038BD9A68D20759
:1053F00023D59A68044602F00D02012A08D0636D95
:10540000012043F010036365A36D0343A36538BD1A
:10541000986803210A4A024042F002029A60196029
:10542000FFF794FC054604E0FFF790FC401B0228C0
:10543000E5D823689B68DB07F6D4002038BD00BFA1
:10544000C0FFFF7F38B5574A04460368934226D011
:1054500002F58072934222D0534B9B6813F4403F75
:1054600022D004F0EDFA63680546B3F5003F00F082
:105470008880B3F5403F70D0B3F5803F00F0818065
:10548000FFF77CFC41F2030398422DD8474B9D4225
:105490005DD92268936843F48073936038BD444BB0
:1054A0009B6813F4403FDCD14FF4002005F094FBDF
:1054B00063680546B3F5101F6DD008D8B3F5E01F3B
:1054C00055D01AD9B3F5001FDAD14509D8E7B3F59D
:1054D000201F4AD0B3F5301FD2D1FFF74FFC41F265
:1054E0000303984233D92D0A324B9D421DD82268BE
:1054F000936823F44073936038BDB3F5801F06D0E2
:105500000AD9B3F5A01F02D0B3F5C01FB8D19B0CC8
:105510005B00B5FBF3F5B3E7B3F5002FF7D023F449
:105520000022B2F5802FF2D0AAE7234B234A2B4466
:1055300093421ED9224B234A2B44934222689368FC
:105540002BD823F4407343F40073936038BD226872
:10555000936823F48073936038BD8508FFF70EFCD1
:1055600041F203039842BFD890E7C50988E70509CF
:1055700086E72268936823F4407343F48073936052
:1055800038BD1B0CB5FBF3F5FFF7F8FB41F2030345
:105590009842A9D87AE7850972E743F4407393608B
:1055A00038BD00BF0020024000630258002D3101C9
:1055B00000230240105E5F00EFA1A0FF0F5E5F00BE
:1055C000DF4341FF1FBCBE0030B5002383B0019311
:1055D000002800F0D080456D0446002D00F0BA8010
:1055E000226893689B0003D59168714B0B409360D0
:1055F0009368DD0015D46F4B90686F491B680140BC
:105600006E489B0941F08051A0FB030391609B0908
:105610000193019B2BB1019B013B0193019B002B4B
:10562000F9D19368D80024D4636D012543F01003A9
:105630006365A36D2B43A365936813F0040F636D3B
:105640001DD1D9061BD4636D23F4817343F002038B
:1056500063659368DB0728D4594B9A4217D003F54A
:1056600080739A4213D0574B9B68D9071DD4564A72
:1056700015E09368002513F0040F636DE1D0636DAE
:10568000012543F010032846636503B030BD4C4A42
:105690004E4B92689B681343D80706D44C4A9368D4
:1056A000616823F47C130B439360FFF767FB41F2BF
:1056B0000303A1689842237F52D894F815C01A04B6
:1056C000206B42EA4C3202430A43012B03D1236A86
:1056D000013B42EA4342636A23B103F47873A16A4F
:1056E0000B431A4323683B49D86801400A43DA60F8
:1056F0009A6812F0040F9A681CD112071AD4D8685D
:10570000354A217D024042EA8132E16A0A43DA6089
:1057100094F83820012A3AD01A6922F001021A615D
:105720001A692046616B22F070420A431A61FFF742
:1057300089FE2368E268012A21D01A6B22F00F0249
:105740001A63636D284623F0030343F00103636586
:1057500003B030BDFDF708F8A56584F850503FE769
:105760001029AAD1617D1A0442EA4132216B0A4311
:1057700042F01C02A9E70125284603B030BD196B91
:10578000A26921F00F01013A0A431A63D9E7D4E96B
:10579000102118690A43114901400A43A16C0A43C8
:1057A000E16B42EA014242F001021A61B8E700BF30
:1057B000C0FFFF5F74000024C0FFFF6F632D3E0534
:1057C000002002400060025800630258002102409D
:1057D0000023024003C0F0FFFCBFFFFF1EF800FCE7
:1057E000F0B5002383B0019390F85030012B40D0E6
:1057F000012304460E46154680F85030FFF7EEFDB3
:10580000E8B9676D05F080421B4B06F480311B4DF3
:105810003B401B4F43F00203636523689E6835409D
:1058200015430D4345F000459D609A68002A0FDB43
:10583000636D23F0030343F00103636503E0636DCD
:1058400043F010036365002384F8503003B0F0BDCB
:10585000019A01320192019ABA42E6D9636D00229F
:10586000012023F0120384F8502043F010036365F5
:10587000ECE7022003B0F0BDFDEEFFFFC0FFFE3FEE
:10588000FF955A55F0B490F850200E68012A49D07F
:105890000346294A01201C6883F85000944208D02E
:1058A0005A6D002142F0200283F850105A65F0BC76
:1058B0007047224DAA6852070AD5A2685A6D012086
:1058C00042F020025A65002283F85020F0BC704755
:1058D000A06810F00400F1D1C6B1DFF868C04F68CD
:1058E000DCF8082022F440423A43CCF80820A468AF
:1058F000AA682243D40713D48A68DCF80810164338
:105900000F4A0A401643CCF80860DCE70D498A6864
:1059100022F440428A60A068AA680243D00704D5F6
:105920000020D0E70220F0BC70478C683046044A63
:1059300022408A60C7E700BF0020024000210240E9
:10594000E0F0FFFF0023024006494FF6FF0C000283
:10595000054BCA6800F4E06002EA0C0210430343FE
:10596000CB60704700ED00E00000FA051B4BDB68E0
:10597000C3F3022300B5C3F1070E03F1040CBEF11B
:10598000040F28BF4FF0040EBCF1060F1AD9033BD9
:105990004FF0FF3C0CFA03FC22EA0C024FF0FF3CF4
:1059A00000280CFA0EFC21EA0C0101FA03F141EA8D
:1059B00002010ADB09010A4BC9B2034483F8001350
:1059C0005DF804FB00221346E8E700F00F00090130
:1059D000044BC9B2034419765DF804FB00ED00E006
:1059E00000E100E0FCEC00E0002807DB00F01F0114
:1059F00001234009024A8B4042F82030704700BF23
:105A000000E100E000280DDB4309012200F01F0047
:105A10000549203302FA00F041F82300BFF34F8F0D
:105A2000BFF36F8F704700BF00E100E0431EB3F18A
:105A3000807F0CD24FF0E022002006494FF0F00C9E
:105A40005361072381F823C09061136170470120DF
:105A5000704700BF00ED00E0BFF35F8F044B0021F3
:105A60005A6A22F480325A62C3F89410704700BF19
:105A700000ED00E0064B40F00100C3F894005A6AC4
:105A800042F480325A62BFF34F8FBFF36F8F70477B
:105A900000ED00E0174A4378C2F89830017821B34E
:105AA000436800B5C2F89C30C37A90F80CC01B065E
:105AB00090F80FE043EA0C7390F80AC00B43817B27
:105AC00043EACC4390F80DC043EA8C4390F809C0F8
:105AD00043EA4143017A43EA0E4343EA0C2343EA93
