:020000040800F2
:1000000000000220110A00080D0A000835530008FC
:100010000D0A00080D0A00080D0A00080000000083
:100020000000000000000000000000000D0A0008B1
:100030000D0A0008000000000D0A0008B95200086F
:100040000D0A00080D0A00080D0A00080D0A000834
:100050000D0A00080D0A00080D0A00080D0A000824
:100060000D0A00080D0A00080D0A0008C14E00081C
:10007000CD4E0008193E0008D94E0008E54E000894
:10008000A9060108ED4300080D0A00080D0A000842
:100090000D0A00080D0A00080D0A00080D0A0008E4
:1000A0000D0A00080D0A00080D0A00080D0A0008D4
:1000B0007DFA000889FA000895FA00082144000832
:1000C0000D0A00082D4400080D0A0008EDF2000892
:1000D000F9F20008DD0401080D05010841050108D9
:1000E0000D0A00080D0A0008000000000D0A0008B3
:1000F0000D0A00080D0A00080D0A00080D0A000884
:100100000D0A00080D0A0008A1FA000805F300080E
:1001100075050108A90501080D0A00080D0A000867
:100120000D0A00080D0A000829F300085DF3000815
:10013000DD0601080D0A00080D0A00080D0A000876
:1001400000000000000000000000000000000000AF
:100150000D0A00080D0A00080D0A0008DD05010857
:10016000394400080D0A0008C9520008ED52000881
:100170000D0A0008115300080D0A00080D0A0008B6
:100180000D0A00080D0A00081106010841060108C1
:1001900011F300081DF300080D0A00080D0A0008FD
:1001A0000D0A00080D0A00080D0A00080D0A0008D3
:1001B000E14B00080D0A00080D0A00080D0A0008AE
:1001C0000D0A00080D0A00082D3900083939000809
:1001D0000D0A0008453900080D0A00080D0A00083C
:1001E0000D0A00080D0A00080D0A00080D0A000893
:1001F0000D0A00080D0A00080D0A00080D0A000883
:100200000D0A00080D0A00080D0A00080D0A000872
:100210000D0A00080D0A00080D0A00080D0A000862
:100220000D0A00080D0A00080D0A00080000000071
:100230000D0A00080D0A0008000000000D0A000861
:100240000D0A00080D0A00080D0A00080D0A000832
:100250000D0A00080D0A00080D0A00080D0A000822
:100260000D0A00080D0A00080D0A00080D0A000812
:100270000D0A00080D0A00087506010800000000BC
:100280000D0A00080D0A00080D0A00080000000011
:08029000000000000D0A000847
:1002A00010B5054C237833B9044B13B10448AFF3B0
:1002B00000800123237010BDA80700240000000067
:1002C000CC70010808B5034B1BB103490348AFF3D9
:1002D000008008BD00000000AC070024CC700108BD
:1002E000034613F8012B002AFBD1181A0138704776
:1002F00001F0FF01102A2BDB10F0070F08D010F8D7
:10030000013B013A8B422DD010F0070F42B3F6D1DA
:10031000F0B441EA012141EA014122F007047FF0F3
:1003200000070023F0E80256083C85EA010586EA4A
:10033000010685FA47F5A3FA87F586FA47F6A5FA86
:1003400087F68EB9EED1F0BC01F0FF0102F0070292
:1003500032B110F8013B013A83EA010313B1F8D13D
:100360000020704701387047002D06BF354603381E
:10037000073815F0010F07D1013015F4807F02BF57
:10038000013015F4C03F0130F0BC0138704700BFA8
:1003900081F0004102E000BF83F0004330B54FEA36
:1003A00041044FEA430594EA050F08BF90EA020FA3
:1003B0001FBF54EA000C55EA020C7FEA645C7FEA36
:1003C000655C00F0E2804FEA5454D4EB5555B8BF59
:1003D0006D420CDD2C4480EA020281EA030382EACA
:1003E000000083EA010180EA020281EA0303362D5C
:1003F00088BF30BD11F0004F4FEA01314FF4801C2F
:100400004CEA113102D0404261EB410113F0004F40
:100410004FEA03334CEA133302D0524263EB4303F7
:1004200094EA050F00F0A780A4F10104D5F1200E95
:100430000DDB02FA0EFC22FA05F2801841F10001F0
:1004400003FA0EF2801843FA05F359410EE0A5F1C4
:1004500020050EF1200E012A03FA0EFC28BF4CF0F5
:10046000020C43FA05F3C01851EBE37101F00045AB
:1004700007D54FF0000EDCF1000C7EEB00006EEBB8
:100480000101B1F5801F1BD3B1F5001F0CD3490842
:100490005FEA30004FEA3C0C04F101044FEA445299
:1004A00012F5800F80F09A80BCF1004F08BF5FEA20
:1004B000500C50F1000041EB045141EA050130BD00
:1004C0005FEA4C0C404141EB0101013C28BFB1F512
:1004D000801FE9D291F0000F04BF01460020B1FA5D
:1004E00081F308BF2033A3F10B03B3F120020CDA30
:1004F0000C3208DD02F1140CC2F10C0201FA0CF00E
:1005000021FA02F10CE002F11402D8BFC2F1200C72
:1005100001FA02F120FA0CFCDCBF41EA0C01904028
:10052000E41AA2BF01EB0451294330BD6FEA040471
:100530001F3C1CDA0C340EDC04F11404C4F120025C
:1005400020FA04F001FA02F340EA030021FA04F36E
:1005500045EA030130BDC4F10C04C4F1200220FAC5
:1005600002F001FA04F340EA0300294630BD21FA03
:1005700004F0294630BD94F0000F83F4801306BFC9
:1005800081F480110134013D4EE77FEA645C18BFBD
:100590007FEA655C29D094EA050F08BF90EA020F54
:1005A00005D054EA000C04BF1946104630BD91EA4C
:1005B000030F1EBF0021002030BD5FEA545C05D14F
:1005C0004000494128BF41F0004130BD14F580048E
:1005D0003CBF01F5801130BD01F0004545F0FE4102
:1005E00041F470014FF0000030BD7FEA645C1ABF37
:1005F000194610467FEA655C1CBF0B46024650EA6E
:10060000013406BF52EA033591EA030F41F4002199
:1006100030BD00BF90F0000F04BF0021704730B51F
:100620004FF4806404F132044FF000054FF00001F4
:1006300050E700BF90F0000F04BF0021704730B5B5
:100640004FF4806404F1320410F0004548BF40428A
:100650004FF000013EE700BF42004FEAE2014FEADF
:1006600031014FEA02701FBF12F07F4393F07F4FBA
:1006700081F06051704732F07F4208BF704793F0BD
:100680007F4F04BF41F40021704730B54FF46074D0
:1006900001F0004521F000411CE700BF50EA0102D3
:1006A00008BF704730B54FF000050AE050EA01027C
:1006B00008BF704730B511F0004502D5404261EBEC
:1006C00041014FF4806404F132045FEA915C3FF42D
:1006D000D8AE4FF003025FEADC0C18BF03325FEACA
:1006E000DC0C18BF033202EBDC02C2F1200300FA7B
:1006F00003FC20FA02F001FA03FE40EA0E0021FAA0
:1007000002F11444BDE600BF53B94AB9002908BF3D
:1007100000281CBF4FF0FF314FF0FF3000F074B9DC
:10072000ADF1080C6DE904CE00F006F8DDF804E048
:10073000DDE9022304B070472DE9F047089D044627
:100740008E46002B4DD18A42944669D9B2FA82F284
:1007500052B101FA02F3C2F1200120FA01F10CFAC0
:1007600002FC41EA030E94404FEA1C48210CBEFBF8
:10077000F8F61FFA8CF708FB16E341EA034306FB81
:1007800007F199420AD91CEB030306F1FF3080F010
:100790001F81994240F21C81023E63445B1AA4B25D
:1007A000B3FBF8F008FB103344EA034400FB07F7FF
:1007B000A7420AD91CEB040400F1FF3380F00A8140
:1007C000A74240F207816444023840EA0640E41B35
:1007D00000261DB1D4400023C5E900433146BDE8E1
:1007E000F0878B4209D9002D00F0EF800026C5E983
:1007F000000130463146BDE8F087B3FA83F6002E9B
:100800004AD18B4202D3824200F2F980841A61EB12
:10081000030301209E46002DE0D0C5E9004EDDE730
:1008200002B9FFDEB2FA82F2002A40F09280A1EB18
:100830000C014FEA1C471FFA8CFE0126200CB1FB6D
:10084000F7F307FB131140EA01410EFB03F0884266
:1008500008D91CEB010103F1FF3802D2884200F2F3
:10086000CB804346091AA4B2B1FBF7F007FB101185
:1008700044EA01440EFB00FEA64508D91CEB040423
:1008800000F1FF3102D2A64500F2BB800846A4EB7E
:100890000E0440EA03409CE7C6F12007B34022FA69
:1008A00007FC4CEA030C20FA07F401FA06F31C4398
:1008B000F9404FEA1C4900FA06F3B1FBF9F8200CA5
:1008C0001FFA8CFE09FB181140EA014108FB0EF0EB
:1008D000884202FA06F20BD91CEB010108F1FF3A3B
:1008E00080F08880884240F28580A8F10208614447
:1008F000091AA4B2B1FBF9F009FB101144EA014155
:1009000000FB0EFE8E4508D91CEB010100F1FF34FF
:100910006CD28E456AD90238614440EA0840A0FB97
:100920000294A1EB0E01A142C846A64656D353D06D
:100930005DB1B3EB080261EB0E0101FA07F722FA91
:1009400006F3F1401F43C5E9007100263146BDE8BA
:10095000F087C2F12003D8400CFA02FC21FA03F31D
:10096000914001434FEA1C471FFA8CFEB3FBF7F09E
:1009700007FB10360B0C43EA064300FB0EF69E42C3
:1009800004FA02F408D91CEB030300F1FF382FD25C
:100990009E422DD9023863449B1B89B2B3FBF7F604
:1009A00007FB163341EA034106FB0EF38B4208D9DD
:1009B0001CEB010106F1FF3816D28B4214D9023E1E
:1009C0006144C91A46EA004638E72E46284605E73C
:1009D0000646E3E61846F8E64B45A9D2B9EB02080D
:1009E00064EB0C0E0138A3E74646EAE7204694E79D
:1009F0004046D1E7D0467BE7023B614432E73046D0
:100A000009E76444023842E7704700BFFEE700BFD1
:100A10000B480C4A904203D0121A0B4913F05AF8B3
:100A20000A480B4A904203D0121A002113F060F8D2
:100A300004F0AAFE13F01AF800F0B8F9FEE700BFC0
:100A400000000024A407002400710108A807002466
:100A500014720024704700BF704700BF10B5844671
:100A600082B00C46134601920648DCE9001200F001
:100A7000F1FB019B0348D4E9001202B0BDE810402D
:100A800000F0EABBC4070024D0F8143810B50446BF
:100A900023B100F60C01032208469847D4F8D43756
:100AA00023B104F2CC71032208469847D4F8A43746
:100AB00023B104F29C71032208469847D4F8783792
:100AC00023B104F5EE61032208469847D4F848376D
:100AD00023B104F5E861032208469847D4F820378B
:100AE00023B104F5E361032208469847D4F8F036B1
:100AF00023B104F5DD61032208469847D4F8C036D7
:100B000023B104F5D761032208469847D4F89036FC
:100B100023B104F5D161032208469847D4F864361E
:100B200023B104F25C61032208469847D4F84436A6
:100B300023B104F23C61032208469847D4F80C36EE
:100B400023B104F20461032208469847D4F8CC3557
:100B500023B104F2C451032208469847D4F89C35C7
:100B600023B104F29451032208469847D4F8703513
:100B700023B104F5AD61032208469847D4F8403507
:100B800023B104F5A761032208469847D4F8183525
:100B900023B104F5A261032208469847D4F8E8344B
:100BA00023B104F59C61032208469847D4F8B83471
:100BB00023B104F59661032208469847D4F8883497
:100BC00023B104F59061032208469847D4F85C34B9
:100BD00023B104F25441032208469847D4F83C3428
:100BE00023B104F23441032208469847D4F8043470
:100BF00023B104F57F71032208469847D4F8C43323
:100C000023B104F56F71032208469847D4F8943352
:100C100023B104F56371032208469847D4F868337A
:100C200023B104F55871032208469847D4F83833A5
:100C300023B104F54C71032208469847D4F81033C9
:100C400023B104F54271032208469847D4F8E032F4
:100C500023B104F53671032208469847D4F8B03220
:100C600023B104F52A71032208469847D4F880324C
:100C700023B104F51E71032208469847D4F8543274
:100C800023B104F51371032208469847D4F834328F
:100C900023B104F50B71032208469847D4F8FC31C0
:100CA00023B104F5FA71032208469847D4F8BC3101
:100CB00023B104F5DA71032208469847D4F88C3141
:100CC00023B104F5C271032208469847D4F8603175
:100CD00023B104F5AC71032208469847D4F83031AB
:100CE00023B104F59471032208469847D4F80831DB
:100CF00023B104F58071032208469847D4F8D83010
:100D000023B104F1D001032208469847D4F8A83053
:100D100023B104F1A001032208469847A36F23B131
:100D200004F17001032208469847E36C23B104F1F3
:100D30004401032208469847E36A23B104F12401E1
:100D4000032208469847204610BD00BF30B50F4C1F
:100D500085B000210E4D204601F0B8FA204604214E
:100D600001F030FA2046032101F010FA094A0A4B3B
:100D700021460A48CDE90232CDE90005084B094A6F
:100D8000094800F06DF905B030BD00BFF00F002438
:100D900024000024040000242C0000241C00002453
:100DA000140000240C000024C407002400B59DB0EA
:100DB0000024FFF7CBFF3849384801F0E3F902235C
:100DC0008DF8054006A88DF80430019902F0C0FDA9
:100DD00003238DF808400DF129008DF809300299A0
:100DE00002F0B6FD01230DF13A008DF80C308DF8BC
:100DF0000D30039902F0ACFD07238DF810400DF182
:100E00004B008DF81130049902F0A2FD06238DF8F5
:100E1000144017A88DF81530059902F099FD0423A8
:100E2000052206A91E4802F0A1FD1D4802F082FF1E
:100E3000204602F06BFC1B4800F0B8F9012118486D
:100E400002F08EFFB7EEC07A174853EC172B02F072
:100E50004FFC0221124802F083FFB7EEC07A13481C
:100E600053EC172B02F044FC03210D4802F078FFED
:100E7000B7EEC07A0E4853EC172B02F039FC042170
:100E8000074802F06DFFB7EEC07A0A4853EC172B03
:100E900002F02EFCCFE700BF5D0A0008F00F00242F
:100EA00008100024C40700243869010848690108B3
:100EB000586901086869010810B558480024584A63
:100EC000584904604461046212F0F8FA5648574BDE
:100ED00000F29C41C462C4648467C0F8A840C0F8B2
:100EE000D840C0F80841C0F83041C0F86041C0F8AF
:100EF0008C41C0F8BC41C0F8FC41C0F83442C0F895
:100F00005442C0F88042C0F8B042C0F8E042C0F895
:100F10001043C0F83843C0F86843C0F89443C0F8A1
:100F20008C30C0F8BC30C0F8EC30C0F84431C0F8A8
:100F30007031C0F8A031C0F8E031C0F89432C0F888
:100F4000C432C0F8F432C0F84C33C0F87833C0F87B
:100F5000A8330B6000F2CC41C0F8C4430B6000F230
:100F6000FC41C0F804440B6000F25451C0F83C440A
:100F70000B6000F5B061C0F85C440B6000F5B66131
:100F8000C0F888440B6000F5BE61C0F8B8440B603F
:100F900000F2A461C0F8E8440B6000F2D461C0F82C
:100FA00018450B6000F20471C0F840450B6000F278
:100FB0005C71C0F870450B6000F5F161C0F89C45AC
:100FC000C0F8CC45C0F80C46C0F84446C0F86446AA
:100FD000C0F89046C0F8C046C0F8F046C0F82047B8
:100FE000C0F84847C0F8E833C0F878470B6000F510
:100FF000F7610B4A0B6000F5FF61C0F8A447C0F829
:10100000D447C0F814480B60094912F057FA20463B
:10101000034A0849BDE8104012F050BAF00F00240E
:1010200000000024550A0008C40700240AD7233C06
:10103000890A0008590A000803680A68C3F80422EC
:10104000704700BF012A03D0022A04D00020704755
:101050000160002070470B6803600020704700BFEC
:101060002DE9F04105464B481E464B4BC5F8280874
:101070008EB010680F460344C5F820085468474AEC
:101080001B1BC5F82448934277D9454A002112F02A
:101090002FFD434A2046002112F02AFD0F22012392
:1010A000394628468DF809200E228DF80C300AACFE
:1010B0008DF808308DF80D20BDF80830BDF80C20F3
:1010C000ADF80030ADF804203246179B00F02AF945
:1010D0000023344A4FF07E51C5F8DC312046099296
:1010E000C5F8E431304AC5F8E8310023C5F8D871B5
:1010F00004AFC5F8EC1106A9A5F8F0310892022258
:101100000C930695FFF79EFF05F5FA73099ADDF833
:10111000208094E8030087E8030093E8030084E854
:10112000030097E8030083E80300D5F8FC31D5F805
:101130000012C5F8FC810C93C5F800220D912BB16B
:101140000322214620469847DDF8208095F8F031AB
:10115000052B02D0012385F8F231B8F1000F03D03E
:1011600006A903220846C0473368C5F8D031736822
:10117000C5F8D4310EB0BDE8F081094B0246A64651
:1011800003444FF0000C42F804CB93424EF804CBDA
:10119000F7D183E700530700FF4B1D00FE973A008D
:1011A000004C1D00391000084510000810B5044619
:1011B00082B000F08DF994F8F2310BB902B010BD95
:1011C000D4F8D80194F8F011183002F0C9FDD4ED2C
:1011D000777A94ED787A77EE876AB4EEE60AF1EEE4
:1011E00010FA06DC77EEC77AB4EEE70AF1EE10FAF1
:1011F000E4D594F8F13184ED770AEBB1012B18D1E5
:10120000D4ED7A7A20EE000A94ED7B7A37EE677A95
:10121000E0EE077AC4ED797AD4F8FC31CDED017AAD
:10122000ABB1D4F8003201A904F5FA70984702B0C6
:1012300010BDD4ED797AEFE7D4ED7A7A94ED7B7A2C
:1012400037EE677AE0EE077AC4ED797AE4E712F0D8
:101250003AF900BF00F072B92DE9F0411F460E4681
:101260001546D0F82018D0F82428804600F086F9DA
:101270008FB1D8F820482A463146D8F8240804EB24
:10128000870554F8043B41F8043BAC4250F8043B5A
:1012900042F8043BF5D1BDE8F08100BF012A03D03C
:1012A000022A04D0002070470160002070470B68BC
:1012B00003600020704700BF012A03D0022A04D037
:1012C000002070470160002070470B680360002019
:1012D000704700BF03681A7C012A08D012F0FD0F86
:1012E00001D101221A740022C3E9002270470222B0
:1012F0001A740022C3E90022704700BF03681A7CF9
:1013000042B1013A012A01D800221A740022C3E92D
:10131000002270471A680221DA6000221974C3E9BA
:10132000002270472DE9F0478CB01F4600254FF092
:101330000208BDF850300446C5600E46ADF80430D2
:101340000123049091460372584B80F81080079354
:10135000574B9FED580A01990693C0E90055143088
:1013600002F00AFADDF818A00A95BAF1000F00F0B1
:101370008B8008AD424604A92846D047DDE906A285
:1013800095E8030004F124030DF1080888E8030040
:1013900093E8030085E8030098E8030083E803006E
:1013A000E36A216BC4F82CA00A9322630B911BB152
:1013B0000322294628469847069B1BB104A903220D
:1013C00008469847BDF8543004F134009FED390ABF
:1013D000ADF80430384B01990793384B04940693C9
:1013E00002F0CAF90023DDF818A00A93BAF1000F41
:1013F0004DD0022204A92846D047DDE906A295E88F
:10140000030004F1440388E8030093E8030085E83F
:10141000030098E8030083E80300E36C216DC4F83F
:101420004CA00A9322650B911BB103222946284642
:101430009847069B1BB104A9032208469847D9F890
:1014400000001F4B6065E365D9F804501D4B1E4A30
:101450002B44A5651B1A93421BD91C4A002112F08C
:1014600047FB1A4A2846002112F042FB04F58C7013
:1014700031463A4600F006F9314604F160000CB0FE
:10148000BDE8F04700F06ABB0B9A08AD78E70B9A0D
:10149000B5E784460D4B284663444FF0000E4CF8E8
:1014A00004EB9C4540F804EBF7D1DFE7FD120008A0
:1014B0009D12000800007A44D5120008B9120008F5
:1014C00000530700FF4B1D00FE973A00004C1D0023
:1014D00010B50446143002F069F9237E13B1A37FDE
:1014E000802B21D0052003F097FF04F1340002F097
:1014F0005DF994F838301BB194F83E30802B0CD055
:10150000052003F089FF04F1600000F067FC04F59A
:101510008C70BDE8104000F0C9B9E36C5BB1236D7D
:1015200004F144009847EBE7E36A23B1236B04F12D
:1015300024009847D6E711F0C6FF00BFF0B5047C41
:10154000D4B9CBB101EB8304476D0368D0E91665CC
:10155000F1EC017A07EB830E9D4206EB830CCEED96
:10156000007A03F1010352F804EB98BF0023A14273
:10157000CCF800E0ECD10360F0BD00BFF8B51D462B
:10158000037C022B31D004460F461646436800F117
:1015900054012A46603000F0DBFD35B33946B446CD
:1015A000676D01EB8503A66D257C06E02268501E61
:1015B000C2B900226260994217D0606807EB800EC2
:1015C00006EB8002DEF800E041F804EB12684CF80C
:1015D000042B002DEAD0012DEDD1E268904200F1FC
:1015E0000100E6D299426060E7D1F8BD0B684FF088
:1015F000000C026810B4084CD2F8B010A342D2F824
:10160000B420C1F800C028BF23465DF8044B8B60AE
:10161000C2F800C0936070477FA9030003680A689E
:10162000DA67704703680A68C3F8AC20704700BFE8
:10163000012A03D0022A04D0002070470160002054
:1016400070470B6803600020704700BF012A03D079
:10165000022A04D0002070470160002070470B6808
:1016600003600020704700BF012A03D0022A04D083
:10167000002070470160002070470B680360002065
:10168000704700BF2DE9F0430446002610684FF074
:10169000010815468BB0C4F8B0000F467B4A3146AE
:1016A000C0E901680C3012F023FA68683146774AC5
:1016B000C4F8B40006ADC0E901680C3012F018FAA5
:1016C0000023022202A9A3622846714BA287059338
:1016D00042F210736762A3636E4B08960493029400
:1016E000C4E90C66FFF7A4FF6E4604F14003059AB7
:1016F000DDF8108095E8030086E8030093E8030016
:1017000085E8030096E8030083E80300A36CE16C1E
:10171000C4F848800893E26409912BB1032229465A
:1017200028469847DDF8108094F83C30052B02D00D
:10173000012384F83E30B8F1000F03D002A9032240
:101740000846C0474FF07E534FF0030902A902221A
:1017500063660023284627656365E36523664E4B71
:10176000A4F8689005934D4B0294049300230893CA
:10177000FFF76CFF04F16C0395E80300DDE90482D8
:1017800086E8030093E8030085E8030096E8030079
:1017900083E80300636FA16FC4F874800893A267A5
:1017A00009912BB14A46294628469847DDF8108012
:1017B00094F86830052B02D0012384F86A30B8F120
:1017C000000F03D002A903220846C04700230222CB
:1017D00002A9C4F88070C4F884302846C4F88C305C
:1017E000C4F890304FF07E530294C4F89430042330
:1017F000A4F8983000230893294B0593294B0493B0
:10180000FFF732FF04F19C03059A049F95E803005B
:1018100086E8030093E8030085E8030096E80300E8
:1018200083E80300D4F8A430D4F8A810C4F8A47056
:101830000893C4F8A820099123B103222946284619
:101840009847049F94F89830052B02D0012384F820
:101850009A301FB102A903220846B8470023D4F8E2
:10186000B000002149F6404284F820304FF07C550A
:101870000D4BC4F8AC50E367D4F8B430016082601B
:1018800019609A600BB0BDE8F08300BF00A60E009F
:10189000ED150008311600081D1600084D16000849
:1018A0002516000869160008CDCC4C3F10B504463B
:1018B00086B001F07BFF23791BB1A37A802B00F067
:1018C000D380052003F0A8FD94F83E3053B994F876
:1018D0006A30002B4FD194F89A30002B40F08A8068
:1018E00006B010BD606A94F83C10183002F038FA67
:1018F00094ED0A7AD4ED0B6AF0EE407A8DED010A90
:1019000037EE266AB4EEC60AF1EE10FA06DC37EEC0
:10191000667AB4EEC70AF1EE10FAD8D594F83D30E5
:10192000C4ED0A7A002B00F0AE80012B40F0A980B4
:1019300067EEA77AA36B626B9B1A07EE102A06EE7E
:10194000903AB8EE477AF8EE666AA7EEA67AFCEE11
:10195000C77A17EE903AC4ED0C7AA26C0393002A72
:1019600000F0A980E36C03A904F14000984794F8C3
:101970006A30002BAFD0206D94F86810183002F058
:10198000EFF994ED157AD4ED166AF0EE407A8DED0C
:10199000010A37EE266AB4EEC60AF1EE10FA06DC4A
:1019A00037EE667AB4EEC70AF1EE10FA93D594F8E2
:1019B0006930C4ED157A002B72D0012B5ED194ED05
:1019C000187A67EEA77AD4ED196A76EEC76AA7EEA1
:1019D000A67A84ED177A636F8DED047A002B6AD0B6
:1019E000A36F04A904F16C00984794F89A30002B77
:1019F0003FF476AFD4F8800094F89810183002F0D5
:101A0000AFF9D4ED217A94ED227A77EE876AB4EEBD
:101A1000E60AF1EE10FA07DC77EEC77AB4EEE70AD1
:101A2000F1EE10FA7FF55CAF94F8993084ED210A5D
:101A30005BB3012B1FD1D4ED247A20EE000A94ED84
:101A4000257A37EE677AE0EE077AC4ED237AD4F888
:101A5000A430CDED057A73B3D4F8A83005A904F10C
:101A60009C00984706B010BDA36923B3E36904F155
:101A70001000984725E7D4ED237AE8E794ED177A2C
:101A8000A9E7236B69E7A36B55E7D4ED247A94EDBE
:101A9000257A37EE677AE0EE077AC4ED237AD6E747
:101AA00094ED187AD4ED196A76EEC76AA7EEA67A95
:101AB00084ED177A8FE711F006FD00BF026892F8F7
:101AC000203083F0010382F82030704703680A68F1
:101AD0001A65704703680A68C3F88020704700BF22
:101AE00003680A68C3F8B020704700BF012A03D01A
:101AF000022A04D0002070470160002070470B6864
:101B000003600020704700BF012A03D0022A04D0DE
:101B1000002070470160002070470B6803600020C0
:101B2000704700BF012A03D0022A04D0002070476A
:101B30000160002070470B6803600020704700BF01
:101B4000012A03D0022A04D000207047016000203F
:101B500070470B6803600020704700BF2DE9F04715
:101B600003238CB002259FED940A8DF8043088463B
:101B7000924B04468DF805500793914B01990693BB
:101B8000049001F0F9FD0023DDF818900A93B9F1F3
:101B9000000F00F00C812A4604AF08AD39462846F4
:101BA000C847DDE9069295E8030004F1100302AE90
:101BB00086E8030093E8030085E8030096E8030045
:101BC00083E80300A369E169C4F818900A93E2610D
:101BD0000B911BB10322294628469847069B1BB14F
:101BE00003223946384698474FF07E530222394641
:101BF0002846A3630023A287A36223636363714B18
:101C0000C4F824800793704B0494069300230A932E
:101C1000FFF77AFF04F14002DDF8189095E8030021
:101C200086E8030092E8030085E8030096E80300D5
:101C300082E803000799A36CE26CC4F848900A9309
:101C4000E1640B922BB10322294628469847DDF820
:101C5000189094F83C30052B02D0012384F83E30D4
:101C6000B9F1000F03D0032239463846C847002394
:101C70004FF0030A394602220A932846C4F85480DA
:101C8000C4F868A0A4F86CA00494C4E91833002335
:101C9000A3654E4B07934E4B0693FFF743FF04F1AA
:101CA000700395E80300DDE9069286E8030093E8F7
:101CB000030085E8030096E8030083E80300A36FB0
:101CC000E16FC4F878900A93E2670B912BB152460A
:101CD000294628469847DDF8189094F86C30052B73
:101CE00002D0012384F86E30B9F1000F03D0032233
:101CF00039463846C847002302223946C4F8848052
:101D0000C4F888302846C4F89030C4F894304FF0B6
:101D10007E530494C4F898300423A4F89C30002324
:101D20000A932C4B07932C4B0693FFF709FF04F102
:101D3000A003079ADDF8188095E8030086E8030001
:101D400093E8030085E8030096E8030083E80300B6
:101D5000D4F8A830D4F8AC10C4F8A8800A93C4F81A
:101D6000AC200B912BB10322294628469847DDF879
:101D7000188094F89C30052B02D0012384F89E3003
:101D8000B8F1000F03D0032239463846C04701227C
:101D900000234FF07E5184F82020C4F88020236572
:101DA000C4F8B010C4F8B4300CB0BDE8F0870B9A9A
:101DB00004AF08ADF7E600BF00007A44BD1A000882
:101DC000ED1A0008CD1A0008091B0008D51A0008F2
:101DD000251B0008E11A0008411B000810B5044645
:101DE00084B001F0E3FC23791BB1A37A802B00F0CF
:101DF000CC80052003F010FB94F83E3053B994F8E2
:101E00006E30002B43D194F89E30002B40F083803D
:101E100004B010BD606A94F83C10183001F0A0FFC7
:101E2000D4ED0A7A94ED0B7A77EE876AB4EEE60A7F
:101E3000F1EE10FA06DC77EEC77AB4EEE70AF1EEBF
:101E400010FADCD594F83D3084ED0A0A002B00F03E
:101E5000AB80012B40F0A580D4ED0D7A20EE000A76
:101E600094ED0E7A37EE677AE0EE077AC4ED0C7ADD
:101E7000A36CCDED017A002B00F0AE80E36C01A9DC
:101E800004F14000984794F86E30002BBBD0606D91
:101E900094F86C10183001F063FFD4ED167A94EDCD
:101EA000177A77EE876AB4EEE60AF1EE10FA06DCEE
:101EB00077EEC77AB4EEE70AF1EE10FAA3D594F8FC
:101EC0006D3084ED160A002B00F08480012B66D162
:101ED00020EE000AA36E626E9B1A07EE902A07EEB0
:101EE000103AF8EEE77AB8EEC77AE0EE077AFDEE40
:101EF000E77A17EE903AC4ED187AA26F0293002A9F
:101F00006AD0E36F02A904F17000984794F89E30FC
:101F1000002B3FF47DAFD4F8840094F89C10183067
:101F200001F01EFFD4ED227A94ED237A77EE876AD2
:101F3000B4EEE60AF1EE10FA07DC77EEC77AB4EEFB
:101F4000E70AF1EE10FA7FF563AF94F89D3084ED67
:101F5000220AA3B3012B1FD1D4ED257A20EE000A6B
:101F600094ED267A37EE677AE0EE077AC4ED247AAC
:101F7000D4F8A830CDED037A73B3D4F8AC3003A90C
:101F800004F1A000984704B010BDA36923B3E3692E
:101F900004F1100098472CE7D4ED247AE8E7236E8B
:101FA000ABE7D4ED0C7A63E7D4ED0D7A94ED0E7ABD
:101FB00037EE677AE0EE077AC4ED0C7A58E7D4ED95
:101FC000257A94ED267A37EE677AE0EE077AC4ED4B
:101FD000247ACDE7A36E7EE711F075FA1A449A428F
:101FE00032D9F8B5D1E90045064604EB820705EB86
:101FF000830504EB83042DED028BD4ED008AB7EE4C
:10200000008AB0EE680A11F063FAD6ED2C7A38EE49
:10201000677A20EE270AA8EE870AA4EC010AD5ED1C
:10202000008AB0EE680A11F053FAD6ED2C7AA74276
:1020300038EE678A20EE270AA8EE880AA5EC010A86
:10204000DBD1BDEC028BF8BD704700BF1A449A4249
:1020500032D9F8B5D1E90045064604EB820705EB15
:10206000830504EB83042DED028BD4ED008AB7EEDB
:10207000008AB0EE680A11F03BFBD6ED2C7A38EE00
:10208000677A20EE270AA8EE870AA4EC010AD5EDAC
:10209000008AB0EE680A11F02BFBD6ED2C7AA7422D
:1020A00038EE678A20EE270AA8EE880AA5EC010A16
:1020B000DBD1BDEC028BF8BD704700BF70B59C183A
:1020C0009C4243D9D1E9006506EB830EB7EE007A56
:1020D00090ED2C6A05EB830CDEED006A013377EEA0
:1020E000465AF5EEC06AF1EE10FACCBF012100218C
:1020F0004CBF012200228A1A07EE902AF8EEE77AF6
:1021000067EE867AE5EEA67ACEED007ADCED006A1F
:1021100090ED2C6AF5EEC06A37EE467AF1EE10FAD1
:10212000CCBF012100214CBF4FF0010E4FF0000E3B
:102130009C42A1EB0E0207EE902AF8EEE77A67EEDA
:10214000867AE6EE877ACCED007ABDD170BD00BF0D
:1021500010B490F8204034B9D0F88040012C0DD054
:10216000022C07D014B15DF8044B70475DF8044BA6
:10217000FFF734BF5DF8044BFFF7A0BF5DF8044BD9
:10218000FFF764BF143001F005BA00BF38B500F1A5
:10219000140504462DED028B284601F0B7F92846B8
:1021A00001F0B0F92846B0EE408A01F099F9D0ED7F
:1021B000007AF8EE677A88EE277ABDEC028B84ED20
:1021C0000E7A38BD38B500F1140504462DED028BAA
:1021D000284601F089F9284601F094F92846B0EE26
:1021E000408A01F07DF9D0ED007AF8EE677A88EE4A
:1021F000277ABDEC028B84ED0E7A38BDF0B503234F
:1022000099B000270125129306462C4B09A8159575
:10221000CDE90E7340F20453ADF84030284BCDE9C0
:102220001357099301F0A4FE09A801F07DFF0028CF
:1022300036D1244B04AF04460090CDF84230102331
:10224000394604958DF820301F4BCDE91650CDE965
:1022500006506846059302F0F5F80823009A01A994
:1022600009A8ADF804508DF806400994029503932F
:1022700000F0E4F800230EA938463024049302F05D
:10228000ABFE03224FF07E5309A906F114000B9315
:102290000C93CDE90942049A01F0EAF819B0F0BDB7
:1022A00040F60132074B169704AFADF82420099889
:1022B000CDF84230179500F081F8DBE70402040402
:1022C00003030001040604030704010B2DE9F04396
:1022D00004462DED028B83B0002948D0012140F245
:1022E000011200230091ADF804208DF80630304A29
:1022F0000126304B271D304904F12908626040F265
:102300000272A36040F60663E16004F125092682AB
:10231000A4F8252084F82760A4F8293084F82B60DD
:1023200003F0E8F96946054648B304F130008DF83A
:10233000066003F03DF9072D34D104F11405204661
:10234000FFF75CFF284601F0DDF82846B0EE408A32
:1023500001F0C6F8D0ED007AF8EE677A88EE277AB9
:1023600084ED0E7A03B0BDEC028BBDE8F08340F241
:10237000011300918DF80610ADF80430B7E704F1B1
:10238000300003F015F93946204602F0A5FA484618
:1023900001F0EEFD404601F0EBFD04F1120000F00B
:1023A00077F9CAE73946204602F096FAC5E700BF3A
:1023B0000508050905070506050A060610B584B0D7
:1023C00003460124ADF8040003A8ADF80C30ADF8C5
:1023D0000E4001F0CDFD214603A801F0B3FE2046DA
:1023E00003F01AF8002103A801F0ACFE204603F028
:1023F00013F8214603A801F0A5FE04B010BD00BFEC
:1024000010B5C2F3002384B00C46017C8DF80D207A
:1024100043EA4402FA2402238DF80C2003AA009414
:1024200002F0A6F818B10124204604B010BD0446FD
:102430000A2002F0F1FF204604B010BD034670B53B
:1024400043F8042B044684B007C983E80700A37946
:1024500083B91A210B461E22FA2523742046ADF8B3
:102460000C20022303AA009502F082F828B1012073
:1024700004B070BD1B210B46EDE70A2002F0CCFF33
:102480004FF4B85200950223ADF80C20204603AA61
:10249000217C02F06DF80028E9D10A2002F0BCFF8F
:1024A00041F2027200950223ADF80C20204603AAE7
:1024B000217C02F05DF80028D9D10A2002F0ACFF9F
:1024C000042200950223ADF80C20204603AA217CAB
:1024D00002F04EF80028CAD10A2002F09DFF062221
:1024E00000950223ADF80C20204603AA217C02F0BF
:1024F0003FF80028BBD10A2002F08EFF41F20822EB
:1025000000950223ADF80C20204603AA217C02F09E
:102510002FF80028ABD10A20064602F07DFF009577
:10252000022303AA217C2046ADF80C6002F020F8BB
:1025300000289CD1304602F06FFF009522790C23D1
:102540002046002A8DF80C3003AA4FF0020314BF76
:10255000622142218DF80D10217C02F009F800283B
:1025600085D1304602F058FF2279D4E902310B437D
:10257000DBB20AB943F0400362790AB143F02003A9
:102580000E22FA258DF80D302046009502238DF895
:102590000C2003AA217C01F0EBFF00287FF467AF39
:1025A0000A2002F039FF102200950223ADF80C201A
:1025B000204603AA217C01F0DBFF00287FF457AFFF
:1025C0000A2002F029FF122100950223ADF80C1019
:1025D00003AA217C204601F0CBFF00287FF447AFFF
:1025E0000A2002F019FF012209212046FFF708FF07
:1025F000003818BF01203BE7F0B5102387B0234C0B
:10260000012200250126002702A920460195CDE9D7
:1026100002234FF48052CDE904670AF0FBFA6420EC
:1026200003F0A6FE02A94FF480522046CDE90467CC
:1026300002261027CDE902670AF0ECFA03221023E4
:1026400002A92046CDE9022300230422CDE9042378
:102650004FF480520AF0DEFA40F23223042202A93B
:10266000019310232046CDE90223019A012305920C
:102670004FF4805204930AF0CDFA40F6060120464A
:102680000AF0E8FA284607B0F0BD00BF3410002475
:102690001C4B00221C494FF0400C30B5054689B058
:1026A0000220596007219A601A620124DA620A2224
:1026B0004FF4006EDC6006922022CDE90001042078
:1026C0000821CDE9020103201021CDE904010820F1
:1026D0006946C3E904024FF4C072181DC3E906C27B
:1026E0004FF48052C3E909E20AF06AFA38B9284681
:1026F000FFF782FF003818BF012009B030BD204627
:1027000009B030BD3010002440410052614A002120
:10271000D0B513688EB00A91002B40F0B9805E4BA3
:1027200001214FF683700C2411600221D3F8D420CC
:102730000026032742F48052C3F8D420D3F8D420D3
:1027400002F480520092009AD3F8E02042F0100286
:10275000C3F8E020D3F8E02002F010020192019AC1
:10276000D3F8E02042F04002C3F8E020D3F8E020A4
:1027700002F040020292029AD3F8E02042F00802EE
:10278000C3F8E020D3F8E02002F008020392039A95
:10279000D3F8E02042F48072C3F8E020D3F8E020C0
:1027A00002F480720492049AD3F8E02042F080028E
:1027B000C3F8E020D3F8E02002F080020592059AE9
:1027C000D3F8E02042F02002C3F8E020D3F8E02064
:1027D00002F020020692069AD3F8E02042F00402AA
:1027E000C3F8E020D3F8E0300C9403F0040307931F
:1027F0000323079A0B93CDE9080108A9274805F0A0
:102800003DFC48F23712022308A925480C94CDE973
:102810000823CDE90A6705F031FC4CF2037202236C
:1028200008A920480C94CDE90823CDE90A6705F0F2
:1028300025FC40F2FF62022308A91B480C94CDE955
:102840000823CDE90A6705F019FC4FF60C72022344
:1028500008A916480C94CDE90823CDE90A6705F0CC
:102860000DFC4FF63F02022308A911480C94CDE954
:102870000823CDE90A6705F001FC2022022308A9FC
:102880000A480C94CDE90A67CDE9082305F0F6FB68
:102890000EB0D0BD2C100024004402580010025885
:1028A00000180258000C025800200258001C025860
:1028B000001402582DE9F04FDFF8108406460D464B
:1028C000144608F118002DED028B89B000AF02F01C
:1028D0007BFCD8F8183073B3D8F81C30D8F80490C3
:1028E000002B43690BBF4FF0080A4FF0100A4FF05E
:1028F000020B4FF0040BB9F1000F2AD0A200EA46F8
:10290000012B02F1070222F00702ADEB020D68462F
:10291000ADEB020D694600F03F81022B00F0D6803E
:10292000002B6FD02246C847D5462437BD46BDECA4
:10293000028BBDE8F08FD8F81C30002BF5D0D8F80A
:1029400004904FF0080A4FF0020B4369B9F1000FF1
:10295000D4D1FB61D8F80030BB61002BE5D0D5485D
:1029600002F0A4FC6B46BBF1020F786108EE103A4E
:10297000FB6900F083816A465146A2EBC40295468A
:102980006200EA46B2FBFBF2AAEBC40085460AEB02
:102990008200EE46F861ADEB010DF8690EEB820C9A
:1029A000C7F810C0EC46ADEB010D00EB8201CCF88E
:1029B0000400CCF8081001EB82013869E946CCF834
:1029C0000C1000EB8201CCF800A001EB8202C9E9F7
:1029D00000E0C9E90212012B00F06483022B00F031
:1029E0006C82002B00F08081620849466046BB691A
:1029F000984718EE103A24379D46BD46BDEC028B31
:102A0000BDE8F08F002C8DD01A46D8ED0C6A9FEDF2
:102A1000B27A8446331D36F922E00CF1080C07EE39
:102A200090EA33F922E00232F8EEE77A944267EE58
:102A3000877A67EEA67A4CED027A07EE90EAF8EE16
:102A4000E77A67EE877A67EEA67A4CED017AE2D8EC
:102A5000F9612246C847984ED8ED0D6A0020F96901
:102A60002B1D9FED9E7A9FED9E6ADFED9E5A22E020
:102A7000F4EEC67AF1EE10FAC0F2C88447F6FE72A0
:102A8000D1ED017A45F8202066EEA77AF4EEC77AF8
:102A9000F1EE10FA40F2F080F4EEC67AF1EE10FAA0
:102AA000C0F2D58447F6FE7243F820200230083188
:102AB00084427FF639AFD1ED007A66EEA77AF4EE64
:102AC000C77AF1EE10FAD3D83246D9E7002C3FF49A
:102AD00029AFD8ED0C6A84469FED787A0022331D29
:102AE0008E4656F822100CF1080C07EE901A53F897
:102AF00022100232F8EEE77A944267EE877A67EEA8
:102B0000A67A4CED027A07EE901AF8EEE77A67EEB5
:102B1000877A67EEA67A4CED017AE2D871462246B2
:102B2000C7F81CE0C847664ED8ED0D6A0020F96969
:102B30002B1D9FED6A7A9FED6A6ADFF894C120E051
:102B4000F4EEC67AF1EE10FAC0F279843246D1ED95
:102B5000017A45F8202066EEA77AF4EEC77AF1EE06
:102B600010FA40F28780F4EEC67AF1EE10FAC0F265
:102B70005E84324643F820200230083184427FF6DA
:102B8000D3AED1ED007A66EEA77AF4EEC77AF1EE15
:102B900010FAD5D86246DAE7002C3FF4C3AED8ED80
:102BA0000C6A86469FED477A4FF0000C331D56F8AD
:102BB0002C200EF1080E82F40002A2F5000207EEAE
:102BC000902A53F82C200CF1020CF8EEE77A82F4EC
:102BD00000026445A2F5000267EE877A67EEA67AE6
:102BE0004EED027A07EE902AF8EEE77A67EE877AE2
:102BF00067EEA67A4EED017AD9D8F9612246C84728
:102C0000314ED8ED0D6A0020F9692B1D9FED337A06
:102C10009FED336ADFF8BCC01FE0F4EEC67AF1EE38
:102C200010FAC0F2FC833246D1ED017A45F820203B
:102C300066EEA77AF4EEC77AF1EE10FA18D9F4EE40
:102C4000C67AF1EE10FAC0F2DA83324643F8202059
:102C50000230083184427FF667AED1ED007A66EE2D
:102C6000A77AF4EEC77AF1EE10FAD6D86246DBE71F
:102C70006246EBE762467DE7324615E7A100D6469D
:102C80006208073121F00701ADEB010DEA46ADEB1B
:102C9000010D6946ADEB0E0D0AEB8200EC46ADEB83
:102CA0000E0D01EB8202F861E946CCE900A0C9E90A
:102CB000001290E6841000240280FFFF0000003024
:102CC0000082FF7F0000003482FF7F006810002434
:102CD000007E00807E0080FF0000003804FF7FBF80
:102CE00004FF7F3F00FEFF46002C00F0C982BBF1CD
:102CF000020FD8F8242000F0FA827969C7F804900E
:102D000002EB810E5FED0C5A8A00DCF808100EF120
:102D100004007A611A46DCF80C303B61331DD7F8A9
:102D200010903D61FD69C7E902CB8C46834636F9B8
:102D30002210D8ED0C7A06EE101A33F9221006EEA6
:102D4000901A3EF92210B8EEC66A07EE101AF8EE95
:102D5000E66A3BF92210B8EEC77A26EE256A66EEDF
:102D6000A56A27EE257A26EE276A66EEA76A27EE81
:102D7000277A07EE901A51080232F8EEE77A0AEB4A
:102D80008100944280ED006A05EB810067EEA57A30
:102D9000C0ED006A0CEB810009EB810180ED007A47
:102DA00098ED0C7A67EE877AC1ED007ABFD8D7F834
:102DB00004903D69D7E902CB60466208BB69494689
:102DC0009847D8F82C307A69D8ED0D6A1A441FED6F
:102DD0003D7A1FED3D6A2B1D904602F1040A5FED1E
:102DE0003F5A0022A84ED9E900EC51E0F4EEC67A31
:102DF000F1EE10FAC0F2C78247F6FE7045F82200E5
:102E00000CEB0100D0ED007A66EEA77AF4EEC77AFB
:102E1000F1EE10FA4BD9F4EEC67AF1EE10FAC0F2E8
:102E2000BA8247F6FE70BBF1020F43F822002BD0A6
:102E3000D9F808000844D0ED007A66EEA77AF4EEDF
:102E4000C77AF1EE10FA36D9F4EEC67AF1EE10FA3E
:102E5000C0F2CD8247F6FE7048F82200D9F80C0087
:102E60000144D1ED007A66EEA77AF4EEC77AF1EE6E
:102E700010FA1ED9F4EEC67AF1EE10FAC0F2AF8263
:102E800047F6FE714AF82210023294427FF6B1AD45
:102E900051080EEB81008900D0ED007A66EEA77A2A
:102EA000F4EEC77AF1EE10FAA0D83046A6E7304625
:102EB000B9E73146E6E73046CEE7002C00F0E08186
:102EC000BBF1020FD8F8243000F0E1817A69DCF818
:102ED000081003EB820EC7F804909300DFED6B5AE5
:102EE0000EF1040000227B61DCF80C303B61331DE5
:102EF000D7F810903D61FD69C7E902CB8C46834647
:102F000056F82210D8ED0C7A07EE101A53F822105A
:102F1000B8EEC76A07EE101A5EF82210F8EEC76A1C
:102F200007EE101A26EE256A5BF82210B8EEC77A73
:102F300066EEA56A26EE276A27EE257A66EEA76A70
:102F400027EE277A07EE901A51080232F8EEE77A58
:102F50000AEB8100944280ED006A05EB810067EE88
:102F6000A57AC0ED006A0CEB810009EB810180EDD0
:102F7000007A98ED0C7A67EE877AC1ED007ABFD8B7
:102F8000D7F804903D69D7E902CB60466208BB6977
:102F900049469847D8F82C307A69D8ED0D6A1A441A
:102FA0009FED3E7A9FED3E6A131D9246DFF8E4C026
:102FB0000022FB612B1D364ED9E9008E4EE0F4EE67
:102FC000C67AF1EE10FAC0F2FC81304645F82200D4
:102FD0000EEB0100D0ED007A66EEA77AF4EEC77A28
:102FE000F1EE10FA49D9F4EEC67AF1EE10FAC0F219
:102FF000EF813046BBF1020F43F822002AD0D9F806
:1030000008000844D0ED007A66EEA77AF4EEC77A9D
:10301000F1EE10FA35D9F4EEC67AF1EE10FAC0F2FC
:10302000C98130464AF82200D9F80C000144D1ED9C
:10303000007A66EEA77AF4EEC77AF1EE10FA1ED99E
:10304000F4EEC67AF1EE10FAC0F2AD813146F869BD
:1030500040F82210023294427FF6CBAC510808EBC4
:1030600081008900D0ED007A66EEA77AF4EEC77A87
:10307000F1EE10FAA3D86046A8E76046BAE76146C9
:10308000E5E76046CEE700BF0280FFFF00000030AA
:103090000082FF7F007E00800000003404FF7FBFBD
:1030A00004FF7F3F002C00F0EB807A690021D8F804
:1030B0002430C7F8109003EB820ED7F81C909300D1
:1030C000FD610EF104021FED0C6A7B61331D154694
:1030D00056F821204808D8ED0C6ABBF1020F82F4A3
:1030E0000002A2F5000207EE902A53F8212082F494
:1030F0000002B8EEE77AA2F5000227EE067A07EEA4
:10310000902A0AEB8002F8EEE77A27EE267A67EE3D
:10311000867A82ED007A09EB80024FEA800067EE42
:10312000A67AC2ED007A27D05EF8212082F4000250
:10313000A2F5000207EE902A55F8212082F4000241
:10314000B8EEE77AA2F5000227EE067A07EE902A9B
:10315000DCF80820F8EEE77A024427EE267A67EEDC
:10316000867A82ED007A98ED0C7ADCF80C2067EE16
:10317000877A0244C2ED007A02318C42A8D8D7F88F
:10318000109060466208BB694946FD699847D8F8C7
:103190002C307A69D8ED0D6A1A441FED407A1FED84
:1031A000406A131D9246DFF8C4C20022FB612B1D4A
:1031B000AB4ED9E9008E4EE0F4EEC67AF1EE10FA8D
:1031C000C0F2C580304645F822000EEB0100D0ED7C
:1031D000007A66EEA77AF4EEC77AF1EE10FA49D9D2
:1031E000F4EEC67AF1EE10FAC0F2BF803046BBF1C1
:1031F000020F43F822002AD0D9F808000844D0ED85
:10320000007A66EEA77AF4EEC77AF1EE10FA35D9B5
:10321000F4EEC67AF1EE10FAC0F2AE8030464AF80B
:103220002200D9F80C000144D1ED007A66EEA77AAD
:10323000F4EEC77AF1EE10FA1ED9F4EEC67AF1EE8A
:1032400010FAC0F28B803146F86940F82210023241
:1032500094427FF6CEAB510808EB81008900D0ED97
:10326000007A66EEA77AF4EEC77AF1EE10FAA3D8E8
:103270006046A8E76046BAE76146E5E76046CEE704
:10328000224649466046BB699847FFF7B2BBC7F87C
:1032900010B0002298ED0C6A331DDFED726AD7F88A
:1032A0001CB0786956F8221007EE901A53F82210D5
:1032B000B8EEE77A07EE901A51080232F8EEE77A94
:1032C00027EE267A0AEB810E94420BEB810167EE22
:1032D000A67A27EE067A67EE867A8EED007AC1ED41
:1032E000007ADFD88300D7F810B07B614DE61A462C
:1032F000C7F810B098ED0C6A331DDFED5B6AD7F8A4
:103300001CB0786936F9221007EE101A33F9221032
:1033100007EE901AB8EEC77A51080232F8EEE77A53
:1033200027EE267A0AEB810E94420BEB810167EEC1
:10333000A67A27EE067A67EE867A8EED007AC1EDE0
:10334000007ADFD88300D7F810B07B6134E5F0EE67
:10335000675AFEEEE45A15EE900A34E7F0EE675A2B
:10336000FEEEE45A15EE901A6EE7F0EE675AFEEEA6
:10337000E45A15EE900A3AE7F0EE675AFEEEE45A88
:1033800015EE900A4BE767EEA57AFDEEE77A17EEA9
:10339000900A00B232E567EEA57AFDEEE77A17EE05
:1033A000900A00B23FE5F0EE675AFEEEE05A15EEE5
:1033B000901A4CE6F0EE675AFEEEE05A15EE900ACF
:1033C00030E6F0EE675AFEEEE05A15EE900AFDE5A3
:1033D000F0EE675AFEEEE05A15EE900A0AE667EE46
:1033E000A57AFDEEE77A17EE901A09B24AE567EE84
:1033F000A57AFDEEE77A17EE900A00B22CE5F0EE22
:10340000675AFEEEE45A15EE902A1FE467EEA57A9D
:10341000FDEEE77A17EE902A12B2FFF731BBF0EE1D
:10342000675AFEEEE45A15EE902AFFF7FDBBF0EE68
:10343000675AFEEEE05A15EE902AFFF79BBBF0EEBE
:10344000675AFEEEE05A15EE902AFFF780BB67EE52
:10345000A57AFDEEE77A17EE902A12B2FFF724BBA9
:1034600082FF7F0000000030000000387E0080FFF7
:1034700030B5184C154685B0046004F1080EEC46D2
:103480000FC98EE80F00D4ED047AF5EEC07A8CE80F
:103490000F00F1EE10FA1ADDB7EE006A94ED057A2E
:1034A00027EE277AC6EE276A84ED0D7AC4ED0C6A02
:1034B0006DB1204640F8185F01F086FE06490369A9
:1034C0000020064A2162A262E36005B030BD0120FF
:1034D00005B030BD6810002400200030000000302E
:1034E00000680830704700BFB1F5807F03680A4666
:1034F00028BF4FF48072B1F5807F9A6094BF00209E
:10350000012070470068183001F0BEBE70B5046835
:103510008AB0A369E160CBB104F11805284601F037
:1035200053FE8446EE46E668BCE80F00AEE80F00A6
:10353000BCE80F00AEE80F009CE803008EE8030033
:1035400069462846049601F047FDF8B9E069D8B10C
:1035500004F11C05284601F037FE8446EE46E46877
:10356000BCE80F00AEE80F00BCE80F00AEE80F00AB
:103570009CE803008EE8030069462846049401F0A5
:103580002BFD003818BF01200AB070BD01200AB021
:1035900070BD00BF30B5046883B00D46E3694BB120
:1035A000A3680020E26A616A9B00009004F11C009D
:1035B00001F00CFEA3680748A26A9B00216A0090F4
:1035C00004F1180001F002FE0020C4E9005003B02D
:1035D00030BD00BFB528000810B4074B4FF07E5136
:1035E00030240022032019619C60D8605DF8044BF0
:1035F0005961C3E90622704768100024704700BF74
:10360000F8B5134F3C687F2C07D98023114A42F24A
:1036100024411C463B60A2F87E100F4D2B68012B05
:103620000AD90C4E0D4D22463146284600F074F959
:103630000028F8D13860F8BD22460649074800F056
:103640006BF90028F7D12B68386001332B60F8BD87
:10365000A4100024A8100024A01000242811002485
:1036600030B4154C2168F1B14B1E144DE81810F818
:1036700001298C4619460A2A01D00D2A02D14BB1E4
:10368000013BF4E70CF102037F2B10D98023236068
:1036900030BC70470122022323600D200A236854A6
:1036A000AB5430BC704701220223044DF4E70CF107
:1036B00001026146F0E700BFA4100024A810002416
:1036C00010B5094C02460B46084821680844C1F170
:1036D000800110F0FDFF236818442060FFF7C0FF51
:1036E000FFF78EFF10BD00BFA4100024A810002417
:1036F0000FB400B583B004A951F8040B0191FFF792
:10370000DFFF03B05DF804EB04B0704710B504466A
:1037100000210A4800F07AF8002C094B14BF02225D
:10372000002208481A60FFF7E3FF0748FFF7E0FFB1
:103730000A20BDE8104001F06FBE00BF2811002430
:10374000A01000247869010888690108064A074921
:10375000074808B50FF0B2FE034A04490548BDE822
:1037600008400FF0ABBE00BF00000024FD3500088C
:10377000281100242C11002470B5044682B0C1F336
:103780000726CDB2ADF8041001F044FE4FF480726C
:103790004FF001232060A01DA571A280E671A360F7
:1037A00002B0BDE8704000F0E3BB00BF38B504468E
:1037B00001F030FE002223682271834210D00122E2
:1037C000A57AE37A954020602271A01D6DB243B9BD
:1037D00000F0AAFC40B22843C0B27F28A0720AD0F1
:1037E00038BD00F0A1FCB0FA80F040092843C0B217
:1037F0007F28A072F4D101F00DFE07EE900AF8EEDA
:10380000677AC4ED037A38BD704700BF012910B54F
:1038100006D0022915D051B1BDE8104006F010BB0A
:103820000A46344834490AF0A5FCE8B1FEE7334BB8
:103830000A46334C334934481C600AF09BFC68B19B
:10384000FEE701222C492B480AF094FC00B1FEE768
:103850002E4928480AF0B0FCC0B1FEE72B492A489F
:103860000AF0AAFC60B1FEE7284922480AF0A4FC4D
:1038700000B1FEE726491F480AF02CFC08B3FEE71A
:10388000244921480AF026FCA8B1FEE7204919483E
:103890000AF020FC00B1FEE716480AF0A3FC02463D
:1038A00040B9164B164C174917481C600AF062FCC9
:1038B00068B1FEE7FEE714480AF094FC0028ABD09C
:1038C000FEE70C480AF08EFC0028A5D0FEE70F4961
:1038D0000D480AF071FC00B1FEE70E490A480AF0F3
:1038E000F9FB00B1FEE708480AF07CFC002893D001
:1038F000FEE700BFCC130024D0000024681600248B
:1039000009380008B40000243011002438010024D4
:103910009400002484000024084691B208B502F007
:1039200023F8003818BF012008BD00BF014805F08A
:1039300065BD00BF50410024014805F05FBD00BFD8
:1039400050410024014805F059BD00BF50410024FA
:1039500082B04FF0000C0323ADF80410BDF8042032
:1039600080F810C00280438002B070472DE9F04F0C
:10397000BE4E00258FB0BE4C037006F1400342607E
:10398000074601928846202229463046C4F858311D
:10399000C4F85461CDE90355CDE90555CDE9075586
:1039A000CDE90955CDE90B5510F0A2F820222946A2
:1039B00004F59970C4F82151C4F82551C4F829516F
:1039C000C4F82D5110F094F8019B84F8385284F813
:1039D00020317A68002A5FD02B464146B64604F56E
:1039E000907599464FF0010A03EB0310D1F800B02F
:1039F000D1F804800133D1F808C02218CE6844F809
:103A000000B0C2F80480C2F808C0D660087C2EF866
:103A1000029B10740A7C05F8012F002A69D07A688D
:103A2000113184F838A29A42DED84FF480229148AE
:103A30009DF8043008214FF000084FF00009C4F849
:103A400074310023C4E957020122C4F8643184F8B8
:103A50007031C4E95A2194F83812C4E9608981B3FD
:103A6000C4F88821002284F8713184F878313B78D9
:103A7000C4E96322A3B3012200200121013B84F8A1
:103A80009421C4E96801082B2CD8DFE803F0ABB01F
:103A9000B5BABFC4C9CFD6009DF804300121C4F81F
:103AA0006421C4F874314FF4802384F87021714A82
:103AB000C4E9572308230022C4E95A130023C4E9A8
:103AC00060230123002284F87131002384F87831C7
:103AD0000323C4F888313B78C4E96322002BCAD1A0
:103AE00084F89431644803F07BF8034638B1FFBE94
:103AF000FEE77A6811319A423FF676AF95E703A95F
:103B00005D48039303F0CAF90546002868D10222F4
:103B100040F2FF73CDE9082300230422CDE90A23F4
:103B200094F82031002B00F0D5804FF0060921E0F9
:103B3000022B00F08980012B40F0C4809AF80130FC
:103B4000012B00F0C180002B4C4B18BF002306A9AD
:103B50004948CDE9063902F06FFC002840F0BF80EB
:103B6000013594F82031EDB2AB4240F2B380444BC2
:103B700053F825902FB207EB071704EB070A5046BE
:103B800000F0F6F905EB051323441B7C042B7DDCC8
:103B9000022B00F3918000F08D806319002283F8DE
:103BA0001021E35D002BC3D19AF80130062B00F001
:103BB0008580072B00F08A80022B00F09680032B73
:103BC00000F09580002B00F09680012B00F0918092
:103BD000042B00F09280052B2A4B18BF0023B6E778
:103BE000FFBEFEE703224023C4E966237AE70722EB
:103BF0006023C4E9662375E70F228023C4E96623A6
:103C000070E71F22A023C4E966236BE73F22C0238D
:103C1000C4E9662366E77F22E023C4E9662361E7FF
:103C2000FF224FF48073C4E966235BE740F2FF1282
:103C30004FF49073C4E9662354E740F2FF324FF427
:103C4000A073C4E966234DE79AF80130042B37D0FE
:103C5000052B3DD0002B40D0012B42D0022B42D06F
:103C6000032B094B18BF002371E700BF0040003051
:103C70007016002400200240CC1700240002B0255A
:103C8000986901080000B84F0020903603233E1DBC
:103C900004EB05084FF0000B264488F8103130463D
:103CA0000BF1010B00F064F998F8103104365B4514
:103CB000F5DC76E70123EAE70223E8E7104B46E765
:103CC000104B44E7002342E70F4B40E70F4B3EE722
:103CD0000F4B3CE70FB0BDE8F08F0E4B37E7FFBE50
:103CE000FEE70D4B33E70D4B31E70D4B2FE70D4B47
:103CF0002DE70D4B2BE70D4B29E70D4B27E700BFB9
:103D00000800900C1000C0102000F0148000501D1E
:103D1000000180210004002A0008302E00106032CB
:103D20000040C03A0080F03E0000524700002143AE
:103D30000000844B38B5094C40F2FF724FF001117E
:103D400004F5AE75284603F057F894F82021D4F80E
:103D500054112846BDE8384002F0C2BD7016002458
:103D6000064B0F29D3F8543198BF03EB41031B884E
:103D700000EE103ABBEEC80A704700BF7016002470
:103D8000214B02689A4200D07047204A0023204805
:103D9000D2F8D81030B51F4C41F0200183B0C4F8E0
:103DA000C001092004F5E075C4E971034FF4806097
:103DB000C2F8D810D2F8D8204FF40061C4E97330AB
:103DC00094F8380202F02002C4F8D4114FF40051E4
:103DD000984201922846C4F8D811C4E97833019B6F
:103DE00014BF00234FF48073C4F8DC3103F07CFA75
:103DF00008B1FFBEFEE704F5AE73C4F8A851C4F8DD
:103E0000F83103B030BD00BF00200240004402582A
:103E10004000024070160024014803F0DDBD00BFE1
:103E20003018002402682DE9F84F4B4B9A4201D01C
:103E3000BDE8F88F494D95F83832002BF8D095F849
:103E40002031002B77D0002405F10C0905F5997677
:103E500005F59077A04613E003F0010117F811BCB7
:103E6000A9F1080000F06EF9BBF1010F25D895F813
:103E70002031013409F111090236A2B293422BD943
:103E800017F8012F002AF4D0D5F8543100213278E8
:103E900033F81400D5F8583103EB041323F812005B
:103EA000338801339BB233805FFA83FA3A789A42BF
:103EB000D2D88A46A6F80080D0E7CAF34001A9F11B
:103EC000040000F03FF9BBF1020FCAF38001CED02D
:103ED000484600F037F9CAE7002395F83802204930
:103EE00009229842C5F8C8314FF48060C5F8C01166
:103EF000C5F8C4214FF400614FF40052C5F8CC312D
:103F000008BF4FF48073C5F8D821C5E974010022B9
:103F10001448C5E97732C5F8E42103F0E5F908B1A2
:103F2000FFBEFEE795F82021D5F854110E48BDE8F4
:103F3000F84F02F0D5BC0A4909224FF48060C5F859
:103F4000C831C5E970124FF400614FF40052C5E961
:103F50007330C5E97512DAE70020024070160024BC
:103F60004000024030180024CC170024704700BFE6
:103F70008378022B30B504468FB037D0032B33D073
:103F8000012B31D000230A93E378012B2AD0022B96
:103F900028D000230B93002320460C9302F0C6F890
:103FA0000546204602F0CAF823780990082B13D85A
:103FB000DFE803F01F3245586B7E91A40500594B92
:103FC000D3F8E02042F48072C3F8E020D3F8E03068
:103FD00003F480730893089B09A9284604F04EF85F
:103FE0000FB030BD0B93D6E70A93CDE711230A93A8
:103FF000CAE74C4B09A92846D3F8E02042F0010259
:10400000C3F8E020D3F8E03003F001030093009BF5
:1040100004F034F80FB030BD424B09A92846D3F85C
:10402000E02042F00202C3F8E020D3F8E03003F0D1
:1040300002030193019B04F021F80FB030BD394B0E
:1040400009A92846D3F8E02042F00402C3F8E02092
:10405000D3F8E03003F004030293029B04F00EF85F
:104060000FB030BD2F4B09A92846D3F8E02042F00D
:104070000802C3F8E020D3F8E03003F0080303930C
:10408000039B03F0FBFF0FB030BD264B09A9284668
:10409000D3F8E02042F01002C3F8E020D3F8E0307B
:1040A00003F010030493049B03F0E8FF0FB030BD4E
:1040B0001C4B09A92846D3F8E02042F02002C3F89F
:1040C000E020D3F8E03003F020030593059B03F0D4
:1040D000D5FF0FB030BD134B09A92846D3F8E02017
:1040E00042F04002C3F8E020D3F8E03003F0400390
:1040F0000693069B03F0C2FF0FB030BD094B09A920
:104100002846D3F8E02042F08002C3F8E020D3F83C
:10411000E03003F080030793079B03F0AFFF0FB07D
:1041200030BD00BF0044025838B5054601F0FEFF1F
:104130000446284602F002F801462046BDE8384011
:1041400004F0A4B970B506460D4601F0EFFF044631
:10415000304601F0F3FF2A1E0146204618BF012217
:10416000BDE8704004F098B90023122270B586B003
:10417000CDE9022304930368032B01D8042305939C
:10418000061D841D304601F0D1FF0546304601F082
:10419000D5FF034601A92846019303F06FFF20468F
:1041A00001F0C4FF034620461C4601F0C7FF01A9E9
:1041B00003462046019303F061FF06B070BD00BFC7
:1041C000634A0368934210B58CB028D0614A934289
:1041D00058D0614A934200F09480604A934201D0E3
:1041E0000CB010BD5E4C5F48D4F8E03043F00203E1
:1041F000C4F8E030D4F8E03003F002030A930A9BDD
:10420000FFF7B2FFD4F8F43043F08003C4F8F43081
:10421000D4F8F43003F080030B930B9BE0E7504C91
:104220005148D4F8E03043F00203C4F8E030D4F849
:10423000E03003F002030193019BFFF795FFD4F8F0
:10424000E83000221F2043F400131146C4F8E83080
:10425000D4F8E83003F400130293029BD4F8D8306A
:1042600043F00103C4F8D830D4F8D83003F0010388
:104270000393039B02F086FE1F200CB0BDE81040A4
:1042800002F0BEBE364C3948D4F8E03043F080032B
:10429000C4F8E030D4F8E03003F080030493049BCA
:1042A000D4F8E03043F00203C4F8E030D4F8E03052
:1042B00003F002030593059BFFF756FFD4F8E8309F
:1042C0000022212043F480031146C4F8E830D4F8DA
:1042D000E83003F480030693069BD4F8D83043F00B
:1042E0000103C4F8D830D4F8D83003F001030793A1
:1042F000079B02F047FE21200CB0BDE8104002F001
:104300007FBE1B48FFF730FF154B00224820D3F833
:10431000E840114644F40004C3F8E840D3F8E8400C
:1043200004F400040894089CD3F8D84044F0010435
:10433000C3F8D840D3F8D83003F001030993099BA0
:1043400002F020FE48200CB0BDE8104002F058BE3C
:104350000054004000580040005C0040001C005821
:1043600000440258381B0024B01800248819002487
:10437000601A00242DE9F0431A4B87B000254FF056
:1043800010099E46EC46184BFF22E04667461A701D
:104390000EF118060EF13004CDE90055CDE90255B5
:1043A000ADF80090BCE80F00CDE90455AEE80F0071
:1043B0009CE803000095ADF800908EE80300B8E893
:1043C0000F000FC69CE803000095ADF8009086E84A
:1043D00003000FCF0FC49CE8030084E8030007B07C
:1043E000BDE8F08334000024AC18002410B5EFF3CE
:1043F000108472B6084B1A78120602D504B962B658
:1044000010BD1B78D82205485BB202FB03001430B4
:1044100003F0E2FAF2E700BFAC180024B018002461
:10442000014804F0D1BE00BF3C190024014804F04B
:10443000CBBE00BF141A0024014804F0C5BE00BF63
:10444000EC1A00242DE9F0430F68D8243F4D85B0C5
:1044500007FB04F4032F05EB0403036040DCCB6887
:104460000E46012B3CD84DD04FF0D808B646DFF8A9
:10447000FC9008FB0758BEE80F00C446ACE80F00EC
:10448000DEF800300DF1100ECCF80030D8F808C07E
:1044900099E80F000EE90F000EEB8703BCF1010F46
:1044A00053F8103CC8F88C3031D0BCF1020F42D028
:1044B000BCF1000F35D0317C8C34D8230022012090
:1044C0002C4403FB07534900C3E92602C3F89410A8
:1044D0002046C3E92822C3E92A2204F067FC18B168
:1044E000012005B0BDE8F0830146204604F078FEC7
:1044F0000028F5D10146204604F09CFE003818BF84
:104500000120EEE70B7C103B672BADD9E8E701F00B
:10451000EFF80F4B98420CBF0E4B0F4BC8F8903082
:10452000C9E701F0E5F80A4B98420CBF0B4B0C4B66
:10453000C8F89030BFE701F0DBF8054B98420CBF9C
:10454000084B094BC8F89030B5E700BFB0180024FD
:10455000000E27072D0FB0303211D0205F4390603E
:104560008A62E030200BA0101A098010046901084B
:104570002DE9F041D0F8008082B00D4617461E4666
:1045800008F18C04204604F027FE2028FAD1D8F840
:104590000C3073B96D002046089C33463A46A9B2E8
:1045A000009404F059FC003818BF012002B0BDE8A7
:1045B000F081089B32463946204604F021FDF2E79F
:1045C000044B10221A7483F8E82083F8C02183F882
:1045D00098227047B018002430B5002395B04FF4EE
:1045E0008071062204460B9306921393CDE90C13B7
:1045F000CDE90E33CDE9113301F07CF807282BD03B
:1046000004F1100541F2883206A9284605F064FD40
:1046100028B10123184684F85C3015B030BD022261
:10462000022306A92846CDE9002310220123CDE963
:10463000022300224FF48003CDE9042305224FF02A
:10464000807306926A460F9341F2883305F0B0FEFC
:104650000028DED115B030BD0323012084F85C3082
:1046600015B030BD0000000070B50023A4B04FF0BD
:1046700080724FF480750446ADF806300D93CDE995
:1046800010320122CDE90E53CDE91223CDE91433C6
:10469000002943D0F02300F1100508AEADF8063034
:1046A000C02341F2883231462846089305F014FDB4
:1046B00028B10123184684F85C3024B070BD41F263
:1046C00088320DF10601284605F070FD03460028EA
:1046D000EFD105224FF480711E93284616924FF0B9
:1046E00080721B9321931F9202AA9FED1F7BCDE93D
:1046F0001C13CDE922338DED027B9FED1D7B41F232
:10470000883316A98DED047B9FED1B7B8DED067B19
:1047100005F04EFE0028CCD124B070BD00F110058C
:1047200008AE612341F2883231462846089305F0ED
:10473000D3FC0028BDD141F288320DF10601284694
:1047400005F0B2FD0028B4D1BDF80630204623F0B4
:10475000780343F04003ADF80630FFF73DFF002833
:104760009ED0A6E7AFF3008000000000010000002B
:1047700010000000010000000000000000004000E8
:104780002DE9F04F00234FF4807501264FF080781B
:1047900004462DED028BABB08DF8073013932193B7
:1047A000299314950E96CDF85C80CDE91533CDE9AB
:1047B0001863CDE91A33CDE92253CDE92433CDE98D
:1047C000273306231C9300F095FF072808D004F137
:1047D000100741F288321CA9384605F07DFC40B133
:1047E0000123184684F85C302BB0BDEC028BBDE889
:1047F000F08F4FF0020A4FF0020B4FF0050941F223
:10480000883308AA1CA93846CDF89480CDF870905A
:104810009FED2D8BCDE908AB4FF0000A4FF4800BD4
:104820008DED0A8BCDE90CAB05F0C2FD0028D7D188
:1048300041F2883238460EA905F04EFC0028CFD14F
:10484000402341F288320DF1070138468DF80730D8
:1048500005F0ACFC0028C3D141F288330EA902AAAE
:104860003846CDF83890CDF85C809FED197B8DED02
:10487000048BCDE906AB8DED027B05F099FD034677
:104880000028ADD1CDF870904FF00109CDF894809B
:104890004FF00008219308AA29931CA938462295B5
:1048A000CDE92333CDE9273341F288338DED0A8BEF
:1048B000CDE90CABCDE9088905F07AFD002893D04D
:1048C000304684F85C608FE71000000001000000B3
:1048D00040000000400000002DE9F043624CA3B00E
:1048E0000D46046000F006FF072800F0A980286844
:1048F00023466968AA6807C31E46AB8926F8043BAD
:104900003046257B677B05F0C9FBE0B9574B012D8D
:104910004FF00108E061236114BF4FF480134FF49E
:104920000003C4E9058893FAA3F3B3FA83F34FF4C1
:104930008079013BC4F82490C4E90B00304623621F
:1049400005F040FB38B10122134684F85C2018467C
:1049500023B0BDE8F08366230B90139041F28832B8
:1049600006A90693CDE90C90CDE90E00CDE9110022
:10497000304605F0B1FB0028E5D1992341F2883299
:1049800006A93046069305F0A7FB0028DBD10523D6
:104990001C9019906A4614934FF08073219014A9CB
:1049A0001D9341F288339FED2A7BCDE91A90CDE922
:1049B0001F008DED007B9FED287B30468DED027B47
:1049C0009FED277B8DED047B05F0F2FC0028BAD12A
:1049D00029462046FFF748FE0028B4D12046FFF7BD
:1049E000CFFE03460028AED1002FB0D11893304639
:1049F0000027002606AA14A9CDF86890CDE91F3338
:104A0000EB2314934FF440631B934FF4005317931D
:104A10004FF440431C93A0231693062319934FF0A1
:104A2000805321934FF04073CDE906671D9305F045
:104A300037FD034600288AD0434684F85C8086E729
:104A400001230322184684F85C2023B0BDE8F083DC
:104A50000000000001000000100000000100000044
:104A60000000000000004000101C00240050005214
:104A70002DE9F04F8FB0414B0024026800AF9A42FD
:104A80007C63C7E90944C7E90B4403D03C37BD4602
:104A9000BDE8F08F3A4B40F609213A48EB46D3F88F
:104AA000D42007F11C0607F1220A4FF0020942F454
:104AB00080424FF00308C3F8D420D3F8D42002F486
:104AC0008042BA60BA68D3F8E02042F04002C3F8EE
:104AD000E020D3F8E02002F04002FA60FA68D3F850
:104AE000E02042F02002C3F8E020D3F8E02002F0FA
:104AF00020023A613A69D3F8E02042F01002C3F88C
:104B0000E020D3F8E02002F010027A617A69D3F84D
:104B1000E02042F00202C3F8E020D3F8E030F86170
:104B200003F002033984BB61174B7B60BB697B6870
:104B300053F8040F7B6001F0F9FA7B6805461868AA
:104B400001F0FCFA16F8013B786207F124012846CF
:104B5000C7F830807B63C7E90A9403F08FFA5645A3
:104B6000E5D100225C20114602F00CFA5C2002F034
:104B700047FA3C37DD46BD46BDE8F08F0050005295
:104B8000004402580A0A09096C1C0024114B0268EF
:104B90009A4200D07047104A70B5D2F8D4300F4C0A
:104BA00023F4804304F11806C2F8D43054F8040FFB
:104BB00001F0BCFA0546206801F0C0FA014628461B
:104BC00003F09CFBB442F1D15C20BDE8704002F0E0
:104BD00025BA00BF00500052004402586C1C00244B
:104BE000014805F0E9BC00BF201C0024084B1A1D39
:104BF000981D03F1080110B49C1C9A6603F10A0287
:104C0000C3E91834C3E91B015DF8044B5A677047C8
:104C1000101C002438B5036871B9026A00F1280538
:104C200000F5AC74012A0CBF002140218BBB1D4B49
:104C30005722C0F858310DE0426A00F1C00500F576
:104C4000E874012A0CBF00214021EBB1164B5A2217
:104C5000C0F8D03100232046C4E901214FF480522E
:104C60004FF48061636262614FF48042C4E90331B2
:104C70004FF48073C4E906234FF40033236202F03B
:104C800033FB58B1FFBEFEE7084B5822C0F8D031C5
:104C9000E0E7074B5922C0F85831DBE7C5E920446B
:104CA000A56338BD10000240700002402800024099
:104CB000580002402DE9F043821D05468BB0031DCC
:104CC00005F10A010830CDE9052305F10C02AB69B5
:104CD000CDE907010992002B3DD0EB69B3FA83F8C7
:104CE0004FEA58180123022205AE0AAF4FF0060919
:104CF0000393CDE9012356F8044B2B792278934294
:104D000016D02B68F3B1012B02D1F2B10A23049320
:104D1000204601F013FA03462046009301F006FAFC
:104D2000694603F0ABF9BE42E5D10BB0BDE8F083B4
:104D3000697963789942E4D1B8F1000FF3D02B6818
:104D4000002BE0D1CDF81090E2E76378022B14BF7E
:104D50000A230823DBE74FF00108C3E7534A03683F
:104D6000934230B505468BB055D02032934252D095
:104D70004F4A934204D02032934201D00BB030BD51
:104D80004C4C4D48D4F8E03043F00103C4F8E03017
:104D9000D4F8E03003F001030593059BD4F8E0302C
:104DA00043F00803C4F8E030D4F8E03003F008031F
:104DB0000693069BD4F8E03043F04003C4F8E0309B
:104DC000D4F8E03003F040030793079BD4F8F030A9
:104DD00043F40003C4F8F030D4F8F03003F40003D7
:104DE0000893089BFFF766FFD4F8D830296843F092
:104DF00001032F4A3048C4F8D830891AD4F8D83083
:104E000018BF012103F001030993099B0BB0BDE812
:104E10003040FFF7FFBE274C2848D4F8E03043F07D
:104E20000103C4F8E030D4F8E03003F0010300934C
:104E3000009BD4F8E03043F01003C4F8E030D4F81D
:104E4000E03003F010030193019BD4F8E03043F00D
:104E50004003C4F8E030D4F8E03003F0400302939C
:104E6000029BD4F8F03043F48003C4F8F030D4F857
:104E7000F03003F480030393039BFFF71BFFD4F888
:104E8000D830296843F00103084A0C48C4F8D830E8
:104E9000891AD4F8D83018BF012103F00103049314
:104EA000049B0BB0BDE83040FFF7B4BE045801408E
:104EB000045C014000440258E41E0024881C0024C5
:104EC000014802F089BD00BFE01D0024014802F046
:104ED00083BD00BF581E0024014802F07DBD00BF05
:104EE0003C200024014802F077BD00BFB42000241C
:104EF0001A4A0368934210B40BD02032934208D070
:104F0000174A934216D02032934213D05DF8044BD7
:104F10007047144B0022D3F85442C3F85822002C97
:104F2000F4D0D3F84802D3E9931223465DF8044B3A
:104F3000520818470B4B0022D3F8B044C3F8B424EE
:104F4000002CE3D0D3F8AC24D3F8A814D3F8A404ED
:104F5000520823465DF8044B184700BF045801402F
:104F6000045C0140881C0024184A0368934210B472
:104F70000BD02032934208D0154A934217D02032EA
:104F8000934214D05DF8044B7047124BD3E994243C
:104F90005208C3F85822002CF4D0D3E992012346DA
:104FA00001EB820100EB82005DF8044B1847094BCE
:104FB000D3F8AC24D3F8B0445208C3F8B424002C7E
:104FC000E0D0D3F8A814D3F8A404E8E704580140CB
:104FD000045C0140881C00242DE9F04F0C684FF45C
:104FE0001776754F87B004FB06F6012C07EB060A0F
:104FF000C0F800A000F3A0800D468E464FF00008D8
:10500000D44669A3D3E9002369A1D1E90001CDE920
:10501000022306ABCAF8508203EB8403CDE90401F6
:1050200053F810BC53F8083CCAE992880193BEE8D3
:105030000F00ACE80F00BEE80F00ACE80F00019BCA
:105040009EE80300CAF828B0CAF8C0308CE8030014
:105050002B69042B0CD8DFE803F0737D87910300E4
:105060004FF41773554A03FB04739A64C3F8E020A6
:10507000AA692B6A002A43D0002B4FF4177308BF8C
:10508000022203FB047318BF0322DA6201221A63AF
:10509000EA696B6A002A40D1191E4FF4177318BFD2
:1050A000012103FB0473C3E931126B69022B05D89C
:1050B000434A12F80380434A52F823904FF417737F
:1050C00006F128004246494603FB04740023384495
:1050D00063646363E365C4F8DC30C4F8CC30C4F8BF
:1050E000F430C4E90F33C4E91533C4E93533C4E9F6
:1050F0003B33022307F002FB002849D0FFBEFEE746
:10510000191E4FF4177318BF012103FB0473C3E981
:105110000B12EA696B6A002ABED0002B4FF417739A
:1051200008BF022203FB047318BF0322C3F8C42084
:105130000122C3F8C820B8E7012007B0BDE8F08F0E
:105140004FF417734FF4FA5203FB04739A64C3F8D5
:10515000E0208DE74FF417734FF47A5203FB04738A
:105160009A64C3F8E02083E74FF417734FF4FA42D0
:1051700003FB04739A64C3F8E02079E74FF41773D4
:105180004BF6803203FB04739A64C3F8E0206FE7A8
:1051900006F1C000022342464946384407F0AEFA01
:1051A0000028CAD0FFBEFEE704580140045C01405D
:1051B00024580140245C0140881C00240077010031
:1051C000D8690108DC6901080068704770B5046897
:1051D00082B015460E46C4F85032C4E99212069ABF
:1051E000C4F85422A269012A26D0626A012A9AB21E
:1051F00011D0294604F1C000019207F03BFB236A5D
:10520000019A012B10D0294604F1280007F032FB47
:10521000002002B070BD04F1C000019207F0BCFB99
:10522000236A019A012BEED1314604F1280007F0E0
:10523000B3FB002002B070BD226A012A9AB211D0DD
:10524000294604F12800019207F014FB636A019AD1
:10525000012B10D0294604F1C00007F00BFB002001
:1052600002B070BD04F12800019207F095FB636A5B
:10527000019A012BEED1314604F1C00007F08CFBFE
:10528000002002B070BD00BF03681B69042B05D865
:10529000044A02EB830393ED000A70479FED020A74
:1052A000704700BFE869010800803B470368D3F8F6
:1052B00058027047704700BF08B501F047F8BDE8D5
:1052C000084001F027BF00BF064808B503680BB1CE
:1052D00003F0E6F8044803681BB1BDE8084004F099
:1052E0008DB808BD604B002458450024064808B519
:1052F00003680BB103F0D4F8044803681BB1BDE8A0
:10530000084004F07BB808BD604B002458450024D9
:10531000064808B503680BB103F0C2F804480368F7
:105320001BB1BDE8084004F069B808BD604B00241B
:1053300058450024364BDA6A520062D59A6A9A6A56
:105340009A6A9B6A180600D500BE314B9B6A990683
:1053500000D500BE2E4B9B6ADA0600D500BE2C4B52
:105360009B6A1B0700D500BE294B9B6A980700D596
:1053700000BE274B9B6AD90700D500BE244B9B6A11
:105380001A0400D500BE224B9B6A9B0400D500BEC8
:105390001F4B9B6AD80400D500BE1D4B9B6A1905A4
:1053A00000D500BE1A4B9B6A5A0500D500BE184BAB
:1053B0009B6A9B0500D500BE154B9B6AD80500D59E
:1053C00000BE134B9B6A990100D500BE104B9B6A2F
:1053D000DA0100D500BE0E4B9B6A1B0300D500BE50
:1053E0000B4B9B6A580300D500BE094B9B6A99037F
:1053F00000D500BE064B9B6ADA0306D400BE00BE91
:10540000FEE7DB6A9B07FAD5F8E700BEF6E700BFC8
:1054100000ED00E000F0A6BF00F0AABF2DE9F041CA
:10542000CEB004464C2200210AA80EF061FB2022D7
:10543000002102A80EF05CFBBC2200211EA80EF089
:1054400057FB022004F0D6FC2368012B4FF0000329
:1054500054D0534A02250193C820D16A514B21F000
:105460000101D162D26A02F0010201929A6942F40A
:1054700040429A619B6903F440430193019B494A6E
:1054800093699B04FCD548490224002201268B6ABB
:1054900004274FF0080823F0030323438B620523FE
:1054A00016900AA818934FF4803310961794199405
:1054B0001597CDF86880CDE91B222122CDE9134450
:1054C000CDE90A2305F080F900B1FEE73F2203236E
:1054D000294602A8CDE9022300220823CDE90423AE
:1054E00040224023CDE9062340234FF48062CDE9DA
:1054F000082305F097FC0346B8B1FEE7294A0425C6
:105500000093F0209169264B41F4404191619269EA
:1055100002F440420092DA6A42F00102DA62DB6A87
:1055200003F001030093009BA9E720224FF4805170
:1055300025934FF440152B9280222D931EA8309373
:10554000269135914FF48071249234920C22339439
:10555000439140F2271120921022CDF884802A979F
:105560001F96CDE92E34CDE93B334FF48033CDE99E
:1055700022463193002446930623CDE93E452793E6
:105580004FF48063094C2C931E94CDE9281205F04A
:10559000A5FE00B1FEE704F053FC4EB0BDE8F0817B
:1055A0000004005800480258004402580F130F032B
:1055B0002DE9F0410D46044684B0D1E9000184E8AC
:1055C000030000F093FEAE79002E37D06F460BF04B
:1055D00073F9FEF7CFFE09F049FE0AF001FF2B79BF
:1055E000002B54D16B799BB1BFF34F8FBFF36F8FFB
:1055F0003C4B0022C3F85022BFF34F8FBFF36F8F95
:105600005A6942F400325A61BFF34F8FBFF36F8F74
:105610004FF0FF3200230024002539463248029221
:105620008DF80C30CDE900450AF040FA2E480AF01A
:10563000A5FA09F04BFA04B0BDE8F08120466F46A8
:10564000FFF7ECFE012401F013FD4FF040534FF43F
:10565000807838460193254BADF80040CDE90238FB
:1056600001F024FD19224FF0404338468DF80F40D9
:10567000ADF80D808DF801408DF80A608DF8082096
:10568000019301F013FD042001F000FD9FE7154C8C
:105690000023C4F88430BFF34F8FD4F8803043F632
:1056A000E07EC3F3C906C3F34E334FEA431C0CEA52
:1056B0000E00334640EA8372013BC4F860225A1C54
:1056C000F8D1ACF1200C1CF1200FF0D1BFF34F8FBB
:1056D000636943F480336361BFF34F8FBFF36F8F10
:1056E00080E700BF00ED00E0402100240E00010330
:1056F00005F0C8BC1C4B9B6803F17842B2F5003F33
:1057000025D3B3F5803F20D303F16042B2F5003FCB
:105710001FD303F15C42B2F5002F1CD303F170429A
:10572000B2F5902F19D303F14842B2F5803F16D35A
:1057300003F18042B2F1806F13D303F1E043B3F57C
:10574000000F2CBF08200720704701207047002061
:1057500070470220704703207047042070470520DF
:1057600070470620704700BF00ED00E003480023AB
:10577000034A044903600DF0A1BE00BF402100248C
:1057800000000024B552000810B4204C0022204B29
:1057900083B0D4F888101F4841F47001C4F8881011
:1057A00019681D4C41F0010119601A61196808401F
:1057B0001A4918609A61DA611A629A62DA621A63A7
:1057C0005A639A63DA631A645A64186820F4802072
:1057D00018601A66D3F8DC2042F06042C3F8DC207F
:1057E000D3F8DC300193019B23681940B1F1005FCD
:1057F00003D20B4B0122C3F80821044B4FF0006287
:105800009A6003B05DF8044B704700BF00ED00E004
:10581000004402587FEDF6EA0010005C0000FFFF34
:1058200000800051704700BF0020704770B50446EB
:10583000074E0D463046214608F05EFC304608F023
:105840007DFC044B204629461B689847002070BD0C
:10585000301100244441002470B50446074E0D4623
:105860003046214608F048FC304608F067FC044BFF
:10587000204629461B689847002070BDCC130024A1
:105880004841002400220949094808B508F02AFCCB
:105890000849074808F030FC074B1A680AB1002095
:1058A00008BD064A00201A6008BD00BF443100242C
:1058B00030110024442100244441002425580008CC
:1058C00000220949094808B508F00CFC08490748B6
:1058D00008F012FC074B1A680AB1002008BD064AFE
:1058E00000201A6008BD00BF44390024CC130024F6
:1058F00044290024484100242558000820280AD0C3
:10590000212806D1094B18689A889B7908608A80FB
:105910008B7100207047054B0868B1F804C08A7984
:1059200018600020A3F804C09A717047A4000024F6
:1059300020280AD0212806D1094B18689A889B791B
:1059400008608A808B7100207047054B0868B1F8A9
:1059500004C08A7918600020A3F804C09A717047C7
:10596000AC0000240020704710B5094CD4F89032E8
:10597000D3F814320BB1012010BD0A46014620466F
:1059800008F0B0FB2046BDE8104008F0BDBB00BFEA
:10599000301100244B4A036830B593428BB04FF06E
:1059A0000004CDE90444CDE90644089404D0464AF5
:1059B000934249D00BB030BD444D4FF4C0524448DF
:1059C000D5F8E03043F00103C5F8E030D5F8E03019
:1059D00003F0010300930223009904A9CDE90423F5
:1059E0000A23089302F04AFB4FF40072002304A933
:1059F00037480694CDE9042302F040FBD5F8D830AF
:105A00002246214643F000636220C5F8D830D5F81D
:105A1000D83003F000630193019B01F0B3FA6220D8
:105A200001F0EEFA22462146632001F0ABFA632032
:105A300001F0E6FA22462146652001F0A3FA65202E
:105A400001F0DEFA0BB030BD204D4FF4404204A906
:105A5000D5F8E03043F00203C5F8E030D5F8E03087
:105A600003F002030293022302981A48CDE90423AB
:105A70000C23089302F002FBD5F8D83022462146C9
:105A80004A2043F00073C5F8D830D5F8D83003F079
:105A900000730393039B01F075FA4A2001F0B0FAFA
:105AA000224621464B2001F06DFA4B2001F0A8FA66
:105AB000224621464D2001F065FA4D2001F0A0FA62
:105AC0000BB030BD00000840000004400044025804
:105AD000000002580004025800F57171D0F8040467
