:02000004900466
:10000000000002209906049095060490CD4C0490BF
:100010009506049095060490950604900000000053
:1000200000000000000000000000000095060490A1
:10003000950604900000000095060490514C049031
:1000400095060490950604909506049095060490F4
:1000500095060490950604909506049095060490E4
:1000600095060490950604909506049059480490CE
:1000700065480490BD350490714804907D48049013
:10008000A9FF0490893D049095060490950604907C
:1000900095060490950604909506049095060490A4
:1000A0009506049095060490950604909506049094
:1000B000D5F30490E1F30490EDF30490BD3D04907A
:1000C00095060490C93D04909506049045EC049073
:1000D00051EC0490DDFD049009FE04903DFE049077
:1000E0009506049095060490000000009506049083
:1000F0009506049095060490950604909506049044
:100100009506049095060490F9F304905DEC049034
:1001100071FE0490A5FE0490950604909506049047
:10012000950604909506049081EC0490B5EC04903B
:10013000DDFF0490950604909506049095060490C2
:1001400000000000000000000000000000000000AF
:10015000950604909506049095060490D9FE0490A7
:10016000D53D049095060490614C0490854C049014
:1001700095060490A94C0490950604909506049069
:1001800095060490950604900DFF049041FF04909D
:1001900069EC049075EC0490950604909506049023
:1001A0009506049095060490950604909506049093
:1001B0007945049095060490950604909506049060
:1001C0009506049095060490713004907D3004905B
:1001D0009506049089300490950604909506049045
:1001E0009506049095060490950604909506049053
:1001F0009506049095060490950604909506049043
:100200009506049095060490950604909506049032
:100210009506049095060490950604909506049022
:100220009506049095060490950604900000000041
:100230009506049095060490000000009506049031
:1002400095060490950604909506049095060490F2
:1002500095060490950604909506049095060490E2
:1002600095060490950604909506049095060490D2
:10027000950604909506049075FF04900000000018
:1002800095060490950604909506049000000000E1
:08029000000000009506049037
:1002A00010B5054C237833B9044B13B10448AFF3B0
:1002B00000800123237010BDE80700240000000027
:1002C0003C64059008B5034B1BB103490348AFF3E9
:1002D000008008BD00000000EC0700243C6405908D
:1002E000034613F8012B002AFBD1181A0138704776
:1002F00001F0FF01102A2BDB10F0070F08D010F8D7
:10030000013B013A8B422DD010F0070F42B3F6D1DA
:10031000F0B441EA012141EA014122F007047FF0F3
:1003200000070023F0E80256083C85EA010586EA4A
:10033000010685FA47F5A3FA87F586FA47F6A5FA86
:1003400087F68EB9EED1F0BC01F0FF0102F0070292
:1003500032B110F8013B013A83EA010313B1F8D13D
:100360000020704701387047002D06BF354603381E
:10037000073815F0010F07D1013015F4807F02BF57
:10038000013015F4C03F0130F0BC0138704700BFA8
:1003900053B94AB9002908BF00281CBF4FF0FF31EC
:1003A0004FF0FF3000F074B9ADF1080C6DE904CEE8
:1003B00000F006F8DDF804E0DDE9022304B0704740
:1003C0002DE9F047089D04468E46002B4DD18A4208
:1003D000944669D9B2FA82F252B101FA02F3C2F13B
:1003E000200120FA01F10CFA02FC41EA030E9440CC
:1003F0004FEA1C48210CBEFBF8F61FFA8CF708FBED
:1004000016E341EA034306FB07F199420AD91CEBC4
:10041000030306F1FF3080F01F81994240F21C81F6
:10042000023E63445B1AA4B2B3FBF8F008FB10333E
:1004300044EA034400FB07F7A7420AD91CEB040473
:1004400000F1FF3380F00A81A74240F20781644443
:10045000023840EA0640E41B00261DB1D4400023C8
:10046000C5E900433146BDE8F0878B4209D9002D2C
:1004700000F0EF800026C5E9000130463146BDE8B6
:10048000F087B3FA83F6002E4AD18B4202D3824220
:1004900000F2F980841A61EB030301209E46002DCF
:1004A000E0D0C5E9004EDDE702B9FFDEB2FA82F224
:1004B000002A40F09280A1EB0C014FEA1C471FFA82
:1004C0008CFE0126200CB1FBF7F307FB131140EA69
:1004D00001410EFB03F0884208D91CEB010103F136
:1004E000FF3802D2884200F2CB804346091AA4B2F8
:1004F000B1FBF7F007FB101144EA01440EFB00FECC
:10050000A64508D91CEB040400F1FF3102D2A64530
:1005100000F2BB800846A4EB0E0440EA03409CE7CF
:10052000C6F12007B34022FA07FC4CEA030C20FA7C
:1005300007F401FA06F31C43F9404FEA1C4900FA9C
:1005400006F3B1FBF9F8200C1FFA8CFE09FB181119
:1005500040EA014108FB0EF0884202FA06F20BD98C
:100560001CEB010108F1FF3A80F08880884240F2DC
:100570008580A8F102086144091AA4B2B1FBF9F020
:1005800009FB101144EA014100FB0EFE8E4508D91B
:100590001CEB010100F1FF346CD28E456AD90238A0
:1005A000614440EA0840A0FB0294A1EB0E01A14285
:1005B000C846A64656D353D05DB1B3EB080261EBF3
:1005C0000E0101FA07F722FA06F3F1401F43C5E9CD
:1005D000007100263146BDE8F087C2F12003D84003
:1005E0000CFA02FC21FA03F3914001434FEA1C4745
:1005F0001FFA8CFEB3FBF7F007FB10360B0C43EA37
:10060000064300FB0EF69E4204FA02F408D91CEBE6
:10061000030300F1FF382FD29E422DD902386344E4
:100620009B1B89B2B3FBF7F607FB163341EA034184
:1006300006FB0EF38B4208D91CEB010106F1FF38D3
:1006400016D28B4214D9023E6144C91A46EA0046CA
:1006500038E72E46284605E70646E3E61846F8E65C
:100660004B45A9D2B9EB020864EB0C0E0138A3E7A5
:100670004646EAE7204694E74046D1E7D0467BE786
:10068000023B614432E7304609E76444023842E7FE
:10069000704700BFFEE700000848094A0949121ADE
:1006A00012F090FC0848094A0021121A12F098FC36
:1006B00012F054FC00F03AF9FEE700BF00000024FD
:1006C000DC07002470640590E8070024A867002474
:1006D0007047704773B5104E134605460C46326896
:1006E000B2F5007F15D30D48019300F07EFD002286
:1006F000019B326009480193D5E9001200F0AAFA83
:10070000019B0648D4E9001202B0BDE8704000F039
:1007100052BB1A443260EDE7880E002444080024DE
:10072000704770477047836810B5044613B10322C1
:1007300001469847204610BD00220C49C262C2649F
:100740008267C0F88C10C0F8A820C0F8BC10C0F8B0
:10075000D820C0F8E810C0F80421C0F82811C0F86B
:100760004421C0F85811C0F8742170470AD7233CBF
:1007700010B5044600F5B670FFF7D5FF04F59E707E
:10078000FFF7D1FF04F1FC00FFF7CDFF04F1D0002B
:10079000FFF7C9FF04F1A000FFF7C5FF04F17000E7
:1007A000FFF7C1FF04F14400FFF7BDFF04F124008F
:1007B000FFF7B9FF204610BD10B5044600F5C46030
:1007C000FFF7B1FF04F59060FFF7D2FF04F540702A
:1007D000FFF7CEFF04F5C070FFF7CAFF2046FFF712
:1007E000C7FF204610BD00001FB5194C204601F080
:1007F00009F82046002101F0FFF82046042101F00D
:1008000023F82046032101F003F8124B0022214671
:1008100011481A60114B124A0293124B0193124B6A
:100820000093124B00F048FB114B124A00931249FF
:10083000124B094800F0D6F9114B124A2146019398
:10084000114B05480093114B00F0E7F904B010BDBF
:1008500004080024880E00244408002464000024B6
:10086000240000245C000024540000244C000024D8
:1008700044000024340000242C0000243C00002408
:100880001C00002404000024140000240C00002498
:1008900010B506238EB0002201218DF81A300223F4
:1008A0008DF8201004208DF8213005248DF82320A8
:1008B0008DF828308DF829208DF82B208DF82C10FC
:1008C0008DF818208DF8192003228DF81B308DF833
:1008D0001C100C218DF831308DF834300EAB8DF8B2
:1008E00022008DF824408DF82A008DF830208DF8F4
:1008F00033208DF8321013E9030004908DF81410A2
:10090000DDE90A0102908DF80C10DDE90801009084
:100910008DF8041003480449DDE9062300F036FB96
:100920000EB010BD440800240408002400B50224C1
:10093000A3B00025FFF758FFFFF7AAFF2649274875
:1009400000F062FF8DF804408DF8055022460199B1
:1009500007A802F09FFB03238DF8085022468DF86C
:1009600009300DF12E00029902F094FB012322467A
:1009700010A88DF80C308DF80D30039902F08AFB29
:1009800007238DF8105022468DF811300DF15200DA
:10099000049902F07FFB8DF814508DF81540224623
:1009A000059919A802F076FB8DF818508DF81950AA
:1009B000224606990DF1760002F06CFB0423062214
:1009C00007A9074802F07AFB054802F085FD284692
:1009D00002F03EFAFEE700BFD506049004080024AA
:1009E0001C08002438B51D4800241D4D1D4A1E4911
:1009F000046044610462C46312F08AFA2846FFF777
:100A00009BFE05F5C070FFF797FE05F54070FFF7F8
:100A100093FE05F59060FFF78FFE05F20C63134916
:100A20002846104A19601249C5F8284612F070FA93
:100A30000C4A20460F4912F06BFA0A4A0E4920462A
:100A400012F066FA074A0D49204612F061FA204674
:100A5000044A0B49BDE8384012F05ABA0408002491
:100A60004408002400000024D10604900AD7233C47
:100A7000B9070490D3060490250704902107049039
:100A80002307049003680A6803F5C6631A60704779
:100A90000A680368C3F87C2170470A680368C3F8D2
:100AA000FC22704703680A6803F27C431A607047AF
:100AB00003680A6803F2FC531A6070470A68036807
:100AC000C3F84C2170470A680368C3F8CC2270470A
:100AD00003680A6803F24C431A60704703680A68A7
:100AE00003F2CC531A607047012A02D10160002042
:100AF0007047022A04BF0B680360F8E7012A02D19D
:100B0000016000207047022A04BF0B680360F8E709
:100B1000012A02D1016000207047022A04BF0B683D
:100B20000360F8E7012A02D1016000207047022A21
:100B300004BF0B680360F8E7012A02D101600020BE
:100B40007047022A04BF0B680360F8E7012A02D14C
:100B5000016000207047022A04BF0B680360F8E7B9
:100B6000012A02D1016000207047022A04BF0B68ED
:100B70000360F8E7012A02D1016000207047022AD1
:100B800004BF0B680360F8E7012A02D1016000206E
:100B90007047022A04BF0B680360F8E700000000FA
:100BA00090ED5F0A9FED0C7BB7EEC06AB4EEC76BA9
:100BB000F1EE10FA0CD40378022B09D0463150F82C
:100BC000213003EB8202D2ED007A20EE270A704733
:100BD0009FED030A704700BF7B14AE47E17A743F74
:100BE0000000000030B50D68039CC0F8185115686E
:100BF000C0F898521D68C0F818542568C0F8985578
:100C00004968C0F81C115268C0F89C225B68C0F8A3
:100C10001C346368C0F89C3530BD2DE9F0410446B2
:100C20000D461E46DDE9068700F0E0FB3246294608
:100C300004F5C07000F0DAFB4246294604F5407026
:100C400000F0D4FB3A46294604F59060BDE8F04137
:100C500000F0CCBB2DE9F04104460D4616461F4678
:100C600000F014FC29463B46324604F5C07000F003
:100C70000DFC3B463246294604F5407000F006FC68
:100C80003B463246294604F59060BDE8F04100F04D
:100C9000FDBB0023C0F800360378022B1CBF0123E4
:100CA000C0F8003690F88031022B1EBFD0F8003615
:100CB0000133C0F8003690F80033022B1EBFD0F885
:100CC00000360133C0F8003690F88034022B1EBF86
:100CD000D0F800360133C0F80036D0F80036042BC7
:100CE000C4BF0423C0F8003670472DE9F04705461D
:100CF000894600242DED048BFFF7CBFF4C4556D0E1
:100D000022460021284605F5C078FFF749FFF0EE9E
:100D1000408A22460021404605F54077FFF740FF14
:100D200005F5906678EE808A224600213846FFF766
:100D300037FF22460021304678EE808AFFF730FFE9
:100D4000D5F800360121D5F83426284607EE903A2A
:100D500038EE800A02EB8402B8EEE79A4FEA840A82
:100D6000C0EE097AC2ED007A2246FFF719FFF0EED5
:100D7000408A224601214046FFF712FF78EE808A22
:100D8000224601213846FFF70BFF78EE808A224683
:100D9000012130460134FFF703FF38EE800AD5F811
:100DA0003836C0EE097A5344C3ED007AA6E7BDECAD
:100DB000048BBDE8F087F8B51D46044617460E467D
:100DC0001A4600F58C7100F07EFB2A4604F5267168
:100DD00004F5C07000F077FB2A4604F5836104F542
:100DE000407000F070FB2A4604F5B36104F5906092
:100DF00000F069FB2946204607EB8505FFF775FFE4
:100E000031463B46AB421AD0A3EB070CD4F834066C
:100E100004F5C666D4F83826604496ED007A62443C
:100E2000D0ED007A67EE877AE1EC017AD2ED007AB4
:100E300096ED007A67EE877AE3EC017AE2E7F8BD97
:100E400070B586B00376002301600A9E00210493EA
:100E50000446B36802AD4160C16080ED040AC0ED94
:100E6000050A42763BB10222314628469847F3688C
:100E70000593B36804936A4604F11C0395E80300E4
:100E800082E8030093E8030085E8030092E803008A
:100E900083E80300049B2846626A6362059B049210
:100EA000A26AA3620592FFF73EFC237E052B1CBFBE
:100EB0000123A37606B070BD2DE9F0479A462D4B6D
:100EC00004460E46C0F83C3686B010682A4900F544
:100ED000EA13C4F83406556803F6FF32109FC4F8CD
:100EE0003856521B8A42DDE90E9839D9234A00212F
:100EF00012F076F8214A0021284612F071F8514686
:100F0000204600F001FA494604F5C07002AD00F039
:100F1000FBF9414604F5407000F0F6F9394604F556
:100F2000906000F0F1F9164B0022F7EE000A0593ED
:100F30003146144B04F204609FED130AC4F80026F6
:100F40000493042300950294FFF77AFF2846FFF7E5
:100F5000EAFB04F5C86006B0BDE8F04711F0D4BF65
:100F600003F54063002240F8042B834245F8042B2C
:100F7000F8D1C4E700530700FE973A00004C1D006B
:100F8000850A0490890B049000000000F0B52DED57
:100F9000028B89B09FED648A0446F7EE000A02AF27
:100FA00004ADB0EE480A0E4687E80C005F4B002205
:100FB000049000F5A87007935D4B009506939DF88B
:100FC0000830FFF73DFF2846FFF7ADFB594BB0EE69
:100FD000480A31460793F7EE000A574B002204F502
:100FE0003470009506939DF840300494FFF728FF75
:100FF0002846FFF798FB514BB0EE480A314607935D
:10100000F7EE000A4E4B002204F58A600095069325
:101010009DF848300494FFF713FF2846FFF783FB41
:10102000484BB0EE480A31460793F7EE000A464BAC
:10103000002204F5BA60009506939DF850300494A0
:10104000FFF7FEFE2846FFF76EFB404BB0EE480A66
:1010500031460793F7EE000A3D4B002204F59070ED
:101060000095069305230494FFF7EAFE2846FFF750
:101070005AFB384BB0EE480A31460793F7EE000AA8
:10108000354B002204F5287000950693052304943F
:10109000FFF7D6FE2846FFF746FB304BB0EE480A76
:1010A00031460793F7EE000A2D4B002204F58460C9
:1010B0000095069305230494FFF7C2FE2846FFF728
:1010C00032FB284BF7EE000A31460793B0EE480A90
:1010D000254B002204F5B460009506930523049483
:1010E000FFF7AEFE2846FFF71EFB204697E80600F6
:1010F00000F03EF910AB04F5C07093E8060000F074
:1011000037F904F54070DDE9121200F031F904F509
:101110009060DDE9141200F02BF9012384F83A31D4
:1011200009B0BDEC028BF0BD00000000910A0490F4
:10113000750B04909B0A0490610B0490A50A04901F
:101140004D0B0490B10A0490390B0490BD0A049031
:10115000250B0490C70A0490110B0490D10A049047
:10116000FD0A0490DD0A0490E90A0490837E13B519
:101170000446002B37D00068217E183002F0C2F9F7
:10118000D4ED017A94ED027A77EE876AB4EEE60A3E
:10119000F1EE10FA06DC77EEC77AB4EEE70AF1EE6C
:1011A00010FA20D5637E84ED010A3BB1012B10D0EB
:1011B000E3680193636A8BB911F0AFFED4ED047A52
:1011C00094ED057A37EE677AE0EE077AC4ED037A9C
:1011D000EEE720EE000AD4ED047AF1E7A36A01A954
:1011E00004F11C00984702B010BD10B5044600F091
:1011F00000F904F5A870FFF7B9FF04F59070FFF748
:10120000B5FF04F5C07000F0F4F804F53470FFF792
:10121000ADFF04F52870FFF7A9FF04F5407000F05A
:10122000E8F804F58A60FFF7A1FF04F58460FFF792
:101230009DFF04F5906000F0DCF804F5BA60FFF75C
:1012400095FF04F5B460FFF791FF04F20460FFF727
:101250008DFF10BD012A02D1016000207047022AD3
:1012600004BF0B680360F8E7012A02D10160002087
:101270007047022A04BF0B680360F8E770B588B0B6
:1012800016460446ADF8041004AD019901F016FEAF
:1012900000230693B3683BB10222314628469847A3
:1012A000F3680793B368069302AA04F1100395E864
:1012B000030082E8030093E8030085E8030092E856
:1012C000030083E80300069B2846A269A361079BED
:1012D0000692E269E3610792FFF725FA08B070BD54
:1012E00010B5044601F004FE237963B1A37A802B84
:1012F00009D1A3690BB911F010FEE36904F11000E4
:10130000BDE81040184710BD38B502230025037012
:10131000012305610373134BC3650B6803F5EA12E0
:1013200043654C6802F6FF318465091BC0E901552D
:101330000D4881420BD929460C4A184611F050FE3F
:1013400029462046094ABDE8384011F049BE02F559
:101350004062002143F8041B9A4244F8041BF8D170
:1013600038BD00BF00530700FE973A00004C1D0037
:1013700010B588B09FED180A044602AB8DED010A46
:1013800083E80600154B04AA9DF80A100793144B36
:101390000490143006939DF8093043EA0121FFF7C9
:1013A0006DFF04A8FFF7BFF90E4B9DF80C1004AABF
:1013B000079304F134000C4B9DED010A06939DF850
:1013C0000B30049443EA0121FFF758FF04A8FFF70C
:1013D000AAF908B010BD00BF00007A44331404908D
:1013E000691204905514049055120490603000F076
:1013F00065B910B504461430FFF772FF04F13400EC
:10140000FFF76EFF04F16000BDE8104000F0C9B8BE
:10141000037833B1013B012B08D90023C0E9013324
:1014200070470223037043680361F6E700230370EB
:10143000F3E70068FFF7ECBF0378012B08D013F047
:10144000FD0F01D1012303700023C0E90133704770
:101450000223F8E70068FFF7EFBF4368C26D9342CD
:1014600034BF0133002343607047037833B94368C6
:1014700013B9002383607047013BFBE7012BFAD1CE
:10148000836802699342F4D20133F3E72DE9F04116
:1014900004781E46ACB90F4690462146B14210D0A2
:1014A00045680131446D57F8043B826D04EB8504B7
:1014B00002EB8502236058F8043B1360FFF7CDFF71
:1014C000ECE7BDE8F0810378022B70B5164617D023
:1014D0000024B44214D08268456D05EB82052B6868
:1014E0000D6805EB84052B60836D03EB82031A689E
:1014F0004B6803EB840301341A60FFF7B6FFE8E79B
:1015000070BD0A6803681A6570470A680368C3F803
:10151000AC207047012A02D1016000207047022AE6
:1015200004BF0B680360F8E7012A02D101600020C4
:101530007047022A04BF0B680360F8E7012A02D152
:10154000016000207047022A04BF0B680360F8E7BF
:101550000B680021026810B5064CD2F8B000A34217
:10156000D2F8B420016028BF2346836011609360E5
:1015700010BD00BF7FA903000123D0F8B02041F2C5
:10158000883180F820304FF07C5310B5002403657B
:1015900091601460D0F8B42014609160C0F8AC3051
:1015A00010BD13B5044601F0A3FC237953B1A37A0F
:1015B000802B07D1A3690BB911F0AFFCE36904F1EB
:1015C0001000984704F12400FFF7D0FD94F86E3026
:1015D00043B3606D94F86C10183001F093FFD4EDB4
:1015E000167A94ED177A77EE876AB4EEE60AF1EE92
:1015F00010FA06DC77EEC77AB4EEE70AF1EE10FADD
:1016000010D594F86D3084ED160A9BB1012B0FD0E4
:10161000236E0193A36F002BCED0E36F01A904F1D9
:101620007000984704F18000FFF7A0FD02B010BDE4
:1016300020EE000AD4E919239B1A07EE903AB8EE7F
:10164000677A07EE902AF8EE677AE0EE077AFCEE0A
:10165000E77AC4ED187ADBE713B50B4602466C4611
:10166000D0E9000184E8030093E8030082E8030066
:1016700094E8030083E8030002B010BD30B50023F6
:1016800085B004460D4602938B6833B1022268464A
:101690009847EB680393AB68029321466846FFF7CF
:1016A000DBFF029BA2686846A360039B0292E2688C
:1016B000E3600392FFF737F805B030BD2DE9F04144
:1016C0000446002510684FF00108174688B00E4602
:1016D000C4F8B0002946444AC0E901580C3011F062
:1016E0007FFC7868404A2946C4F8B4004FF07E5722
:1016F000C0E901580C30002511F072FC3B4B04A9E5
:1017000004F1400007933A4B666206930323A562F7
:10171000A38725636563A7630494FFF7AFFF94F87D
:101720003C3004A8052B18BF84F83E804FF0010818
:10173000FEF7F9FF2F4B42F210726946039304A89B
:101740002D4BA2660222029300236665A565A4F8CC
:101750006C8006930094C4E91833FFF7E5FE039B01
:1017600004F1700104A80793029B0693FFF774FF2E
:10177000069B04A8A26FA367079B0692E26FE3672C
:101780000792FEF7D0FF94F86C306846052B18BF1F
:1017900084F86E80FEF7C7FF184B04A904F19C0083
:1017A0000793174BC4F8806006930223C4F8845053
:1017B000A4F89830C4F88C50C4F89050C4F89470D1
:1017C0000494FFF75BFF94F8983004A8052B1CBF26
:1017D000012384F89A30FEF7A6FF204608B0BDE842
:1017E000F041FFF7C9BE00BF00A60E00031504902C
:1017F0003D15049051150490291504900B15049083
:1018000015150490704700BF143001F065BA00BF91
:1018100038B500F1140504462DED028B284601F081
:1018200017FA284601F010FA2846B0EE408A01F077
:10183000F9F9D0ED007AF8EE677A88EE277ABDECF8
:10184000028B84ED0E7A38BD38B500F114050446DC
:101850002DED028B284601F0E9F9284601F0F4F954
:101860002846B0EE408A01F0DDF9D0ED007AF8EEBE
:10187000677A88EE277ABDEC028B84ED0E7A38BD4C
:1018800010B540F203338EB000244FF60B7240F2D5
:101890000341ADF8083009A80123ADF81020ADF8D8
:1018A00024202246ADF80C100094029907940C9461
:1018B000CDE90544CDE90A4401F02CFF04A8012339
:1018C00022460399009401F025FF09A802F008F8C8
:1018D00010B901200EB010BD04A802F001F8A0421A
:1018E0000CBF022020460EB010BD00BF2DE9F04114
:1018F00003239AB0012700240646CDE914373B4B59
:10190000CDE9104340F20453CDE91647ADF8483015
:10191000FFF7B6FFB842054625D0022845D040F66D
:101920000132334B0DF12C081894ADF82C200B9894
:101930001997CDF84A3000F0E3F810A906F13C0001
:1019400003F016F8302003224FF07E5341460D93EA
:101950000E93CDE90B02F26B06F1140001F02AF9A7
:101960001AB0BDE8F0811023214A06A906908DF82F
:1019700028300DF12C081F4BCDF84A200793029414
:10198000CDE91804CDE9080402A802F029FA0823D9
:10199000029A03A94046ADF80C508DF80E4004950C
:1019A00005930B9400F0ECF8C7E700200121104BE1
:1019B0000DF12C083A460094CDF84A304FF60B73DF
:1019C0000C94ADF82C302346CDE9180140F60131D6
:1019D0004046ADF818100699CDE90D4401F09AFE85
:1019E0002146404601F088FFA7E700BF0402040437
:1019F000040604030704010B2DE9F04704462DED0E
:101A0000028B82B000294DD0012140F20112002347
:101A10000091ADF804208DF80630364A0127364B88
:101A200004F10409354904F12908626040F20272A8
:101A3000A36040F60663E16004F1250AA4F82520BE
:101A4000A4F82930278284F8277084F82B7003F0DB
:101A50004BFB054603F0AEF96946064650BB4DB355
:101A600004F130008DF8067003F0C6FA072D3CD162
:101A700004F114052046FFF739FF284601F0E4F889
:101A80002846B0EE408A01F0CDF8D0ED007AF8EEAD
:101A9000677A88EE277A84ED0E7A02B0BDEC028B6D
:101AA000BDE8F08740F2011300918DF80610ADF803
:101AB0000430B2E704F1300003F09EFA072D11D094
:101AC0004946204602F0D4FB0EB9002DD0D1504635
:101AD00001F01CFF404601F019FF04F1120000F074
:101AE00079F9C5E7002EF2D1C2E74946204602F057
:101AF000BFFBBDE70508050905070506050A06063B
:101B000010B584B003460124ADF8040003A8ADF875
:101B10000C30ADF80E4001F0F9FE214603A801F0AB
:101B2000DFFF204603F044F9002103A801F0D8FFAD
:101B3000204603F03DF9214603A801F0D1FF04B08F
:101B400010BD00BF10B5C2F3002384B00C46017C69
:101B50008DF80D2043EA4402FA2402238DF80C206C
:101B600003AA009402F0D2F918B10124204604B06F
:101B700010BD04460A2003F01BF9204604B010BD36
:101B8000034670B543F8042B044684B007C983E8C4
:101B90000700A37983B91A210B461E22FA25237464
:101BA0002046ADF80C20022303AA009502F0AEF9FE
:101BB00028B1012004B070BD1B210B46EDE70A20BF
:101BC00003F0F6F84FF4B85200950223ADF80C205C
:101BD000204603AA217C02F099F90028E9D10A20C5
:101BE00003F0E6F841F2027200950223ADF80C20F2
:101BF000204603AA217C02F089F90028D9D10A20C5
:101C000003F0D6F8042200950223ADF80C202046FC
:101C100003AA217C02F07AF90028CAD10A2003F035
:101C2000C7F8062200950223ADF80C20204603AA2F
:101C3000217C02F06BF90028BBD10A2003F0B8F830
:101C400041F2082200950223ADF80C20204603AA99
:101C5000217C02F05BF90028ABD10A20064603F094
:101C6000A7F80095022303AA217C2046ADF80C605A
:101C700002F04CF900289CD1304603F099F8009509
:101C800022790C232046002A8DF80C3003AA4FF04D
:101C9000020314BF622142218DF80D10217C02F055
:101CA00035F9002885D1304603F082F82279D4E94D
:101CB00002310B43DBB20AB943F0400362790AB147
:101CC00043F020030E22FA258DF80D3020460095B2
:101CD00002238DF80C2003AA217C02F017F90028BA
:101CE0007FF467AF0A2003F063F810220095022307
:101CF000ADF80C20204603AA217C02F007F9002849
:101D00007FF457AF0A2003F053F812210095022305
:101D1000ADF80C1003AA217C204602F0F7F8002849
:101D20007FF447AF0A2003F043F80122092120463F
:101D3000FFF708FF003818BF01203BE7F0B510237C
:101D400087B0234C012200250126002702A9204646
:101D50000195CDE902234FF48052CDE904670AF0E2
:101D600005FC642003F0B0FF02A94FF48052204626
:101D7000CDE9046702261027CDE902670AF0F6FBD9
:101D80000322102302A92046CDE9022300230422C6
:101D9000CDE904234FF480520AF0E8FB40F23223ED
:101DA000042202A9019310232046CDE90223019ABF
:101DB000012305924FF4805204930AF0D7FB40F6BA
:101DC000060120460AF0F2FB284607B0F0BD00BF2E
:101DD000940E00241C4B00221C494FF0400C30B5DF
:101DE000054689B00220596007219A601A620124D1
:101DF000DA620A224FF4006EDC6006922022CDE9FE
:101E0000000104200821CDE9020103201021CDE9C1
:101E1000040108206946C3E904024FF4C072181D8A
:101E2000C3E906C24FF48052C3E909E20AF074FB29
:101E300038B92846FFF782FF003818BF012009B0E3
:101E400030BD204609B030BD900E00244041005204
:101E5000614A0021D0B513688EB00A91002B40F082
:101E6000B9805E4B01214FF683700C241160022172
:101E7000D3F8D4200026032742F48052C3F8D4209C
:101E8000D3F8D42002F480520092009AD3F8E020D4
:101E900042F01002C3F8E020D3F8E02002F0100274
:101EA0000192019AD3F8E02042F04002C3F8E0200A
:101EB000D3F8E02002F040020292029AD3F8E02028
:101EC00042F00802C3F8E020D3F8E02002F0080254
:101ED0000392039AD3F8E02042F48072C3F8E02022
:101EE000D3F8E02002F480720492049AD3F8E02040
:101EF00042F08002C3F8E020D3F8E02002F0800234
:101F00000592059AD3F8E02042F02002C3F8E020C1
:101F1000D3F8E02002F020020692069AD3F8E020DF
:101F200042F00402C3F8E020D3F8E0300C9403F050
:101F3000040307930323079A0B93CDE9080108A92B
:101F4000274805F047FD48F23712022308A9254823
:101F50000C94CDE90823CDE90A6705F03BFD4CF26E
:101F60000372022308A920480C94CDE90823CDE987
:101F70000A6705F02FFD40F2FF62022308A91B4803
:101F80000C94CDE90823CDE90A6705F023FD4FF64F
:101F90000C72022308A916480C94CDE90823CDE958
:101FA0000A6705F017FD4FF63F02022308A9114802
:101FB0000C94CDE90823CDE90A6705F00BFD20223A
:101FC000022308A90A480C94CDE90A67CDE9082341
:101FD00005F000FD0EB0D0BD8C0E00240044025868
:101FE0000010025800180258000C02580020025835
:101FF000001C0258001402582DE9F04FDFF810843D
:1020000006460D46144608F118002DED028B89B0E6
:1020100000AF02F0A5FDD8F8183073B3D8F81C3023
:10202000D8F80490002B43690BBF4FF0080A4FF01B
:10203000100A4FF0020B4FF0040BB9F1000F2AD039
:10204000A200EA46012B02F1070222F00702ADEBE3
:10205000020D6846ADEB020D694600F03F81022B90
:1020600000F0D680002B6FD02246C847D5462437D3
:10207000BD46BDEC028BBDE8F08FD8F81C30002BBC
:10208000F5D0D8F804904FF0080A4FF0020B4369DE
:10209000B9F1000FD4D1FB61D8F80030BB61002B3F
:1020A000E5D0D54802F0CEFD6B46BBF1020F78615A
:1020B00008EE103AFB6900F083816A465146A2EBB4
:1020C000C40295466200EA46B2FBFBF2AAEBC400EA
:1020D00085460AEB8200EE46F861ADEB010DF8692A
:1020E0000EEB820CC7F810C0EC46ADEB010D00EB17
:1020F0008201CCF80400CCF8081001EB82013869A9
:10210000E946CCF80C1000EB8201CCF800A001EB02
:102110008202C9E900E0C9E90212012B00F06483E0
:10212000022B00F06C82002B00F08081620849468F
:102130006046BB69984718EE103A24379D46BD4665
:10214000BDEC028BBDE8F08F002C8DD01A46D8ED87
:102150000C6A9FEDB27A8446331D36F922E00CF109
:10216000080C07EE90EA33F922E00232F8EEE77A43
:10217000944267EE877A67EEA67A4CED027A07EE14
:1021800090EAF8EEE77A67EE877A67EEA67A4CED8A
:10219000017AE2D8F9612246C847984ED8ED0D6A17
:1021A0000020F9692B1D9FED9E7A9FED9E6ADFED61
:1021B0009E5A22E0F4EEC67AF1EE10FAC0F2C8841C
:1021C00047F6FE72D1ED017A45F8202066EEA77A37
:1021D000F4EEC77AF1EE10FA40F2F080F4EEC67A2F
:1021E000F1EE10FAC0F2D58447F6FE7243F82020D3
:1021F0000230083184427FF639AFD1ED007A66EEC5
:10220000A77AF4EEC77AF1EE10FAD3D83246D9E7BE
:10221000002C3FF429AFD8ED0C6A84469FED787A04
:102220000022331D8E4656F822100CF1080C07EEE2
:10223000901A53F822100232F8EEE77A944267EED1
:10224000877A67EEA67A4CED027A07EE901AF8EEDE
:10225000E77A67EE877A67EEA67A4CED017AE2D8E4
:1022600071462246C7F81CE0C847664ED8ED0D6A95
:102270000020F9692B1D9FED6A7A9FED6A6ADFF8ED
:1022800094C120E0F4EEC67AF1EE10FAC0F279843F
:102290003246D1ED017A45F8202066EEA77AF4EEB9
:1022A000C77AF1EE10FA40F28780F4EEC67AF1EECA
:1022B00010FAC0F25E84324643F820200230083122
:1022C00084427FF6D3AED1ED007A66EEA77AF4EEC3
:1022D000C77AF1EE10FAD5D86246DAE7002C3FF45F
:1022E000C3AED8ED0C6A86469FED477A4FF0000CDE
:1022F000331D56F82C200EF1080E82F40002A2F5D0
:10230000000207EE902A53F82C200CF1020CF8EE94
:10231000E77A82F400026445A2F5000267EE877A4C
:1023200067EEA67A4EED027A07EE902AF8EEE77A8B
:1023300067EE877A67EEA67A4EED017AD9D8F96111
:102340002246C847314ED8ED0D6A0020F9692B1D91
:102350009FED337A9FED336ADFF8BCC01FE0F4EEE7
:10236000C67AF1EE10FAC0F2FC833246D1ED017A62
:1023700045F8202066EEA77AF4EEC77AF1EE10FA5F
:1023800018D9F4EEC67AF1EE10FAC0F2DA833246CA
:1023900043F820200230083184427FF667AED1ED49
:1023A000007A66EEA77AF4EEC77AF1EE10FAD6D884
:1023B0006246DBE76246EBE762467DE7324615E7B9
:1023C000A100D6466208073121F00701ADEB010DEF
:1023D000EA46ADEB010D6946ADEB0E0D0AEB82004E
:1023E000EC46ADEB0E0D01EB8202F861E946CCE95B
:1023F00000A0C9E9001290E6E40E00240280FFFF6D
:10240000000000300082FF7F0000003482FF7F0068
:10241000C80E0024007E00807E0080FF000000388F
:1024200004FF7FBF04FF7F3F00FEFF46002C00F04B
:10243000C982BBF1020FD8F8242000F0FA82796932
:10244000C7F8049002EB810E5FED0C5A8A00DCF8AD
:1024500008100EF104007A611A46DCF80C303B617A
:10246000331DD7F810903D61FD69C7E902CB8C465A
:10247000834636F92210D8ED0C7A06EE101A33F99D
:10248000221006EE901A3EF92210B8EEC66A07EE48
:10249000101AF8EEE66A3BF92210B8EEC77A26EE7B
:1024A000256A66EEA56A27EE257A26EE276A66EE8D
:1024B000A76A27EE277A07EE901A51080232F8EE43
:1024C000E77A0AEB8100944280ED006A05EB810017
:1024D00067EEA57AC0ED006A0CEB810009EB810183
:1024E00080ED007A98ED0C7A67EE877AC1ED007A7C
:1024F000BFD8D7F804903D69D7E902CB604662089F
:10250000BB6949469847D8F82C307A69D8ED0D6AEE
:102510001A441FED3D7A1FED3D6A2B1D904602F1D6
:10252000040A5FED3F5A0022A84ED9E900EC51E0C1
:10253000F4EEC67AF1EE10FAC0F2C78247F6FE70EA
:1025400045F822000CEB0100D0ED007A66EEA77A88
:10255000F4EEC77AF1EE10FA4BD9F4EEC67AF1EE4A
:1025600010FAC0F2BA8247F6FE70BBF1020F43F8D0
:1025700022002BD0D9F808000844D0ED007A66EE8E
:10258000A77AF4EEC77AF1EE10FA36D9F4EEC67AED
:10259000F1EE10FAC0F2CD8247F6FE7048F8220044
:1025A000D9F80C000144D1ED007A66EEA77AF4EE7A
:1025B000C77AF1EE10FA1ED9F4EEC67AF1EE10FAEF
:1025C000C0F2AF8247F6FE714AF8221002329442FE
:1025D0007FF6B1AD51080EEB81008900D0ED007A95
:1025E00066EEA77AF4EEC77AF1EE10FAA0D830467C
:1025F000A6E73046B9E73146E6E73046CEE7002C9D
:1026000000F0E081BBF1020FD8F8243000F0E18146
:102610007A69DCF8081003EB820EC7F80490930087
:10262000DFED6B5A0EF1040000227B61DCF80C3008
:102630003B61331DD7F810903D61FD69C7E902CBBE
:102640008C46834656F82210D8ED0C7A07EE101A05
:1026500053F82210B8EEC76A07EE101A5EF822107F
:10266000F8EEC76A07EE101A26EE256A5BF822100C
:10267000B8EEC77A66EEA56A26EE276A27EE257AB7
:1026800066EEA76A27EE277A07EE901A5108023203
:10269000F8EEE77A0AEB8100944280ED006A05EBE0
:1026A000810067EEA57AC0ED006A0CEB810009EBB2
:1026B000810180ED007A98ED0C7A67EE877AC1EDA2
:1026C000007ABFD8D7F804903D69D7E902CB6046BD
:1026D0006208BB6949469847D8F82C307A69D8ED2A
:1026E0000D6A1A449FED3E7A9FED3E6A131D924695
:1026F000DFF8E4C00022FB612B1D364ED9E9008EC5
:102700004EE0F4EEC67AF1EE10FAC0F2FC813046EB
:1027100045F822000EEB0100D0ED007A66EEA77AB4
:10272000F4EEC77AF1EE10FA49D9F4EEC67AF1EE7A
:1027300010FAC0F2EF813046BBF1020F43F82200DD
:102740002AD0D9F808000844D0ED007A66EEA77ABE
:10275000F4EEC77AF1EE10FA35D9F4EEC67AF1EE5E
:1027600010FAC0F2C98130464AF82200D9F80C00AC
:102770000144D1ED007A66EEA77AF4EEC77AF1EE65
:1027800010FA1ED9F4EEC67AF1EE10FAC0F2AD815D
:102790003146F86940F82210023294427FF6CBAC01
:1027A000510808EB81008900D0ED007A66EEA77A27
:1027B000F4EEC77AF1EE10FAA3D86046A8E76046B7
:1027C000BAE76146E5E76046CEE700BF0280FFFF5B
:1027D000000000300082FF7F007E00800000003497
:1027E00004FF7FBF04FF7F3F002C00F0EB807A697D
:1027F0000021D8F82430C7F8109003EB820ED7F8E8
:102800001C909300FD610EF104021FED0C6A7B61C8
:10281000331D154656F821204808D8ED0C6ABBF147
:10282000020F82F40002A2F5000207EE902A53F88C
:10283000212082F40002B8EEE77AA2F5000227EE2A
:10284000067A07EE902A0AEB8002F8EEE77A27EE86
:10285000267A67EE867A82ED007A09EB80024FEAEB
:10286000800067EEA67AC2ED007A27D05EF82120BC
:1028700082F40002A2F5000207EE902A55F821200A
:1028800082F40002B8EEE77AA2F5000227EE067A9B
:1028900007EE902ADCF80820F8EEE77A024427EEEB
:1028A000267A67EE867A82ED007A98ED0C7ADCF86B
:1028B0000C2067EE877A0244C2ED007A02318C4226
:1028C000A8D8D7F8109060466208BB694946FD69F0
:1028D0009847D8F82C307A69D8ED0D6A1A441FED64
:1028E000407A1FED406A131D9246DFF8C4C20022F1
:1028F000FB612B1DAB4ED9E9008E4EE0F4EEC67A9B
:10290000F1EE10FAC0F2C580304645F822000EEB19
:102910000100D0ED007A66EEA77AF4EEC77AF1EE08
:1029200010FA49D9F4EEC67AF1EE10FAC0F2BF807F
:102930003046BBF1020F43F822002AD0D9F8080034
:102940000844D0ED007A66EEA77AF4EEC77AF1EE8D
:1029500010FA35D9F4EEC67AF1EE10FAC0F2AE8074
:1029600030464AF82200D9F80C000144D1ED007A33
:1029700066EEA77AF4EEC77AF1EE10FA1ED9F4EEFD
:10298000C67AF1EE10FAC0F28B803146F86940F851
:102990002210023294427FF6CEAB510808EB810040
:1029A0008900D0ED007A66EEA77AF4EEC77AF1EEF0
:1029B00010FAA3D86046A8E76046BAE76146E5E7A3
:1029C0006046CEE7224649466046BB699847FFF716
:1029D000B2BBC7F810B0002298ED0C6A331DDFEDD2
:1029E000726AD7F81CB0786956F8221007EE901A70
:1029F00053F82210B8EEE77A07EE901A5108023227
:102A0000F8EEE77A27EE267A0AEB810E94420BEB7A
:102A1000810167EEA67A27EE067A67EE867A8EED5A
:102A2000007AC1ED007ADFD88300D7F810B07B615F
:102A30004DE61A46C7F810B098ED0C6A331DDFED6D
:102A40005B6AD7F81CB0786936F9221007EE101AC5
:102A500033F9221007EE901AB8EEC77A5108023205
:102A6000F8EEE77A27EE267A0AEB810E94420BEB1A
:102A7000810167EEA67A27EE067A67EE867A8EEDFA
:102A8000007AC1ED007ADFD88300D7F810B07B61FF
:102A900034E5F0EE675AFEEEE45A15EE900A34E79C
:102AA000F0EE675AFEEEE45A15EE901A6EE7F0EE7D
:102AB000675AFEEEE45A15EE900A3AE7F0EE675ACE
:102AC000FEEEE45A15EE900A4BE767EEA57AFDEEAE
:102AD000E77A17EE900A00B232E567EEA57AFDEECE
:102AE000E77A17EE900A00B23FE5F0EE675AFEEE85
:102AF000E05A15EE901A4CE6F0EE675AFEEEE05AF8
:102B000015EE900A30E6F0EE675AFEEEE05A15EE4A
:102B1000900AFDE5F0EE675AFEEEE05A15EE900AD7
:102B20000AE667EEA57AFDEEE77A17EE901A09B28B
:102B30004AE567EEA57AFDEEE77A17EE900A00B255
:102B40002CE5F0EE675AFEEEE45A15EE902A1FE4EB
:102B500067EEA57AFDEEE77A17EE902A12B2FFF73C
:102B600031BBF0EE675AFEEEE45A15EE902AFFF7FD
:102B7000FDBBF0EE675AFEEEE05A15EE902AFFF725
:102B80009BBBF0EE675AFEEEE05A15EE902AFFF777
:102B900080BB67EEA57AFDEEE77A17EE902A12B2B7
:102BA000FFF724BB82FF7F000000003000000038E8
:102BB0007E0080FF30B5184C154685B0046004F1E6
:102BC000080EEC460FC98EE80F00D4ED047AF5EE3E
:102BD000C07A8CE80F00F1EE10FA1ADDB7EE006A49
:102BE00094ED057A27EE277AC6EE276A84ED0D7AF2
:102BF000C4ED0C6A6DB1204640F8185F01F0B0FFDB
:102C0000064903690020064A2162A262E36005B01A
:102C100030BD012005B030BDC80E002400200030BA
:102C20000000003000680830704700BFB1F5807FB9
:102C300003680A4628BF4FF48072B1F5807F9A601E
:102C400094BF0020012070470068183001F0E8BFF1
:102C500070B504688AB0A369E160CBB104F11805CE
:102C6000284601F07DFF8446EE46E668BCE80F008A
:102C7000AEE80F00BCE80F00AEE80F009CE80300D0
:102C80008EE8030069462846049601F071FEF8B903
:102C9000E069D8B104F11C05284601F061FF8446C3
:102CA000EE46E468BCE80F00AEE80F00BCE80F0099
:102CB000AEE80F009CE803008EE803006946284652
:102CC000049401F055FE003818BF01200AB070BD11
:102CD00001200AB070BD00BF30B5046883B00D4656
:102CE000E3694BB1A3680020E26A616A9B0000902F
:102CF00004F11C0001F036FFA3680748A26A9B009C
:102D0000216A009004F1180001F02CFF0020C4E9B2
:102D1000005003B030BD00BFF91F049010B4074B42
:102D20004FF07E5130240022032019619C60D8604E
:102D30005DF8044B5961C3E906227047C80E0024B0
:102D4000704700BFF8B5134F3C687F2C07D980232C
:102D5000114A42F224411C463B60A2F87E100F4DFE
:102D60002B68012B0AD90C4E0D4D224631462846C0
:102D700000F074F90028F8D13860F8BD2246064901
:102D8000074800F06BF90028F7D12B683860013351
:102D90002B60F8BD040F0024080F0024000F00244E
:102DA000880F002430B4154C2168F1B14B1E144D2E
:102DB000E81810F801298C4619460A2A01D00D2A74
:102DC00002D14BB1013BF4E70CF102037F2B10D988
:102DD0008023236030BC70470122022323600D2032
:102DE0000A236854AB5430BC704701220223044DBF
:102DF000F4E70CF101026146F0E700BF040F002484
:102E0000080F002410B5094C02460B4608482168FB
:102E10000844C1F1800110F0D3FE236818442060FB
:102E2000FFF7C0FFFFF78EFF10BD00BF040F0024A7
:102E3000080F00240FB400B583B004A951F8040BA7
:102E40000191FFF7DFFF03B05DF804EB04B07047BA
:102E500010B5044600210A4800F07AF8002C094B0E
:102E600014BF0222002208481A60FFF7E3FF074858
:102E7000FFF7E0FF0A20BDE8104001F099BF00BF56
:102E8000880F0024000F0024285E0590385E05900E
:102E9000064A0749074808B510F03AF8034A0449BA
:102EA0000548BDE8084010F033B800BF000000241A
:102EB000412D0490880F00248C0F002470B5044627
:102EC00082B0C1F30726CDB2ADF8041001F06EFF59
:102ED0004FF480724FF001232060A01DA571A280E5
:102EE000E671A36002B0BDE8704000F00FBD00BF06
:102EF00038B5044601F05AFF00222368227183424C
:102F000010D00122A57AE37A954020602271A01D9D
:102F10006DB243B900F0D6FD40B22843C0B27F285D
:102F2000A0720AD038BD00F0CDFDB0FA80F04009A3
:102F30002843C0B27F28A072F4D101F037FF07EE1A
:102F4000900AF8EE677AC4ED037A38BD704700BF87
:102F5000012910B506D0022915D051B1BDE81040A5
:102F600006F01ABC0A46344834490AF0AFFDE8B10D
:102F7000FEE7334B0A46334C334934481C600AF0B1
:102F8000A5FD68B1FEE701222C492B480AF09EFD01
:102F900000B1FEE72E4928480AF0BAFDC0B1FEE7AD
:102FA0002B492A480AF0B4FD60B1FEE728492248BF
:102FB0000AF0AEFD00B1FEE726491F480AF036FDD3
:102FC00008B3FEE7244921480AF030FDA8B1FEE726
:102FD000204919480AF02AFD00B1FEE716480AF018
:102FE000ADFD024640B9164B164C174917481C60F8
:102FF0000AF06CFD68B1FEE7FEE714480AF09EFD9A
:103000000028ABD0FEE70C480AF098FD0028A5D0B8
:10301000FEE70F490D480AF07BFD00B1FEE70E49BF
:103020000A480AF003FD00B1FEE708480AF086FDF1
:10303000002893D0FEE700BF2C12002400010024DA
:10304000C81400244D2F0490E4000024900F0024A5
:1030500068010024C4000024B4000024084691B292
:1030600008B502F02DF9003818BF012008BD00BFD7
:10307000014805F06FBE00BFC03F0024014805F0C5
:1030800069BE00BFC03F0024014805F063BE00BF19
:10309000C03F002400B583B04FF0000E4FF0030C8A
:1030A0004274ADF80410BDF8043080F810E0A0F8C8
:1030B00002C0038003B05DF804FB00BF2DE9F04FB0
:1030C000DFF81C8300258DB0C04C037008F140036D
:1030D0004260074601920E46202229464046C4F827
:1030E0006831C4F86481CDE90255CDE90455CDE9D4
:1030F0000655CDE90855CDE90A550FF071FF20229C
:10310000294604F5A170C4F83151C4F83551C4F80A
:103110003951C4F83D510FF063FF019B84F84852C8
:1031200084F830317A68002A6AD02B4604F5987109
:10313000454606F1100A9E46F01856F803B0E2180C
:103140000EF1010ED0F80CC0D0F80490D0F8088031
:1031500044F803B0C2F80CC04FF0000CC2F8049061
:10316000C2F80880008A25F802CB10821AF80320E2
:1031700001F8012F002A70D07A684FF00100123355
:10318000724584F84802D7D84FF4802290489DF8C1
:10319000043008214FF000084FF00009C4F88431D2
:1031A0000023C4E95B020122C4F8743184F8803141
:1031B000C4E95E2194F84812C4E96489A9B3C4F84B
:1031C0009821002284F8813184F888313B78C4E961
:1031D0006722002B38D0012200200121013B84F816
:1031E000A421C4E96C01082B30D8DFE813F0BD003E
:1031F000C200C700CC00D100D600DB00E100E8002F
:103200009DF804300121C4F87421C4F884314FF4CE
:10321000802384F880216E4AC4E95B2308230022BE
:10322000C4E95E130023C4E964230123002284F867
:103230008131002384F888310323C4F898313B7826
:10324000C4E96722002BC6D184F8A431614803F099
:1032500073F9034638B1FFBEFEE77A681233724550
:103260003FF66AAF90E702A95A48029303F0C2FA08
:103270008246002876D1042240F2FF710A90CDE9FF
:10328000081294F83021002A00F0F3804FF006086D
:103290000AEBCA034FEACA0904EB43035B7C072B22
:1032A00007D8DFE803F0595C5653504D4A04072312
:1032B00007930FFA8AF6D14406EBC60604EB4909D8
:1032C00004EB46077500384600F020FB99F81030F3
:1032D000042B00F3AA80022B00F3BD8000F0B9801C
:1032E00004EB0A03002283F8202114F81630002B87
:1032F00078D0022B00F08A80012B40F0B2807B78DE
:10330000012B00F0B080002B334B18BF002305A920
:103310003048CDE9053802F03BFD002840F0AC8094
:103320000AF1010A94F830315FFA8AFA534540F203
:10333000A0802A4B53F82A80AAE706230793B8E710
:1033400005230793B5E704230793B2E70323079305
:10335000AFE702230793ACE700230793A9E7012314
:103360000793A6E7FFBEFEE703224023C4E96A23D2
:103370006CE707226023C4E96A2367E70F228023F2
:10338000C4E96A2362E71F22A023C4E96A235DE738
:103390003F22C023C4E96A2358E77F22E023C4E91F
:1033A0006A2353E7FF224FF48073C4E96A234DE791
:1033B00040F2FF124FF49073C4E96A2346E740F2EB
:1033C000FF324FF4A073C4E96A233FE7D01400240E
:1033D000002002403C1600240002B025485E059003
:1033E000004000307B78062B37D0072B3DD0022BD6
:1033F0004AD0032B4AD0002B4CD0012B48D0042BB1
:103400004AD0052B254B18BF002380E77B78042B7F
:1034100025D0052B2BD08BB3012B31D0022B31D0F3
:10342000032B1F4B18BF002371E70323043504EB64
:103430000A0B4FF0000925448BF82031284609F18A
:10344000010900F063FA9BF8203104354B45F5DCA7
:103450004BE70123EAE70223E8E7124B57E7124B59
:1034600055E7002353E7114B51E7114B4FE7114B41
:103470004DE70DB0BDE8F08FFFBEFEE70E4B46E70F
:103480000E4B44E70E4B42E70E4B40E70E4B3EE738
:103490000E4B3CE70E4B3AE70E4B38E70000B84FB7
:1034A000002090360800900C1000C0102000F0148E
:1034B0008000501D000180210004002A0008302EE9
:1034C000001060320040C03A0080F03E00005247D9
:1034D000000021430000844B38B5094C40F2FF72D4
:1034E0004FF0011104F5B675284603F031F994F850
:1034F0003021D4F864112846BDE8384002F09CBE63
:10350000D0140024064B0F29D3F8643198BF03EB85
:1035100041031B8800EE103ABBEEC80A704700BF9B
:10352000D0140024214B02689A4200D07047204AF0
:1035300000232048D2F8D81030B51F4C41F02001AC
:1035400083B0C4F8D001092004F5E875C4E9750317
:103550004FF48060C2F8D810D2F8D8204FF4006140
:10356000C4E9773094F8480202F02002C4F8E4116C
:103570004FF40051984201922846C4F8E811C4E97A
:103580007C33019B14BF00234FF48073C4F8EC31EB
:1035900003F056FB08B1FFBEFEE704F5B673C4F8AE
:1035A000B851C4F8083203B030BD00BF002002405B
:1035B0000044025840000240D0140024014803F0A7
:1035C000B7BE00BFA016002402682DE9F84F4B4B90
:1035D0009A4201D0BDE8F88F494D95F84832002B4A
:1035E000F8D095F83031002B77D0002405F10C0984
:1035F00005F5A17605F59877A04613E003F00101E3
:1036000017F811BCA9F1080000F06AFABBF1010F2C
:1036100025D895F83031013409F112090236A2B2E9
:1036200093422BD917F8012F002AF4D0D5F8643132
:103630000021327833F81400D5F8683103EB041315
:1036400023F81200338801339BB233805FFA83FA88
:103650003A789A42D2D88A46A6F80080D0E7CAF3D0
:103660004001A9F1040000F03BFABBF1020FCAF3DC
:103670008001CED0484600F033FACAE7002395F81F
:103680004802204909229842C5F8D8314FF4806099
:10369000C5F8D011C5F8D4214FF400614FF40052A1
:1036A000C5F8DC3108BF4FF48073C5F8E821C5E9DF
:1036B000780100221448C5E97B32C5F8F42103F0F3
:1036C000BFFA08B1FFBEFEE795F83021D5F86411C6
:1036D0000E48BDE8F84F02F0AFBD0A4909224FF489
:1036E0008060C5F8D831C5E974124FF400614FF419
:1036F0000052C5E97730C5E97912DAE700200240C7
:10370000D014002440000240A01600243C160024DF
:10371000704700BF10B592B0ADF804100180C9B277
:10372000149C0B29C460C0E901233FD090F801C06C
:10373000BCF10F0F3AD8022A3FD0032A02D0012A47
:1037400000D000220E92012B02D0022B18BF0023C2
:10375000022C0F932CD0032C2AD0012C28D000232C
:103760000A29109327D85C4A02EB812202610A29B8
:1037700014D8DFE801F0A39587796B5D4F413325BD
:103780000600564BD3F8E01041F48061C3F8E01016
:10379000D3F8E03003F480630C930C9B01230DA954
:1037A000104603FA0CF30D9304F014F912B010BD97
:1037B0000A291094D7D90022D8E711220E92C2E725
:1037C000464BD3F8E01041F40071C3F8E010D3F891
:1037D000E03003F400730B930B9BDFE73F4BD3F810
:1037E000E01041F48071C3F8E010D3F8E03003F446
:1037F00080730A930A9BD1E7384BD3F8E01041F06D
:103800008001C3F8E010D3F8E03003F0800309939F
:10381000099BC3E7314BD3F8E01041F04001C3F8F6
:10382000E010D3F8E03003F040030893089BB5E7BD
:103830002A4BD3F8E01041F02001C3F8E010D3F890
:10384000E03003F020030793079BA7E7234BD3F84F
:10385000E01041F01001C3F8E010D3F8E03003F0BD
:1038600010030693069B99E71C4BD3F8E01041F038
:103870000801C3F8E010D3F8E03003F00803059323
:10388000059B8BE7154BD3F8E01041F00401C3F81A
:10389000E010D3F8E03003F004030493049B7DE7C9
:1038A0000E4BD3F8E01041F00201C3F8E010D3F85A
:1038B000E03003F002030393039B6FE7074BD3F859
:1038C000E01041F00101C3F8E010D3F8E03003F05C
:1038D00001030293029B61E7000002580044025872
:1038E00008B5012143780069994089B204F07AFA59
:1038F000003818BF012008BD01230A46417800693D
:1039000003FA01F189B204F073BA00BF8378022B85
:1039100030B504468FB037D0032B33D0012B31D0D4
:1039200000230A93E378012B2AD0022B28D000230E
:103930000B93002320460C9302F0A4F80546204682
:1039400002F0A8F823780990082B13D8DFE803F0D9
:103950001F3245586B7E91A40500594BD3F8E020E7
:1039600042F48072C3F8E020D3F8E03003F48073AF
:103970000893089B09A9284604F02CF80FB030BD25
:103980000B93D6E70A93CDE711230A93CAE74C4B72
:1039900009A92846D3F8E02042F00102C3F8E0204C
:1039A000D3F8E03003F001030093009B04F012F819
:1039B0000FB030BD424B09A92846D3F8E02042F0B1
:1039C0000202C3F8E020D3F8E03003F002030193D1
:1039D000019B03F0FFFF0FB030BD394B09A928460A
:1039E000D3F8E02042F00402C3F8E020D3F8E0303E
:1039F00003F004030293029B03F0ECFF0FB030BD11
:103A00002F4B09A92846D3F8E02042F00802C3F85A
:103A1000E020D3F8E03003F008030393039B03F0A6
:103A2000D9FF0FB030BD264B09A92846D3F8E020B6
:103A300042F01002C3F8E020D3F8E03003F01003A6
:103A40000493049B03F0C6FF0FB030BD1C4B09A9C3
:103A50002846D3F8E02042F02002C3F8E020D3F853
:103A6000E03003F020030593059B03F0B3FF0FB094
:103A700030BD134B09A92846D3F8E02042F040029C
:103A8000C3F8E020D3F8E03003F040030693069B30
:103A900003F0A0FF0FB030BD094B09A92846D3F8A9
:103AA000E02042F08002C3F8E020D3F8E03003F0D9
:103AB00080030793079B03F08DFF0FB030BD00BF5D
:103AC0000044025838B5054601F0DCFF044628469C
:103AD00001F0E0FF01462046BDE8384004F082B91D
:103AE00070B506460D4601F0CDFF0446304601F0A4
:103AF000D1FF2A1E0146204618BF0122BDE87040B2
:103B000004F076B90023122270B586B0CDE9022305
:103B100004930368032B01D804230593061D841D19
:103B2000304601F0AFFF0546304601F0B3FF0346D3
:103B300001A92846019303F04DFF204601F0A2FFA2
:103B4000034620461C4601F0A5FF01A90346204676
:103B5000019303F03FFF06B070BD00BF634A0368E6
:103B6000934210B58CB028D0614A934258D0614A34
:103B7000934200F09480604A934201D00CB010BD93
:103B80005E4C5F48D4F8E03043F00203C4F8E03004
:103B9000D4F8E03003F002030A930A9BFFF7B2FF68
:103BA000D4F8F43043F08003C4F8F430D4F8F4309F
:103BB00003F080030B930B9BE0E7504C5148D4F883
:103BC000E03043F00203C4F8E030D4F8E03003F012
:103BD00002030193019BFFF795FFD4F8E830002220
:103BE0001F2043F400131146C4F8E830D4F8E8303D
:103BF00003F400130293029BD4F8D83043F001037E
:103C0000C4F8D830D4F8D83003F001030393039BF1
:103C100002F064FE1F200CB0BDE8104002F09CBE14
:103C2000364C3948D4F8E03043F08003C4F8E03033
:103C3000D4F8E03003F080030493049BD4F8E03020
:103C400043F00203C4F8E030D4F8E03003F002039C
:103C50000593059BFFF756FFD4F8E830002221209A
:103C600043F480031146C4F8E830D4F8E83003F494
:103C700080030693069BD4F8D83043F00103C4F8C0
:103C8000D830D4F8D83003F001030793079B02F033
:103C900025FE21200CB0BDE8104002F05DBE1B489F
:103CA000FFF730FF154B00224820D3F8E8401146BB
:103CB00044F40004C3F8E840D3F8E84004F40004F6
:103CC0000894089CD3F8D84044F00104C3F8D840C5
:103CD000D3F8D83003F001030993099B02F0FEFDED
:103CE00048200CB0BDE8104002F036BE0054004041
:103CF00000580040005C0040001C0058004402587E
:103D0000A819002420170024F8170024D018002434
:103D10002DE9F0431A4B87B000254FF010099E465D
:103D2000EC46184BFF22E04667461A700EF1180663
:103D30000EF13004CDE90055CDE90255ADF8009003
:103D4000BCE80F00CDE90455AEE80F009CE8030085
:103D50000095ADF800908EE80300B8E80F000FC69C
:103D60009CE803000095ADF8009086E803000FCFB3
:103D70000FC49CE8030084E8030007B0BDE8F083AB
:103D80006C0000241C17002410B5EFF3108472B6E9
:103D9000084B1A78120602D504B962B610BD1B781A
:103DA000D82205485BB202FB0300143003F0C0FACE
:103DB000F2E700BF1C17002420170024014804F07C
:103DC000AFBE00BFAC170024014804F0A9BE00BF7D
:103DD00084180024014804F0A3BE00BF5C1900242D
:103DE0002DE9F0430F68D8243F4D85B007FB04F45C
:103DF000032F05EB0403036040DCCB680E46012B68
:103E00003CD84DD04FF0D808B646DFF8FC9008FB00
:103E10000758BEE80F00C446ACE80F00DEF80030DB
:103E20000DF1100ECCF80030D8F808C099E80F005A
:103E30000EE90F000EEB8703BCF1010F53F8103CA5
:103E4000C8F88C3031D0BCF1020F42D0BCF1000F69
:103E500035D0317C8C34D823002201202C4403FB44
:103E600007534900C3E92602C3F894102046C3E96A
:103E70002822C3E92A2204F045FC18B1012005B02C
:103E8000BDE8F0830146204604F056FE0028F5D137
:103E90000146204604F07AFE003818BF0120EEE704
:103EA0000B7C103B672BADD9E8E701F01BF90F4BFA
:103EB00098420CBF0E4B0F4BC8F89030C9E701F089
:103EC00011F90A4B98420CBF0B4B0C4BC8F89030C1
:103ED000BFE701F007F9054B98420CBF084B094BAF
:103EE000C8F89030B5E700BF20170024000E270760
:103EF0002D0FB0303211D0205F4390608A62E030E5
:103F0000200BA0101A098010F45D05902DE9F041F6
:103F1000D0F8008082B00D4617461E4608F18C048A
:103F2000204604F005FE2028FAD1D8F80C3073B9E9
:103F30006D002046089C33463A46A9B2009404F02E
:103F400037FC003818BF012002B0BDE8F081089BA3
:103F500032463946204604F0FFFCF2E7044B1022BB
:103F60001A7483F8E82083F8C02183F898227047F8
:103F70002017002430B5002395B04FF4807106223D
:103F800004460B9306921393CDE90C13CDE90E333F
:103F9000CDE9113301F0A8F807282BD004F1100562
:103FA00041F2883206A9284605F042FD28B10123D6
:103FB000184684F85C3015B030BD0222022306A9F1
:103FC0002846CDE9002310220123CDE90223002257
:103FD0004FF48003CDE9042305224FF0807306924D
:103FE0006A460F9341F2883305F08EFE0028DED139
:103FF00015B030BD0323012084F85C3015B030BD0E
:1040000070B50023A4B04FF080724FF48075044661
:10401000ADF806300D93CDE910320122CDE90E53F3
:10402000CDE91223CDE91433002943D0F02300F168
:10403000100508AEADF80630C02341F28832314693
:104040002846089305F0F4FC28B10123184684F8AB
:104050005C3024B070BD41F288320DF10601284673
:1040600005F050FD03460028EFD105224FF4807182
:104070001E93284616924FF080721B9321931F9235
:1040800002AA9FED1F7BCDE91C13CDE922338DEDF4
:10409000027B9FED1D7B41F2883316A98DED047BD9
:1040A0009FED1B7B8DED067B05F02EFE0028CCD10D
:1040B00024B070BD00F1100508AE612341F28832D2
:1040C00031462846089305F0B3FC0028BDD141F2E3
:1040D00088320DF10601284605F092FD0028B4D182
:1040E000BDF80630204623F0780343F04003ADF8D6
:1040F0000630FFF73FFF00289ED0A6E7AFF3008011
:10410000000000000100000010000000010000009D
:1041100000000000000040002DE9F04F00234FF4A4
:10412000807501264FF0807804462DED028BABB0F0
:104130008DF8073013932193299314950E96CDF89B
:104140005C80CDE91533CDE91863CDE91A33CDE9AB
:104150002253CDE92433CDE9273306231C9300F005
:10416000C3FF072808D004F1100741F288321CA9C8
:10417000384605F05DFC40B10123184684F85C30F8
:104180002BB0BDEC028BBDE8F08F4FF0020A4FF070
:10419000020B4FF0050941F2883308AA1CA93846E2
:1041A000CDF89480CDF870909FED2D8BCDE908ABC4
:1041B0004FF0000A4FF4800B8DED0A8BCDE90CAB6C
:1041C00005F0A2FD0028D7D141F2883238460EA969
:1041D00005F02EFC0028CFD1402341F288320DF1AA
:1041E000070138468DF8073005F08CFC0028C3D154
:1041F00041F288330EA902AA3846CDF83890CDF89E
:104200005C809FED197B8DED048BCDE906AB8DEDC8
:10421000027B05F079FD03460028ADD1CDF8709002
:104220004FF00109CDF894804FF00008219308AABF
:1042300029931CA938462295CDE92333CDE92733AC
:1042400041F288338DED0A8BCDE90CABCDE90889BD
:1042500005F05AFD002893D0304684F85C608FE763
:1042600010000000010000004000000040000000BD
:104270002DE9F043624CA3B00D46046000F034FF1A
:10428000072800F0A980286823466968AA6807C340
:104290001E46AB8926F8043B3046257B677B05F03C
:1042A000A9FBE0B9574B012D4FF00108E0612361F4
:1042B00014BF4FF480134FF40003C4E9058893FA48
:1042C000A3F3B3FA83F34FF48079013BC4F824904D
:1042D000C4E90B003046236205F020FB38B101220F
:1042E000134684F85C20184623B0BDE8F0836623AB
:1042F0000B90139041F2883206A90693CDE90C90F9
:10430000CDE90E00CDE91100304605F091FB002803
:10431000E5D1992341F2883206A93046069305F08B
:1043200087FB0028DBD105231C9019906A46149363
:104330004FF08073219014A91D9341F288339FEDB3
:104340002A7BCDE91A90CDE91F008DED007B9FED12
:10435000287B30468DED027B9FED277B8DED047B26
:1043600005F0D2FC0028BAD129462046FFF748FEC6
:104370000028B4D12046FFF7CFFE03460028AED177
:10438000002FB0D1189330460027002606AA14A9A2
:10439000CDF86890CDE91F33EB2314934FF44063BD
:1043A0001B934FF4005317934FF440431C93A023E7
:1043B0001693062319934FF0805321934FF04073C7
:1043C000CDE906671D9305F017FD034600288AD046
:1043D000434684F85C8086E701230322184684F86C
:1043E0005C2023B0BDE8F083000000000100000065
:1043F000100000000100000000000000000040006C
:10440000801A0024005000522DE9F04F8FB0414B2C
:104410000024026800AF9A427C63C7E90944C7E9F7
:104420000B4403D03C37BD46BDE8F08F3A4B40F615
:1044300009213A48EB46D3F8D42007F11C0607F1CE
:10444000220A4FF0020942F480424FF00308C3F8F9
:10445000D420D3F8D42002F48042BA60BA68D3F8EA
:10446000E02042F04002C3F8E020D3F8E02002F060
:104470004002FA60FA68D3F8E02042F02002C3F864
:10448000E020D3F8E02002F020023A613A69D3F844
:10449000E02042F01002C3F8E020D3F8E02002F060
:1044A00010027A617A69D3F8E02042F00202C3F880
:1044B000E020D3F8E030F86103F002033984BB61F7
:1044C000174B7B60BB697B6853F8040F7B6001F07E
:1044D000D9FA7B680546186801F0DCFA16F8013B4A
:1044E000786207F124012846C7F830807B63C7E96A
:1044F0000A9403F06FFA5645E5D100225C2011467C
:1045000002F0ECF95C2002F027FA3C37DD46BD46AC
:10451000BDE8F08F00500052004402580A0A090911
:10452000DC1A0024114B02689A4200D07047104AEE
:1045300070B5D2F8D4300F4C23F4804304F1180640
:10454000C2F8D43054F8040F01F09CFA05462068F4
:1045500001F0A0FA0146284603F07CFBB442F1D1F9
:104560005C20BDE8704002F005BA00BF0050005268
:1045700000440258DC1A0024014805F0C9BC00BF01
:10458000901A0024084B1A1D981D03F1080110B45D
:104590009C1C9A6603F10A02C3E91834C3E91B01A3
:1045A0005DF8044B5A677047801A002438B50368D9
:1045B00071B9026A00F1280500F5AC74012A0CBF3C
:1045C000002140218BBB1D4B5722C0F858310DE014
:1045D000426A00F1C00500F5E874012A0CBF002111
:1045E0004021EBB1164B5A22C0F8D03100232046AF
:1045F000C4E901214FF480524FF48061636262612B
:104600004FF48042C4E903314FF48073C4E90623B8
:104610004FF40033236202F013FB58B1FFBEFEE7F4
:10462000084B5822C0F8D031E0E7074B5922C0F8B8
:104630005831DBE7C5E92044A56338BD10000240CE
:104640007000024028000240580002402DE9F0436B
:10465000821D05468BB0031D05F10A010830CDE926
:10466000052305F10C02AB69CDE907010992002B86
:104670003DD0EB69B3FA83F84FEA581801230222C0
:1046800005AE0AAF4FF006090393CDE9012356F8B2
:10469000044B2B792278934216D02B68F3B1012B6F
:1046A00002D1F2B10A230493204601F0F3F9034644
:1046B0002046009301F0E6F9694603F08BF9BE420B
:1046C000E5D10BB0BDE8F083697963789942E4D114
:1046D000B8F1000FF3D02B68002BE0D1CDF810908B
:1046E000E2E76378022B14BF0A230823DBE74FF0CD
:1046F0000108C3E7534A0368934230B505468BB0BF
:1047000055D02032934252D04F4A934204D02032A7
:10471000934201D00BB030BD4C4C4D48D4F8E03042
:1047200043F00103C4F8E030D4F8E03003F00103B3
:104730000593059BD4F8E03043F00803C4F8E0305B
:10474000D4F8E03003F008030693069BD4F8E03079
:1047500043F04003C4F8E030D4F8E03003F0400305
:104760000793079BD4F8F03043F40003C4F8F0300B
:10477000D4F8F03003F400030893089BFFF766FFBA
:10478000D4F8D830296843F001032F4A3048C4F8E0
:10479000D830891AD4F8D83018BF012103F00103AA
:1047A0000993099B0BB0BDE83040FFF7FFBE274CD3
:1047B0002848D4F8E03043F00103C4F8E030D4F8DE
:1047C000E03003F001030093009BD4F8E03043F0A5
:1047D0001003C4F8E030D4F8E03003F01003019384
:1047E000019BD4F8E03043F04003C4F8E030D4F843
:1047F000E03003F040030293029BD4F8F03043F41E
:104800008003C4F8F030D4F8F03003F4800303934D
:10481000039BFFF71BFFD4F8D830296843F001034E
:10482000084A0C48C4F8D830891AD4F8D83018BFD0
:10483000012103F001030493049B0BB0BDE8304059
:10484000FFF7B4BE04580140045C01400044025824
:10485000541D0024F81A0024014802F069BD00BF6D
:10486000501C0024014802F063BD00BFC81C002496
:10487000014802F05DBD00BFAC1E0024014802F0FB
:1048800057BD00BF241F00241A4A0368934210B486
:104890000BD02032934208D0174A934216D02032D0
:1048A000934213D05DF8044B7047144B0022D3F8A9
:1048B0005442C3F85822002CF4D0D3F84802D3E96C
:1048C000931223465DF8044B520818470B4B002205
:1048D000D3F8B044C3F8B424002CE3D0D3F8AC240C
:1048E000D3F8A814D3F8A404520823465DF8044B67
:1048F000184700BF04580140045C0140F81A002426
:10490000184A0368934210B40BD02032934208D067
:10491000154A934217D02032934214D05DF8044BCD
:104920007047124BD3E994245208C3F85822002C44
:10493000F4D0D3E99201234601EB820100EB82001F
:104940005DF8044B1847094BD3F8AC24D3F8B044B6
:104950005208C3F8B424002CE0D0D3F8A814D3F83C
:10496000A404E8E704580140045C0140F81A00245C
:104970002DE9F04F0C684FF41776754F87B004FBA4
:1049800006F6012C07EB060AC0F800A000F3A08091
:104990000D468E464FF00008D44669A3D3E90023A4
:1049A00069A1D1E90001CDE9022306ABCAF8508222
:1049B00003EB8403CDE9040153F810BC53F8083C21
:1049C000CAE992880193BEE80F00ACE80F00BEE888
:1049D0000F00ACE80F00019B9EE80300CAF828B066
:1049E000CAF8C0308CE803002B69042B0CD8DFE830
:1049F00003F0737D879103004FF41773554A03FB4F
:104A000004739A64C3F8E020AA692B6A002A43D091
:104A1000002B4FF4177308BF022203FB047318BF67
:104A20000322DA6201221A63EA696B6A002A40D122
:104A3000191E4FF4177318BF012103FB0473C3E958
:104A400031126B69022B05D8434A12F80380434A9E
:104A500052F823904FF4177306F128004246494656
:104A600003FB04740023384463646363E365C4F8A0
:104A7000DC30C4F8CC30C4F8F430C4E90F33C4E9F6
:104A80001533C4E93533C4E93B33022307F0E2FAB6
:104A9000002849D0FFBEFEE7191E4FF4177318BF58
:104AA000012103FB0473C3E90B12EA696B6A002A54
:104AB000BED0002B4FF4177308BF022203FB047310
:104AC00018BF0322C3F8C4200122C3F8C820B8E7E6
:104AD000012007B0BDE8F08F4FF417734FF4FA527E
:104AE00003FB04739A64C3F8E0208DE74FF4177357
:104AF0004FF47A5203FB04739A64C3F8E02083E70F
:104B00004FF417734FF4FA4203FB04739A64C3F82B
:104B1000E02079E74FF417734BF6803203FB047300
:104B20009A64C3F8E0206FE706F1C0000223424612
:104B30004946384407F08EFA0028CAD0FFBEFEE787
:104B400004580140045C014024580140245C0140A9
:104B5000F81A002400770100885E05908C5E0590AD
:104B60000068704770B5046882B015460E46C4F8F8
:104B70005032C4E99212069AC4F85422A269012A5A
:104B800026D0626A012A9AB211D0294604F1C000E7
:104B9000019207F01BFB236A019A012B10D02946D2
:104BA00004F1280007F012FB002002B070BD04F1F0
:104BB000C000019207F09CFB236A019A012BEED101
:104BC000314604F1280007F093FB002002B070BDCD
:104BD000226A012A9AB211D0294604F128000192D2
:104BE00007F0F4FA636A019A012B10D0294604F108
:104BF000C00007F0EBFA002002B070BD04F12800FD
:104C0000019207F075FB636A019A012BEED13146E0
:104C100004F1C00007F06CFB002002B070BD00BFC3
:104C200003681B69042B05D8044A02EB830393ED48
:104C3000000A70479FED020A704700BF985E05901A
:104C400000803B470368D3F858027047704700BFA5
:104C500008B501F027F8BDE8084001F007BF00BF24
:104C6000064808B503680BB103F0C6F804480368AA
:104C70001BB1BDE8084004F06DB808BDD049002460
:104C8000C8430024064808B503680BB103F0B4F824
:104C9000044803681BB1BDE8084004F05BB808BDD8
:104CA000D0490024C8430024064808B503680BB166
:104CB00003F0A2F8044803681BB1BDE8084004F003
:104CC00049B808BDD0490024C8430024364BDA6AED
:104CD000520062D59A6A9A6A9A6A9B6A180600D547
:104CE00000BE314B9B6A990600D500BE2E4B9B6AD5
:104CF000DA0600D500BE2C4B9B6A1B0700D500BE10
:104D0000294B9B6A980700D500BE274B9B6AD907A1
:104D100000D500BE244B9B6A1A0400D500BE224B6E
:104D20009B6A9B0400D500BE1F4B9B6AD80400D52C
:104D300000BE1D4B9B6A190500D500BE1A4B9B6A2D
:104D40005A0500D500BE184B9B6A9B0500D500BED6
:104D5000154B9B6AD80500D500BE134B9B6A990181
:104D600000D500BE104B9B6ADA0100D500BE0E4B89
:104D70009B6A1B0300D500BE0B4B9B6A580300D5F2
:104D800000BE094B9B6A990300D500BE064B9B6A87
:104D9000DA0306D400BE00BEFEE7DB6A9B07FAD545
:104DA000F8E700BEF6E700BF00ED00E000F086BFC8
:104DB00000F08ABF0A4B9B6803F17843B3F5003FCC
:104DC0000BD3084B986848B19868012806D09868BA
:104DD000022803D09B68032070470120704700BF62
:104DE00000ED00E0DC0700242DE9F041CEB00446E0
:104DF0004C2200210AA80EF0F3F82022002102A87C
:104E00000EF0EEF8BC2200211EA80EF0E9F80220F8
:104E100004F09CFC2368012B4FF0000354D0534A4C
:104E200002250193C820D16A514B21F00101D162C2
:104E3000D26A02F0010201929A6942F440429A61F8
:104E40009B6903F440430193019B494A93699B0486
:104E5000FCD548490224002201268B6A04274FF022
:104E6000080823F0030323438B62052316900AA846
:104E700018934FF480331096179419941597CDF822
:104E80006880CDE91B222122CDE91344CDE90A2314
:104E900005F046F900B1FEE73F220323294602A8A8
:104EA000CDE9022300220823CDE904234022402338
:104EB000CDE9062340234FF48062CDE9082305F0B5
:104EC0005DFC0346B8B1FEE7294A04250093F020B3
:104ED0009169264B41F440419161926902F440424C
:104EE0000092DA6A42F00102DA62DB6A03F001033F
:104EF0000093009BA9E720224FF4805125934FF4A3
:104F000040152B9280222D931EA830932691359127
:104F10004FF48071249234920C223394439140F2E6
:104F2000271120921022CDF884802A971F96CDE970
:104F30002E34CDE93B334FF48033CDE92246319313
:104F4000002446930623CDE93E4527934FF4806322
:104F5000094C2C931E94CDE9281205F06BFE00B18C
:104F6000FEE704F019FC4EB0BDE8F08100040058E3
:104F700000480258004402580F130F0370B584B064
:104F8000012401F021FD4FF480764FF04052194B7F
:104F900068460025ADF800400396CDE9012301F0F5
:104FA00031FD19224FF0404368468DF808200193E7
:104FB0008DF80F40ADF80D608DF801408DF80A5066
:104FC00001F020FD02230B2268468DF80F508DF86A
:104FD00001304FF062538DF808200193ADF80D4079
:104FE0008DF80A4001F00EFD042001F0FBFC04B036
:104FF00070BD00BF0E00010330B50D46044685B0FC
:10500000D1E9000184E8030000F01CFEAB79A3B3F2
:105010000BF064F9FEF77CFE09F0D4FD0AF060FEA7
:105020002B798BBB6B799BB1BFF34F8FBFF36F8F26
:105030002A4B0022C3F85022BFF34F8FBFF36F8F6C
:105040005A6942F400325A61BFF34F8FBFF36F8F3A
:105050004FF0FF32002300240025694620480292C9
:105060008DF80C30CDE900450AF0CCF91C480AF067
:1050700031FA09F0D7F905B030BD2046FFF7B4FE8C
:105080002046FFF77BFFC3E7144C0023C4F88430AD
:10509000BFF34F8FD4F8801043F6E07EC1F34E3C4F
:1050A000C1F3C9014FEA4C1C0CEA0E000B4640EA62
:1050B0008372013BC4F860225A1CF8D1ACF1200C79
:1050C0001CF1200FF0D1BFF34F8F636943F480339D
:1050D0006361BFF34F8FBFF36F8FA3E700ED00E075
:1050E000B01F002405F07ABC1C4B9B6803F178428A
:1050F000B2F5003F25D3B3F5803F20D303F16042E2
:10510000B2F5003F1FD303F15C42B2F5002F1CD370
:1051100003F17042B2F5902F19D303F14842B2F572
:10512000803F16D303F18042B2F1806F13D303F1B5
:10513000E043B3F5000F2CBF082007207047012083
:1051400070470020704702207047032070470420FA
:105150007047052070470620704700BF00ED00E053
:1051600003480023034A044903600DF0D1BE00BF89
:10517000B01F0024000000244D4C0490704700BF75
:105180000020704770B50446074E0D463046214654
:1051900008F05EFC304608F07DFC044B20462946B2
:1051A0001B689847002070BD900F0024B43F002476
:1051B00070B50446074E0D463046214608F048FCBF
:1051C000304608F067FC044B204629461B68984788
:1051D000002070BD2C120024B83F00240022094991
:1051E000094808B508F02AFC0849074808F030FCCF
:1051F000074B1A680AB1002008BD064A00201A6051
:1052000008BD00BFB42F0024900F0024B41F002459
:10521000B43F00247D51049000220949094808B593
:1052200008F00CFC0849074808F012FC074B1A6804
:105230000AB1002008BD064A00201A6008BD00BF60
:10524000B43700242C120024B4270024B83F0024D3
:105250007D51049020280AD0212806D1094B1868D6
:105260009A889B7908608A808B7100207047054B73
:105270000868B1F804C08A7918600020A3F804C057
:105280009A717047D400002420280AD0212806D122
:10529000094B18689A889B7908608A808B71002076
:1052A0007047054B0868B1F804C08A79186000207F
:1052B000A3F804C09A717047DC00002400207047F6
:1052C00010B5094CD4F89032D3F814320BB1012048
:1052D00010BD0A460146204608F0B0FB2046BDE856
:1052E000104008F0BDBB00BF900F00244B4A03687C
:1052F00030B593428BB04FF00004CDE90444CDE9C2
:105300000644089404D0464A934249D00BB030BDBD
:10531000444D4FF4C0524448D5F8E03043F0010307
:10532000C5F8E030D5F8E03003F001030093022324
:10533000009904A9CDE904230A23089302F04AFB4B
:105340004FF40072002304A937480694CDE90423E2
:1053500002F040FBD5F8D8302246214643F00063E6
:105360006220C5F8D830D5F8D83003F00063019337
:10537000019B01F0B3FA622001F0EEFA22462146C9
:10538000632001F0ABFA632001F0E6FA22462146E1
:10539000652001F0A3FA652001F0DEFA0BB030BD04
:1053A000204D4FF4404204A9D5F8E03043F0020309
:1053B000C5F8E030D5F8E03003F002030293022391
:1053C00002981A48CDE904230C23089302F002FB4B
:1053D000D5F8D830224621464A2043F00073C5F85C
:1053E000D830D5F8D83003F000730393039B01F055
:1053F00075FA4A2001F0B0FA224621464B2001F00E
:105400006DFA4B2001F0A8FA224621464D2001F00A
:1054100065FA4D2001F0A0FA0BB030BD0000084045
:1054200000000440004402580000025800040258E2
:1054300000F57171D0F8040408F098BBC1EBC1030A
:1054400000EB8303D0F80404D3F8082208F0BCBBB7
:10545000C1EBC10300EB8303D0F804049A6C08F09D
:10546000F1BB00BFD0F8040408F090BCC16810B5CF
:10547000044619B1022900D0FEE70121D4F8040442
:1054800008F06EFCD4F80404BDE8104008F040BCFD
:1054900010B50446D0F8040408F066FC2268D2F87F
:1054A000003E43F00103C2F8003E236A23B1034AE1
:1054B000136943F00603136110BD00BF00ED00E067
:1054C000D0F8040408F05ABCD0F8040408F06EBC0C
:1054D000D0F8040408F068BCD0F8040408F068BCF4
:1054E000D0F8040408F066BC70B5067804461EB116
:1054F000012E30D0002070BD304D0923304AC5F850
:105500000404C0F8985228462E612E63C5E9002392
:1055100002230222EB600023C5E9062300220023B8
:10552000C5E9082301220123C5E90A2303F05AFB38
:1055300000B1FEE78021284604F0E8F83146402219
:10554000284604F0B9F880220121284604F0B4F876
:105550002678012ECED11B4D09221B4B00216A60FB
:1055600002222B600223C5F804442846EB60002386
:10557000C4F898522961C5E9062300220023C5E931
:105580000823C5E90C2301220023C5E90A2303F0FF
:1055900029FB044600B1FEE74FF40071284604F0F1
:1055A000B5F821468022284604F086F84FF4BA72F6
:1055B0003146284604F080F89CE700BFC03F002435
:1055C00000000840C843002400000440D0F89802BE
:1055D00008B503F09DFB032802D8024B185C08BDF8
:1055E000022008BDAC5E05909446D0F898021A4699
:1055F00008B5634603F012FF032802D8024B185C7B
:1056000008BD022008BD00BFAC5E0590D0F898022E
:1056100008B503F041FF032802D8024B185C08BD0F
:10562000022008BDAC5E0590D0F8980208B503F0E2
:10563000C3FF032802D8024B185C08BD022008BD36
:10564000AC5E0590D0F8980208B503F0F9FF032886
:1056500002D8024B185C08BD022008BDAC5E059064
:105660000A06D0F8983206D4C1EBC10103EB8101E0
:1056700091F8FE01704701F07F01C1EBC10103EB1E
:10568000810191F83E007047D0F8980208B503F008
:10569000AFFE032802D8024B185C08BD022008BDEB
:1056A000AC5E0590D0F8980208B503F05DFF0328C2
:1056B00002D8024B185C08BD022008BDAC5E059004
:1056C000D0F8980208B503F01DFF032802D8024B5A
:1056D000185C08BD022008BDAC5E0590D0F89802A9
:1056E00003F038BF122301480B80704730010024BB
:1056F000122301480B8070471C0100240423014839
:105700000B8070474401002410B5044C0A4604483D
:10571000214608F0CFFD204610BD00BFD047002431
:10572000B05E059010B5044C0A460448214608F0C6
:10573000C1FD204610BD00BFD0470024C05E0590CB
:1057400010B5044C0A460448214608F0B3FD204633
:1057500010BD00BFD0470024D45E059010B5044CA6
:105760000A460448214608F0A5FD204610BD00BFAA
:10577000D0470024E05E059010B5044C0A4604486A
:10578000214608F097FD204610BD00BFD0470024F9
:10579000F05E0590042301480B807047440100240B
:1057A00010B5044C0A460448214608F083FD204603
:1057B00010BD00BFD0470024B05E0590464A4FF0B0
:1057C0001A0CD2F80008D2F80838A1F800C0C318A3
:1057D00001D142487047180FB3F1204FD2F8041896
:1057E0004FF0000C3D4A2CBF3730303082F803C0F8
:1057F0004FF0000C9070C3F3036082F805C04FF0C7
:10580000000C092882F807C04FF0000C8CBF37301D
:10581000303082F809C04FF0000C1071C3F3035010
:1058200082F80BC04FF0000C092882F80DC08CBF25
:10583000373030309071C3F3034009288CBF3730C4
:1058400030301072C3F3033009288CBF373030304A
:105850009072C3F3032009288CBF373030301073A7
:10586000C3F3031003F00F0309288CBF3730303027
:10587000092B90734FF0000094BF30333733B1F1F0
:10588000204FD07313744FEA11734FF000002CBFF8
:1058900037333033507400209374C1F30363D074F2
:1058A0000020092B50754FF000008CBF3733303388
:1058B000D0751375C1F303530848092B8CBF3733D8
:1058C00030339375C1F30343092B94BF303337331F
:1058D000137600235376704700E0F11F480100243F
:1058E000464A4FF01A0CD2F80008D2F80838A1F84E
:1058F00000C0C31801D142487047180FB3F1204FC0
:10590000D2F804184FF0000C3D4A2CBF373030302D
:1059100082F803C04FF0000C9070C3F3036082F86C
:1059200005C04FF0000C092882F807C04FF0000CAA
:105930008CBF3730303082F809C04FF0000C107146
:10594000C3F3035082F80BC04FF0000C092882F813
:105950000DC08CBF373030309071C3F3034009283D
:105960008CBF373030301072C3F3033009288CBF3E
:10597000373030309072C3F3032009288CBF3730A2
:1059800030301073C3F3031003F00F0309288CBFEA
:1059900037303030092B90734FF0000094BF303314
:1059A0003733B1F1204FD07313744FEA11734FF0B6
:1059B00000002CBF37333033507400209374C1F390
:1059C0000363D0740020092B50754FF000008CBF8A
:1059D00037333033D0751375C1F303530848092B9F
:1059E0008CBF373330339375C1F30343092B94BF16
:1059F00030333733137600235376704700E0F11FBE
:105A00004801002410B5044C0A460448214608F019
:105A100051FC204610BD00BFD0470024E05E059039
:105A200010B5044C0A460448214608F043FC2046C1
:105A300010BD00BFD0470024D45E0590D0F8C0024E
:105A400008F0AABCD0F8C00208F0BEBCD0F8C00272
:105A500008F0C6BC704700BFD0F8C00208F0ACBC6C
:105A6000D0F8C00208F0ACBCD0F8D00308B502F002
:105A700083FD032802D8024B185C08BD022008BD34
:105A8000045F0590024B027853F82200704700BF74
:105A9000285F0590024B427833F81200704700BF30
:105AA000085F05908CB00A2814D8DFE800F01523B1
:105AB000313F4D5B6977859306004D4BD3F8E0206D
:105AC00042F48062C3F8E020D3F8E03003F480634E
:105AD0000B930B9B0CB07047454BD3F8E02042F082
