:020000040800F2
:1000000000000220110A00080D0A0008F576000819
:100010000D0A00080D0A00080D0A00080000000083
:100020000000000000000000000000000D0A0008B1
:100030000D0A0008000000000D0A0008797600088B
:100040000D0A00080D0A00080D0A00080D0A000834
:100050000D0A00080D0A00080D0A00080D0A000824
:100060000D0A00080D0A00080D0A00088172000838
:100070008D720008DD61000899720008A572000801
:10008000692A0108B16700080D0A00080D0A000876
:100090000D0A00080D0A00080D0A00080D0A0008E4
:1000A0000D0A00080D0A00080D0A00080D0A0008D4
:1000B0003D1E0108491E0108551E0108E56700089C
:1000C0000D0A0008F16700080D0A0008AD160108C6
:1000D000B91601089D280108CD2801080129010849
:1000E0000D0A00080D0A0008000000000D0A0008B3
:1000F0000D0A00080D0A00080D0A00080D0A000884
:100100000D0A00080D0A0008611E0108C516010845
:1001100035290108692901080D0A00080D0A00089F
:100120000D0A00080D0A0008E91601081D1701084C
:100130009D2A01080D0A00080D0A00080D0A000892
:1001400000000000000000000000000000000000AF
:100150000D0A00080D0A00080D0A00089D29010873
:10016000FD6700080D0A000889760008AD760008D2
:100170000D0A0008D17600080D0A00080D0A0008D3
:100180000D0A00080D0A0008D1290108012A0108FA
:10019000D1160108DD1601080D0A00080D0A000835
:1001A0000D0A00080D0A00080D0A00080D0A0008D3
:1001B000A16F00080D0A00080D0A00080D0A0008CA
:1001C0000D0A00080D0A0008F15C0008FD5C00083B
:1001D0000D0A0008095D00080D0A00080D0A000854
:1001E0000D0A00080D0A00080D0A00080D0A000893
:1001F0000D0A00080D0A00080D0A00080D0A000883
:100200000D0A00080D0A00080D0A00080D0A000872
:100210000D0A00080D0A00080D0A00080D0A000862
:100220000D0A00080D0A00080D0A00080000000071
:100230000D0A00080D0A0008000000000D0A000861
:100240000D0A00080D0A00080D0A00080D0A000832
:100250000D0A00080D0A00080D0A00080D0A000822
:100260000D0A00080D0A00080D0A00080D0A000812
:100270000D0A00080D0A0008352A010800000000D8
:100280000D0A00080D0A00080D0A00080000000011
:08029000000000000D0A000847
:1002A00010B5054C237833B9044B13B10448AFF3B0
:1002B00000800123237010BDE0070024000000002F
:1002C0004C94010808B5034B1BB103490348AFF335
:1002D000008008BD00000000E40700244C940108E1
:1002E000034613F8012B002AFBD1181A0138704776
:1002F00001F0FF01102A2BDB10F0070F08D010F8D7
:10030000013B013A8B422DD010F0070F42B3F6D1DA
:10031000F0B441EA012141EA014122F007047FF0F3
:1003200000070023F0E80256083C85EA010586EA4A
:10033000010685FA47F5A3FA87F586FA47F6A5FA86
:1003400087F68EB9EED1F0BC01F0FF0102F0070292
:1003500032B110F8013B013A83EA010313B1F8D13D
:100360000020704701387047002D06BF354603381E
:10037000073815F0010F07D1013015F4807F02BF57
:10038000013015F4C03F0130F0BC0138704700BFA8
:1003900081F0004102E000BF83F0004330B54FEA36
:1003A00041044FEA430594EA050F08BF90EA020FA3
:1003B0001FBF54EA000C55EA020C7FEA645C7FEA36
:1003C000655C00F0E2804FEA5454D4EB5555B8BF59
:1003D0006D420CDD2C4480EA020281EA030382EACA
:1003E000000083EA010180EA020281EA0303362D5C
:1003F00088BF30BD11F0004F4FEA01314FF4801C2F
:100400004CEA113102D0404261EB410113F0004F40
:100410004FEA03334CEA133302D0524263EB4303F7
:1004200094EA050F00F0A780A4F10104D5F1200E95
:100430000DDB02FA0EFC22FA05F2801841F10001F0
:1004400003FA0EF2801843FA05F359410EE0A5F1C4
:1004500020050EF1200E012A03FA0EFC28BF4CF0F5
:10046000020C43FA05F3C01851EBE37101F00045AB
:1004700007D54FF0000EDCF1000C7EEB00006EEBB8
:100480000101B1F5801F1BD3B1F5001F0CD3490842
:100490005FEA30004FEA3C0C04F101044FEA445299
:1004A00012F5800F80F09A80BCF1004F08BF5FEA20
:1004B000500C50F1000041EB045141EA050130BD00
:1004C0005FEA4C0C404141EB0101013C28BFB1F512
:1004D000801FE9D291F0000F04BF01460020B1FA5D
:1004E00081F308BF2033A3F10B03B3F120020CDA30
:1004F0000C3208DD02F1140CC2F10C0201FA0CF00E
:1005000021FA02F10CE002F11402D8BFC2F1200C72
:1005100001FA02F120FA0CFCDCBF41EA0C01904028
:10052000E41AA2BF01EB0451294330BD6FEA040471
:100530001F3C1CDA0C340EDC04F11404C4F120025C
:1005400020FA04F001FA02F340EA030021FA04F36E
:1005500045EA030130BDC4F10C04C4F1200220FAC5
:1005600002F001FA04F340EA0300294630BD21FA03
:1005700004F0294630BD94F0000F83F4801306BFC9
:1005800081F480110134013D4EE77FEA645C18BFBD
:100590007FEA655C29D094EA050F08BF90EA020F54
:1005A00005D054EA000C04BF1946104630BD91EA4C
:1005B000030F1EBF0021002030BD5FEA545C05D14F
:1005C0004000494128BF41F0004130BD14F580048E
:1005D0003CBF01F5801130BD01F0004545F0FE4102
:1005E00041F470014FF0000030BD7FEA645C1ABF37
:1005F000194610467FEA655C1CBF0B46024650EA6E
:10060000013406BF52EA033591EA030F41F4002199
:1006100030BD00BF90F0000F04BF0021704730B51F
:100620004FF4806404F132044FF000054FF00001F4
:1006300050E700BF90F0000F04BF0021704730B5B5
:100640004FF4806404F1320410F0004548BF40428A
:100650004FF000013EE700BF42004FEAE2014FEADF
:1006600031014FEA02701FBF12F07F4393F07F4FBA
:1006700081F06051704732F07F4208BF704793F0BD
:100680007F4F04BF41F40021704730B54FF46074D0
:1006900001F0004521F000411CE700BF50EA0102D3
:1006A00008BF704730B54FF000050AE050EA01027C
:1006B00008BF704730B511F0004502D5404261EBEC
:1006C00041014FF4806404F132045FEA915C3FF42D
:1006D000D8AE4FF003025FEADC0C18BF03325FEACA
:1006E000DC0C18BF033202EBDC02C2F1200300FA7B
:1006F00003FC20FA02F001FA03FE40EA0E0021FAA0
:1007000002F11444BDE600BF53B94AB9002908BF3D
:1007100000281CBF4FF0FF314FF0FF3000F074B9DC
:10072000ADF1080C6DE904CE00F006F8DDF804E048
:10073000DDE9022304B070472DE9F047089D044627
:100740008E46002B4DD18A42944669D9B2FA82F284
:1007500052B101FA02F3C2F1200120FA01F10CFAC0
:1007600002FC41EA030E94404FEA1C48210CBEFBF8
:10077000F8F61FFA8CF708FB16E341EA034306FB81
:1007800007F199420AD91CEB030306F1FF3080F010
:100790001F81994240F21C81023E63445B1AA4B25D
:1007A000B3FBF8F008FB103344EA034400FB07F7FF
:1007B000A7420AD91CEB040400F1FF3380F00A8140
:1007C000A74240F207816444023840EA0640E41B35
:1007D00000261DB1D4400023C5E900433146BDE8E1
:1007E000F0878B4209D9002D00F0EF800026C5E983
:1007F000000130463146BDE8F087B3FA83F6002E9B
:100800004AD18B4202D3824200F2F980841A61EB12
:10081000030301209E46002DE0D0C5E9004EDDE730
:1008200002B9FFDEB2FA82F2002A40F09280A1EB18
:100830000C014FEA1C471FFA8CFE0126200CB1FB6D
:10084000F7F307FB131140EA01410EFB03F0884266
:1008500008D91CEB010103F1FF3802D2884200F2F3
:10086000CB804346091AA4B2B1FBF7F007FB101185
:1008700044EA01440EFB00FEA64508D91CEB040423
:1008800000F1FF3102D2A64500F2BB800846A4EB7E
:100890000E0440EA03409CE7C6F12007B34022FA69
:1008A00007FC4CEA030C20FA07F401FA06F31C4398
:1008B000F9404FEA1C4900FA06F3B1FBF9F8200CA5
:1008C0001FFA8CFE09FB181140EA014108FB0EF0EB
:1008D000884202FA06F20BD91CEB010108F1FF3A3B
:1008E00080F08880884240F28580A8F10208614447
:1008F000091AA4B2B1FBF9F009FB101144EA014155
:1009000000FB0EFE8E4508D91CEB010100F1FF34FF
:100910006CD28E456AD90238614440EA0840A0FB97
:100920000294A1EB0E01A142C846A64656D353D06D
:100930005DB1B3EB080261EB0E0101FA07F722FA91
:1009400006F3F1401F43C5E9007100263146BDE8BA
:10095000F087C2F12003D8400CFA02FC21FA03F31D
:10096000914001434FEA1C471FFA8CFEB3FBF7F09E
:1009700007FB10360B0C43EA064300FB0EF69E42C3
:1009800004FA02F408D91CEB030300F1FF382FD25C
:100990009E422DD9023863449B1B89B2B3FBF7F604
:1009A00007FB163341EA034106FB0EF38B4208D9DD
:1009B0001CEB010106F1FF3816D28B4214D9023E1E
:1009C0006144C91A46EA004638E72E46284605E73C
:1009D0000646E3E61846F8E64B45A9D2B9EB02080D
:1009E00064EB0C0E0138A3E74646EAE7204694E79D
:1009F0004046D1E7D0467BE7023B614432E73046D0
:100A000009E76444023842E7704700BFFEE700BFD1
:100A10000B480C4A904203D0121A0B4915F03AFACF
:100A20000A480B4A904203D0121A002115F040FAEE
:100A300007F08AF815F0FAF900F0BCFBFEE700BFFA
:100A400000000024DC07002480940108E007002453
:100A500044B80624704700BF704700BF10B58446F5
:100A600082B00C46134601920648DCE9001201F000
:100A70000DFD019B0348D4E9001202B0BDE810400F
:100A800001F064BEFC070024704700BF704700BF40
:100A9000704700BF38B500F5C8250446D5F8083EB4
:100AA00023B19D490322014408469847D5F8D43D17
:100AB00023B19A490322214408469847D5F8A43D1A
:100AC00023B197490322214408469847D5F8703D41
:100AD00023B194490322214408469847D5F8443D60
:100AE00023B191490322214408469847D5F8183D7F
:100AF00023B18E490322214408469847D5F8EC3C9F
:100B000023B18B490322214408469847D5F8C03CBD
:100B100023B188490322214408469847D5F8943CDC
:100B200023B185490322214408469847D5F8643CFF
:100B300023B18249032221440846984704F59625AB
:100B4000D5F8243C23B17E49032221440846984726
:100B5000D5F8F43B23B17B4903222144084698474A
:100B6000D5F8C83B23B17849032221440846984769
:100B7000D5F8983B23B1754903222144084698478C
:100B8000D5F8703B23B172490322214408469847A7
:100B9000D5F8403B23B16F490322214408469847CA
:100BA000D5F8103B23B16C490322214408469847ED
:100BB000D5F8E03A23B16949032221440846984711
:100BC000D5F8B43A23B16649032221440846984730
:100BD000D5F8943A23B16349032221440846984743
:100BE000D5F85C3A23B1604903222144084698476E
:100BF000D5F82C3A23B15D49032221440846984791
:100C0000D5F8F83923B15A490322214408469847B8
:100C1000D5F8CC3923B157490322214408469847D7
:100C2000D5F8A03923B154490322214408469847F6
:100C3000D5F8743923B15149032221440846984715
:100C4000D5F8483923B14E49032221440846984734
:100C5000D5F81C3923B14B49032221440846984753
:100C6000D5F8EC3823B14849032221440846984777
:100C700004F54835D5F8AC3823B144490322214462
:100C800008469847D5F87C3823B1414903222144CE
:100C900008469847D5F8503823B13E4903222144ED
:100CA00008469847D5F8203823B13B490322214410
:100CB00008469847D5F8F83723B13849032221442C
:100CC00008469847D5F8C83723B13549032221444F
:100CD00008469847D5F8983723B132490322214472
:100CE00008469847D5F8683723B12F490322214495
:100CF00008469847D5F83C3723B12C4903222144B4
:100D000008469847D5F81C37002B53D028490322B2
:100D10002144084698474DE0004E0600CC4D0600A1
:100D20009C4D0600684D06003C4D0600104D060027
:100D3000E44C0600B84C06008C4C06005C4C0600E7
:100D40001CBC0400ECBB0400C0BB040090BB04004E
:100D500068BB040038BB040008BB0400D8BA040018
:100D6000ACBA04008CBA040054BA040024BA0400DB
:100D7000F0B90400C4B9040098B904006CB90400C7
:100D800040B9040014B90400E4B80400A428030026
:100D9000742803004828030018280300F0270300E4
:100DA000C0270300902703006027030034270300B7
:100DB00014270300D5F8E43623B1974903222144D0
:100DC00008469847D5F8B43623B194490322214404
:100DD00008469847D5F8803623B19149032221442B
:100DE00008469847D5F8543623B18E49032221444A
:100DF00008469847D5F8283623B18B490322214469
:100E000008469847D5F8FC3523B188490322214488
:100E100008469847D5F8D03523B1854903222144A7
:100E200008469847D5F8A43523B1824903222144C6
:100E300008469847D5F8743523B17F4903222144E9
:100E40000846984704F5C835D5F8343523B17B49B1
:100E50000322214408469847D5F8043523B1784940
:100E60000322214408469847D5F8D83423B1754960
:100E70000322214408469847D5F8A83423B1724983
:100E80000322214408469847D5F8803423B16F499E
:100E90000322214408469847D5F8503423B16C49C1
:100EA0000322214408469847D5F8203423B16949E4
:100EB0000322214408469847D5F8F03323B1664908
:100EC0000322214408469847D5F8C43323B1634927
:100ED0000322214408469847D5F8A43323B160493A
:100EE0000322214408469847D5F86C3323B15D4965
:100EF0000322214408469847D5F83C3323B15A4988
:100F00000322214408469847D5F8083323B15749AE
:100F10000322214408469847D5F8DC3223B15449CE
:100F20000322214408469847D5F8B03223B15149ED
:100F30000322214408469847D5F8843223B14E490C
:100F40000322214408469847D5F8583223B14B492B
:100F50000322214408469847D5F82C3223B148494A
:100F60000322214408469847D5F8FC3123B145496E
:100F70000322214408469847D4F8BC3123B104F534
:100F8000DA71032208469847D4F88C3123B104F56E
:100F9000C271032208469847D4F8603123B104F5A2
:100FA000AC71032208469847D4F8303123B104F5D8
:100FB0009471032208469847D4F8083123B104F508
:100FC0008071032208469847D4F8D83023B104F141
:100FD000D001032208469847D4F8A83023B104F181
:100FE000A001032208469847A36F23B104F17001C2
:100FF000032208469847E36C23B104F1440103221D
:1010000008469847E36A23B104F124010322084605
:101010009847204638BD00BFDC260300AC260300FD
:10102000782603004C26030020260300F425030045
:10103000C82503009C2503006C2503002C950100A6
:10104000FC940100D0940100A09401007894010068
:101050004894010018940100E8930100BC9301003A
:101060009C930100649301003493010000930100FC
:10107000D4920100A89201007C92010050920100DC
:1010800024920100F491010070B5174C84B0002146
:10109000164D2046164E03F0FBFA2046042103F0BD
:1010A00073FA2046032103F053FA124A124B2846E2
:1010B0001249CDE9013200912146114B114A00F04D
:1010C0001BFB11492846114B0091114A114900F0B0
:1010D000AFFB114A114B21462846CDE90026104AA4
:1010E00000F076FE04B070BD1C560624FC070024F8
:1010F0001C000024640000245C0000245400002430
:101100004C00002424000024440000243C0000245F
:10111000340000242C000024140000240C000024BF
:101120000400002400B500238FB002211E4AADF850
:1011300029304FF0010C0C9240F201208DF82B3039
:1011400004228DF8341040F2062E8DF82810052167
:10115000ADF818300EAB8DF82A20ADF8222008AA81
:101160008DF82CC0ADF820008DF8241013E9030091
:101170000AABADF81AE004908DF8141093E8030060
:101180008DF81CC006AB02908DF80C1092E803009D
:101190000CCB00908DF804100448054900F06CFB5E
:1011A0000FB05DF804FB00BF03020C03FC07002432
:1011B0001C56062400B5A1B00024FFF765FFFFF719
:1011C000B1FF2249224803F0BFF9022306A8ADF877
:1011D0000030009904F09EFD4FF440730DF129009A
:1011E000ADF80430019904F095FD40F201130DF1C2
:1011F0003A00ADF80830029904F08CFD4FF4E0633A
:101200000DF14B00ADF80C30039904F083FD4FF461
:10121000007317A8ADF81030049904F07BFDADF809
:10122000144005990DF16D0004F074FD04230622AD
:1012300006A9084804F07CFD064804F05DFF20463E
:1012400004F046FC044800F0E7FDFBE75D0A0008F7
:101250001C56062434560624FC07002470B5B948F1
:101260000024B94EB94DBA4ABA49046044610462D7
:1012700014F004FB06F5E870F462F464B467C6F891
:101280008C50C6F8A840C6F8BC50C6F8D840C6F87E
:10129000EC50C6F80841C6F83041C6F84451C6F8CB
:1012A0006041C6F87051C6F88C41C6F8A051C6F826
:1012B000BC4102F0FDFE06F5C83303F2044103F51C
:1012C000A960C3F8FC410D6003F23441C3F8105229
:1012D0000D6003F26441C3F82C420D6003F2BC417F
:1012E000C3F83C520D6003F59D61C3F858420D6090
:1012F00003F5A361C3F868520D60C3F88442C3F8D4
:101300009452C3F8B042C3F8C052C3F8DC42C3F8E9
:10131000EC52C3F80843C3F82053C3F83C43C3F866
:101320005053C3F86C43C3F8A443C3F8C443C3F891
:10133000F043C3F82044C3F85044C3F88044C3F8D2
:10134000A844C3F8D844C3F80445C3F8344502F0B0
:10135000AFFE06F5483303F5B16103F50C60C3F841
:1013600074450D6003F2B451C3F8A4450D6003F554
:10137000BC61C3F8D0450D6003F20C61C3F8FC45B5
:101380000D6003F5C761C3F828460D6003F2646180
:10139000C3F854460D6003F5D361C3F880460D6071
:1013A00003F5D961C3F8B4460D6003F27C71C3F84C
:1013B000E4460D6003F2AC71C3F81C470D6003F204
:1013C000DC71C3F83C470D6003F63401C3F868478D
:1013D0000D6003F50661C3F898470D6003F50961D8
:1013E000C3F8C8470D60C3F8F847C3F82048C3F8EE
:1013F0005048C3F87C48C3F8AC4802F059FE06F5E3
:10140000962303F5106103F63840C3F8EC480D60ED
:1014100003F62C11C3F81C490D6003F65811C3F8EC
:1014200048490D6003F68411C3F874490D6003F553
:101430001B61C3F8A0490D6003F6DC11C3F8CC4969
:101440000D6003F52161C3F8F8490D6003F52461CF
:10145000C3F82C4A0D6003F6F421C3F85C4A0D6012
:1014600003F62431C3F8944A0D6003F65431C3F8EF
:10147000B44A0D6003F6AC31C3F8E04A0D6003F6E0
:10148000D831C3F8104B0D6003F60841C3F8404B48
:101490000D60C3F8704BC3F8984BC3F8C84BC3F842
:1014A000F44BC3F8244C02F003FE06F5C823304683
:1014B000274A03F67841C3F8184DC3F8444D0D6030
:1014C00003F6A441C3F8704D0D6003F54D61C3F8F8
:1014D000A44D0D6003F6FC41C3F8D44D0D6003F636
:1014E0002851C3F8084E0D6003F65451C3F8644CFC
:1014F0000D6003F68851C3F8944C0D6003F6B851A3
:10150000C3F8C04CC3F8EC4C03F6EC530D601D60FF
:10151000114914F0B3F90E4A1049204614F0AEF9FF
:101520000B4A0F49204614F0A9F9094A0D492046F3
:1015300014F0A4F92046064A0B49BDE8704014F0A7
:101540009DB900BF1C560624FC0700240AD7233C83
:1015500000000024550A0008950A0008590A0008EE
:10156000910A0008890A00088D0A00080068024BE9
:101570000A6803441A607047104E060003680A6840
:1015800003F5C833C3F87423704700BF0068024BEB
:101590000A6803441A607047EC2603000068024B97
:1015A0000A6803441A60704764BA04000068024B7A
:1015B0000A6803441A607047DC4D060003680A6835
:1015C00003F5C833C3F84423704700BF0068024BDB
:1015D0000A6803441A607047BC2603000068024B87
:1015E0000A6803441A60704734BA04000068024B6A
:1015F0000A6803441A607047AC4D0600012A03D004
:10160000022A04D0002070470160002070470B6858
:1016100003600020704700BF012A03D0022A04D0D3
:10162000002070470160002070470B6803600020B5
:10163000704700BF012A03D0022A04D0002070475F
:101640000160002070470B6803600020704700BFF6
:10165000012A03D0022A04D0002070470160002034
:1016600070470B6803600020704700BF012A03D059
:10167000022A04D0002070470160002070470B68E8
:1016800003600020704700BF012A03D0022A04D063
:10169000002070470160002070470B680360002045
:1016A000704700BF012A03D0022A04D000207047EF
:1016B0000160002070470B6803600020704700BF86
:1016C000012A03D0022A04D00020704701600020C4
:1016D00070470B6803600020704700BF012A03D0E9
:1016E000022A04D0002070470160002070470B6878
:1016F00003600020704700BF2DE9F04100F5C825C8
:10170000064610689846424B8AB0C5F8140E0F463C
:10171000546803443F4A1B1BC5F8184EC5F81C2EDD
:1017200002F54D1202F2FE42934263D93A4A002179
:1017300014F0BEFB2046384A002114F0B9FB3046B5
:10174000414601F099F83548109906AC304401F053
:1017500093F833481199304401F08EF831481299CA
:10176000304401F089F805F6E45300220021C5F861
:10177000E47DC5F8E01D5A60DA601A614FF07E52D0
:1017800006965A61042302966E46A5F8FC3D05F5BF
:101790006063254F254A0597049294E8030086E884
:1017A000030093E8030084E8030096E8030083E85D
:1017B0000300D5F8083ED5F80C1EC5F8082E08938E
:1017C000C5F80C7E099183B1032221462046984733
:1017D00095F8FC2D049B052A08D11BB102A9032210
:1017E000084698470AB0BDE8F0811346012285F803
:1017F000FE2DF2E7084B0246A64603444FF0000CCC
:1018000042F804CB9A424EF804CBF7D197E700BFD9
:10181000FF4B1D0000530700004C1D007893010092
:10182000F026030068BA04006D150008FD150008D5
:1018300070B50E6800F5C83500F5483E00F5962CE9
:10184000C5F8106300F5C8201668049CCEF88866B9
:101850001E68CCF8006A2668C0F8786D4968C5F83B
:1018600014135268CEF88C265B68CCF8043A63688F
:10187000C0F87C3D70BD00BF2DE9F04F8DB000F584
:10188000C83607468B4608AC089002AD0490DFF8D6
:1018900064C38DE80C004FF07E53C6F8481306F57C
:1018A00059729DF800E0C6F85C33002386F860E3C7
:1018B000C6F84C33C6F85433C6F858330023CDF875
:1018C0001CC086F86133C74B94E80300069385E893
:1018D000030092E8030084E8030095E8030082E82F
:1018E0000300D6F86C83D6F87023C6F86C33CDF8B5
:1018F0002880C6F870C30B92B8F1000F00F0308258
:10190000032221462046C04796F86023069B052AFD
:1019100002D0012286F862231BB104A903220846E3
:10192000984707F548384FF07E52089708F5D86376
:10193000C8F8C0B69DF858E05A610022DFF8B8C276
:101940005A60DA601A6108F2DC62002388F8D8E68F
:10195000049788F8D936A44BCDF81CC0069394E8B8
:10196000030085E8030092E8030084E8030095E89B
:10197000030082E80300D8F8E496D8F8E826C8F80F
:10198000E436CDF82890C8F8E8C60B92B9F1000FFC
:1019900000F00882032221462046C84798F8D8263E
:1019A000069B052A02D0012288F8DA261BB104A979
:1019B00003220846984707F596294FF07E5208976C
:1019C00009F63823C9F838BA9DF860E05A61002258
:1019D000DFF828C25A60DA601A6109F6542300223F
:1019E00089F850EA049789F8512A804ACDF81CC03A
:1019F000069294E8030085E8030093E8030084E876
:101A0000030095E8030083E80300D9F85C3AD9F8AD
:101A1000601AC9F85C2A0A93C9F860CA0B91002BB6
:101A200000F0B781032221462046984799F8502AB2
:101A3000069B052A02D0012289F8522A1BB104A96B
:101A400003220846984707F5C82A4FF07E520897A8
:101A50000AF55B63CAF8B0BD9DF868E05A610022E0
:101A6000DFF89CC15A60DA601A610AF6CC53002292
:101A70008AF8C8ED04978AF8C92D5D4ACDF81CC0D4
:101A8000069294E8030085E8030093E8030084E8E5
:101A9000030095E8030083E80300DAF8D43DDAF8A0
:101AA000D81DCAF8D42D0A93CAF8D8CD0B91002BB3
:101AB00000F0668103222146204698479AF8C82DF7
:101AC000069B052A02D001228AF8CA2D1BB104A95F
:101AD0000322084698474FF07E5306F54D7208974B
:101AE000C6F82C330023C6F818B3C6F81C33C6F862
:101AF0002433C6F828330523DFF808E1A6F830338D
:101B0000DFF804C10497CDF81CE0CDF818C094E8C4
:101B1000030085E8030092E8030084E8030095E8E9
:101B2000030082E80300D6F83C33D6F84023C6F819
:101B30003CC30A93C6F840E30B92002B00F01E81D1
:101B4000032221462046984796F83023069B052A13
:101B500002D0012286F832231BB104A903220846D1
:101B6000984708F5D2634FF07E52C8F890B65A6194
:101B7000002208975A60DA601A6108F2AC62052305
:101B8000DFF888E0DFF888C0A8F8A8360497CDF819
:101B90001CE0CDF818C094E8030085E8030092E843
:101BA000030084E8030095E8030082E80300D8F806
:101BB000B436D8F8B826C8F8B4C60A93C8F8B8E658
:101BC0000B92002B00F0D880032221462046984734
:101BD00098F8A826069B052A02D0012288F8AA2692
:101BE000E3B117E019160008351600085116000871
:101BF0006D1600087D1500088D1500089D1500085C
:101C0000AD150008BD15000889160008CD1500089F
:101C1000A516000804A903220846984709F60823D8
:101C20004FF07E52C9F808BA5A61002208975A60EC
:101C3000DA601A6109F624230522DFF88CC10497C3
:101C4000A9F8202A5B4ACDF81CC0069294E803004C
:101C500085E8030093E8030084E8030095E80300A7
:101C600083E80300D9F82C3AD9F8301AC9F82C2A9D
:101C70000A93C9F830CA0B91002B7BD0032221466E
:101C80002046984799F8202A069B052A02D001226F
:101C900089F8222A1BB104A90322084698470AF5AD
:101CA00058634FF07E52CAF880BD5A6100220897EF
:101CB0005A60DA601A610AF69C530522DFF80CC1FB
:101CC0000497AAF8982D3C4ACDF81CC0069294E8D7
:101CD000030085E8030093E8030084E8030095E827
:101CE000030083E80300DAF8A43DDAF8A81DCAF877
:101CF000A42D0A93CAF8A8CD0B91002B38D003224B
:101D00002146204698479AF8982D069B052A02D02E
:101D100001228AF89A2D1BB104A90322084698478C
:101D200038469DE8060000F0DBFD16AB234893E83B
:101D30000600384400F0D4FD18AB214893E80600B3
:101D4000384400F0CDFD1AAB1E4893E80600384435
:101D500000F0C6FD012386F832330DB0BDE8F08FE8
:101D6000BEF1050F3FF4D9AD012286F86223D3E519
:101D70001346D1E713468EE763464BE76346ECE62E
:101D8000BEF1050F13463FF4A2AE01228AF8CA2D18
:101D90009CE6BEF1050F13463FF451AE012289F8CF
:101DA000522A4BE6BEF1050F3FF401AE012288F83E
:101DB000DA26FBE5C1160008DD160008789301005D
:101DC000F026030068BA0400DD150008ED150008D0
:101DD0002DE9F04104461E460D46DDE9068700F078
:101DE0000BFE0A4832462946204400F005FE08480A
:101DF00042462946204400F0FFFD06483A4629465F
:101E00002044BDE8F04100F0F7BD00BF7893010029
:101E1000F026030068BA040030B504468BB000F029
:101E2000F9FD04F5C83595F86233002B3AD195F8E1
:101E30003233002B76D19E4804F54835204400F01B
:101E4000E9FD95F8DA36002B40F0AA8095F8AA361D
:101E5000002B40F0EB80974804F59625204400F0D5
:101E6000D9FD95F8523A002B40F0308195F8223A8E
:101E7000002B40F07181904804F5C825204400F003
:101E8000C9FD95F8CA3D002B40F0A88195F89A3D10
:101E9000002B40F0E98195F8FE3D002B40F02982AF
:101EA0000BB030BDD5F8480395F86013183004F036
:101EB00039F9D5EDD37A95EDD47A77EE876AB4EE19
:101EC000E60AF1EE10FA06DC77EEC77AB4EEE70A1E
:101ED000F1EE10FAABD595F8613385EDD30A002BFE
:101EE00000F06482012B40F04682D5EDD67A20EED8
:101EF000000A95EDD77A37EE677AE0EE077AC5EDFE
:101F0000D57AD5F86C33CDED017A002B00F0B18293
:101F10006A4801A9D5F870332044984795F83233C0
:101F2000002B88D0D5F8180395F83013183004F03A
:101F3000F9F8D5EDC77A95EDC87A77EE876AB4EEF1
:101F4000E60AF1EE10FA07DC77EEC77AB4EEE70A9C
:101F5000F1EE10FA7FF56FAF95F8313385EDC70AD2
:101F6000002B00F04F82012B40F00B82D5EDCA7A96
:101F700020EE000A95EDCB7A37EE677AE0EE077A2D
:101F8000C5EDC97AD5F83C33CDED027A002B00F0CF
:101F900070824B4802A9D5F84033204498474AE75D
:101FA000D5F8C00695F8D816183004F0BBF805F53A
:101FB000D863D3ED017A93ED027A77EE876AB4EEB7
:101FC000E60AF1EE10FA07DC77EEC77AB4EEE70A1C
:101FD000F1EE10FA7FF53AAF05F5D86395F8D926FA
:101FE00083ED010A002A00F02E82012A40F0CC8104
:101FF000D3ED047A20EE000A93ED057A37EE677A86
:10200000E0EE077AC3ED037AD5F8E436CDED037A36
:10201000002B00F02E822B4803A9D5F8E836204487
:10202000984795F8AA36002B3FF415AFD5F89006DF
:1020300095F8A816183004F075F805F5D263D3EDBD
:10204000017A93ED027A77EE876AB4EEE60AF1EE52
:1020500010FA07DC77EEC77AB4EEE70AF1EE10FA71
:102060007FF5F9AE05F5D26395F8A92683ED010A4F
:10207000002A00F0BC81012A40F08081D3ED047A6F
:1020800020EE000A93ED057A37EE677AE0EE077AE4
:10209000C3ED037AD5F8B436CDED047A002B00F009
:1020A000E881094804A9D5F8B83620449847D2E613
:1020B00078930100F026030068BA040064930100DD
:1020C00034930100DC260300AC260300D5F8380A5F
:1020D00095F8501A183004F025F805F63823D3ED9A
:1020E000017A93ED027A77EE876AB4EEE60AF1EEB2
:1020F00010FA07DC77EEC77AB4EEE70AF1EE10FAD1
:102100007FF5B4AE05F6382395F8512A83ED010A20
:10211000002A00F06181012A40F03F81D3ED047A6A
:1021200020EE000A93ED057A37EE677AE0EE077A43
:10213000C3ED037AD5F85C3ACDED057A002B00F0BB
:102140009881CD4805A9D5F8603A2044984795F87C
:10215000223A002B3FF48FAED5F8080A95F8201AE2
:10216000183003F0DFFF05F60823D3ED017A93ED75
:10217000027A77EE876AB4EEE60AF1EE10FA07DC2F
:1021800077EEC77AB4EEE70AF1EE10FA7FF573AE98
:1021900005F6082395F8212A83ED010A002A00F0AC
:1021A0001081012A40F0FC80D3ED047A20EE000A71
:1021B00093ED057A37EE677AE0EE077AC3ED037A9E
:1021C000D5F82C3ACDED067A002B00F05281AB48C1
:1021D00006A9D5F8303A204498474CE6D5F8B00D1A
:1021E00095F8C81D183003F09DFF05F55B63D3ED2E
:1021F000017A93ED027A77EE876AB4EEE60AF1EEA1
:1022000010FA07DC77EEC77AB4EEE70AF1EE10FABF
:102210007FF53CAE05F55B6395F8C92D83ED010AAA
:10222000002A00F00581012A40F0B480D3ED047A41
:1022300020EE000A93ED057A37EE677AE0EE077A32
:10224000C3ED037AD5F8D43DCDED077A002B00F02D
:1022500010818B4807A9D5F8D83D2044984795F8B8
:102260009A3D002B3FF417AED5F8800D95F8981DD8
:10227000183003F057FF05F55863D3ED017A93ED5D
:10228000027A77EE876AB4EEE60AF1EE10FA07DC1E
:1022900077EEC77AB4EEE70AF1EE10FA7FF5FBAD00
:1022A00005F5586395F8992D83ED010A002A00F091
:1022B000B480012A6BD1D3ED047A20EE000A93EDAD
:1022C000057A37EE677AE0EE077AC3ED037AD5F840
:1022D000A43DCDED087A002B00F0CB80694808A919
:1022E000D5F8A83D2044984795F8FE3D002B3FF4D3
:1022F000D7ADD5F8E40D95F8FC1D183003F012FFAA
:1023000005F6E453D3ED017A93ED027A77EE876A0E
:10231000B4EEE60AF1EE10FA07DC77EEC77AB4EE17
:10232000E70AF1EE10FA7FF5BBAD05F6E45395F838
:10233000FD2D83ED010A002A00F09080012A32D1A0
:10234000D3ED047A20EE000A93ED057A37EE677A32
:10235000E0EE077AC3ED037AD5F8083ECDED097AB1
:10236000002B00F08680484809A9D5F80C3E20448F
:1023700098470BB030BDD5EDD57AC2E5D3ED037AE1
:1023800088E6D5EDC97AFDE5D3ED037A3CE6D3EDD9
:10239000037A9CE7D3ED037A54E7D3ED037AC9E6D9
:1023A000D3ED037A0CE7D3ED037AD5E7D5EDD67AF2
:1023B00095EDD77A37EE677AE0EE077AC5EDD57AF4
:1023C0009FE5D3ED047A93ED057A37EE677AE0EE78
:1023D000077AC3ED037AF3E6D3ED047A93ED057A39
:1023E00037EE677AE0EE077AC3ED037AA2E6D3ED23
:1023F000047A93ED057A37EE677AE0EE077AC3ED5B
:10240000037A47E6D5EDCA7A95EDCB7A37EE677A4F
:10241000E0EE077AC5EDC97AB4E5D3ED047A93ED21
:10242000057A37EE677AE0EE077AC3ED037A4EE776
:10243000D3ED047A93ED057A37EE677AE0EE077A0A
:10244000C3ED037AFEE6D3ED047A93ED057A37EE19
:10245000677AE0EE077AC3ED037AD5E5D3ED047A27
:1024600093ED057A37EE677AE0EE077AC3ED037AEB
:1024700072E713F008FA00BF54BA040024BA04004B
:10248000CC4D06009C4D0600004E06002DE9F041A3
:1024900004460D4616461F4600F0F4FA0B483B462C
:1024A00032462946204400F0EDFA09483B463246C0
:1024B0002946204400F0E6FA06483B4632462946C3
:1024C0002044BDE8F04100F0DDBA00BF7893010080
:1024D000F026030068BA04002DE9F04F90F8008060
:1024E000002300F5C82EB8F1020FCEF8E03D00F051
:1024F000218101230222CEF8E03D00F5C83C9CF882
:102500007873022F02D01346CEF8E02D00F5483242
:1025100092F8F066022E02D00133CEF8E03D00F5CD
:10252000962090F8685A022D02D00133CEF8E03D93
:10253000002900F0FD8007EE903ADEF8184EDEF834
:1025400014BE0023F8EEE76A04EB8109B4E0022F21
:1025500000F0D680D2F8881601EB030A9AED006AE3
:1025600067EE867ADFF8DCA177EE877A92449AEDFF
:10257000DD7A9FED715BB7EEC74AB4EEC54BF1EE65
:1025800010FA00F1D280022E00F0CF80D0F8001AAD
:1025900001EB030A9AED006A27EE067ADFF8A8A19C
:1025A00077EE877A82449AEDDD7A9FED635BB7EE32
:1025B000C74AB4EEC54BF1EE10FA00F1B380022D1C
:1025C00000F0B080DEF8781D01EB030A9AED006A96
:1025D00027EE067A77EE877A9FED575B87EEA67A2D
:1025E000ABEC017ADCEDDD7AB7EEE74AB4EEC54B31
:1025F000F1EE10FA00F19380B8F1020F00F08F8035
:10260000DCF8141301EB030A9AED007A27EE877ABF
:1026100002F2EC6ADAED007A9FED475BB7EEE74A2B
:10262000B4EEC54BF1EE10FA76D4022F74D0D2F886
:102630008C1601EB030A9AED006A67EE867ADFF8E2
:1026400004A177EE877A92449AEDDD7A9FED3A5BAA
:10265000B7EEC74AB4EEC54BF1EE10FA59D4022ECC
:1026600057D0D0F8041A01EB030A9AED006A27EE5E
:10267000067ADFF8D4A077EE877A82449AEDDD7A85
:102680009FED2D5BB7EEC74AB4EEC54BF1EE10FAE5
:102690003CD4022D3AD0DEF87C1D01EB030A9AED02
:1026A000006A27EE067A77EE877A043387EEA67AF9
:1026B000A4EC017AA1453BD0DCEDDD7A9FED1E5BF9
:1026C000B7EEE74AB4EEC54BF1EE10FA1BD4B8F101
:1026D000020F18D0DCF8101301EB030A9AED007A10
:1026E00027EE877A02F2EC6ADAED007A9FED125B50
:1026F000B7EEE74AB4EEC54BF1EE10FA7FF527AF1F
:10270000DFED0F7A2EE79FED0E7AEBE79FED0C7A67
:10271000C9E79FED0B7AACE7DFED097A8FE79FED14
:10272000087A75E79FED067A54E79FED057A35E75D
:10273000BDE8F08F0122E0E67B14AE47E17A743FFA
:1027400000000000F0960100689A0100F8B50E46FE
:10275000204915461A46014404461F4600F0B2F9C6
:102760001D491E483A462144204400F0ABF91C495B
:102770001C483A462144204400F0A4F91A491B4859
:102780003A462144204400F09DF939462046FFF79F
:10279000A3FEEFB104F5C82E31462C46DEF8140E28
:1027A000DEF8182E00EB87030EF5616CB0EC017AB1
:1027B000DCED007A984267EE877AE1EC017AB2ECC0
:1027C000017ADCED007A67EE877AE4EC017AEBD1EE
:1027D000F8BD00BF10930100882603007893010024
:1027E00000BA0400F0260300784D060068BA040021
:1027F00003681A78012A08D012F0FD0F01D10122D6
:102800001A700022C3E90122704702221A700022C6
:10281000C3E90122704700BF012A03D0022A04D075
:10282000002070470160002070470B6803600020A3
:10283000704700BF012A03D0022A04D0002070474D
:102840000160002070470B6803600020704700BFE4
:1028500003681A7842B1013A012A01D800221A709D
:102860000022C3E9012270475A6802211A6100223E
:102870001970C3E90122704738B5022201230025EF
:1028800002700373124A0B68056143654C68C265A8
:10289000104A11491A448465121B8A42C0E9015545
:1028A0000BD929460D4A184613F002FB294620464B
:1028B0000A4ABDE8384013F0FBBA084821461844DC
:1028C000002243F8042B984241F8042BF8D138BD7C
:1028D00000530700FF4B1D00FE973A00004C1D00FF
:1028E000F0B58FB004463F4D14306B469FED3E0A65
:1028F00083E80600BDF801203C4BADF80C2003999D
:1029000008930995069403F019F90023089F0C9386
:10291000002F61D00AAD022206A92846B847DDE99A
:10292000087295E8030004F1240304AE86E803006E
:1029300093E8030085E8030096E8030083E80300BA
:10294000E36A216BE7620C9322630D9123B10322AA
:10295000294628469847089F1FB106A90322084622
:10296000B847BDF8032004F13400214BADF80C202A
:102970000993204B9FED1C0A03990893069403F0DA
:10298000DDF80022089B0C924BB3022206A92846D0
:102990009847DDE9083795E8030004F1440286E82A
:1029A000030092E8030085E8030096E8030082E84C
:1029B0000300E66C226DE3640C9627650D9226B148
:1029C000032229462846B047089B1BB106A90322CB
:1029D000084698470FB0F0BD0D9A0AADA1E70D9FCC
:1029E000D9E700BF5128000800007A4419280008E0
:1029F000F12700083528000838B504460D4600F5D3
:102A00008C7000F021F9294604F16000BDE83840DF
:102A100000F00EBC10B50446143003F0A9F8237E74
:102A200043B1A37F802B05D1E36A43B3236B04F149
:102A300024009847052004F0CFFE04F1340003F091
:102A400097F894F838304BB194F83E30802B05D18C
:102A5000E36CA3B1236D04F144009847052004F012
:102A6000BBFE04F1600000F00FFD04F58C7000F077
:102A7000EDF904F5E870BDE8104000F0C7BE12F0B3
:102A800002FF00BFF0B50478D4B9CBB101EB8304E9
:102A9000476D4368D0E91665F1EC017A07EB830EC8
:102AA0009D4206EB830CCEED007A03F1010352F850
:102AB00004EB98BF00238C42CCF800E0ECD14360DB
:102AC000F0BD00BF2DE9F0470546007882B002282E
:102AD0004ED01646AAB16A6DAF6DAC68D1E900312F
:102AE00030B3012847D002EB840203EB860C07EBDE
:102AF0008404106843F8040B9C45206841F8040BDB
:102B0000F7D105F15401324605F16000019100F062
:102B1000CDFD3246019905F58C7000F0A3FA3246DE
:102B2000019905F5E87002B0BDE8F04701F070B812
:102B3000686803EB860A002800F1FF380CBF4FF0ED
:102B40000009C14602EB840C002807EB840E4C46BA
:102B5000DCED007A0CBF8446C446E3EC017A9A456A
:102B6000DEF800E041F804EBC5F808C0EAD1C8E798
:102B700002B0BDE8F087D5F8108003EB860E02E0C6
:102B8000AC607345BDD002EB840044454FF0000CAF
:102B9000006843F8040B07EB840004F101040068AB
:102BA00041F8040BECD36446C5F808C0E9E700BF60
:102BB0000B684FF0000C026810B4084CD2F8B0104B
:102BC000A342D2F8B420C1F800C028BF23465DF864
:102BD000044B8B60C2F800C0936070477FA903006C
:102BE00003680A68DA67704703680A68C3F8AC20AC
:102BF000704700BF012A03D0022A04D0002070478A
:102C00000160002070470B6803600020704700BF20
:102C1000012A03D0022A04D000207047016000205E
:102C200070470B6803600020704700BF012A03D083
:102C3000022A04D0002070470160002070470B6812
:102C400003600020704700BF2DE9F04304460026D2
:102C500010684FF0010815468BB0C4F8B0000F465D
:102C6000724A3146C0E901680C3013F021F96868F6
:102C700031466E4AC4F8B40006ADC0E901680C30B4
:102C800013F016F942F2107304F140020694A363A4
:102C900005236762A3870023DFF8A8C1A362644B02
:102CA0000294CDF814C0049395E80300C4E90C66BF
:102CB0006E4686E8030092E8030085E8030096E884
:102CC000030082E80300D4F84890E26CA364CDF8D6
:102CD0002090C4F84CC00992B9F1000F0BD0032228
:102CE00029462846C84794F83C20049B052A18BF6B
:102CF00084F83E801BB102A90322084698474FF092
:102D00007E530522069463660023A4F86820636559
:102D1000E365236604F16C032765DFF82CC1454A9F
:102D20000294CDF814C0049295E8030086E80300ED
:102D300093E8030085E8030096E8030083E80300B6
:102D4000636FA16F62670893C4F878C00991002B84
:102D500067D0032229462846984794F86820049BA8
:102D6000052A02D0012284F86A201BB102A903229D
:102D70000846984700234FF07E520694C4F89420EA
:102D80000522C4F88430C4F88C30C4F8903004F1C3
:102D90009C03C4F88070A4F89820274F274A029417
:102DA0000597049295E8030086E8030093E8030082
:102DB00085E8030096E8030083E80300D4F8A43014
:102DC000D4F8A810C4F8A4200893C4F8A8700991F6
:102DD0004BB3032229462846984794F89820049B31
:102DE000052A02D0012284F89A201BB102A90322ED
:102DF000084698470023D4F8B000002149F6404225
:102E000084F820304FF07C550D4BC4F8AC50E3678C
:102E1000D4F8B4300160826019609A600BB0BDE8EC
:102E2000F0831346A2E71346E0E700BF00A60E00BA
:102E3000F52B0008112C0008E92B00082D2C0008A8
:102E4000CDCC4C3FB12B0008E12B000810B5044657
:102E500086B0019002F08CFE237913B1A37A802B07
:102E600010D0052004F0B8FC94F83E30CBB994F8AB
:102E70006A30002B5ED194F89A30002B40F0958098
:102E800006B010BDA369002B00F0E980E36904F1EE
:102E900010009847052004F09FFC94F83E30002B6A
:102EA000E5D0606A94F83C10183003F03BF994EDDB
:102EB0000A7AD4ED0B6AF0EE407A8DED010A37EE16
:102EC000266AB4EEC60AF1EE10FA06DC37EE667A30
:102ED000B4EEC70AF1EE10FAC9D594F83D30C4ED4E
:102EE0000A7A002B00F0B980012B40F09E8067EE3B
:102EF000A77AA36B626B9B1A07EE102A06EE903A34
:102F0000B8EE477AF8EE666AA7EEA67AFCEEC77AC4
:102F100017EE903AC4ED0C7AA26C0393002A00F0ED
:102F20009E80E36C03A904F14000984794F86A304E
:102F3000002BA0D0206D94F86810183003F0F2F840
:102F4000D4ED157A94ED167A77EE876AB4EEE60A38
:102F5000F1EE10FA06DC77EEC77AB4EEE70AF1EE8E
:102F600010FA88D594F8693084ED150A002B69D0E1
:102F7000012B57D1D4ED187A20EE000A94ED197A7E
:102F800037EE677AE0EE077AC4ED177A636FCDED1E
:102F9000047A002B63D0A36F04A904F16C00984756
:102FA00094F89A30002B3FF46BAFD4F8800094F87B
:102FB0009810183003F0B6F8D4ED217A94ED227A07
:102FC00077EE876AB4EEE60AF1EE10FA07DC77EEE8
:102FD000C77AB4EEE70AF1EE10FA7FF551AF94F834
:102FE000993084ED210A13B3012B18D1D4ED247A42
:102FF00020EE000A94ED257A37EE677AE0EE077A44
:10300000C4ED237AD4F8A430CDED057A3BB3D4F8DF
:10301000A83005A904F19C00984706B010BDD4ED76
:10302000237AEFE7D4ED177AB0E7236B74E7D4ED9A
:10303000247A94ED257A37EE677AE0EE077AC4EDCC
:10304000237ADFE7D4ED187A94ED197A37EE677AB0
:10305000E0EE077AC4ED177A98E7A36B4AE712F01F
:1030600012FC00BF90F82030002B40F08A80002A2C
:1030700000F087802DE9F04FD0F8B06083B0D0F831
:10308000B450D6F80890AB68D1E9007E07EB82080F
:10309000CDE9003872683B4B02EB09013A4CD6EDA2
:1030A000005AA3FB018A01F1010C90ED2B6A4FEA53
:1030B0001A4AD7ED007ADFF8D4B004FB1A1106EBF8
:1030C000810191ED037AA3FB0C81090C04FB11CC67
:1030D00002EB0B0106EB820206EB8C0CDCED036AC3
:1030E00076EEC76AA6EEA57AE7EE067AE7EC017AF5
:1030F00090ED1F7AD5ED005AE7EE877AC2ED037A9C
:10310000A3FB01C2DEED007A90ED2B6A120C04FBEA
:10311000121171600099D5F804C061440CEB0B02E8
:1031200005EB8C0CA3FB018A01F1010B4FEA1A4A53
:1031300004FB1A1105EB810191ED037AA3FB0B81CE
:10314000A3FB0283090C1B0C04FB11BB04FB132221
:10315000019B05EB8B0BBB42DBED036A76EEC76A86
:10316000A6EEA57AE7EE067AEEEC017A90ED1F7AEC
:10317000E7EE877ACCED037A6A608BD103B0BDE8C5
:10318000F08F704773B2E74580A903007FA9030061
:10319000026892F8203083F0010382F820307047F3
:1031A00003680A681A65704703680A68C3F88020D4
:1031B000704700BF03680A68C3F8B020704700BFBB
:1031C000012A03D0022A04D00020704701600020A9
:1031D00070470B6803600020704700BF012A03D0CE
:1031E000022A04D0002070470160002070470B685D
:1031F00003600020704700BF012A03D0022A04D0D8
:10320000002070470160002070470B6803600020B9
:10321000704700BF012A03D0022A04D00020704763
:103220000160002070470B6803600020704700BFFA
:103230002DE9F04103238CB002269FED8A0A8DF818
:1032400004300F46884B04468DF805600793874B82
:1032500001990693049002F071FC0023DDF81880B8
:103260000A93B8F1000F00F0F38008AD324604A9CC
:103270002846C047DDE9068295E8030004F1100303
:1032800002AE86E8030093E8030085E8030096E8B1
:10329000030083E80300A369E169C4F818800A9376
:1032A000E2610B912BB10322294628469847DDF8AD
:1032B0001880B8F1000F03D004A903220846C047C4
:1032C0004FF07E5305220894A3630023A287A362D4
:1032D0002363636304F140036762DFF8A4C1644AB7
:1032E0000494CDF81CC0069295E8030086E803001C
:1032F00093E8030085E8030096E8030083E80300F1
:10330000A36CE16CA2640A93C4F84CC00B91002B2F
:1033100000F0A580032229462846984794F83C20CF
:10332000069B052A02D0012284F83E201BB104A985
:103330000322084698470023002208944FF0030E0A
:10334000A26505226765A4F86C20C4F868E0DFF880
:1033500034C1484A0494CDF81CC0069295E8030095
:10336000C4E9183304F1700386E8030093E803000E
:1033700085E8030096E8030083E80300A36FE16F8C
:10338000A2670A93C4F87CC00B91002B65D07246EB
:1033900029462846984794F86C20069B052A02D0B7
:1033A000012284F86E201BB104A903220846984725
:1033B00000234FF07E520894C4F898200522C4F8E8
:1033C0008830C4F89030C4F8943004F1A003C4F8F5
:1033D0008470A4F89C20284F284A049407970692EA
:1033E00095E8030086E8030093E8030085E80300FE
:1033F00096E8030083E80300D4F8A830D4F8AC10B2
:10340000C4F8A8200A93C4F8AC700B911BB3032234
:1034100029462846984794F89C20069B052A02D006
:10342000012284F89E201BB104A903220846984774
:10343000012200234FF07E5184F82020C4F8802020
:103440002365C4F8B010C4F8B4300CB0BDE8F08106
:103450000B9A08AD10E71346E6E71346A4E71346B8
:1034600065E700BF00007A4491310008C1310008CF
:10347000DD310008F9310008B531000815320008C7
:10348000A1310008A931000810B5044686B002F049
:103490006FFB237913B1A37A802B10D0052004F0A1
:1034A0009BF994F83E30CBB994F86E30002B56D18E
:1034B00094F89E30002B40F0998006B010BDA369AF
:1034C000002B00F0F180E36904F11000984705201B
:1034D00004F082F994F83E30002BE5D0606A94F84D
:1034E0003C10183002F01EFE94ED0A7AD4ED0B6AFF
:1034F000F0EE407A8DED010A37EE266AB4EEC60A88
:10350000F1EE10FA06DC37EE667AB4EEC70AF1EE99
:1035100010FAC9D594F83D30C4ED0A7A002B00F0BA
:10352000B880012B40F0A58094ED0D7A67EEA77A64
:10353000D4ED0E6A76EEC76AA7EEA67A84ED0C7A11
:10354000A36C8DED037A002B00F0AE80E36C03A931
:1035500004F14000984794F86E30002BA8D0606DBD
:1035600094F86C10183002F0DDFD94ED167AD4ED6D
:10357000176AF0EE407A8DED010A37EE266AB4EE56
:10358000C60AF1EE10FA06DC37EE667AB4EEC70A28
:10359000F1EE10FA8CD594F86D30C4ED167A002B4C
:1035A00075D0012B63D167EEA77AA36E626E9B1A6A
:1035B00007EE102A06EE903AB8EEC77AF8EEE66A01
:1035C000A7EEA67AFDEEC77A17EE903AC4ED187A08
:1035D000A26F0493002A67D0E36F04A904F170007E
:1035E000984794F89E30002B3FF467AFD4F88400DE
:1035F00094F89C10183002F095FD94ED227AD4EDE9
:10360000236AF0EE407A8DED010A37EE266AB4EEB9
:10361000C60AF1EE10FA07DC37EE667AB4EEC70A96
:10362000F1EE10FA7FF549AF94F89D30C4ED227A9F
:1036300013B3012B18D194ED257A67EEA77AD4ED58
:10364000266A76EEC76AA7EEA67A84ED247AD4F8C5
:10365000A8308DED057A3BB3D4F8AC3005A904F160
:10366000A000984706B010BD94ED247AEFE7236ED2
:10367000AEE794ED0C7A63E794ED257AD4ED266AF3
:1036800076EEC76AA7EEA67A84ED247ADFE7A36E0A
:103690008CE794ED0D7AD4ED0E6A76EEC76AA7EE4C
:1036A000A67A84ED0C7A4BE712F0EDF8F8B590F8B5
:1036B00020302DED028B3BB9D0F880300446012B31
:1036C00076D0022B30D013B1BDEC028BF8BD002AAE
:1036D000FAD0D1E9006706EB8205D6ED008AB7EE95
:1036E000008AB0EE680A12F0D3F8D4ED2C7A38EEE6
:1036F000677A20EE270AA8EE870AA6EC010AD7ED22
:10370000008AB0EE680A12F0C3F8D4ED2C7AB54204
:1037100038EE678A20EE270AA8EE880AA7EC010A8D
:10372000DBD1BDEC028BF8BD002ACDD0D1E9000180
:1037300000EB8202D0ED006AB7EE007A94ED2C6ABD
:10374000F5EEC06A77EE465AF1EE10FA4CBF01254D
:103750000025CCBF012300235B1B07EE903AF8EE57
:10376000E77A67EE867AE6EEA57AE0EC017AD1EDAB
:10377000006A94ED2C6AF5EEC06A37EE467AF1EEF7
:1037800010FACCBF012300234CBF01250025824243
:10379000A3EB050307EE903AF8EEE77A67EE867A38
:1037A000E6EE877AE1EC017AC4D1BDEC028BF8BD7C
:1037B000002A89D0D1E9006706EB8205D6ED008AA0
:1037C000B7EE008AB0EE680A12F072F9D4ED2C7AE6
:1037D00038EE677A20EE270AA8EE870AA6EC010ADF
:1037E000D7ED008AB0EE680A12F062F9D4ED2C7AB7
:1037F000B54238EE678A20EE270AA8EE880AA7ECC1
:10380000010ADBD1BDEC028BF8BD00BF30B500F57D
:10381000C83487B0054694F85230CBB994F87E305E
:10382000002B52D194F8AA30002B40F08E8094F8EF
:10383000D630002B40F0CB8094F80231002B40F0C2
:10384000088194F82E31002B40F0438107B030BD41
:10385000A06B94F85010183002F064FCD4ED0F7A8D
:1038600094ED107A77EE876AB4EEE60AF1EE10FA7C
:1038700006DC77EEC77AB4EEE70AF1EE10FACDD5A2
:1038800094F8513084ED0F0A002B00F07081012B69
:1038900040F05B81D4ED127A20EE000A94ED137AA9
:1038A00037EE677AE0EE077AC4ED117AE36DCDED7D
:1038B000007A002B00F09D81CF486946236E284492
:1038C000984794F87E30002BACD0606E94F87C1052
:1038D000183002F027FCD4ED1A7A94ED1B7A77EEBB
:1038E000876AB4EEE60AF1EE10FA06DC77EEC77AE4
:1038F000B4EEE70AF1EE10FA94D594F87D3084ED39
:103900001A0A002B00F05F81012B40F02481D4EDD6
:103910001D7A20EE000A94ED1E7A37EE677AE0EE0B
:10392000077AC4ED1C7AD4F88830CDED017A002BEB
:1039300000F05F81B14801A9D4F88C302844984741
:1039400094F8AA30002B3FF472AFD4F8900094F8AA
:10395000A810183002F0E6FBD4ED257A94ED267A13
:1039600077EE876AB4EEE60AF1EE10FA07DC77EE3E
:10397000C77AB4EEE70AF1EE10FA7FF558AF94F883
:10398000A93084ED250A002B00F02881012B40F09E
:10399000E580D4ED287A20EE000A94ED297A37EEFE
:1039A000677AE0EE077AC4ED277AD4F8B430CDED2B
:1039B000027A002B00F01D81914802A9D4F8B8309A
:1039C0002844984794F8D630002B3FF435AFD4F80C
:1039D000BC0094F8D410183002F0A4FBD4ED307A77
:1039E00094ED317A77EE876AB4EEE60AF1EE10FADA
:1039F00007DC77EEC77AB4EEE70AF1EE10FA7FF54E
:103A00001BAF94F8D53084ED300A002B00F0D08045
:103A1000012B40F09D80D4ED337A20EE000A94ED26
:103A2000347A37EE677AE0EE077AC4ED327AD4F86A
:103A3000E030CDED037A002B00F0DB80714803A964
:103A4000D4F8E4302844984794F80231002B3FF42E
:103A5000F8AED4F8E80094F80011183002F062FBD8
:103A6000D4ED3B7A94ED3C7A77EE876AB4EEE60AC1
:103A7000F1EE10FA07DC77EEC77AB4EEE70AF1EE62
:103A800010FA7FF5DEAE94F8013184ED3B0A002B8D
:103A900078D0012B65D1D4ED3E7A20EE000A94ED6A
:103AA0003F7A37EE677AE0EE077AC4ED3D7AD4F8D4
:103AB0000C31CDED047A002B00F09B80524804A914
:103AC000D4F810312844984794F82E31002B3FF455
:103AD000BDAED4F8140194F82C11183002F022FB7A
:103AE000D4ED467A94ED477A77EE876AB4EEE60A2B
:103AF000F1EE10FA07DC77EEC77AB4EEE70AF1EEE2
:103B000010FA7FF5A3AE94F82D3184ED460A002B10
:103B100043D0012B28D1D4ED497A20EE000A94ED50
:103B20004A7A37EE677AE0EE077AC4ED487AD4F83D
:103B30003831CDED057A002B5BD0344805A9D4F897
:103B40003C312844984707B030BDD4ED117AADE63A
:103B5000D4ED327A6BE7D4ED1C7AE4E6D4ED277A23
:103B600023E7D4ED3D7AA2E7D4ED487ADFE7D4ED40
:103B7000127A94ED137A37EE677AE0EE077AC4EDA5
:103B8000117A93E6D4ED3E7A94ED3F7A37EE677A78
:103B9000E0EE077AC4ED3D7A89E7D4ED497A94EDF9
:103BA0004A7A37EE677AE0EE077AC4ED487ABEE7E4
:103BB000D4ED337A94ED347A37EE677AE0EE077A13
:103BC000C4ED327A33E7D4ED1D7A94ED1E7A37EEE8
:103BD000677AE0EE077AC4ED1C7AA4E6D4ED287A81
:103BE00094ED297A37EE677AE0EE077AC4ED277A0A
:103BF000DBE611F048FE00BF549001008090010008
:103C0000AC900100D89001000491010030910100B6
:103C100000F5C83393F8343003B1704710B584B061
:103C20000293D1E90034019219462246009400F033
:103C300003F804B010BD00BF2DE9F043DDE90746ED
:103C4000002E40F3DB81099D06F1FF3900F1E00C05
:103C50004FEA850ED1ED005A064692ED007AD0ED7E
:103C6000007A75EE875A9FEDE65AF0EE454A65EE0A
:103C7000A75A4EE0F0EE477A86ED0C7AB0EE657A00
:103C800096ED0B6A0137A6EE277A88ED007A356C3F
:103C90007764BD4201DC00277764D6F81C5174EECE
:103CA000A64AD6F8247196ED447A05EB8708D6ED3E
:103CB000457A9FEDD36A67EE877A98ED007A96EDA4
:103CC000464A17EE105A15F0FF4F06FE077AE4EE4B
:103CD000077A17EE905A15F0FF4F3AD1F0EE467A78
:103CE00086ED446AF0EE656A96ED436A0137E6EECA
:103CF000276AC8ED006AD6F82051C6F82471BD4283
:103D000002DC0027C6F824711C3635EE075AB4458C
:103D100022D0F56B776CD6ED0C6A05EB8708D6EDF3
:103D20000D7A9FEDB77A67EEA67AD8ED006A96ED28
:103D30000E6A16EE905A15F0FF4F47FE266AE6EE21
:103D4000267A17EE905A15F0FF4F93D0C6ED0C7AF5
:103D500094E7C6ED447AC5E7D0F8F861D0F8F07181
:103D60009FEDA77A07EB8607D0ED7B6A0136D7ED8A
:103D7000007A17EE905A15F0FF4F47FE277AB0EE03
:103D8000647A77EEE44AA7EEA67A87ED007AD0F857
:103D9000F451C0F8F861AE4202DB0026C0F8F861C9
:103DA000D0F83862D0F83072DFED957A07EB8607ED
:103DB000D0ED8B6A013697ED007A17EE105A15F0A8
:103DC000FF4F07FE877AF0EE457A37EE455AE7EE69
:103DD000267AC7ED007AD0F83452C0F83862AE4285
:103DE00002DB0026C0F83862D0F80862D0F8007212
:103DF0009FED837A07EB8607D0ED7F6A0136D7ED1A
:103E0000007A17EE905A15F0FF4F47FE277AB0EE72
:103E1000647A77EEE44AA7EEA67A87ED007AD0F8C6
:103E20000452C0F80862AE4202DB0026C0F8086205
:103E3000D0F84862D0F84072DFED717A07EB860760
:103E4000D0ED8F6A013697ED007A17EE105A15F013
:103E5000FF4F07FE877AF0EE457A37EE455AE7EED8
:103E6000267AC7ED007AD0F84452C0F84862AE42D4
:103E700002DB0026C0F84862D0F81862D0F8107251
:103E80009FED5F7A07EB8607D0ED836A0136D7EDA9
:103E9000007A17EE905A15F0FF4F47FE277AB0EEE2
:103EA000647A77EEE44AA7EEA67A87ED007AD0F836
:103EB0001452C0F81862AE4202DB0026C0F8186245
:103EC000D0F85862D0F85072DFED4D7A07EB8607D4
:103ED000D0ED936A013697ED007A17EE105A15F07F
:103EE000FF4F07FE877AF0EE457A37EE455AE7EE48
:103EF000267AC7ED007AD0F85452C0F85862AE4224
:103F000002DB0026C0F85862D0F82862D0F8207290
:103F10009FED3B7A07EB8607D0ED876A0136D7ED38
:103F2000007A17EE905A15F0FF4F47FE277AB0EE51
:103F3000647AA7EEA67A77EEE47A87ED007AD0F875
:103F40002452C0F82862AE4202DB0026C0F8286284
:103F5000D0F86862D0F86072DFED296A07EB860757
:103F600090ED976A013697ED007A17EE105A15F02A
:103F7000FF4F06FE877AF0EE456AE7EE066A37EEF7
:103F8000457AC7ED006AD0F86452C0F86862AE4264
:103F900002DB0026C0F86862D0ED076A09F1FF393C
:103FA000D0ED064A67EE266A91ED005AD0ED085A28
:103FB000B9F1FF3F93ED006A7144E4EEA76AE5EEC4
:103FC000256A76EE266AC3ED006A7344D0ED076A6F
:103FD00090ED065A67EEA67AD2ED005A90ED086A87
:103FE0007244D4ED006AE5EE077AE5EE867A76EE65
:103FF000A77AC4ED007A74447FF42CAEBDE8F08358
:1040000000000000B6EE007AD0ED097AF7EE005A13
:1040100090ED0A5A90ED056AF0EE476AB4EEC75A81
:10402000E7EE876A75EEE77AF1EE10FA67EE877AC7
:1040300066EE266A67EE867AF8B50446C0ED066A33
:10404000C0ED077A29DBB0EE650A0023C0ED025A05
:104050000361036004F12C0504F586772E4601E028
:1040600094ED020A304600F055FA06F1E0001C36E5
:1040700094ED020A00F04EFAB742F1D1284694EDD1
:10408000040A00F03DFA05F1E0001C3594ED040A45
:1040900000F036FABD42F1D1F8BD90ED010AC268D8
:1040A000024B80ED020A02610360D3E78FC2753CC8
:1040B00000F12C032DE9F04F04461F4600F58675EC
:1040C0001E462DED068B83B0009338461C3700F05A
:1040D00003FAAF42F9D12F4604F5F67838461C377B
:1040E00000F0FAF94745F9D1474604F50B79C24685
:1040F00050460AF1100A00F011FAD145F8D1CB462A
:1041000004F51B7A58460BF1100B00F007FADA455C
:10411000F8D1514640F25C42009804F5077B00F06C
:10412000E1F941F2DC3140F273422846214404F5C2
:10413000177A00F0D7F942F2A85140F2A44204F1F4
:1041400048002144F7EE008A00F0CCF943F638012C
:1041500040F2BB4204F5947021449FEDD08A00F0F8
:10416000C1F944F6243140F2FD4204F164002144D7
:1041700000F0B8F945F6187140F2145204F5A27037
:10418000214400F0AFF947F2683140F24C5204F19B
:104190008000214400F0A6F948F6980140F26352ED
:1041A00004F5B070214400F09DF949F6246140F215
:1041B0008E5204F19C00214400F094F94BF25C41D2
:1041C00040F2A55204F5BE70214400F08BF94CF684
:1041D000F02140F2D35204F1B800214400F082F9FA
:1041E0004EF23C2140F2EA5204F5CC70214400F03A
:1041F00079F94FF6E41140F2156204F1D40021443C
:1042000000F070F9A64940F22C6204F5DA702144FE
:1042100000F068F9A34940F2516204F1F000214432
:1042200000F060F9A0494FF4CD6204F5E870214434
:1042300000F058F99D494FF40B724046214400F0BC
:1042400071F99B4940F243224846214400F06AF943
:1042500004F5FE73974940F2B91218460AEE103A77
:10426000214400F05FF904F50F7393494FF4E872AD
:10427000184609EE903A214400F054F904F503730E
:104280008E4940F25512184609EE103A214400F0CA
:1042900049F904F513738A494FF4B672184601932D
:1042A000214400F03FF98749E1225846214400F0BB
:1042B00039F98549F8225046214400F033F9B6EE29
:1042C000000A404600F03CF9B6EE000A484600F00D
:1042D00037F9B6EE000A1AEE100A00F031F9B6EE20
:1042E000000A19EE900A00F02BF9B6EE000A19EE5A
:1042F000100A00F025F9019BB6EE000A184600F0FE
:104300001FF9B6EE000A584600F01AF9B6EE000A98
:10431000504600F015F92046C4ED058AFFF772FEFD
:104320006A4B20466360FFF76DFE694B204684EDC3
:10433000088AE360FFF766FEB6EE007AD4ED0A6AFB
:10434000D4ED057AF4EEC76AC4ED098A27EE886ACF
:10435000C4ED067AF1EE10FA84ED076AC0F294809B
:10436000B0EE680AC4ED028A84ED048A84ED008A06
:10437000DDF8008001E094ED020A404600F0CAF842
:1043800008F1E00008F11C0894ED020A00F0C2F800
:104390004545F0D1DDF80080404694ED040A00F078
:1043A000AFF808F1E00008F11C0894ED040A00F0F1
:1043B000A7F84545F0D1F6EE006AD4ED095AF7EEBC
:1043C000007A002394ED056AB0EE667AA36277EE78
:1043D000E57AE36894ED010AA5EEA67A236167EE1B
:1043E000A67A3C4BDDF8008084ED020A67EE867AFF
:1043F000236026EE077AC4ED077A84ED067A01E0A1
:1044000094ED020A404600F085F808F1E00008F15A
:104410001C0894ED020A00F07DF8A845F0D1DDF803
:104420000080404694ED040A00F06AF808F1E000CC
:1044300008F11C0894ED040A00F062F84545F0D13B
:10444000F6EE007A94ED0A7AB4EEE77AF1EE10FA1D
:1044500005DB204603B0BDEC068BBDE8F08F30468F
:1044600000F044F806F1E0001C3600F03FF8B542D9
:10447000F5D1384600F05AF807F14000103700F047
:1044800055F84F45F5D1E4E7E36894ED010A23615F
:10449000104B84ED020A23606AE700BF00000000B1
:1044A00038120100E82A01002C440100CC5D010013
:1044B0007C660100886F01006C760100AC7D010014
:1044C00000830100B0880100348C01003D0A573F91
:1044D000CDCC4C3E8FC2753C0021002241608261F0
:1044E000704700BFC0E90412704700BF4269002A4C
:1044F00004DD92000021006911F0DABC704700BFB2
:10450000F7EE007A80ED020A77EEC07AC0ED037A0A
:10451000704700BF80ED000A704700BF0022C260F4
:10452000704700BFC0E90112704700BF8268002ACF
:1045300004DD92000021406811F0BABC704700BF52
:1045400080ED000A704700BF143001F005BA00BFCB
:1045500038B500F1140504462DED028B284601F014
:10456000B7F9284601F0B0F92846B0EE408A01F0CC
:1045700099F9D0ED007AF8EE677A88EE277ABDECEB
:10458000028B84ED0E7A38BD38B500F1140504466F
:104590002DED028B284601F089F9284601F094F9A7
:1045A0002846B0EE408A01F07DF9D0ED007AF8EEB1
:1045B000677A88EE277ABDEC028B84ED0E7A38BDDF
:1045C000F0B5032399B000270125129306462C4B22
:1045D00009A81595CDE90E7340F20453ADF84030AB
:1045E000284BCDE91357099301F0A4FE09A801F067
:1045F0007DFF002836D1244B04AF04460090CDF84F
:1046000042301023394604958DF820301F4BCDE9F8
:104610001650CDE906506846059302F0F5F80823D8
:10462000009A01A909A8ADF804508DF80640099434
:104630000295039300F0E4F800230EA938463024D5
:10464000049302F0A9FE03224FF07E5309A906F15C
:1046500014000B930C93CDE90942049A01F0EAF897
:1046600019B0F0BD40F60132074B169704AFADF814
:1046700024200998CDF84230179500F081F8DBE747
:104680000402040403030001040604030704010BED
:104690002DE9F04304462DED028B83B0002948D06C
:1046A000012140F2011200230091ADF804208DF8A1
:1046B0000630304A0126304B271D304904F12908C5
:1046C000626040F20272A36040F60663E16004F1AA
:1046D00025092682A4F8252084F82760A4F829302B
:1046E00084F82B6003F0E6F96946054648B304F107
:1046F00030008DF8066003F03BF9072D34D104F14A
:1047000014052046FFF75CFF284601F0DDF8284637
:10471000B0EE408A01F0C6F8D0ED007AF8EE677A84
:1047200088EE277A84ED0E7A03B0BDEC028BBDE8EB
:10473000F08340F2011300918DF80610ADF80430BB
:10474000B7E704F1300003F013F93946204602F0D0
:10475000A3FA484601F0EEFD404601F0EBFD04F1FE
:10476000120000F077F9CAE73946204602F094FAC1
:10477000C5E700BF0508050905070506050A060681
:1047800010B584B003460124ADF8040003A8ADF8C9
:104790000C30ADF80E4001F0CDFD214603A801F02C
:1047A000B3FE204603F018F8002103A801F0ACFE88
:1047B000204603F011F8214603A801F0A5FE04B03D
:1047C00010BD00BF10B5C2F3002384B00C46017CBD
:1047D0008DF80D2043EA4402FA2402238DF80C20C0
:1047E00003AA009402F0A6F818B10124204604B0F0
:1047F00010BD04460A2002F0EFFF204604B010BDB1
:10480000034670B543F8042B044684B007C983E817
:104810000700A37983B91A210B461E22FA252374B7
:104820002046ADF80C20022303AA009502F082F87E
:1048300028B1012004B070BD1B210B46EDE70A2012
:1048400002F0CAFF4FF4B85200950223ADF80C20D5
:10485000204603AA217C02F06DF80028E9D10A2045
:1048600002F0BAFF41F2027200950223ADF80C206B
:10487000204603AA217C02F05DF80028D9D10A2045
:1048800002F0AAFF042200950223ADF80C20204676
:1048900003AA217C02F04EF80028CAD10A2002F0B7
:1048A0009BFF062200950223ADF80C20204603AAA8
:1048B000217C02F03FF80028BBD10A2002F08CFFD7
:1048C00041F2082200950223ADF80C20204603AAED
:1048D000217C02F02FF80028ABD10A20064602F016
:1048E0007BFF0095022303AA217C2046ADF80C60D3
:1048F00002F020F800289CD1304602F06DFF0095B0
:1049000022790C232046002A8DF80C3003AA4FF0A0
:10491000020314BF622142218DF80D10217C02F0A8
:1049200009F8002885D1304602F056FF2279D4E9F3
:1049300002310B43DBB20AB943F0400362790AB19A
:1049400043F020030E22FA258DF80D302046009505
:1049500002238DF80C2003AA217C01F0EBFF002834
:104960007FF467AF0A2002F037FF10220095022380
:10497000ADF80C20204603AA217C01F0DBFF0028C3
:104980007FF457AF0A2002F027FF1221009502237F
:10499000ADF80C1003AA217C204601F0CBFF0028C3
:1049A0007FF447AF0A2002F017FF012209212046B9
:1049B000FFF708FF003818BF01203BE7F0B51023D0
:1049C00087B0234C012200250126002702A920469A
:1049D0000195CDE902234FF48052CDE904670AF036
:1049E000F9FA642003F0A4FE02A94FF48052204695
:1049F000CDE9046702261027CDE902670AF0EAFA3A
:104A00000322102302A92046CDE902230023042219
:104A1000CDE904234FF480520AF0DCFA40F232234D
:104A2000042202A9019310232046CDE90223019A12
:104A3000012305924FF4805204930AF0CBFA40F61A
:104A4000060120460AF0E6FA284607B0F0BD00BF8E
:104A5000605606241C4B00221C494FF0400C30B518
:104A6000054689B00220596007219A601A62012424
:104A7000DA620A224FF4006EDC6006922022CDE951
:104A8000000104200821CDE9020103201021CDE915
:104A9000040108206946C3E904024FF4C072181DDE
:104AA000C3E906C24FF48052C3E909E20AF068FA8A
:104AB00038B92846FFF782FF003818BF012009B037
:104AC00030BD204609B030BD5C560624404100523E
:104AD000614A0021D0B513688EB00A91002B40F0D6
:104AE000B9805E4B01214FF683700C2411600221C6
:104AF000D3F8D4200026032742F48052C3F8D420F0
:104B0000D3F8D42002F480520092009AD3F8E02027
:104B100042F01002C3F8E020D3F8E02002F01002C7
:104B20000192019AD3F8E02042F04002C3F8E0205D
:104B3000D3F8E02002F040020292029AD3F8E0207B
:104B400042F00802C3F8E020D3F8E02002F00802A7
:104B50000392039AD3F8E02042F48072C3F8E02075
:104B6000D3F8E02002F480720492049AD3F8E02093
:104B700042F08002C3F8E020D3F8E02002F0800287
:104B80000592059AD3F8E02042F02002C3F8E02015
:104B9000D3F8E02002F020020692069AD3F8E02033
:104BA00042F00402C3F8E020D3F8E0300C9403F0A4
:104BB000040307930323079A0B93CDE9080108A97F
:104BC000274805F03BFC48F23712022308A9254884
:104BD0000C94CDE90823CDE90A6705F02FFC4CF2CF
:104BE0000372022308A920480C94CDE90823CDE9DB
:104BF0000A6705F023FC40F2FF62022308A91B4864
:104C00000C94CDE90823CDE90A6705F017FC4FF6AF
:104C10000C72022308A916480C94CDE90823CDE9AB
:104C20000A6705F00BFC4FF63F02022308A9114862
:104C30000C94CDE90823CDE90A6705F0FFFB20229B
:104C4000022308A90A480C94CDE90A67CDE9082394
:104C500005F0F4FB0EB0D0BD5856062400440258AF
:104C60000010025800180258000C02580020025888
:104C7000001C0258001402582DE9F04FDFF8108490
:104C800006460D46144608F118002DED028B89B03A
:104C900000AF02F079FCD8F8183073B3D8F81C30A4
:104CA000D8F80490002B43690BBF4FF0080A4FF06F
:104CB000100A4FF0020B4FF0040BB9F1000F2AD08D
:104CC000A200EA46012B02F1070222F00702ADEB37
:104CD000020D6846ADEB020D694600F03F81022BE4
:104CE00000F0D680002B6FD02246C847D546243727
:104CF000BD46BDEC028BBDE8F08FD8F81C30002B10
:104D0000F5D0D8F804904FF0080A4FF0020B436931
:104D1000B9F1000FD4D1FB61D8F80030BB61002B92
:104D2000E5D0D54802F0A2FC6B46BBF1020F7861DA
:104D300008EE103AFB6900F083816A465146A2EB07
:104D4000C40295466200EA46B2FBFBF2AAEBC4003D
:104D500085460AEB8200EE46F861ADEB010DF8697D
:104D60000EEB820CC7F810C0EC46ADEB010D00EB6A
:104D70008201CCF80400CCF8081001EB82013869FC
:104D8000E946CCF80C1000EB8201CCF800A001EB56
:104D90008202C9E900E0C9E90212012B00F0648334
:104DA000022B00F06C82002B00F0808162084946E3
:104DB0006046BB69984718EE103A24379D46BD46B9
:104DC000BDEC028BBDE8F08F002C8DD01A46D8EDDB
:104DD0000C6A9FEDB27A8446331D36F922E00CF15D
:104DE000080C07EE90EA33F922E00232F8EEE77A97
:104DF000944267EE877A67EEA67A4CED027A07EE68
:104E000090EAF8EEE77A67EE877A67EEA67A4CEDDD
:104E1000017AE2D8F9612246C847984ED8ED0D6A6A
:104E20000020F9692B1D9FED9E7A9FED9E6ADFEDB4
:104E30009E5A22E0F4EEC67AF1EE10FAC0F2C8846F
:104E400047F6FE72D1ED017A45F8202066EEA77A8A
:104E5000F4EEC77AF1EE10FA40F2F080F4EEC67A82
:104E6000F1EE10FAC0F2D58447F6FE7243F8202026
:104E70000230083184427FF639AFD1ED007A66EE18
:104E8000A77AF4EEC77AF1EE10FAD3D83246D9E712
:104E9000002C3FF429AFD8ED0C6A84469FED787A58
:104EA0000022331D8E4656F822100CF1080C07EE36
:104EB000901A53F822100232F8EEE77A944267EE25
:104EC000877A67EEA67A4CED027A07EE901AF8EE32
:104ED000E77A67EE877A67EEA67A4CED017AE2D838
:104EE00071462246C7F81CE0C847664ED8ED0D6AE9
:104EF0000020F9692B1D9FED6A7A9FED6A6ADFF841
:104F000094C120E0F4EEC67AF1EE10FAC0F2798492
:104F10003246D1ED017A45F8202066EEA77AF4EE0C
:104F2000C77AF1EE10FA40F28780F4EEC67AF1EE1D
:104F300010FAC0F25E84324643F820200230083175
:104F400084427FF6D3AED1ED007A66EEA77AF4EE16
:104F5000C77AF1EE10FAD5D86246DAE7002C3FF4B2
:104F6000C3AED8ED0C6A86469FED477A4FF0000C31
:104F7000331D56F82C200EF1080E82F40002A2F523
:104F8000000207EE902A53F82C200CF1020CF8EEE8
:104F9000E77A82F400026445A2F5000267EE877AA0
:104FA00067EEA67A4EED027A07EE902AF8EEE77ADF
:104FB00067EE877A67EEA67A4EED017AD9D8F96165
:104FC0002246C847314ED8ED0D6A0020F9692B1DE5
:104FD0009FED337A9FED336ADFF8BCC01FE0F4EE3B
:104FE000C67AF1EE10FAC0F2FC833246D1ED017AB6
:104FF00045F8202066EEA77AF4EEC77AF1EE10FAB3
:1050000018D9F4EEC67AF1EE10FAC0F2DA8332461D
:1050100043F820200230083184427FF667AED1ED9C
:10502000007A66EEA77AF4EEC77AF1EE10FAD6D8D7
:105030006246DBE76246EBE762467DE7324615E70C
:10504000A100D6466208073121F00701ADEB010D42
:10505000EA46ADEB010D6946ADEB0E0D0AEB8200A1
:10506000EC46ADEB0E0D01EB8202F861E946CCE9AE
:1050700000A0C9E9001290E6B05606240280FFFFA6
:10508000000000300082FF7F0000003482FF7F00BC
:1050900094560624007E00807E0080FF00000038C9
:1050A00004FF7FBF04FF7F3F00FEFF46002C00F09F
:1050B000C982BBF1020FD8F8242000F0FA82796986
:1050C000C7F8049002EB810E5FED0C5A8A00DCF801
:1050D00008100EF104007A611A46DCF80C303B61CE
:1050E000331DD7F810903D61FD69C7E902CB8C46AE
:1050F000834636F92210D8ED0C7A06EE101A33F9F1
:10510000221006EE901A3EF92210B8EEC66A07EE9B
:10511000101AF8EEE66A3BF92210B8EEC77A26EECE
:10512000256A66EEA56A27EE257A26EE276A66EEE0
:10513000A76A27EE277A07EE901A51080232F8EE96
:10514000E77A0AEB8100944280ED006A05EB81006A
:1051500067EEA57AC0ED006A0CEB810009EB8101D6
:1051600080ED007A98ED0C7A67EE877AC1ED007ACF
:10517000BFD8D7F804903D69D7E902CB60466208F2
:10518000BB6949469847D8F82C307A69D8ED0D6A42
:105190001A441FED3D7A1FED3D6A2B1D904602F12A
:1051A000040A5FED3F5A0022A84ED9E900EC51E015
:1051B000F4EEC67AF1EE10FAC0F2C78247F6FE703E
:1051C00045F822000CEB0100D0ED007A66EEA77ADC
:1051D000F4EEC77AF1EE10FA4BD9F4EEC67AF1EE9E
:1051E00010FAC0F2BA8247F6FE70BBF1020F43F824
:1051F00022002BD0D9F808000844D0ED007A66EEE2
:10520000A77AF4EEC77AF1EE10FA36D9F4EEC67A40
:10521000F1EE10FAC0F2CD8247F6FE7048F8220097
:10522000D9F80C000144D1ED007A66EEA77AF4EECD
:10523000C77AF1EE10FA1ED9F4EEC67AF1EE10FA42
:10524000C0F2AF8247F6FE714AF822100232944251
:105250007FF6B1AD51080EEB81008900D0ED007AE8
:1052600066EEA77AF4EEC77AF1EE10FAA0D83046CF
:10527000A6E73046B9E73146E6E73046CEE7002CF0
:1052800000F0E081BBF1020FD8F8243000F0E1819A
:105290007A69DCF8081003EB820EC7F804909300DB
:1052A000DFED6B5A0EF1040000227B61DCF80C305C
:1052B0003B61331DD7F810903D61FD69C7E902CB12
:1052C0008C46834656F82210D8ED0C7A07EE101A59
:1052D00053F82210B8EEC76A07EE101A5EF82210D3
:1052E000F8EEC76A07EE101A26EE256A5BF8221060
:1052F000B8EEC77A66EEA56A26EE276A27EE257A0B
:1053000066EEA76A27EE277A07EE901A5108023256
:10531000F8EEE77A0AEB8100944280ED006A05EB33
:10532000810067EEA57AC0ED006A0CEB810009EB05
:10533000810180ED007A98ED0C7A67EE877AC1EDF5
:10534000007ABFD8D7F804903D69D7E902CB604610
:105350006208BB6949469847D8F82C307A69D8ED7D
:105360000D6A1A449FED3E7A9FED3E6A131D9246E8
:10537000DFF8E4C00022FB612B1D364ED9E9008E18
:105380004EE0F4EEC67AF1EE10FAC0F2FC8130463F
:1053900045F822000EEB0100D0ED007A66EEA77A08
:1053A000F4EEC77AF1EE10FA49D9F4EEC67AF1EECE
:1053B00010FAC0F2EF813046BBF1020F43F8220031
:1053C0002AD0D9F808000844D0ED007A66EEA77A12
:1053D000F4EEC77AF1EE10FA35D9F4EEC67AF1EEB2
:1053E00010FAC0F2C98130464AF82200D9F80C0000
:1053F0000144D1ED007A66EEA77AF4EEC77AF1EEB9
:1054000010FA1ED9F4EEC67AF1EE10FAC0F2AD81B0
:105410003146F86940F82210023294427FF6CBAC54
:10542000510808EB81008900D0ED007A66EEA77A7A
:10543000F4EEC77AF1EE10FAA3D86046A8E760460A
:10544000BAE76146E5E76046CEE700BF0280FFFFAE
:10545000000000300082FF7F007E008000000034EA
:1054600004FF7FBF04FF7F3F002C00F0EB807A69D0
:105470000021D8F82430C7F8109003EB820ED7F83B
:105480001C909300FD610EF104021FED0C6A7B611C
:10549000331D154656F821204808D8ED0C6ABBF19B
:1054A000020F82F40002A2F5000207EE902A53F8E0
:1054B000212082F40002B8EEE77AA2F5000227EE7E
:1054C000067A07EE902A0AEB8002F8EEE77A27EEDA
:1054D000267A67EE867A82ED007A09EB80024FEA3F
:1054E000800067EEA67AC2ED007A27D05EF8212010
:1054F00082F40002A2F5000207EE902A55F821205E
:1055000082F40002B8EEE77AA2F5000227EE067AEE
:1055100007EE902ADCF80820F8EEE77A024427EE3E
:10552000267A67EE867A82ED007A98ED0C7ADCF8BE
:105530000C2067EE877A0244C2ED007A02318C4279
:10554000A8D8D7F8109060466208BB694946FD6943
:105550009847D8F82C307A69D8ED0D6A1A441FEDB7
:10556000407A1FED406A131D9246DFF8C4C2002244
:10557000FB612B1DAB4ED9E9008E4EE0F4EEC67AEE
:10558000F1EE10FAC0F2C580304645F822000EEB6D
:105590000100D0ED007A66EEA77AF4EEC77AF1EE5C
:1055A00010FA49D9F4EEC67AF1EE10FAC0F2BF80D3
:1055B0003046BBF1020F43F822002AD0D9F8080088
:1055C0000844D0ED007A66EEA77AF4EEC77AF1EEE1
:1055D00010FA35D9F4EEC67AF1EE10FAC0F2AE80C8
:1055E00030464AF82200D9F80C000144D1ED007A87
:1055F00066EEA77AF4EEC77AF1EE10FA1ED9F4EE51
:10560000C67AF1EE10FAC0F28B803146F86940F8A4
:105610002210023294427FF6CEAB510808EB810093
:105620008900D0ED007A66EEA77AF4EEC77AF1EE43
:1056300010FAA3D86046A8E76046BAE76146E5E7F6
:105640006046CEE7224649466046BB699847FFF769
:10565000B2BBC7F810B0002298ED0C6A331DDFED25
:10566000726AD7F81CB0786956F8221007EE901AC3
:1056700053F82210B8EEE77A07EE901A510802327A
:10568000F8EEE77A27EE267A0AEB810E94420BEBCE
:10569000810167EEA67A27EE067A67EE867A8EEDAE
:1056A000007AC1ED007ADFD88300D7F810B07B61B3
:1056B0004DE61A46C7F810B098ED0C6A331DDFEDC1
:1056C0005B6AD7F81CB0786936F9221007EE101A19
:1056D00033F9221007EE901AB8EEC77A5108023259
:1056E000F8EEE77A27EE267A0AEB810E94420BEB6E
:1056F000810167EEA67A27EE067A67EE867A8EED4E
:10570000007AC1ED007ADFD88300D7F810B07B6152
:1057100034E5F0EE675AFEEEE45A15EE900A34E7EF
:10572000F0EE675AFEEEE45A15EE901A6EE7F0EED0
:10573000675AFEEEE45A15EE900A3AE7F0EE675A21
:10574000FEEEE45A15EE900A4BE767EEA57AFDEE01
:10575000E77A17EE900A00B232E567EEA57AFDEE21
:10576000E77A17EE900A00B23FE5F0EE675AFEEED8
:10577000E05A15EE901A4CE6F0EE675AFEEEE05A4B
:1057800015EE900A30E6F0EE675AFEEEE05A15EE9E
:10579000900AFDE5F0EE675AFEEEE05A15EE900A2B
:1057A0000AE667EEA57AFDEEE77A17EE901A09B2DF
:1057B0004AE567EEA57AFDEEE77A17EE900A00B2A9
:1057C0002CE5F0EE675AFEEEE45A15EE902A1FE43F
:1057D00067EEA57AFDEEE77A17EE902A12B2FFF790
:1057E00031BBF0EE675AFEEEE45A15EE902AFFF751
:1057F000FDBBF0EE675AFEEEE05A15EE902AFFF779
:105800009BBBF0EE675AFEEEE05A15EE902AFFF7CA
:1058100080BB67EEA57AFDEEE77A17EE902A12B20A
:10582000FFF724BB82FF7F0000000030000000383B
:105830007E0080FF30B5184C154685B0046004F139
:10584000080EEC460FC98EE80F00D4ED047AF5EE91
:10585000C07A8CE80F00F1EE10FA1ADDB7EE006A9C
:1058600094ED057A27EE277AC6EE276A84ED0D7A45
:10587000C4ED0C6A6DB1204640F8185F01F084FE5B
:10588000064903690020064A2162A262E36005B06E
:1058900030BD012005B030BD9456062400200030F4
:1058A0000000003000680830704700BFB1F5807F0D
:1058B00003680A4628BF4FF48072B1F5807F9A6072
:1058C00094BF0020012070470068183001F0BCBE72
:1058D00070B504688AB0A369E160CBB104F1180522
:1058E000284601F051FE8446EE46E668BCE80F000B
:1058F000AEE80F00BCE80F00AEE80F009CE8030024
:105900008EE8030069462846049601F045FDF8B983
:10591000E069D8B104F11C05284601F035FE844643
:10592000EE46E468BCE80F00AEE80F00BCE80F00EC
:10593000AEE80F009CE803008EE8030069462846A5
:10594000049401F029FD003818BF01200AB070BD91
:1059500001200AB070BD00BF30B5046883B00D46A9
:10596000E3694BB1A3680020E26A616A9B00009082
:1059700004F11C0001F00AFEA3680748A26A9B001C
:10598000216A009004F1180001F000FE0020C4E933
:10599000005003B030BD00BF794C000810B4074B75
:1059A0004FF07E5130240022032019619C60D860A2
:1059B0005DF8044B5961C3E90622704794560624EA
:1059C000704700BFF8B5134F3C687F2C07D9802380
:1059D000114A42F224411C463B60A2F87E100F4D52
:1059E0002B68012B0AD90C4E0D4D22463146284614
:1059F00000F074F90028F8D13860F8BD2246064955
:105A0000074800F06BF90028F7D12B6838600133A4
:105A10002B60F8BDD0560624D4560624CC56062456
:105A20005457062430B4154C2168F1B14B1E144D67
:105A3000E81810F801298C4619460A2A01D00D2AC7
:105A400002D14BB1013BF4E70CF102037F2B10D9DB
:105A50008023236030BC70470122022323600D2085
:105A60000A236854AB5430BC704701220223044D12
:105A7000F4E70CF101026146F0E700BFD0560624BE
:105A8000D456062410B5094C02460B460848216836
:105A90000844C1F1800110F0FBFF23681844206026
:105AA000FFF7C0FFFFF78EFF10BD00BFD0560624E2
:105AB000D45606240FB400B583B004A951F8040BE2
:105AC0000191FFF7DFFF03B05DF804EB04B070470E
:105AD00010B5044600210A4800F07AF8002C094B62
