:020000040800F2
:1000000000000220110A00080D0A00080567000818
:100010000D0A00080D0A00080D0A00080000000083
:100020000000000000000000000000000D0A0008B1
:100030000D0A0008000000000D0A0008896600088B
:100040000D0A00080D0A00080D0A00080D0A000834
:100050000D0A00080D0A00080D0A00080D0A000824
:100060000D0A00080D0A00080D0A00089162000838
:100070009D620008E9510008A9620008B562000805
:10008000791A0108BD5700080D0A00080D0A00087A
:100090000D0A00080D0A00080D0A00080D0A0008E4
:1000A0000D0A00080D0A00080D0A00080D0A0008D4
:1000B0004D0E0108590E0108650E0108F1570008A0
:1000C0000D0A0008FD5700080D0A0008BD060108CA
:1000D000C9060108AD180108DD1801081119010849
:1000E0000D0A00080D0A0008000000000D0A0008B3
:1000F0000D0A00080D0A00080D0A00080D0A000884
:100100000D0A00080D0A0008710E0108D506010845
:1001100045190108791901080D0A00080D0A00089F
:100120000D0A00080D0A0008F90601082D0701084C
:10013000AD1A01080D0A00080D0A00080D0A000892
:1001400000000000000000000000000000000000AF
:100150000D0A00080D0A00080D0A0008AD19010873
:10016000095800080D0A000899660008BD660008D5
:100170000D0A0008E16600080D0A00080D0A0008D3
:100180000D0A00080D0A0008E1190108111A0108FA
:10019000E1060108ED0601080D0A00080D0A000835
:1001A0000D0A00080D0A00080D0A00080D0A0008D3
:1001B000B15F00080D0A00080D0A00080D0A0008CA
:1001C0000D0A00080D0A0008FD4C0008094D000842
:1001D0000D0A0008154D00080D0A00080D0A000858
:1001E0000D0A00080D0A00080D0A00080D0A000893
:1001F0000D0A00080D0A00080D0A00080D0A000883
:100200000D0A00080D0A00080D0A00080D0A000872
:100210000D0A00080D0A00080D0A00080D0A000862
:100220000D0A00080D0A00080D0A00080000000071
:100230000D0A00080D0A0008000000000D0A000861
:100240000D0A00080D0A00080D0A00080D0A000832
:100250000D0A00080D0A00080D0A00080D0A000822
:100260000D0A00080D0A00080D0A00080D0A000812
:100270000D0A00080D0A0008451A010800000000D8
:100280000D0A00080D0A00080D0A00080000000011
:08029000000000000D0A000847
:1002A00010B5054C237833B9044B13B10448AFF3B0
:1002B00000800123237010BDE00700C00000000093
:1002C000C48C010808B5034B1BB103490348AFF3C5
:1002D000008008BD00000000E40700C0C48C0108D5
:1002E000034613F8012B002AFBD1181A0138704776
:1002F00001F0FF01102A2BDB10F0070F08D010F8D7
:10030000013B013A8B422DD010F0070F42B3F6D1DA
:10031000F0B441EA012141EA014122F007047FF0F3
:1003200000070023F0E80256083C85EA010586EA4A
:10033000010685FA47F5A3FA87F586FA47F6A5FA86
:1003400087F68EB9EED1F0BC01F0FF0102F0070292
:1003500032B110F8013B013A83EA010313B1F8D13D
:100360000020704701387047002D06BF354603381E
:10037000073815F0010F07D1013015F4807F02BF57
:10038000013015F4C03F0130F0BC0138704700BFA8
:1003900081F0004102E000BF83F0004330B54FEA36
:1003A00041044FEA430594EA050F08BF90EA020FA3
:1003B0001FBF54EA000C55EA020C7FEA645C7FEA36
:1003C000655C00F0E2804FEA5454D4EB5555B8BF59
:1003D0006D420CDD2C4480EA020281EA030382EACA
:1003E000000083EA010180EA020281EA0303362D5C
:1003F00088BF30BD11F0004F4FEA01314FF4801C2F
:100400004CEA113102D0404261EB410113F0004F40
:100410004FEA03334CEA133302D0524263EB4303F7
:1004200094EA050F00F0A780A4F10104D5F1200E95
:100430000DDB02FA0EFC22FA05F2801841F10001F0
:1004400003FA0EF2801843FA05F359410EE0A5F1C4
:1004500020050EF1200E012A03FA0EFC28BF4CF0F5
:10046000020C43FA05F3C01851EBE37101F00045AB
:1004700007D54FF0000EDCF1000C7EEB00006EEBB8
:100480000101B1F5801F1BD3B1F5001F0CD3490842
:100490005FEA30004FEA3C0C04F101044FEA445299
:1004A00012F5800F80F09A80BCF1004F08BF5FEA20
:1004B000500C50F1000041EB045141EA050130BD00
:1004C0005FEA4C0C404141EB0101013C28BFB1F512
:1004D000801FE9D291F0000F04BF01460020B1FA5D
:1004E00081F308BF2033A3F10B03B3F120020CDA30
:1004F0000C3208DD02F1140CC2F10C0201FA0CF00E
:1005000021FA02F10CE002F11402D8BFC2F1200C72
:1005100001FA02F120FA0CFCDCBF41EA0C01904028
:10052000E41AA2BF01EB0451294330BD6FEA040471
:100530001F3C1CDA0C340EDC04F11404C4F120025C
:1005400020FA04F001FA02F340EA030021FA04F36E
:1005500045EA030130BDC4F10C04C4F1200220FAC5
:1005600002F001FA04F340EA0300294630BD21FA03
:1005700004F0294630BD94F0000F83F4801306BFC9
:1005800081F480110134013D4EE77FEA645C18BFBD
:100590007FEA655C29D094EA050F08BF90EA020F54
:1005A00005D054EA000C04BF1946104630BD91EA4C
:1005B000030F1EBF0021002030BD5FEA545C05D14F
:1005C0004000494128BF41F0004130BD14F580048E
:1005D0003CBF01F5801130BD01F0004545F0FE4102
:1005E00041F470014FF0000030BD7FEA645C1ABF37
:1005F000194610467FEA655C1CBF0B46024650EA6E
:10060000013406BF52EA033591EA030F41F4002199
:1006100030BD00BF90F0000F04BF0021704730B51F
:100620004FF4806404F132044FF000054FF00001F4
:1006300050E700BF90F0000F04BF0021704730B5B5
:100640004FF4806404F1320410F0004548BF40428A
:100650004FF000013EE700BF42004FEAE2014FEADF
:1006600031014FEA02701FBF12F07F4393F07F4FBA
:1006700081F06051704732F07F4208BF704793F0BD
:100680007F4F04BF41F40021704730B54FF46074D0
:1006900001F0004521F000411CE700BF50EA0102D3
:1006A00008BF704730B54FF000050AE050EA01027C
:1006B00008BF704730B511F0004502D5404261EBEC
:1006C00041014FF4806404F132045FEA915C3FF42D
:1006D000D8AE4FF003025FEADC0C18BF03325FEACA
:1006E000DC0C18BF033202EBDC02C2F1200300FA7B
:1006F00003FC20FA02F001FA03FE40EA0E0021FAA0
:1007000002F11444BDE600BF53B94AB9002908BF3D
:1007100000281CBF4FF0FF314FF0FF3000F074B9DC
:10072000ADF1080C6DE904CE00F006F8DDF804E048
:10073000DDE9022304B070472DE9F047089D044627
:100740008E46002B4DD18A42944669D9B2FA82F284
:1007500052B101FA02F3C2F1200120FA01F10CFAC0
:1007600002FC41EA030E94404FEA1C48210CBEFBF8
:10077000F8F61FFA8CF708FB16E341EA034306FB81
:1007800007F199420AD91CEB030306F1FF3080F010
:100790001F81994240F21C81023E63445B1AA4B25D
:1007A000B3FBF8F008FB103344EA034400FB07F7FF
:1007B000A7420AD91CEB040400F1FF3380F00A8140
:1007C000A74240F207816444023840EA0640E41B35
:1007D00000261DB1D4400023C5E900433146BDE8E1
:1007E000F0878B4209D9002D00F0EF800026C5E983
:1007F000000130463146BDE8F087B3FA83F6002E9B
:100800004AD18B4202D3824200F2F980841A61EB12
:10081000030301209E46002DE0D0C5E9004EDDE730
:1008200002B9FFDEB2FA82F2002A40F09280A1EB18
:100830000C014FEA1C471FFA8CFE0126200CB1FB6D
:10084000F7F307FB131140EA01410EFB03F0884266
:1008500008D91CEB010103F1FF3802D2884200F2F3
:10086000CB804346091AA4B2B1FBF7F007FB101185
:1008700044EA01440EFB00FEA64508D91CEB040423
:1008800000F1FF3102D2A64500F2BB800846A4EB7E
:100890000E0440EA03409CE7C6F12007B34022FA69
:1008A00007FC4CEA030C20FA07F401FA06F31C4398
:1008B000F9404FEA1C4900FA06F3B1FBF9F8200CA5
:1008C0001FFA8CFE09FB181140EA014108FB0EF0EB
:1008D000884202FA06F20BD91CEB010108F1FF3A3B
:1008E00080F08880884240F28580A8F10208614447
:1008F000091AA4B2B1FBF9F009FB101144EA014155
:1009000000FB0EFE8E4508D91CEB010100F1FF34FF
:100910006CD28E456AD90238614440EA0840A0FB97
:100920000294A1EB0E01A142C846A64656D353D06D
:100930005DB1B3EB080261EB0E0101FA07F722FA91
:1009400006F3F1401F43C5E9007100263146BDE8BA
:10095000F087C2F12003D8400CFA02FC21FA03F31D
:10096000914001434FEA1C471FFA8CFEB3FBF7F09E
:1009700007FB10360B0C43EA064300FB0EF69E42C3
:1009800004FA02F408D91CEB030300F1FF382FD25C
:100990009E422DD9023863449B1B89B2B3FBF7F604
:1009A00007FB163341EA034106FB0EF38B4208D9DD
:1009B0001CEB010106F1FF3816D28B4214D9023E1E
:1009C0006144C91A46EA004638E72E46284605E73C
:1009D0000646E3E61846F8E64B45A9D2B9EB02080D
:1009E00064EB0C0E0138A3E74646EAE7204694E79D
:1009F0004046D1E7D0467BE7023B614432E73046D0
:100A000009E76444023842E7704700BFFEE7000090
:100A100009480A4A0A49121A14F042FD09480A4ACA
:100A20000021121A14F04AFD06F096F814F004FDA5
:100A300000F0E6F9FEE700BF000000C0E00700C0DC
:100A4000F88C0108E00700C08CBF0EC070477047EB
:100A5000704700002DE9F04105460E461746002478
:100A6000BC42296811D001EB84010E484FEA84088A
:100A7000013491ED000A13F03FFF6B6809484344CD
:100A800093ED000A13F038FFEAE723466A68064848
:100A900000F07AFB23460448D6E90012BDE8F04195
:100AA00000F039BC5C5D0EC0FC0700C070477047A9
:100AB0007047836810B5044613B103220146984776
:100AC000204610BD38B500F56534054604F1D00068
:100AD000FFF7EFFF04F1A400FFF7EBFF04F178004C
:100AE000FFF7E7FF04F14C00FFF7E3FF04F12000FC
:100AF00005F56434FFF7DDFF04F57D70FFF7D9FFDE
:100B000004F5717005F50034FFF7D3FF04F5597053
:100B1000FFF7CFFF04F54D70FFF7CBFF04F54270F0
:100B2000FFF7C7FF04F53670FFF7C3FF04F52C701D
:100B3000FFF7BFFF04F52070FFF7BBFF04F514704B
:100B4000FFF7B7FF04F50870FFF7B3FF04F5007077
:100B5000FFF7AFFF04F5EA70FFF7ABFF04F5D470C1
:100B6000FFF7A7FF04F5BC70FFF7A3FF04F5A4701F
:100B7000FFF79FFF05F14400FFF79BFF05F12400FD
:100B8000FFF797FF284638BD70B50024324D064662
:100B9000C462C46400F50030C0F85041C0F864512C
:100BA000C0F88041C0F89451C0F8B041C0F8C051BD
:100BB000C0F8DC41C0F8EC51C0F80842C0F8284247
:100BC000C0F83C52C0F85842C0F86C52C0F8884295
:100BD000C0F89C5200F5687040F8E84C40F8C04CF2
:100BE00040F8AC5C40F8904C40F8805C40F8644CB5
:100BF00040F8505C40F8344C02F0F2FA06F56433E9
:100C0000304603F20442C3F8CC43C3F8E053C3F8C0
:100C1000FC43956003F58662C3F82844956003F2AF
:100C20005C42C3F85444956003F59162C3F8804474
:100C3000956003F2B442C3F8AC44956003F59D623D
:100C4000C3F8D844956003F5A362C3F80C459560DA
:100C5000C3F83C4570BD00BF0AD7233C38B500F54A
:100C60006535044605F59A70FFF723FF05F5827098
:100C7000FFF71FFF2046FFF725FF204638BD10B5C0
:100C8000044600F5652000F5A860FFF712FF04F5A3
:100C90002B2000F6D870FFF7E1FF04F5E52000F502
:100CA0002470FFF7DBFF04F5653000F5A470FFF753
:100CB000D5FF2046FFF7D2FF204610BD1FB51A4CC6
:100CC0000021204602F0EAFC2046042102F062FCEA
:100CD0002046032102F03EFC144B214614480293A7
:100CE000144B154A0193154B0093154B00F09EFBD6
:100CF000144B154A00931549154B0D4800F0FEF9A9
:100D0000144B154A21460193144B09480093144B88
:100D100000F017FA204602F039FC124804B0BDE892
:100D2000104013F0E1BD00BF685D0EC0640000C05C
:100D3000FC0700C05C0000C0240000C0540000C0DC
:100D40004C0000C0440000C0340000C02C0000C0B3
:100D50003C0000C01C0000C0040000C0140000C023
:100D60000C0000C05C5D0EC010B506238EB00022E2
:100D700001218DF81A300223ADF8292004208DF8C6
:100D8000232005248DF820108DF821308DF82B209C
:100D90008DF828308DF82C10ADF8182003228DF82E
:100DA0001B308DF81C100C218DF831308DF834304B
:100DB0000EAB8DF822008DF824408DF82A008DF8B6
:100DC00030208DF832108DF8332013E903000490A1
:100DD0008DF81410DDE90A0102908DF80C10DDE9A0
:100DE000080100908DF8041003480449DDE906234A
:100DF00000F088FB0EB010BDFC0700C0685D0EC09F
:100E000000B50024A1B00225FFF758FFFFF7ACFFA3
:100E10002549264802F09AFB8DF800508DF80140D4
:100E200006A8009903F07CFF03238DF804400DF120
:100E300029008DF80530019903F072FF01230DF1AF
:100E40003A008DF808308DF80930029903F068FFF8
:100E500007238DF80C400DF14B008DF80D300399F0
:100E600003F05EFF8DF810408DF8115017A804991B
:100E700003F056FF8DF814408DF815400DF16D000C
:100E8000059903F04DFF0423062206A9084803F044
:100E900055FF074804F036F9204603F01FFE0548C9
:100EA00000F06BFCFBE700BF550A0008685D0EC050
:100EB000805D0EC0FC0700C038B51F4800241F4DE0
:100EC0001F4A204904604461046213F025FD28464E
:100ED000FFF75AFE1C48FFF757FE1C48FFF754FE69
:100EE0001B48FFF751FE05F565231A4803F22C5104
:100EF000C3F84845124A08602846174913F00CFD0C
:100F00000F4A1649164813F007FD0D4A15492046A9
:100F100013F002FD0A4A1449204613F0FDFC084A6A
:100F20001249204613F0F8FC2046054A1049BDE856
:100F3000384013F0F1BC00BF685D0EC0FC0700C074
:100F4000000000C04D0A0008449D03C08C3207C059
:100F5000D4C70AC00AD7233C7F0C00084F0A0008F8
:100F60005C5D0EC0510A0008B10A0008AD0A000815
:100F7000AF0A000803680A6803F5652303F5AA634E
:100F80001A60704703680A6803F56533C3F84421A3
:100F9000704703680A6803F5E523C3F88C2270479D
:100FA00003680A6803F52B2303F6D4731A607047AD
:100FB00003680A6803F5652303F21C531A6070473F
:100FC00003680A6803F56533C3F8142170470368A2
:100FD0000A6803F5E523C3F85C22704703680A68D2
:100FE00003F52B2303F6A4731A60704703680A689D
:100FF00003F5652303F2EC431A607047012A02D11E
:10100000016000207047022A04BF0B680360F8E704
:10101000012A02D1016000207047022A04BF0B6838
:101020000360F8E7012A02D1016000207047022A1C
:1010300004BF0B680360F8E7012A02D101600020B9
:101040007047022A04BF0B680360F8E7012A02D147
:10105000016000207047022A04BF0B680360F8E7B4
:10106000012A02D1016000207047022A04BF0B68E8
:101070000360F8E7012A02D1016000207047022ACC
:1010800004BF0B680360F8E7012A02D10160002069
:101090007047022A04BF0B680360F8E7012A02D1F7
:1010A000016000207047022A04BF0B680360F8E764
:1010B00000F5653393ED510A9FED0D7BB7EEC06AE5
:1010C000B4EEC76BF1EE10FA0ED40378022B0BD0FE
:1010D00001F56541383150F8213003EB8202D2ED41
:1010E000007A20EE270A70479FED030A704700BF81
:1010F0007B14AE47E17A743F00000000F0B500F5C4
:10110000643C0D6800F5E427059CCCF8E0541568B4
:10111000C7F8285A00F52B251E6800F56520C5F88C
:10112000706F2668C0F8B8644968CCF8E414526857
:10113000C7F82C2A5B68C5F8743F6368C0F8BC34F4
:10114000F0BD2DE9F04104460D461E46DDE9068757
:1011500000F01CFC04F565303246294600F5A47009
:1011600000F014FC04F5E5204246294600F5247001
:1011700000F00CFC04F52B203A46294600F6D87006
:10118000BDE8F04100F002BC2DE9F04104460D46F7
:1011900016461F4600F071FC04F565303B463246AA
:1011A000294600F5A47000F068FC04F5E5203B46F4
:1011B0003246294600F5247000F05FFC04F52B2030
:1011C0003B463246294600F6D870BDE8F04100F0B3
:1011D00054BC00F565230022C3F820250278022ABA
:1011E0001CBF0122C3F8202500F5643292F848257F
:1011F000022A1EBFD3F820250132C3F8202500F5AE
:10120000E42200F52B2092F8902A022A1EBFD3F880
:1012100020250132C3F8202590F8D82F022A1EBFBE
:10122000D3F820250132C3F82025D3F82025042A3D
:10123000C4BF0422C3F8202570472DE9F84F894622
:10124000002405462DED048BFFF7C3FF4C455ED00F
:1012500005F56538224600212846FFF729FF08F5E5
:10126000A478F0EE408A05F5E52705F52B26224601
:101270000021404607F52477FFF71AFF06F6D876D7
:1012800078EE808A224605F5652A00213846FFF768
:101290000FFF22460021304678EE808AFFF708FFD4
:1012A000DAF8203522460121284607EE903A38EE3A
:1012B000800ADAF854354FEA840BB8EEE79A03EB6C
:1012C0008403C0EE097AC3ED007AFFF7F1FEF0EE79
:1012D000408A224601214046FFF7EAFE78EE808AE6
:1012E000224601213846FFF7E3FE78EE808A224647
:1012F000012130460134FFF7DBFE38EE800ADAF8D0
:101300005835C0EE097A5B44C3ED007A9EE7BDEC28
:10131000048BBDE8F88F2DE9F843054600F56539E3
:101320001C46174605F5E5281A460E4609F1E00168
:1013300000F0C0FB224608F50A7109F5A47005F516
:101340002B2900F0B7FB08F5247005F56528224627
:1013500009F5776100F0AEFB224608F5976109F6C2
:10136000D87000F0A7FB2146284607EB8404FFF75E
:1013700064FF31463B46A34219D0DE1BD8F8540522
:1013800008F5AA65D8F85825304495ED007A32441E
:10139000D0ED007A67EE877AE1EC017AD2ED007A3F
:1013A00095ED007A67EE877AE3EC017AE3E7BDE832
:1013B000F88370B586B00376002301600A9E002191
:1013C00004930446B36802AD4160C16080ED040A35
:1013D000C0ED050A42763BB10222314628469847C5
:1013E000F3680593B36804936A4604F11C0395E817
:1013F000030082E8030093E8030085E8030092E815
:10140000030083E80300049B2846626A6362059B2D
:101410000492A26AA3620592FFF74BFB237E052B81
:101420001CBF0123A37606B070BD00002DE9F0417A
:1014300000F565260446106898462C4B0F46C6F802
:10144000540586B0556800F5EA12C6F85C3502F618
:10145000FF332749C6F858555B1B8B423BD9254AB9
:10146000002114F02BF8234A0021284614F026F816
:101470004146204600F018FA04F565300C9900F555
:10148000A47000F011FA04F5E5200D9900F5247020
:1014900000F00AFA04F52B200E9900F6D87000F03F
:1014A00003FA154B00220294059302AC134BF7EE9E
:1014B000000AC6F8202539469FED110A06F224508D
:1014C000049304230094FFF774FF2046FFF7F1FA1A
:1014D00006B0BDE8F08102F54062002340F8043B0D
:1014E000824245F8043BF8D1C2E700BF0053070031
:1014F000FE973A00004C1D00750F00089D10000873
:10150000000000002DE9F04F2DED028B89B09FED1A
:101510006A8A00F5653A044602AF04ADB0EE480AA7
:101520000E46F7EE000A04F5E52904F52B2804F52C
:10153000652B87E80C00614B002204900AF58C7043
:1015400007935F4B009506939DF80830FFF731FF36
:101550002846FFF7AEFA5B4BB0EE480A31460793D8
:10156000F7EE000A584B002209F518700095069313
:101570009DF850300494FFF71CFF2846FFF799FAB6
:10158000524BB0EE480A31460793F7EE000A504B33
:10159000002208F6A870009506939DF85830049430
:1015A000FFF707FF2846FFF784FA4A4BB0EE480AD8
:1015B00031460793F7EE000A474B00220BF59E6079
:1015C000009506939DF860300494FFF7F2FE2846DC
:1015D000FFF76FFA414BB0EE480A31460793F7EE3A
:1015E000000A3F4B00220AF1E8000095069305230C
:1015F0000494FFF7DEFE2846FFF75BFA394BB0EEA6
:10160000480A31460793F7EE000A374B002209F5E6
:101610000C700095069305230494FFF7CAFE284634
:10162000FFF747FA314BB0EE480A31460793F7EE21
:10163000000A2F4B002208F67870009506930523C8
:101640000494FFF7B6FE2846FFF733FA294BF7EE6E
:10165000000A31460793B0EE480A274B00220BF5EB
:1016600098600095069305230494FFF7A2FE284690
:10167000FFF71FFA204604F5643497E8060000F0EF
:1016800047F914AB0AF5A47093E8060000F040F99E
:1016900009F52470DDE9161200F03AF908F6D87061
:1016A000DDE9181200F034F9012384F8023509B09D
:1016B000BDEC028BBDE8F08F00000000850F000834
:1016C00089100008930F000875100008A10F00088A
:1016D00061100008B10F00084D100008C10F00088C
:1016E00039100008CF0F000825100008DD0F000892
:1016F00011100008ED0F0008FD0F0008837E13B5E0
:101700000446002B37D00068217E183003F010FD0E
:10171000D4ED017A94ED027A77EE876AB4EEE60AA8
:10172000F1EE10FA06DC77EEC77AB4EEE70AF1EED6
:1017300010FA20D5637E84ED010A3BB1012B10D055
:10174000E3680193636A8BB913F0EBF8D4ED047A84
:1017500094ED057A37EE677AE0EE077AC4ED037A06
:10176000EEE720EE000AD4ED047AF1E7A36A01A9BE
:1017700004F11C00984702B010BD38B5044600F0D3
:1017800021F904F5653505F58C70FFF7B7FF05F114
:10179000E800FFF7B3FF05F5A47004F5E52500F0B8
:1017A00011F905F51870FFF7A9FF05F50C70FFF7A3
:1017B000A5FF05F5247004F52B2500F003F904F5C9
:1017C000652405F6A870FFF799FF05F67870FFF716
:1017D00095FF05F6D87000F0F5F804F59E60FFF768
:1017E0008DFF04F59860FFF789FF04F22450FFF79E
:1017F00085FF38BD012A02D1016000207047022A0E
:1018000004BF0B680360F8E7012A02D101600020E1
:101810007047022A04BF0B680360F8E770B588B010
:1018200016460446ADF8041004AD019903F08CF996
:1018300000230693B3683BB10222314628469847FD
:10184000F3680793B368069302AA04F1100395E8BE
:10185000030082E8030093E8030085E8030092E8B0
:10186000030083E80300069B2846A269A361079B47
:101870000692E269E3610792FFF71BF908B070BDB9
:1018800010B5044603F07AF9237963B1A37A802B6B
:1018900009D1A3690BB913F044F8E36904F110000E
:1018A000BDE81040184710BD38B50223002503706D
:1018B000012305610373134BC3650B6803F5EA123B
:1018C00043654C6802F6FF318465091BC0E9015588
:1018D0000D4881420BD929460C4A184613F0EEFDFB
:1018E00029462046094ABDE8384013F0E7BD02F515
:1018F0004062002143F8041B9A4244F8041BF8D1CB
:1019000038BD00BF00530700FE973A00004C1D0091
:1019100010B588B09FED180A044602AB8DED010AA0
:1019200083E80600154B04AA9DF80A100793144B90
:101930000490143006939DF8093043EA0121FFF723
:101940006DFF04A8FFF7B5F80E4B9DF80C1004AA24
:10195000079304F134000C4B9DED010A06939DF8AA
:101960000B30049443EA0121FFF758FF04A8FFF766
:10197000A0F808B010BD00BF00007A44211A00088A
:1019800009180008431A0008F517000837B504467F
:101990000D466030019204F5003401F035F8019AEB
:1019A000294604F5327000F0E1F9294604F5047087
:1019B00000F01AFC294604F5607003B0BDE8304021
:1019C00001F0F6B910B504461430FFF759FF04F1E1
:1019D0003400FFF755FF04F1600004F5003400F017
:1019E0008FFD04F5047000F084FB04F5327000F004
:1019F0002FF904F56070BDE8104001F075BA037866
:101A000033B1013B012B08D90023C0E901337047F2
:101A10000223037043680361F6E700230370F3E7D2
:101A20000068FFF7ECBF0378012B08D013F0FD0F1F
:101A300001D1012303700023C0E901337047022361
:101A4000F8E70068FFF7EFBF4368C26D934234BF09
:101A50000133002343607047037833B9436813B9F7
:101A6000002383607047013BFBE7012BFAD18368B9
:101A700002699342F4D20133F3E72DE9F04104788F
:101A80001E46ACB90F4690462146B14210D045687B
:101A90000131446D57F8043B826D04EB850402EB81
:101AA0008502236058F8043B1360FFF7CDFFECE795
:101AB000BDE8F081F8B5037804460E461746022BC0
:101AC00034D00025BD4215D0A2682046616D01EBDF
:101AD00082010B68316801EB85010B60A36D03EB9C
:101AE00082031A68736803EB850301351A60FFF7F8
:101AF000B3FFE7E704F1600004F500342A463146FD
:101B000000F010FF2A46314604F5047000F0D7FAC1
:101B10002A46314604F5327000F044F82A46314630
:101B200004F56070BDE8F84001F01AB9F8BD0A6824
:101B30000368DA6770470A680368C3F8AC20704727
:101B4000012A02D1016000207047022A04BF0B68FD
:101B50000360F8E7012A02D1016000207047022AE1
:101B600004BF0B680360F8E7012A02D1016000207E
:101B70007047022A04BF0B680360F8E70B68002176
:101B8000026810B5064CD2F8B000A342D2F8B420D7
:101B9000016028BF234683601160936010BD00BFC1
:101BA0007FA903002DE9F04790F82050002D4AD17D
:101BB000954248D04FEA850800F1B007A1F1040C26
:101BC00000F1B80E57F8046BDFF8809096ED006ACC
:101BD000BE45D6E901341C44B4FBF9FA09FB1A4AA4
:101BE00004F1010406EB8A0ADAED037AB4FBF9FA90
:101BF00009FB1A4406EB8404D4ED036A5CF8044F35
:101C000076EEE76A4444E6EE867AD0ED2B6AB0EED3
:101C1000677AD4ED007AE6EE877AC4ED007A06EBB7
:101C2000830490ED1F7A03F56A33E7EE277A03F217
:101C30007F13C4ED037AB3FBF9F409FB143373602B
:101C4000C0D10135B4E7BDE8F08700BF80A903002B
:101C500013B5044602F092FF237953B1A37A802B87
:101C600007D1A3690BB912F05CFEE36904F110001F
:101C7000984794F83E3043B3606A94F83C101830AB
:101C800003F056FAD4ED0A7A94ED0B7A77EE876A70
:101C9000B4EEE60AF1EE10FA06DC77EEC77AB4EE9F
:101CA000E70AF1EE10FA10D594F83D3084ED0A0AF7
:101CB000BBB1012B13D0236B0193A36C002BD2D0AB
:101CC000E36C01A904F14000984704F15000FFF7CC
:101CD00015FD04F18000FFF711FD02B010BD20EEEC
:101CE000000AD4E90D239B1A07EE903AB8EE677A02
:101CF00007EE902AF8EE677AE0EE077AFCEEE77AD4
:101D0000C4ED0C7AD7E713B50B4602466C46D0E912
:101D1000000184E8030093E8030082E8030094E8EC
:101D2000030083E8030002B010BD30B5002385B086
:101D300004460D4602938B6833B1022268469847E9
:101D4000EB680393AB68029321466846FFF7DBFF1D
:101D5000029BA2686846A360039B0292E268E3606C
:101D60000392FEF7A6FE05B030BD00002DE9F0415C
:101D70000446002610684FF00108154688B00F464B
:101D8000C4F8B00031464B4AC0E901680C3013F08A
:101D900095FB68683146474AC4F8B4000025C0E99D
:101DA00001680C3013F08AFB434B0222694603930F
:101DB00004A8424B6762029342F21073A562A363C8
:101DC00005230696A3870094C4E90C66FFF7CCFEB2
:101DD000039B04F1400104A807934FF07E56029B39
:101DE0000693FFF790FF069B04A8A26CA364079BD1
:101DF0000692E26CE3640792FEF75BFE94F83C30D7
:101E00006846052B18BF84F83E80FEF752FE2C4B27
:101E100004A904F16C0007932A4B27650693052358
:101E20006565A4F86830E565256666660494FFF785
:101E30007CFF94F8683004A8052B1CBF012384F8AC
:101E40006A30FEF736FE204B04A904F19C0007938C
:101E50001E4BC4F8807006930523C4F88450A4F880
:101E60009830C4F88C50C4F89050C4F8946004942E
:101E7000FFF75BFF94F8983004A8052B1CBF0123E3
:101E800084F89A30FEF715FE002349F6404284F8A4
:101E900020300F4BE3674FF07C53C4F8AC30D4F8DC
:101EA000B0301D609A60D4F8B4301D609A6008B0FC
:101EB000BDE8F08100A60E007D1B0008691B00082C
:101EC0002F1B0008551B0008371B0008411B00088A
:101ED000CDCC4C3F0A6803681A6570470A680368EE
:101EE000C3F8802070470A680368C3F8B0207047C1
:101EF000012A02D1016000207047022A04BF0B684A
:101F00000360F8E7012A02D1016000207047022A2D
:101F100004BF0B680360F8E7012A02D101600020CA
:101F20007047022A04BF0B680360F8E7012A02D158
:101F3000016000207047022A04BF0B680360F8E7C5
:101F4000026892F8203083F0010382F82030704755
:101F50002DE9F04706460F46914600242DED028BF1
:101F60004C452AD03B68B7EE008A4FEA840A03EB5F
:101F700084080134D8ED008AB0EE680A12F0D4FC6F
:101F8000D6ED2C7A7D6838EE677A20EE270A554424
:101F9000A8EE870A88ED000AD5ED008AB0EE680A3F
:101FA00012F0C2FCD6ED2C7A38EE678A20EE270AB2
:101FB000A8EE880A85ED000AD2E7BDEC028BBDE8E9
:101FC000F0872DE9F04706460F46914600242DED97
:101FD000028B4C452AD03B68B7EE008A4FEA840A50
:101FE00003EB84080134D8ED008AB0EE680A12F0E1
:101FF0005FFFD6ED2C7A7D6838EE677A20EE270AEF
:102000005544A8EE870A88ED000AD5ED008AB0EEA7
:10201000680A12F04DFFD6ED2C7A38EE678A20EE72
:10202000270AA8EE880A85ED000AD2E7BDEC028BEC
:10203000BDE8F08770B5002494423FD00D68B7EE3C
:10204000007A90ED2C6A05EB840577EE465AD5EDC3
:10205000006AF5EEC06AF1EE10FA4CBF01260026C8
:10206000CCBF012300239B1B07EE903AF8EEE77AE2
:1020700067EE867AE5EEA67AC5ED007A4D6890EDBA
:102080002C6A05EB8405013437EE467AD5ED006AFB
:10209000F5EEC06AF1EE10FACCBF012300234CBF6D
:1020A000012600269B1B07EE903AF8EEE77A67EED2
:1020B000867AE6EE877AC5ED007ABDE770BD10B48A
:1020C00090F8204094B9D0F88030012B06D0022B34
:1020D00008D05BB95DF8044BFFF73ABF5DF8044BDD
:1020E000FFF76FBF5DF8044BFFF7A4BF5DF8044B2B
:1020F000704713B5044602F041FD237953B1A37A2A
:10210000802B07D1A3690BB912F00BFCE36904F132
:102110001000984704F12400FFF7F0FA94F86E30AD
:1021200043B3606D94F86C10183003F001F8D4EDEF
:10213000167A94ED177A77EE876AB4EEE60AF1EE36
:1021400010FA06DC77EEC77AB4EEE70AF1EE10FA81
:1021500010D594F86D3084ED160A9BB1012B0FD089
:10216000236E0193A36F002BCED0E36F01A904F17E
:102170007000984704F18400FFF7C0FA02B010BD68
:1021800020EE000AD4E919239B1A07EE903AB8EE24
:10219000E77A07EE902AF8EEE77AE0EE077AFDEEAE
:1021A000E77AC4ED187ADBE730B5002385B0044642
:1021B0000D4602938B6833B1022268469847EB685C
:1021C0000393AB68029321466846FFF79CFD029B90
:1021D000A2686846A360039B0292E268E3600392F0
:1021E000FEF767FC05B030BDF0B5584B8BB002254B
:1021F0000E4605930446564B8DF8055004F1100722
:10220000049303239FED530A8DF804300199029043
:1022100002F09AFC00230893049B3BB12A4602A9D2
:1022200006A89847059B0993049B0893394606A87E
:10223000FFF769FD089BA26906A8A3610025099B19
:102240004FF07E570892E269E3610992FEF731FC94
:1022500002A8FEF72EFC404B06A904F140000993AA
:102260003E4B666208930523A562A38725636563D9
:10227000A7630694FFF798FF94F83C3006A8052B57
:102280001CBF012384F83E30FEF713FC344B0322BD
:1022900002A9059306A8334BA266052204930023E6
:1022A000A4F86C2002226665A56508930294C4E92F
:1022B0001833FFF727FE059B04F1700106A8099368
:1022C000049B0893FFF71FFD089B06A8A26FA36756
:1022D000099B0892E26FE3670992FEF7EAFB94F824
:1022E0006C3002A8052B1CBF012384F86E30FEF76A
:1022F000E0FB1D4B06A904F1A00009931B4BC4F899
:10230000846008930523C4F88850A4F89C30C4F86E
:102310009050C4F89450C4F898700694FFF744FFA6
:1023200094F89C3006A8052B1CBF012384F89E302E
:10233000FEF7BFFB0123256584F82030C4F8803008
:10234000C4F8B070C4F8B4500BB0F0BD411F000821
:102350002D1F000800007A44D51E0008191F000830
:10236000DD1E0008051F0008E71E0008F11E00081A
:1023700003680A6803F50033C3F82821704703682F
:102380000A6803F50033C3F884207047012A02D19C
:10239000016000207047022A04BF0B680360F8E761
:1023A000012A02D1016000207047022A04BF0B6895
:1023B0000360F8E7012A02D1016000207047022A79
:1023C00004BF0B680360F8E7012A02D10160002016
:1023D0007047022A04BF0B680360F8E713B500F5E5
:1023E0000034D4ED187AF4EE407AF1EE10FA03D10D
:1023F00094F82430002B57D0F0EEC07A0C22B2EEC5
:10240000086A84ED180AB5EEC00A9FED280ABCEEF2
:10241000E77AF1EE10FA8DED017A87EE867A9DF873
:102420000430B3FBF2F102FB113348F2220252FAFC
:1024300083F300EB8300CCBF01230023FCEEC77ABB
:10244000D0ED006A84F82C30BFEE007A04F1300041
:10245000CDED017A9DF80430013307EE903AF8EEA5
:10246000E77AA6EEA77AD4ED0A7A67EE277A94ED9A
:10247000087AB8EE477AC7EE876AF5EEC06AF1EEE1
:1024800010FA58BFB0EE660A84ED070A12F0FEF9A2
:1024900094ED070A04F1400012F0F8F994F82430A2
:1024A00013B1002384F8243002B010BD00000000F6
:1024B00091ED000A0068B8EEC00A2030FFF78EBF29
:1024C0000A680068B2F5804F00F5003300F1200083
:1024D00028BF4FF4804293ED200A1A64012283F84A
:1024E0004420FFF77BBF0000044B186880EA4030AF
:1024F00080EA504080EA4010186070476C0000C0CD
:102500001FB500F5003494F84631002B41D0D4F8C3
:102510002C0194F84411183002F00AFED4ED4C7AE4
:1025200094ED4D7A77EE876AB4EEE60AF1EE10FA92
:1025300006DC77EEC77AB4EEE70AF1EE10FA28D59A
:1025400094F8453184ED4C0A5BB1012B07D0D4F8E7
:1025500038310193D4F85031ABB912F0E2F920EEE2
:10256000000AD4E94F239B1A07EE903AB8EEE77AB7
:1025700007EE902AF8EEE77AE0EE077AFDEEE77ACA
:10258000C4ED4E7AE3E7D4F8543101A904F5A47000
:10259000984794F872316BB3D4F8580194F87011DD
:1025A000183002F0C5FDD4ED577A94ED587A77EEE5
:1025B000876AB4EEE60AF1EE10FA06DC77EEC77A27
:1025C000B4EEE70AF1EE10FA14D594F8713184ED07
:1025D000570A002B42D0012B3ED0D4F8643102932D
:1025E000D4F87C31002BB8D0D4F8803102A904F59E
:1025F000BA70984794F89E3163B3D4F8840194F884
:102600009C11183002F094FDD4ED627A94ED637A57
:1026100077EE876AB4EEE60AF1EE10FA06DC77EEA2
:10262000C77AB4EEE70AF1EE10FA13D594F89D31AB
:1026300084ED620A23B3012B2DD0D4F8903103939B
:10264000D4F8A831002B88D0D4F8AC3103A904F514
:10265000D070984704B010BD20EE000AD4E95A2388
:102660009B1A07EE903AB8EE677A07EE902AF8EEDA
:10267000677AE0EE077AFCEEE77AC4ED597AACE7C8
:10268000D4ED657A94ED667A37EE677AE0EE077AF4
:10269000C4ED647AD1E720EE000AD4ED657AF1E763
:1026A000FDEEC07A43F6FF73B8EEE77A17EE902A94
:1026B0009A4294BF8260836030EE470A80ED000A40
:1026C0007047D0E9013290ED007A1344C3F30D0254
:1026D0000133C3F30D0300EB820200EB830392EDA1
:1026E000030AD3ED037A77EEC07AA7EE870A704724
:1026F000F8B500F5003405460E4604F130002DED26
:10270000068B12F0D3F804F14000F0EE408A12F08C
:10271000CDF8D4ED1C7AB0EE408AF4EEE87AF1EE12
:1027200010FA30DDFF27D4ED199AFFF7DDFE9FED9B
:10273000789AB0FBF7F3C3EB0323C01A07EE900AB5
:10274000F8EEE77A87EE897A67EE297A94ED087ACF
:10275000BBEEEF7A67EE877AC4ED1A7AFFF7C4FE14
:102760009FED6C7AB0FBF7F7C7EB0727C01B07EEAE
:10277000900AF8EEE77AC7EE896ADFED677AE6EE4F
:10278000877AC4ED207AD4ED1D7AF4EEC87AF1EEA2
:1027900010FA30DDFF27D4ED199AFFF7A5FE9FED63
:1027A0005C9AB0FBF7F3C3EB0323C01A07EE900A61
:1027B000F8EEE77A87EE897A67EE297A94ED087A5F
:1027C000BBEEEF7A67EE877AC4ED1B7AFFF78CFEDB
:1027D0009FED507AB0FBF7F7C7EB0727C01B07EE5A
:1027E000900AF8EEE77AC7EE896ADFED4B7AE6EEFB
:1027F000877AC4ED217AD4ED1E7AD4ED1A9AD4EDFD
:10280000206A39EEE77A94F82C30C4ED1C8A84ED06
:102810001D8AE6EE877A94ED1B7AD4ED216AC4ED29
:102820001E7AD4ED1F7A37EE677AE6EE877AC4ED2A
:102830001F7A2BB1F7EE007A77EEE88A37EEC88A76
:10284000236A9FED36AA013B28EE8A0A07EE903AEA
:10285000F8EE677A27EEA89A67EE887A84ED169AE2
:10286000C4ED177A12F080FB84ED140A28EE0A0AF0
:102870009FED2B8A12F078FB43F6FF716A6884EDB6
:10288000150A39EE890A05EB82030A443068C2F35F
:102890000D02D8606A6005F58032136902F10C06FA
:1028A00002EB83070B44C3F30D03B86128461361A1
:1028B000FFF7F6FED4ED1B7A94ED170A304630EEA2
:1028C000270AFFF7EDFED4ED1E7A94ED160A28468E
:1028D00030EE270AFFF7E4FED4ED1F7A94ED170AD5
:1028E000304630EE270AFFF7DBFE2846FFF7E9FE09
:1028F000D4ED147A3046A0EE278AFFF7E2FED4ED3D
:10290000157AA0EE278AB0EE480ABDEC068BF8BD1A
:1029100000007F436F12833A17B75139DB0F4940EC
:10292000000000002DE9F34700F5003807460E4689
:10293000914698F8F850002D42D104464D453FD0BD
:10294000336807F1200021464FEA850A03EB85032F
:1029500001901B682360736803EB850301351B68D6
:102960002361FFF7C5FE214684ED000A04341031CF
:102970000198FFF7BDFE3168B7EE007A84ED030AD7
:1029800014ED016A5144D8ED4A7A736877EE676AAC
:1029900067EE867A91ED006A5344E6EE267AC1ED41
:1029A000007AD4ED036AD8ED4A7A37EE677A67EE9B
:1029B000A67AD3ED006AE6EE877AC3ED007ABDE72A
:1029C00002B0BDE8F08730B5002385B004460D465F
:1029D00002938B6833B1022268469847EB680393F1
:1029E000AB68029321466846FFF78DF9029BA26807
:1029F0006846A360039B0292E268E3600392FEF7DD
:102A000058F805B030BD00002DE9F04F002605460E
:102A100000F120090F4605F500344FF000082DEDB8
:102A2000028B06608BB0066104F1A80A466046611D
:102A300086608661C660C661084600F0A7FDB0EEFC
:102A4000408A8C4B84F8448084ED120AE36307EEDD
:102A5000908A08F10108B0EE000AF8EEE70AF2EEFB
:102A6000087AC0EEA70A12F08FF8B8F10C0FAAECA2
:102A7000010AECD14FF48032002105F12C002667C9
:102A800012F01CFD4FF0010809F500334FF0000B68
:102A900005F5803A9FED780A03F130000193C5E90E
:102AA00009B884ED158AE66511F0F0FE4FF4803226
:102AB00059460AF13800666712F000FD6F4B9FED32
:102AC0006E0ACAE90CB8E366019B84ED198A03F12A
:102AD000400011F0DBFE4FF48043484694ED200A9D
:102AE00023644FF07E5984F84C8084F84480FFF7CB
:102AF00075FC634B06A904F58C700993614BC4F80F
:102B0000846008930523C4F8FC70A4F81431C4F859
:102B10000061C4F80861C4F80C61C4F8109106950E
:102B2000FFF751FF94F81431052B40F0A08006A860
:102B300005F50034FDF7BDFF534B4FF001080222AD
:102B4000059302A9514B06A8C4F8408104930023C1
:102B5000A4F84481C4F82C71C4F83061089302953C
:102B6000C4E94E33FFF726FC059B04F5A47106A8C3
:102B70000993049B0893FFF7C6F8089B06A8D4F8AE
:102B80005021C4F85031099B0892D4F85421C4F85C
:102B900054310992FDF78DFF94F8443102A8052BBA
:102BA00018BF84F846814FF00108FDF782FF384BCB
:102BB000022202A9059306A8364BA4F870210493BB
:102BC0000023C4F85871C4F85C61C4F86C810893A0
:102BD0000295C4E95933FFF7E3FB059B04F5BA718D
:102BE00006A80993049B0893FFF78DF8089B06A895
:102BF000D4F87C21C4F87C31099B0892D4F8802158
:102C0000C4F880310992FDF754FF94F8703102A89E
:102C1000052B18BF84F87281FDF74BFF1E4B06A9E8
:102C200004F5D07009931D4BC4F8847108930323F5
:102C3000C4F88861A4F89C31C4F89061C4F8946128
:102C4000C4F898910695FFF7BEFE94F89C3106A84B
:102C5000052B1CBF012384F89E31FDF72AFF0023BA
:102C600084F8F8300BB0BDEC028BBDE8F08F84F82F
:102C700016815CE70000A04000004842DB0F49409D
:102C800071230008C9230008B1240008B5230008F7
:102C9000C1240008A12300087F2300088D23000819
:102CA000012A02D1016000207047022A04BF0B688C
:102CB0000360F8E7012A02D1016000207047022A70
:102CC00004BF0B680360F8E7012A02D1016000200D
:102CD0007047022A04BF0B680360F8E7012A02D19B
:102CE000016000207047022A04BF0B680360F8E708
:102CF000012A02D1016000207047022A04BF0B683C
:102D00000360F8E7012A02D1016000207047022A1F
:102D100004BF0B680360F8E7006891ED000A2030FB
:102D200000F0D5BB006891ED000A203000F0CABB6E
:102D3000006891ED000A203000F0BCBB006891ED06
:102D4000000A203000F0ACBB006891ED000A203092
:102D500000F098BB006891ED000A203000F0BBBB8A
:102D600000F5C833F0B593F8545085B004460E46CC
:102D70001746D5B900F11003CDE9012500930346AC
:102D80002030D1E9001200F04DF92B46BB420CDA9D
:102D9000326854F8041B02EB830211607268E16828
:102DA00002EB830201331160F0E705B0F0BD0000D3
:102DB000F0B5404B89B000F5C8379FED3F0A04AC31
:102DC00007933E4B0546F7EE000A0022049007F1F8
:102DD00058000693052300940E468DED030AFEF776
:102DE000E8FA2046FDF765FE354B9DED030A3146B6
:102DF0000793F7EE000A334B002207F1840000949A
:102E0000069305230495FEF7D4FA2046FDF751FEFC
:102E10002D4B9DED030A31460793F7EE000A2B4B2D
:102E2000002207F1B0000094069305230495FEF7F5
:102E3000C0FA2046FDF73DFE254B9DED030A3146C5
:102E40000793F7EE000A234B002207F1DC00009401
:102E5000069305230495FEF7ACFA2046FDF729FEFC
:102E60001D4B9DED030A31460793F7EE000A1B4BFD
:102E7000002207F584700094069305230495FEF75D
:102E800098FA2046FDF715FE154BF7EE000A0022D2
:102E900007933146134B07F59A709DED030A06938D
:102EA000052300940495FEF784FA2046FDF701FE01
:102EB00009B0F0BD552D000800000000052D0008E8
:102EC000492D0008F12C00083D2D0008DD2C0008DC
:102ED000312D0008C92C0008252D0008B52C00084C
:102EE000192D0008A12C000810B500F5C83404F114
:102EF0005800FEF703FC04F18400FEF7FFFB04F129
:102F0000B000FEF7FBFB04F1DC00FEF7F7FB04F575
:102F10008470FEF7F3FB04F59A70FEF7EFFB10BD2B
:102F20008269B0EE407A0169D0ED017A01EB82014D
:102F300090ED026ADFED156A013291ED000A67EE4D
:102F4000867A90ED036A10EE103A13F0FF4F06FEFA
:102F5000800AE6EE007A17EE903AF0EE477A13F028
:102F6000FF4F14BF4360C0ED016AD0ED006A90EDE1
:102F7000016A4369E6EE267A9A42A8BF0023C1EDB2
:102F8000007A8261A8BF8361704700BF0000000023
:102F9000C368F0EE407A4268DFED0D6A02EB83020F
:102FA000013392ED007A17EE101A11F0FF4F06FE72
:102FB000877AD0ED006A37EE400AE6EE877AC2EDF6
:102FC000007A8268C3609342A4BF0023C360704745
:102FD00000000000F6EE007A90ED0A7A70B5B4EECB
:102FE000E77A0446F1EE10FA1BDA00F12C0500F541
:102FF0008676284600F07BFA05F1E0001C3500F0EB
:1030000076FAB542F5D104F5F67504F50B74284649
:1030100000F08CFA05F14000103500F087FAAC4260
:10302000F5D170BD2DE9F04F2DED048B87B004462E
:1030300000260493169B159F9B00CDE90212019375
:10304000039B002F03EB060B149B03EB060A029B6A
:1030500003EB0609049B03EB060869DDDBED007A50
:10306000254699ED009A04F58671DFED348A2C35FA
:1030700039EE279AD4ED007AB0EE688A29EE279AC5
:103080002846B0EE490A0591FFF74AFF05F1E00036
:1030900038EE008AB0EE490A1C35FFF741FF05996A
:1030A00078EE808A8D42EBD104F5F67504F50B714C
:1030B0002846B0EE480A0591FFF76AFF05F1400087
:1030C000B0EE408AB0EE680A1035FFF761FF05994F
:1030D000F0EE408A8D42EBD1D4ED077A013F94EDBA
:1030E000067A60EE277AD9ED006A019BE7EE087A4E
:1030F00094ED087A1E44E6EE877A98ED007A77EE32
:10310000277AC8ED007A94ED070AD4ED067A28EE06
:10311000008A9BED007AA7EEA88AD4ED087AA7EE84
:10312000278ADAED007A37EE888A8AED008A87E707
:1031300007B0BDEC048BBDE8F08F00BF00000000BD
:10314000B6EE007AD0ED097A90ED056AF0EE476AA6
:10315000F8B5E7EE876A00F12C05044600F586779E
:103160002E4666EE266AC0ED066AF7EE006A76EE37
:10317000E77A67EE877A67EE867AC0ED077AD0ED58
:103180000A7AF4EEC77AF1EE10FAB3BF436800236F
:10319000C0ED026A8360B7BFC368036103610F4B70
:1031A0000360304694ED020A00F0B7F906F1E00042
:1031B0001C3694ED020A00F0B0F9BE42F1D1284667
:1031C00094ED040A00F0A0F905F1E0001C3594ED3F
:1031D000040A00F099F9BD42F1D1F8BD8FC2753CE7
:1031E0002DE9F74F00F12C09044600F586784D468D
:1031F00028461C3500F073F94545F9D1454604F5DC
:10320000F67728461C3500F06AF9AF42F9D13D4601
:1032100004F50B762846103500F082F9B542F9D155
:10322000354604F51B7A2846103500F079F95545E6
:10323000F9D12946484640F25C4204F50F7B00F084
:1032400053F904F59E51404640F273421C3104F597
:10325000037A00F049F904F5165104F1480040F2F0
:10326000A442283104F5137900F03EF904F56051C9
:1032700004F5947040F2BB42383104F5077800F051
:1032800033F904F5964104F1640040F2FD42243123
:1032900004F5177500F028F904F5BE4104F5A27095
:1032A00040F21452183100F01FF904F5E64104F120
:1032B000800040F24C52683100F016F904F50841E4
:1032C00004F5B07040F26352983100F00DF904F546
:1032D0001E4104F19C0040F28E52243100F004F9AA
:1032E00004F5344104F5BE7040F2A5525C3100F0A3
:1032F000FBF804F54A4104F1B80040F2D352F03132
:1033000000F0F2F804F5624104F5CC7040F2EA52A4
:103310003C3100F0E9F804F5794104F1D40040F2C1
:103320001562E43100F0E0F804F5893104F5DA7053
:1033300040F22C62383100F0D7F804F5953104F1F1
:10334000F00040F25162E83100F0CEF804F5A2310D
:1033500004F5E8704FF4CD622C3100F0C5F804F5A7
:10336000AE3138464FF40B7201F5E67100F0DBF830
:1033700004F5B331304640F243227C3100F0D3F8FB
:1033800004F5FE7304F5B73140F2B9121846019303
:1033900001F5C47100F0C7F804F5BB3158464FF48D
:1033A000E8726C3100F0BFF804F5BE31504640F2CF
:1033B000551201F5D67100F0B6F804F5C131484652
:1033C0004FF4B67201F5807100F0ADF804F5C43128
:1033D0004046E122B03100F0A6F804F5C631F822EB
:1033E0002846343100F09FF83846B6EE000A00F067
:1033F000AAF83046B6EE000A4FF07E5600F0A3F869
:10340000019BB6EE000A184600F09DF85846B6EE4D
:10341000000A00F098F85046B6EE000A00F093F863
:103420004846B6EE000A00F08EF84046B6EE000AB6
:1034300000F089F8B6EE000A2846002500F083F86F
:1034400020466661FFF77CFE0C4B20466360FFF769
:1034500077FE0B4B20462562E360FFF771FE2046A6
:103460006662FFF76DFE2046A562FFF769FE204603
:10347000FFF7B0FD204603B0BDE8F08F3D0A573F8F
:10348000CDCC4C3E9FED047ADFED047AE0EE077A76
:10349000C0ED017AFFF754BE295C8F3E3333333FD2
:1034A000DFED037A20EE270A80ED030AFFF748BE1E
:1034B000CDCCCC3EF0EE087A20EE270A80ED050A4E
:1034C000FFF73EBE30EE000A80ED080A704780ED3F
:1034D000090AFFF735BE80ED0A0AFFF731BE002268
:1034E0004260002282617047C0E90412704710B543
:1034F000002344699C4206DD0269002102EB83023D
:1035000001331160F6E710BDF7EE007A80ED020A94
:1035100037EEC00A80ED030A704780ED000A70475D
:103520000022C2607047C0E90112704710B5002345
:1035300084689C4206DD4268002102EB830201336D
:103540001160F6E710BD80ED000A7047143001F0FD
:1035500009BA00BF38B500F1140504462DED028B01
:10356000284601F0BBF9284601F0B4F92846B0EE30
:10357000408A01F09DF9D0ED007AF8EE677A88EE86
:10358000277ABDEC028B84ED0E7A38BD143001F041
:10359000A1B900BF38B500F1140504462DED028B2A
:1035A000284601F089F9284601F094F92846B0EE42
:1035B000408A01F07DF9D0ED007AF8EE677A88EE66
:1035C000277ABDEC028B84ED0E7A38BDF0B503236B
:1035D00099B000270125129306462C4B09A8159592
:1035E000CDE90E7340F20453ADF84030284BCDE9DD
:1035F0001357099301F0A4FE09A801F07DFF0028EC
:1036000036D1244B04AF04460090CDF8423010234D
:10361000394604958DF820301F4BCDE91650CDE981
:1036200006506846059302F0F5F80823009A01A9B0
:1036300009A8ADF804508DF806400994029503934B
:1036400000F0E4F800230EA938463024049302F079
:10365000ABFE03224FF07E5309A906F114000B9331
:103660000C93CDE90942049A01F0EAF819B0F0BDD3
:1036700040F60132074B169704AFADF824200998A5
:10368000CDF84230179500F081F8DBE7040204041E
:1036900003030001040604030704010B2DE9F043B2
:1036A00004462DED028B83B0002948D0012140F261
:1036B000011200230091ADF804208DF80630304A45
:1036C0000126304B271D304904F12908626040F281
:1036D0000272A36040F60663E16004F125092682C8
:1036E000A4F8252084F82760A4F8293084F82B60FA
:1036F00003F0E8F96946054648B304F130008DF857
:10370000066003F03DF9072D34D104F1140520467D
:10371000FFF75CFF284601F0DDF82846B0EE408A4E
:1037200001F0C6F8D0ED007AF8EE677A88EE277AD5
:1037300084ED0E7A03B0BDEC028BBDE8F08340F25D
:10374000011300918DF80610ADF80430B7E704F1CD
:10375000300003F015F93946204602F0A5FA484634
:1037600001F0EEFD404601F0EBFD04F1120000F027
:1037700077F9CAE73946204602F096FAC5E700BF56
:103780000508050905070506050A060610B584B0F3
:1037900003460124ADF8040003A8ADF80C30ADF8E1
:1037A0000E4001F0CDFD214603A801F0B3FE2046F6
:1037B00003F01AF8002103A801F0ACFE204603F044
:1037C00013F8214603A801F0A5FE04B010BD00BF08
:1037D00010B5C2F3002384B00C46017C8DF80D2097
:1037E00043EA4402FA2402238DF80C2003AA009431
:1037F00002F0A6F818B10124204604B010BD04461A
:103800000A2002F0F1FF204604B010BD034670B557
:1038100043F8042B044684B007C983E80700A37962
:1038200083B91A210B461E22FA2523742046ADF8CF
:103830000C20022303AA009502F082F828B101208F
:1038400004B070BD1B210B46EDE70A2002F0CCFF4F
:103850004FF4B85200950223ADF80C20204603AA7D
:10386000217C02F06DF80028E9D10A2002F0BCFFAB
:1038700041F2027200950223ADF80C20204603AA03
:10388000217C02F05DF80028D9D10A2002F0ACFFBB
:10389000042200950223ADF80C20204603AA217CC7
:1038A00002F04EF80028CAD10A2002F09DFF06223D
:1038B00000950223ADF80C20204603AA217C02F0DB
:1038C0003FF80028BBD10A2002F08EFF41F2082207
:1038D00000950223ADF80C20204603AA217C02F0BB
:1038E0002FF80028ABD10A20064602F07DFF009594
:1038F000022303AA217C2046ADF80C6002F020F8D8
:1039000000289CD1304602F06FFF009522790C23ED
:103910002046002A8DF80C3003AA4FF0020314BF92
:10392000622142218DF80D10217C02F009F8002857
:1039300085D1304602F058FF2279D4E902310B4399
:10394000DBB20AB943F0400362790AB143F02003C5
:103950000E22FA258DF80D302046009502238DF8B1
:103960000C2003AA217C01F0EBFF00287FF467AF55
:103970000A2002F039FF102200950223ADF80C2036
:10398000204603AA217C01F0DBFF00287FF457AF1B
:103990000A2002F029FF122100950223ADF80C1035
:1039A00003AA217C204601F0CBFF00287FF447AF1B
:1039B0000A2002F019FF012209212046FFF708FF23
:1039C000003818BF01203BE7F0B5102387B0234C27
:1039D000012200250126002702A920460195CDE9F4
:1039E00002234FF48052CDE904670AF0FBFA642009
:1039F00003F0A6FE02A94FF480522046CDE90467E9
:103A000002261027CDE902670AF0ECFA0322102300
:103A100002A92046CDE9022300230422CDE9042394
:103A20004FF480520AF0DEFA40F23223042202A957
:103A3000019310232046CDE90223019A0123059228
:103A40004FF4805204930AF0CDFA40F60601204666
:103A50000AF0E8FA284607B0F0BD00BFAC5D0EC022
:103A60001C4B00221C494FF0400C30B5054689B074
:103A70000220596007219A601A620124DA620A2240
:103A80004FF4006EDC6006922022CDE90001042094
:103A90000821CDE9020103201021CDE9040108200D
:103AA0006946C3E904024FF4C072181DC3E906C297
:103AB0004FF48052C3E909E20AF06AFA38B928469D
:103AC000FFF782FF003818BF012009B030BD204643
:103AD00009B030BDA85D0EC040410052614A0021CE
:103AE000D0B513688EB00A91002B40F0B9805E4BC0
:103AF00001214FF683700C2411600221D3F8D420E9
:103B00000026032742F48052C3F8D420D3F8D420EF
:103B100002F480520092009AD3F8E02042F01002A2
:103B2000C3F8E020D3F8E02002F010020192019ADD
:103B3000D3F8E02042F04002C3F8E020D3F8E020C0
:103B400002F040020292029AD3F8E02042F008020A
:103B5000C3F8E020D3F8E02002F008020392039AB1
:103B6000D3F8E02042F48072C3F8E020D3F8E020DC
:103B700002F480720492049AD3F8E02042F08002AA
:103B8000C3F8E020D3F8E02002F080020592059A05
:103B9000D3F8E02042F02002C3F8E020D3F8E02080
:103BA00002F020020692069AD3F8E02042F00402C6
:103BB000C3F8E020D3F8E0300C9403F0040307933B
:103BC0000323079A0B93CDE9080108A9274805F0BC
:103BD0003DFC48F23712022308A925480C94CDE990
:103BE0000823CDE90A6705F031FC4CF20372022389
:103BF00008A920480C94CDE90823CDE90A6705F00F
:103C000025FC40F2FF62022308A91B480C94CDE971
:103C10000823CDE90A6705F019FC4FF60C72022360
:103C200008A916480C94CDE90823CDE90A6705F0E8
:103C30000DFC4FF63F02022308A911480C94CDE970
:103C40000823CDE90A6705F001FC2022022308A918
:103C50000A480C94CDE90A67CDE9082305F0F6FB84
:103C60000EB0D0BDA45D0EC0004402580010025832
:103C700000180258000C025800200258001C02587C
:103C8000001402582DE9F04FDFF8108406460D4667
:103C9000144608F118002DED028B89B000AF02F038
:103CA0007BFCD8F8183073B3D8F81C30D8F80490DF
:103CB000002B43690BBF4FF0080A4FF0100A4FF07A
:103CC000020B4FF0040BB9F1000F2AD0A200EA4614
:103CD000012B02F1070222F00702ADEB020D68464C
:103CE000ADEB020D694600F03F81022B00F0D6805B
:103CF000002B6FD02246C847D5462437BD46BDECC1
:103D0000028BBDE8F08FD8F81C30002BF5D0D8F826
:103D100004904FF0080A4FF0020B4369B9F1000F0D
:103D2000D4D1FB61D8F80030BB61002BE5D0D54879
:103D300002F0A4FC6B46BBF1020F786108EE103A6A
:103D4000FB6900F083816A465146A2EBC4029546A6
:103D50006200EA46B2FBFBF2AAEBC40085460AEB1E
:103D60008200EE46F861ADEB010DF8690EEB820CB6
:103D7000C7F810C0EC46ADEB010D00EB8201CCF8AA
:103D80000400CCF8081001EB82013869E946CCF850
:103D90000C1000EB8201CCF800A001EB8202C9E913
:103DA00000E0C9E90212012B00F06483022B00F04D
:103DB0006C82002B00F08081620849466046BB6936
:103DC000984718EE103A24379D46BD46BDEC028B4D
:103DD000BDE8F08F002C8DD01A46D8ED0C6A9FED0F
:103DE000B27A8446331D36F922E00CF1080C07EE56
:103DF00090EA33F922E00232F8EEE77A944267EE75
:103E0000877A67EEA67A4CED027A07EE90EAF8EE32
:103E1000E77A67EE877A67EEA67A4CED017AE2D808
:103E2000F9612246C847984ED8ED0D6A0020F9691D
:103E30002B1D9FED9E7A9FED9E6ADFED9E5A22E03C
:103E4000F4EEC67AF1EE10FAC0F2C88447F6FE72BC
:103E5000D1ED017A45F8202066EEA77AF4EEC77A14
:103E6000F1EE10FA40F2F080F4EEC67AF1EE10FABC
:103E7000C0F2D58447F6FE7243F8202002300831A4
:103E800084427FF639AFD1ED007A66EEA77AF4EE80
:103E9000C77AF1EE10FAD3D83246D9E7002C3FF4B6
:103EA00029AFD8ED0C6A84469FED787A0022331D45
:103EB0008E4656F822100CF1080C07EE901A53F8B3
:103EC00022100232F8EEE77A944267EE877A67EEC4
:103ED000A67A4CED027A07EE901AF8EEE77A67EED2
:103EE000877A67EEA67A4CED017AE2D871462246CF
:103EF000C7F81CE0C847664ED8ED0D6A0020F96986
:103F00002B1D9FED6A7A9FED6A6ADFF894C120E06D
:103F1000F4EEC67AF1EE10FAC0F279843246D1EDB1
:103F2000017A45F8202066EEA77AF4EEC77AF1EE22
:103F300010FA40F28780F4EEC67AF1EE10FAC0F281
:103F40005E84324643F820200230083184427FF6F6
:103F5000D3AED1ED007A66EEA77AF4EEC77AF1EE31
:103F600010FAD5D86246DAE7002C3FF4C3AED8ED9C
:103F70000C6A86469FED477A4FF0000C331D56F8C9
:103F80002C200EF1080E82F40002A2F5000207EECA
:103F9000902A53F82C200CF1020CF8EEE77A82F408
:103FA00000026445A2F5000267EE877A67EEA67A02
:103FB0004EED027A07EE902AF8EEE77A67EE877AFE
:103FC00067EEA67A4EED017AD9D8F9612246C84744
:103FD000314ED8ED0D6A0020F9692B1D9FED337A23
:103FE0009FED336ADFF8BCC01FE0F4EEC67AF1EE55
:103FF00010FAC0F2FC833246D1ED017A45F8202058
:1040000066EEA77AF4EEC77AF1EE10FA18D9F4EE5C
:10401000C67AF1EE10FAC0F2DA83324643F8202075
:104020000230083184427FF667AED1ED007A66EE49
:10403000A77AF4EEC77AF1EE10FAD6D86246DBE73B
:104040006246EBE762467DE7324615E7A100D646B9
:104050006208073121F00701ADEB010DEA46ADEB37
:10406000010D6946ADEB0E0D0AEB8200EC46ADEB9F
:104070000E0D01EB8202F861E946CCE900A0C9E926
:10408000001290E6FC5D0EC00280FFFF00000030D1
:104090000082FF7F0000003482FF7F00E05D0EC0E1
:1040A000007E00807E0080FF0000003804FF7FBF9C
:1040B00004FF7F3F00FEFF46002C00F0C982BBF1E9
:1040C000020FD8F8242000F0FA827969C7F804902A
:1040D00002EB810E5FED0C5A8A00DCF808100EF13D
:1040E00004007A611A46DCF80C303B61331DD7F8C6
:1040F00010903D61FD69C7E902CB8C46834636F9D5
:104100002210D8ED0C7A06EE101A33F9221006EEC2
:10411000901A3EF92210B8EEC66A07EE101AF8EEB1
:10412000E66A3BF92210B8EEC77A26EE256A66EEFB
:10413000A56A27EE257A26EE276A66EEA76A27EE9D
:10414000277A07EE901A51080232F8EEE77A0AEB66
:104150008100944280ED006A05EB810067EEA57A4C
:10416000C0ED006A0CEB810009EB810180ED007A63
:1041700098ED0C7A67EE877AC1ED007ABFD8D7F850
:1041800004903D69D7E902CB60466208BB694946A5
:104190009847D8F82C307A69D8ED0D6A1A441FED8B
:1041A0003D7A1FED3D6A2B1D904602F1040A5FED3A
:1041B0003F5A0022A84ED9E900EC51E0F4EEC67A4D
:1041C000F1EE10FAC0F2C78247F6FE7045F8220001
:1041D0000CEB0100D0ED007A66EEA77AF4EEC77A18
:1041E000F1EE10FA4BD9F4EEC67AF1EE10FAC0F205
:1041F000BA8247F6FE70BBF1020F43F822002BD0C3
:10420000D9F808000844D0ED007A66EEA77AF4EEFB
:10421000C77AF1EE10FA36D9F4EEC67AF1EE10FA5A
:10422000C0F2CD8247F6FE7048F82200D9F80C00A3
:104230000144D1ED007A66EEA77AF4EEC77AF1EE8A
:1042400010FA1ED9F4EEC67AF1EE10FAC0F2AF827F
:1042500047F6FE714AF82210023294427FF6B1AD61
:1042600051080EEB81008900D0ED007A66EEA77A46
:10427000F4EEC77AF1EE10FAA0D83046A6E7304641
:10428000B9E73146E6E73046CEE7002C00F0E081A2
:10429000BBF1020FD8F8243000F0E1817A69DCF834
:1042A000081003EB820EC7F804909300DFED6B5A01
:1042B0000EF1040000227B61DCF80C303B61331D01
:1042C000D7F810903D61FD69C7E902CB8C46834663
:1042D00056F82210D8ED0C7A07EE101A53F8221077
:1042E000B8EEC76A07EE101A5EF82210F8EEC76A39
:1042F00007EE101A26EE256A5BF82210B8EEC77A90
:1043000066EEA56A26EE276A27EE257A66EEA76A8C
:1043100027EE277A07EE901A51080232F8EEE77A74
:104320000AEB8100944280ED006A05EB810067EEA4
:10433000A57AC0ED006A0CEB810009EB810180EDEC
:10434000007A98ED0C7A67EE877AC1ED007ABFD8D3
:10435000D7F804903D69D7E902CB60466208BB6993
:1043600049469847D8F82C307A69D8ED0D6A1A4436
:104370009FED3E7A9FED3E6A131D9246DFF8E4C042
:104380000022FB612B1D364ED9E9008E4EE0F4EE83
:10439000C67AF1EE10FAC0F2FC81304645F82200F0
:1043A0000EEB0100D0ED007A66EEA77AF4EEC77A44
:1043B000F1EE10FA49D9F4EEC67AF1EE10FAC0F235
:1043C000EF813046BBF1020F43F822002AD0D9F822
:1043D00008000844D0ED007A66EEA77AF4EEC77ABA
:1043E000F1EE10FA35D9F4EEC67AF1EE10FAC0F219
:1043F000C98130464AF82200D9F80C000144D1EDB9
:10440000007A66EEA77AF4EEC77AF1EE10FA1ED9BA
:10441000F4EEC67AF1EE10FAC0F2AD813146F869D9
:1044200040F82210023294427FF6CBAC510808EBE0
:1044300081008900D0ED007A66EEA77AF4EEC77AA3
:10444000F1EE10FAA3D86046A8E76046BAE76146E5
:10445000E5E76046CEE700BF0280FFFF00000030C6
:104460000082FF7F007E00800000003404FF7FBFD9
:1044700004FF7F3F002C00F0EB807A690021D8F820
:104480002430C7F8109003EB820ED7F81C909300ED
:10449000FD610EF104021FED0C6A7B61331D1546B0
:1044A00056F821204808D8ED0C6ABBF1020F82F4BF
:1044B0000002A2F5000207EE902A53F8212082F4B0
:1044C0000002B8EEE77AA2F5000227EE067A07EEC0
:1044D000902A0AEB8002F8EEE77A27EE267A67EE5A
:1044E000867A82ED007A09EB80024FEA800067EE5F
:1044F000A67AC2ED007A27D05EF8212082F400026D
:10450000A2F5000207EE902A55F8212082F400025D
:10451000B8EEE77AA2F5000227EE067A07EE902AB7
:10452000DCF80820F8EEE77A024427EE267A67EEF8
:10453000867A82ED007A98ED0C7ADCF80C2067EE32
:10454000877A0244C2ED007A02318C42A8D8D7F8AB
:10455000109060466208BB694946FD699847D8F8E3
:104560002C307A69D8ED0D6A1A441FED407A1FEDA0
:10457000406A131D9246DFF8C4C20022FB612B1D66
:10458000AB4ED9E9008E4EE0F4EEC67AF1EE10FAA9
:10459000C0F2C580304645F822000EEB0100D0ED98
:1045A000007A66EEA77AF4EEC77AF1EE10FA49D9EE
:1045B000F4EEC67AF1EE10FAC0F2BF803046BBF1DD
:1045C000020F43F822002AD0D9F808000844D0EDA1
:1045D000007A66EEA77AF4EEC77AF1EE10FA35D9D2
:1045E000F4EEC67AF1EE10FAC0F2AE8030464AF828
:1045F0002200D9F80C000144D1ED007A66EEA77ACA
:10460000F4EEC77AF1EE10FA1ED9F4EEC67AF1EEA6
:1046100010FAC0F28B803146F86940F8221002325D
:1046200094427FF6CEAB510808EB81008900D0EDB3
:10463000007A66EEA77AF4EEC77AF1EE10FAA3D804
:104640006046A8E76046BAE76146E5E76046CEE720
:10465000224649466046BB699847FFF7B2BBC7F898
:1046600010B0002298ED0C6A331DDFED726AD7F8A6
:104670001CB0786956F8221007EE901A53F82210F1
:10468000B8EEE77A07EE901A51080232F8EEE77AB0
:1046900027EE267A0AEB810E94420BEB810167EE3E
:1046A000A67A27EE067A67EE867A8EED007AC1ED5D
:1046B000007ADFD88300D7F810B07B614DE61A4648
:1046C000C7F810B098ED0C6A331DDFED5B6AD7F8C0
:1046D0001CB0786936F9221007EE101A33F922104F
:1046E00007EE901AB8EEC77A51080232F8EEE77A70
:1046F00027EE267A0AEB810E94420BEB810167EEDE
:10470000A67A27EE067A67EE867A8EED007AC1EDFC
:10471000007ADFD88300D7F810B07B6134E5F0EE83
:10472000675AFEEEE45A15EE900A34E7F0EE675A47
:10473000FEEEE45A15EE901A6EE7F0EE675AFEEEC2
:10474000E45A15EE900A3AE7F0EE675AFEEEE45AA4
:1047500015EE900A4BE767EEA57AFDEEE77A17EEC5
:10476000900A00B232E567EEA57AFDEEE77A17EE21
:10477000900A00B23FE5F0EE675AFEEEE05A15EE01
:10478000901A4CE6F0EE675AFEEEE05A15EE900AEB
:1047900030E6F0EE675AFEEEE05A15EE900AFDE5BF
:1047A000F0EE675AFEEEE05A15EE900A0AE667EE62
:1047B000A57AFDEEE77A17EE901A09B24AE567EEA0
:1047C000A57AFDEEE77A17EE900A00B22CE5F0EE3E
:1047D000675AFEEEE45A15EE902A1FE467EEA57ABA
:1047E000FDEEE77A17EE902A12B2FFF731BBF0EE3A
:1047F000675AFEEEE45A15EE902AFFF7FDBBF0EE85
:10480000675AFEEEE05A15EE902AFFF79BBBF0EEDA
:10481000675AFEEEE05A15EE902AFFF780BB67EE6E
:10482000A57AFDEEE77A17EE902A12B2FFF724BBC5
:1048300082FF7F0000000030000000387E0080FF13
:1048400030B5184C154685B0046004F1080EEC46EE
:104850000FC98EE80F00D4ED047AF5EEC07A8CE82B
:104860000F00F1EE10FA1ADDB7EE006A94ED057A4A
:1048700027EE277AC6EE276A84ED0D7AC4ED0C6A1E
:104880006DB1204640F8185F01F086FE06490369C5
:104890000020064A2162A262E36005B030BD01201B
:1048A00005B030BDE05D0EC00020003000000030DB
:1048B00000680830704700BFB1F5807F03680A4682
:1048C00028BF4FF48072B1F5807F9A6094BF0020BA
:1048D000012070470068183001F0BEBE70B5046852
:1048E0008AB0A369E160CBB104F11805284601F054
:1048F00053FE8446EE46E668BCE80F00AEE80F00C3
:10490000BCE80F00AEE80F009CE803008EE803004F
:1049100069462846049601F047FDF8B9E069D8B128
:1049200004F11C05284601F037FE8446EE46E46893
:10493000BCE80F00AEE80F00BCE80F00AEE80F00C7
:104940009CE803008EE8030069462846049401F0C1
:104950002BFD003818BF01200AB070BD01200AB03D
:1049600070BD00BF30B5046883B00D46E3694BB13C
:10497000A3680020E26A616A9B00009004F11C00B9
:1049800001F00CFEA3680748A26A9B00216A009010
:1049900004F1180001F002FE0020C4E9005003B049
:1049A00030BD00BF853C000810B4074B4FF07E516E
:1049B00030240022032019619C60D8605DF8044B0C
:1049C0005961C3E906227047E05D0EC0704700BF21
:1049D000F8B5134F3C687F2C07D98023114A42F267
:1049E00024411C463B60A2F87E100F4D2B68012B22
:1049F0000AD90C4E0D4D22463146284600F074F976
:104A00000028F8D13860F8BD22460649074800F072
:104A10006BF90028F7D12B68386001332B60F8BDA3
:104A20001C5E0EC0205E0EC0185E0EC0A05E0EC0E2
:104A300030B4154C2168F1B14B1E144DE81810F834
:104A400001298C4619460A2A01D00D2A02D14BB100
:104A5000013BF4E70CF102037F2B10D98023236084
:104A600030BC70470122022323600D200A236854C2
:104A7000AB5430BC704701220223044DF4E70CF123
:104A800001026146F0E700BF1C5E0EC0205E0EC052
:104A900010B5094C02460B46084821680844C1F18C
:104AA000800111F0F9FA236818442060FFF7C0FF75
:104AB000FFF78EFF10BD00BF1C5E0EC0205E0EC053
:104AC0000FB400B583B004A951F8040B0191FFF7AE
:104AD000DFFF03B05DF804EB04B0704710B5044687
:104AE00000210A4800F07AF8002C094B14BF02227A
:104AF000002208481A60FFF7E3FF0748FFF7E0FFCE
:104B00000A20BDE8104001F06FBE00BFA05E0EC0DD
:104B1000185E0EC00083010810830108064A074989
:104B2000074808B50FF0F8FE034A04490548BDE8F8
:104B300008400FF0F1BE00BF000000C0CD490008E2
:104B4000A05E0EC0A45E0EC070B5044682B0C1F374
:104B50000726CDB2ADF8041001F044FE4FF4807288
:104B60004FF001232060A01DA571A280E671A36013
:104B700002B0BDE8704000F0E3BB00BF38B50446AA
:104B800001F030FE002223682271834210D00122FE
:104B9000A57AE37A954020602271A01D6DB243B9D9
:104BA00000F0AAFC40B22843C0B27F28A0720AD00D
:104BB00038BD00F0A1FCB0FA80F040092843C0B233
:104BC0007F28A072F4D101F00DFE07EE900AF8EEF6
:104BD000677AC4ED037A38BD704700BF012910B56C
:104BE00006D0022915D051B1BDE8104006F010BB27
:104BF0000A46344834490AF0A5FCE8B1FEE7334BD5
:104C00000A46334C334934481C600AF09BFC68B1B7
:104C1000FEE701222C492B480AF094FC00B1FEE784
:104C20002E4928480AF0B0FCC0B1FEE72B492A48BB
:104C30000AF0AAFC60B1FEE7284922480AF0A4FC69
:104C400000B1FEE726491F480AF02CFC08B3FEE736
:104C5000244921480AF026FCA8B1FEE7204919485A
:104C60000AF020FC00B1FEE716480AF0A3FC024659
:104C700040B9164B164C174917481C600AF062FCE5
:104C800068B1FEE7FEE714480AF094FC0028ABD0B8
:104C9000FEE70C480AF08EFC0028A5D0FEE70F497D
:104CA0000D480AF071FC00B1FEE70E490A480AF00F
:104CB000F9FB00B1FEE708480AF07CFC002893D01D
:104CC000FEE700BF44610EC00C0100C0E0630EC0EF
:104CD000D94B0008F00000C0A85E0EC0740100C0EF
:104CE000D00000C0C00000C0084691B208B502F074
:104CF00023F8003818BF012008BD00BF014805F0A7
:104D000065BD00BFC88E0EC0014805F05FBD00BF85
:104D1000C88E0EC0014805F059BD00BFC88E0EC038
:104D200082B04FF0000C0323ADF80410BDF804204E
:104D300080F810C00280438002B070472DE9F04F28
:104D4000BE4E00258FB0BE4C037006F1400342609A
:104D5000074601928846202229463046C4F8583139
:104D6000C4F85461CDE90355CDE90555CDE90755A2
:104D7000CDE90955CDE90B5510F0A0FB20222946BD
:104D800004F59970C4F82151C4F82551C4F829518B
:104D9000C4F82D5110F092FB019B84F8385284F82E
:104DA00020317A68002A5FD02B464146B64604F58A
:104DB000907599464FF0010A03EB0310D1F800B04B
:104DC000D1F804800133D1F808C02218CE6844F825
:104DD00000B0C2F80480C2F808C0D660087C2EF883
:104DE000029B10740A7C05F8012F002A69D07A68AA
:104DF000113184F838A29A42DED84FF480229148CB
:104E00009DF8043008214FF000084FF00009C4F865
:104E100074310023C4E957020122C4F8643184F8D4
:104E20007031C4E95A2194F83812C4E9608981B319
:104E3000C4F88821002284F8713184F878313B78F5
:104E4000C4E96322A3B3012200200121013B84F8BD
:104E50009421C4E96801082B2CD8DFE803F0ABB03B
:104E6000B5BABFC4C9CFD6009DF804300121C4F83B
:104E70006421C4F874314FF4802384F87021714A9E
:104E8000C4E9572308230022C4E95A130023C4E9C4
:104E900060230123002284F87131002384F87831E3
:104EA0000323C4F888313B78C4E96322002BCAD1BC
:104EB00084F89431644803F07BF8034638B1FFBEB0
:104EC000FEE77A6811319A423FF676AF95E703A97B
:104ED0005D48039303F0CAF90546002868D1022211
:104EE00040F2FF73CDE9082300230422CDE90A2311
:104EF00094F82031002B00F0D5804FF0060921E016
:104F0000022B00F08980012B40F0C4809AF8013018
:104F1000012B00F0C180002B4C4B18BF002306A9C9
:104F20004948CDE9063902F06FFC002840F0BF8007
:104F3000013594F82031EDB2AB4240F2B380444BDE
:104F400053F825902FB207EB071704EB070A5046DA
:104F500000F0F6F905EB051323441B7C042B7DDCE4
:104F6000022B00F3918000F08D806319002283F8FA
:104F70001021E35D002BC3D19AF80130062B00F01D
:104F80008580072B00F08A80022B00F09680032B8F
:104F900000F09580002B00F09680012B00F09180AE
:104FA000042B00F09280052B2A4B18BF0023B6E794
:104FB000FFBEFEE703224023C4E966237AE7072207
:104FC0006023C4E9662375E70F228023C4E96623C2
:104FD00070E71F22A023C4E966236BE73F22C023AA
:104FE000C4E9662366E77F22E023C4E9662361E71C
:104FF000FF224FF48073C4E966235BE740F2FF129F
:105000004FF49073C4E9662354E740F2FF324FF443
:10501000A073C4E966234DE79AF80130042B37D01A
:10502000052B3DD0002B40D0012B42D0022B42D08B
:10503000032B094B18BF002371E700BF004000306D
:10504000E8630EC00020024044650EC00002B02597
:10505000208301080000B84F0020903603233E1D36
:1050600004EB05084FF0000B264488F81031304659
:105070000BF1010B00F064F998F8103104365B4530
:10508000F5DC76E70123EAE70223E8E7104B46E781
:10509000104B44E7002342E70F4B40E70F4B3EE73E
:1050A0000F4B3CE70FB0BDE8F08F0E4B37E7FFBE6C
:1050B000FEE70D4B33E70D4B31E70D4B2FE70D4B63
:1050C0002DE70D4B2BE70D4B29E70D4B27E700BFD5
:1050D0000800900C1000C0102000F0148000501D3B
:1050E000000180210004002A0008302E00106032E8
:1050F0000040C03A0080F03E0000524700002143CB
:105100000000844B38B5094C40F2FF724FF001119A
:1051100004F5AE75284603F057F894F82021D4F82A
:1051200054112846BDE8384002F0C2BDE8630EC005
:10513000064B0F29D3F8543198BF03EB41031B886A
:1051400000EE103ABBEEC80A704700BFE8630EC01D
:10515000214B02689A4200D07047204A0023204821
:10516000D2F8D81030B51F4C41F0200183B0C4F8FC
:10517000C001092004F5E075C4E971034FF48060B3
:10518000C2F8D810D2F8D8204FF40061C4E97330C7
:1051900094F8380202F02002C4F8D4114FF4005100
:1051A000984201922846C4F8D811C4E97833019B8B
:1051B00014BF00234FF48073C4F8DC3103F07CFA91
:1051C00008B1FFBEFEE704F5AE73C4F8A851C4F8F9
:1051D000F83103B030BD00BF002002400044025847
:1051E00040000240E8630EC0014803F0DDBD00BF8F
:1051F000A8650EC002682DE9F84F4B4B9A4201D0CA
:10520000BDE8F88F494D95F83832002BF8D095F865
:105210002031002B77D0002405F10C0905F5997693
:1052200005F59077A04613E003F0010117F811BCD3
:10523000A9F1080000F06EF9BBF1010F25D895F82F
:105240002031013409F111090236A2B293422BD95F
:1052500017F8012F002AF4D0D5F854310021327804
:1052600033F81400D5F8583103EB041323F8120077
:10527000338801339BB233805FFA83FA3A789A42DB
:10528000D2D88A46A6F80080D0E7CAF34001A9F137
:10529000040000F03FF9BBF1020FCAF38001CED049
:1052A000484600F037F9CAE7002395F8380220494C
:1052B00009229842C5F8C8314FF48060C5F8C01182
:1052C000C5F8C4214FF400614FF40052C5F8CC3149
:1052D00008BF4FF48073C5F8D821C5E974010022D6
:1052E0001448C5E97732C5F8E42103F0E5F908B1BF
:1052F000FFBEFEE795F82021D5F854110E48BDE811
:10530000F84F02F0D5BC0A4909224FF48060C5F875
:10531000C831C5E970124FF400614FF40052C5E97D
:105320007330C5E97512DAE700200240E8630EC069
:1053300040000240A8650EC044650EC0704700BF23
:105340008378022B30B504468FB037D0032B33D08F
:10535000012B31D000230A93E378012B2AD0022BB2
:1053600028D000230B93002320460C9302F0C6F8AC
:105370000546204602F0CAF823780990082B13D876
:10538000DFE803F01F3245586B7E91A40500594BAE
:10539000D3F8E02042F48072C3F8E020D3F8E03084
:1053A00003F480730893089B09A9284604F04EF87B
:1053B0000FB030BD0B93D6E70A93CDE711230A93C4
:1053C000CAE74C4B09A92846D3F8E02042F0010275
:1053D000C3F8E020D3F8E03003F001030093009B12
:1053E00004F034F80FB030BD424B09A92846D3F879
:1053F000E02042F00202C3F8E020D3F8E03003F0EE
:1054000002030193019B04F021F80FB030BD394B2A
:1054100009A92846D3F8E02042F00402C3F8E020AE
:10542000D3F8E03003F004030293029B04F00EF87B
:105430000FB030BD2F4B09A92846D3F8E02042F029
:105440000802C3F8E020D3F8E03003F00803039328
:10545000039B03F0FBFF0FB030BD264B09A9284684
:10546000D3F8E02042F01002C3F8E020D3F8E03097
:1054700003F010030493049B03F0E8FF0FB030BD6A
:105480001C4B09A92846D3F8E02042F02002C3F8BB
:10549000E020D3F8E03003F020030593059B03F0F0
:1054A000D5FF0FB030BD134B09A92846D3F8E02033
:1054B00042F04002C3F8E020D3F8E03003F04003AC
:1054C0000693069B03F0C2FF0FB030BD094B09A93C
:1054D0002846D3F8E02042F08002C3F8E020D3F859
:1054E000E03003F080030793079B03F0AFFF0FB09A
:1054F00030BD00BF0044025838B5054601F0FEFF3C
:105500000446284602F002F801462046BDE838402D
:1055100004F0A4B970B506460D4601F0EFFF04464D
:10552000304601F0F3FF2A1E0146204618BF012233
:10553000BDE8704004F098B90023122270B586B01F
:10554000CDE9022304930368032B01D804230593B8
:10555000061D841D304601F0D1FF0546304601F09E
:10556000D5FF034601A92846019303F06FFF2046AB
:1055700001F0C4FF034620461C4601F0C7FF01A905
:1055800003462046019303F061FF06B070BD00BFE3
:10559000634A0368934210B58CB028D0614A9342A5
:1055A00058D0614A934200F09480604A934201D0FF
:1055B0000CB010BD5E4C5F48D4F8E03043F00203FD
:1055C000C4F8E030D4F8E03003F002030A930A9BF9
:1055D000FFF7B2FFD4F8F43043F08003C4F8F4309E
:1055E000D4F8F43003F080030B930B9BE0E7504CAE
:1055F0005148D4F8E03043F00203C4F8E030D4F866
:10560000E03003F002030193019BFFF795FFD4F80C
:10561000E83000221F2043F400131146C4F8E8309C
:10562000D4F8E83003F400130293029BD4F8D83086
:1056300043F00103C4F8D830D4F8D83003F00103A4
:105640000393039B02F086FE1F200CB0BDE81040C0
:1056500002F0BEBE364C3948D4F8E03043F0800347
:10566000C4F8E030D4F8E03003F080030493049BE6
:10567000D4F8E03043F00203C4F8E030D4F8E0306E
:1056800003F002030593059BFFF756FFD4F8E830BB
:105690000022212043F480031146C4F8E830D4F8F6
:1056A000E83003F480030693069BD4F8D83043F027
:1056B0000103C4F8D830D4F8D83003F001030793BD
:1056C000079B02F047FE21200CB0BDE8104002F01D
:1056D0007FBE1B48FFF730FF154B00224820D3F850
:1056E000E840114644F40004C3F8E840D3F8E84029
:1056F00004F400040894089CD3F8D84044F0010452
:10570000C3F8D840D3F8D83003F001030993099BBC
:1057100002F020FE48200CB0BDE8104002F058BE58
:105720000054004000580040005C0040001C00583D
:1057300000440258B0680EC028660EC000670EC054
:10574000D8670EC02DE9F0431A4B87B000254FF003
:1057500010099E46EC46184BFF22E04667461A7039
:105760000EF118060EF13004CDE90055CDE90255D1
:10577000ADF80090BCE80F00CDE90455AEE80F008D
:105780009CE803000095ADF800908EE80300B8E8AF
:105790000F000FC69CE803000095ADF8009086E866
:1057A00003000FCF0FC49CE8030084E8030007B098
:1057B000BDE8F083700000C024660EC010B5EFF3A2
:1057C000108472B6084B1A78120602D504B962B674
:1057D00010BD1B78D82205485BB202FB03001430D1
:1057E00003F0E2FAF2E700BF24660EC028660EC09E
:1057F000014804F0D1BE00BFB4660EC0014804F0F9
:10580000CBBE00BF8C670EC0014804F0C5BE00BF10
:1058100064680EC02DE9F0430F68D8243F4D85B071
:1058200007FB04F4032F05EB0403036040DCCB68A3
:105830000E46012B3CD84DD04FF0D808B646DFF8C5
:10584000FC9008FB0758BEE80F00C446ACE80F0008
:10585000DEF800300DF1100ECCF80030D8F808C09A
:1058600099E80F000EE90F000EEB8703BCF1010F62
:1058700053F8103CC8F88C3031D0BCF1020F42D044
:10588000BCF1000F35D0317C8C34D82300220120AC
:105890002C4403FB07534900C3E92602C3F89410C4
:1058A0002046C3E92822C3E92A2204F067FC18B184
:1058B000012005B0BDE8F0830146204604F078FEE3
:1058C0000028F5D10146204604F09CFE003818BFA0
:1058D0000120EEE70B7C103B672BADD9E8E701F028
:1058E000EFF80F4B98420CBF0E4B0F4BC8F890309F
:1058F000C9E701F0E5F80A4B98420CBF0B4B0C4B83
:10590000C8F89030BFE701F0DBF8054B98420CBFB8
:10591000084B094BC8F89030B5E700BF28660EC0A9
:10592000000E27072D0FB0303211D0205F4390605A
:105930008A62E030200BA0101A098010CC82010886
:105940002DE9F041D0F8008082B00D4617461E4682
:1059500008F18C04204604F027FE2028FAD1D8F85C
:105960000C3073B96D002046089C33463A46A9B204
:10597000009404F059FC003818BF012002B0BDE8C3
:10598000F081089B32463946204604F021FDF2E7BB
:10599000044B10221A7483F8E82083F8C02183F89E
:1059A0009822704728660EC030B5002395B04FF49A
:1059B0008071062204460B9306921393CDE90C13D3
:1059C000CDE90E33CDE9113301F07CF807282BD057
:1059D00004F1100541F2883206A9284605F064FD5D
:1059E00028B10123184684F85C3015B030BD02227E
:1059F000022306A92846CDE9002310220123CDE980
:105A0000022300224FF48003CDE9042305224FF046
:105A1000807306926A460F9341F2883305F0B0FE18
:105A20000028DED115B030BD0323012084F85C309E
:105A300015B030BD0000000070B50023A4B04FF0D9
:105A400080724FF480750446ADF806300D93CDE9B1
:105A500010320122CDE90E53CDE91223CDE91433E2
:105A6000002943D0F02300F1100508AEADF8063050
:105A7000C02341F2883231462846089305F014FDD0
:105A800028B10123184684F85C3024B070BD41F27F
:105A900088320DF10601284605F070FD0346002806
:105AA000EFD105224FF480711E93284616924FF0D5
:105AB00080721B9321931F9202AA9FED1F7BCDE959
:105AC0001C13CDE922338DED027B9FED1D7B41F24E
:105AD000883316A98DED047B9FED1B7B8DED067B36
