:020000040800F2
:1000000000000220990600089506000851370008F4
:1000100095060008950600089506000800000000F7
:10002000000000000000000000000000950600082D
:10003000950600080000000095060008D536000867
:100040009506000895060008950600089506000824
:100050009506000895060008950600089506000814
:1000600095060008950600089506000889340008E2
:1000700095340008E5230008A1340008AD340008D9
:1000800079E70008B92900089506000895060008D8
:1000900095060008950600089506000895060008D4
:1000A00095060008950600089506000895060008C4
:1000B0004DDB000859DB000865DB0008ED2900086E
:1000C00095060008F929000895060008BDD3000828
:1000D000C9D30008ADE50008DDE5000811E6000819
:1000E0009506000895060008000000009506000827
:1000F0009506000895060008950600089506000874
:10010000950600089506000871DB0008D5D30008A5
:1001100045E6000879E600089506000895060008FF
:100120009506000895060008F9D300082DD40008AC
:10013000ADE700089506000895060008950600083A
:1001400000000000000000000000000000000000AF
:10015000950600089506000895060008ADE600081B
:10016000052A000895060008E5360008093700084A
:10017000950600082D37000895060008950600082A
:100180009506000895060008E1E6000811E700085A
:10019000E1D30008EDD30008950600089506000895
:1001A00095060008950600089506000895060008C3
:1001B000A931000895060008950600089506000874
:1001C0009506000895060008F91E0008051F00089E
:1001D00095060008111F00089506000895060008FE
:1001E0009506000895060008950600089506000883
:1001F0009506000895060008950600089506000873
:100200009506000895060008950600089506000862
:100210009506000895060008950600089506000852
:1002200095060008950600089506000800000000E5
:1002300095060008950600080000000095060008D5
:100240009506000895060008950600089506000822
:100250009506000895060008950600089506000812
:100260009506000895060008950600089506000802
:10027000950600089506000845E700080000000004
:100280009506000895060008950600080000000085
:080290000000000095060008C3
:1002A00010B5054C237833B9044B13B10448AFF3B0
:1002B00000800123237010BDA80700240000000067
:1002C000EC4A010808B5034B1BB103490348AFF3DF
:1002D000008008BD00000000AC070024EC4A0108C3
:1002E000034613F8012B002AFBD1181A0138704776
:1002F00001F0FF01102A2BDB10F0070F08D010F8D7
:10030000013B013A8B422DD010F0070F42B3F6D1DA
:10031000F0B441EA012141EA014122F007047FF0F3
:1003200000070023F0E80256083C85EA010586EA4A
:10033000010685FA47F5A3FA87F586FA47F6A5FA86
:1003400087F68EB9EED1F0BC01F0FF0102F0070292
:1003500032B110F8013B013A83EA010313B1F8D13D
:100360000020704701387047002D06BF354603381E
:10037000073815F0010F07D1013015F4807F02BF57
:10038000013015F4C03F0130F0BC0138704700BFA8
:1003900053B94AB9002908BF00281CBF4FF0FF31EC
:1003A0004FF0FF3000F074B9ADF1080C6DE904CEE8
:1003B00000F006F8DDF804E0DDE9022304B0704740
:1003C0002DE9F047089D04468E46002B4DD18A4208
:1003D000944669D9B2FA82F252B101FA02F3C2F13B
:1003E000200120FA01F10CFA02FC41EA030E9440CC
:1003F0004FEA1C48210CBEFBF8F61FFA8CF708FBED
:1004000016E341EA034306FB07F199420AD91CEBC4
:10041000030306F1FF3080F01F81994240F21C81F6
:10042000023E63445B1AA4B2B3FBF8F008FB10333E
:1004300044EA034400FB07F7A7420AD91CEB040473
:1004400000F1FF3380F00A81A74240F20781644443
:10045000023840EA0640E41B00261DB1D4400023C8
:10046000C5E900433146BDE8F0878B4209D9002D2C
:1004700000F0EF800026C5E9000130463146BDE8B6
:10048000F087B3FA83F6002E4AD18B4202D3824220
:1004900000F2F980841A61EB030301209E46002DCF
:1004A000E0D0C5E9004EDDE702B9FFDEB2FA82F224
:1004B000002A40F09280A1EB0C014FEA1C471FFA82
:1004C0008CFE0126200CB1FBF7F307FB131140EA69
:1004D00001410EFB03F0884208D91CEB010103F136
:1004E000FF3802D2884200F2CB804346091AA4B2F8
:1004F000B1FBF7F007FB101144EA01440EFB00FECC
:10050000A64508D91CEB040400F1FF3102D2A64530
:1005100000F2BB800846A4EB0E0440EA03409CE7CF
:10052000C6F12007B34022FA07FC4CEA030C20FA7C
:1005300007F401FA06F31C43F9404FEA1C4900FA9C
:1005400006F3B1FBF9F8200C1FFA8CFE09FB181119
:1005500040EA014108FB0EF0884202FA06F20BD98C
:100560001CEB010108F1FF3A80F08880884240F2DC
:100570008580A8F102086144091AA4B2B1FBF9F020
:1005800009FB101144EA014100FB0EFE8E4508D91B
:100590001CEB010100F1FF346CD28E456AD90238A0
:1005A000614440EA0840A0FB0294A1EB0E01A14285
:1005B000C846A64656D353D05DB1B3EB080261EBF3
:1005C0000E0101FA07F722FA06F3F1401F43C5E9CD
:1005D000007100263146BDE8F087C2F12003D84003
:1005E0000CFA02FC21FA03F3914001434FEA1C4745
:1005F0001FFA8CFEB3FBF7F007FB10360B0C43EA37
:10060000064300FB0EF69E4204FA02F408D91CEBE6
:10061000030300F1FF382FD29E422DD902386344E4
:100620009B1B89B2B3FBF7F607FB163341EA034184
:1006300006FB0EF38B4208D91CEB010106F1FF38D3
:1006400016D28B4214D9023E6144C91A46EA0046CA
:1006500038E72E46284605E70646E3E61846F8E65C
:100660004B45A9D2B9EB020864EB0C0E0138A3E7A5
:100670004646EAE7204694E74046D1E7D0467BE786
:10068000023B614432E7304609E76444023842E7FE
:10069000704700BFFEE700BF0B480C4A904203D0F2
:1006A000121A0B4910F0C8FF0A480B4A904203D0B7
:1006B000121A002110F0CEFF03F074FA10F088FF38
:1006C00000F0A2F9FEE700BF00000024A407002408
:1006D000204B0108A807002474720024704700BF53
:1006E000704700BFD0F8743810B5044623B100F647
:1006F0006C01032208469847D4F8343823B104F635
:100700002C01032208469847D4F8043823B104F298
:10071000FC71032208469847D4F8D83723B104F572
:10072000FA61032208469847D4F8A83723B104F5A4
:10073000F461032208469847D4F8743723B104F2D1
:100740006C71032208469847D4F8443723B104F269
:100750003C71032208469847D4F8143723B104F2B9
:100760000C71032208469847D4F8E43623B104F20A
:10077000DC61032208469847D4F8AC3623B104F272
:10078000A461032208469847D4F88C3623B104F2BA
:100790008461032208469847D4F8543623B104F202
:1007A0004C61032208469847D4F8143623B104F26A
:1007B0000C61032208469847D4F8E43523B104F2CB
:1007C000DC51032208469847D4F8B83523B104F524
:1007D000B661032208469847D4F8883523B104F55A
:1007E000B061032208469847D4F8543523B104F287
:1007F0004C51032208469847D4F8243523B104F21B
:100800001C51032208469847D4F8F43423B104F26B
:10081000EC41032208469847D4F8C43423B104F2CB
:10082000BC41032208469847D4F88C3423B104F223
:100830008441032208469847D4F86C3423B104F26B
:100840006441032208469847D4F8343423B104F2B3
:100850002C41032208469847D4F8F43323B104F519
:100860007B71032208469847D4F8C43323B104F5BA
:100870006F71032208469847D4F8983323B104F5E2
:100880006471032208469847D4F8683323B104F50D
:100890005871032208469847D4F8343323B104F53D
:1008A0004B71032208469847D4F8043323B104F56A
:1008B0003F71032208469847D4F8D43223B104F597
:1008C0003371032208469847D4F8A43223B104F5C3
:1008D0002771032208469847D4F86C3223B104F5F7
:1008E0001971032208469847D4F84C3223B104F515
:1008F0001171032208469847D4F8143223B104F545
:100900000371032208469847D4F8D43123B104F583
:10091000E671032208469847D4F8A43123B104F5C0
:10092000CE71032208469847D4F8783123B104F5F4
:10093000B871032208469847D4F8483123B104F52A
:10094000A071032208469847D4F8143123B104F566
:100950008671032208469847D4F8E43023B104F1A5
:10096000DC01032208469847D4F8B43023B104F1DF
:10097000AC01032208469847D4F8843023B104F12F
:100980007C01032208469847E36C23B104F144013B
:10099000032208469847E36A23B104F124010322A5
:1009A00008469847204610BD30B50F4C85B0002151
:1009B0000E4D204600F09EFD2046042100F016FD5D
:1009C0002046032100F0F6FC094A0A4B21460A485A
:1009D000CDE90232CDE90005084B094A094800F08B
:1009E00075F905B030BD00BF50100024240000246C
:1009F000040000242C0000241C0000241400002407
:100A00000C000024C407002400B59DB00024FFF7AB
:100A1000CBFF02238DF8054006A88DF8043001991C
:100A200001F07CFA03238DF808400DF129008DF8C0
:100A30000930029901F072FA01230DF13A008DF8A4
:100A40000C308DF80D30039901F068FA07238DF80A
:100A500010400DF14B008DF81130049901F05EFA51
:100A600006238DF8144017A88DF81530059901F06C
:100A700055FA0423052206A91A4801F05DFA19481F
:100A800001F03EFC204601F055F90121154801F026
:100A90004DFCB7EEC07A144853EC172B01F03CF92B
:100AA0000221104801F042FCB7EEC07A0F4853EC27
:100AB000172B01F031F903210A4801F037FCB7EE9A
:100AC000C07A0B4853EC172B01F026F90421054896
:100AD00001F02CFCB7EEC07A064853EC172B01F05E
:100AE0001BF9D2E76810002498440108A8440108C3
:100AF000B8440108C844010810B563480024634A9B
:100B0000634904604461046210F040FD6148624B37
:100B100000F58361C462C464C0F88440C0F8B44086
:100B2000C0F8E440C0F81441C0F84841C0F878412A
:100B3000C0F8A441C0F8D441C0F81442C0F84C42F7
:100B4000C0F86C42C0F8A442C0F8D442C0F80443D4
:100B5000C0F83443C0F868438366C0F89830C0F8E2
:100B6000C830C0F8F830C0F82C31C0F85C31C0F89B
:100B70008831C0F8B831C0F8F831C0F88832C0F810
:100B8000B832C0F8E832C0F81833C0F84C33C0F8B7
:100B90007C330B6000F59561C0F898430B6000F55D
:100BA0009B61C0F8C4430B6000F5A161C0F8F44339
:100BB0000B6000F5A761C0F834440B6000F26C5183
:100BC000C0F86C440B6000F29C51C0F88C440B6080
:100BD00000F5B961C0F8C4440B6000F5BF61C0F80E
:100BE000F4440B6000F5C761C0F824450B6000F5C4
:100BF000D961C0F854450B6000F5DF61C0F8884545
:100C00000B6000F5E561C0F8B845C0F8E445C0F8F0
:100C10001446C0F85446C0F88C46C0F8AC46C0F83C
:100C2000E446C0F8A833C0F8D833C0F814470B60C6
:100C300000F5EB61154A0B6000F28C71C0F8444777
:100C40000B6000F2BC71C0F874470B6000F5FD61E9
:100C5000C0F8A8470B6000F61801C0F8D8470B6031
:100C600000F65801C0F80448C0F83448C0F8744889
:100C70000B600A4910F08AFC2046044A0849BDE886
:100C8000104010F083BC00BF50100024000000246E
:100C9000DD060008C40700240AD7233CE506000847
:100CA000E106000803680A68C3F81C22704700BF09
:100CB000012A03D0022A04D00020704701600020DE
:100CC00070470B6803600020704700BF2DE9F041BA
:100CD00005464B481E464B4BC5F888088EB0106839
:100CE0000F460344C5F880085468474A1B1BC5F8E3
:100CF0008448934277D9454A002110F0ABFC434A1F
:100D00002046002110F0A6FC0F2201233946284678
:100D10008DF809200E228DF80C300AAC8DF80830C1
:100D20008DF80D20BDF80830BDF80C20ADF800306E
:100D3000ADF804203246179B00F0B2F80023344A85
:100D40004FF07E51C5F8F43120460992C5F8FC31C8
:100D5000304AC5F800320023C5F8F07104AFC5F879
:100D6000041206A9A5F80832089202220C930695EF
:100D7000FFF79EFF05F50373099ADDF8208094E8DC
:100D8000030087E8030093E8030084E8030097E882
:100D9000030083E80300D5F81432D5F81812C5F81B
:100DA00014820C93C5F818220D912BB10322214611
:100DB00020469847DDF8208095F80832052B02D0B0
:100DC000012385F80A32B8F1000F03D006A90322E7
:100DD0000846C0473368C5F8E8317368C5F8EC3198
:100DE0000EB0BDE8F081094B0246A64603444FF021
:100DF000000C42F804CB93424EF804CBF7D183E7C2
:100E000000530700FF4B1D00FE973A00004C1D00E9
:100E1000A50C0008B10C0008012A03D0022A04D056
:100E2000002070470160002070470B6803600020BD
:100E3000704700BF012A03D0022A04D00020704767
:100E40000160002070470B6803600020704700BFFE
:100E500003681A7C012A08D012F0FD0F01D101228B
:100E60001A740022C3E90022704702221A74002279
:100E7000C3E90022704700BF03681A7C42B1013AFF
:100E8000012A01D800221A740022C3E90022704707
:100E90001A680221DA6000221974C3E9002270473F
:100EA0002DE9F0478CB01F4600254FF00208BDF831
:100EB00050300446C5600E46ADF80430012304905E
:100EC00091460372564B80F810800793554B9FED67
:100ED000560A01990693C0E90055143000F060FFEE
:100EE000DDF818A00A95BAF1000F00F0868008AD71
:100EF000424604A92846D047DDE906A295E803004A
:100F000004F124030DF1080888E8030093E80300C6
:100F100085E8030098E8030083E80300E36A216B97
:100F2000C4F82CA00A9322630B911BB1032229461B
:100F300028469847069B1BB104A9032208469847F8
:100F4000BDF8543004F134009FED370AADF8043099
:100F5000364B01990793364B0494069300F020FF1B
:100F60000023DDF818A00A93BAF1000F48D002223E
:100F700004A92846D047DDE906A295E8030004F15C
:100F8000440388E8030093E8030085E8030098E839
:100F9000030083E80300E36C216DC4F84CA00A93BE
:100FA00022650B911BB10322294628469847069BD0
:100FB0001BB104A9032208469847D9F800001D4B2D
:100FC0006065E365D9F804501B4B1C4A2B44A565AA
:100FD0001B1A934216D91A4A002110F03BFB184AFB
:100FE0002846002110F036FB3A46314604F592704F
:100FF0000CB0BDE8F04700F085B80B9A08AD7DE76E
:101000000B9ABAE784460E4B284663444FF0000E15
:101010004CF804EB9C4540F804EBF7D1E4E700BF43
:10102000790E0008190E000800007A44510E0008DD
:10103000350E000800530700FF4B1D00FE973A00D5
:10104000004C1D0003680A68DA6270470B684FF0B5
:10105000000C026810B4084CD2F8BC10A342D2F8BD
:10106000C020C1F800C028BF23465DF8044B8B6048
:10107000C2F800C0936070477FA9030003680A6844
:10108000C3F88820704700BF03680A68C3F8B82017
:10109000704700BF012A03D0022A04D00020704705
:1010A0000160002070470B6803600020704700BF9C
:1010B000012A03D0022A04D00020704701600020DA
:1010C00070470B6803600020704700BF012A03D0FF
:1010D000022A04D0002070470160002070470B688E
:1010E00003600020704700BF012A03D0022A04D009
:1010F000002070470160002070470B6803600020EB
:10110000704700BF2DE9F043044600260125106812
:1011100090468BB0C4F8BC000F469C4A3146C0E9EB
:1011200001650C3010F096FAD8F804003146974A61
:10113000C4F8C000C0E901650C3010F08BFA944B84
:10114000656102A905930023258306AD6360022231
:10115000904B28462760089604930294C4E90366DE
:10116000FFF798FF6E4604F11C03059ADDF8108026
:1011700095E8030086E8030093E8030085E8030090
:1011800096E8030083E80300636AA16AC4F8248038
:101190000893A26209912BB1032229462846984759
:1011A000DDF81080237E052B01D00123A376B8F152
:1011B000000F03D002A903220846C04700230222E1
:1011C00002A928460893A4F8482027630294C4E99A
:1011D0000F330023636342F2107363646E4B059315
:1011E0006E4B0493FFF764FF04F14C0395E8030092
:1011F000DDE9048286E8030093E8030085E8030044
:1012000096E8030083E80300636DA16DC4F8548081
:101210000893A26509912BB10322294628469847D5
:10122000DDF8108094F84830052B02D0012384F8B3
:101230004A30B8F1000F03D002A903220846C04784
:101240004FF07E534FF0030902A9022223670023C7
:101250002846E7652366A366E366514BA4F87490BD
:101260000593504B0294049300230893FFF72EFF3D
:1012700004F1780395E80300DDE9048286E80300C1
:1012800093E8030085E8030096E8030083E8030081
:10129000D4F88030D4F88410C4F880800893C4F85F
:1012A000842009912BB14A46294628469847DDF803
:1012B000108094F87430052B02D0012384F8763026
:1012C000B8F1000F03D002A903220846C04700234B
:1012D000022202A9C4F88C70C4F890302846C4F8E1
:1012E0009830C4F89C304FF07E530294C4F8A0307C
:1012F0000423A4F8A430002308932B4B05932B4B15
:101300000493FFF7F1FE04F1A803059A049F95E802
:10131000030086E8030093E8030085E8030096E8ED
:10132000030083E80300D4F8B030D4F8B410C4F854
:10133000B0700893C4F8B420099123B10322294660
:1013400028469847049F94F8A430052B02D0012327
:1013500084F8A6301FB102A903220846B84701232A
:10136000D4F8BC00002149F64042E3624FF07C55BE
:101370000F4BC4F8B850C4F88830D4F8C0300160BE
:10138000826019609A600BB0BDE8F08300A60E0081
:1013900045100008951000084D100008B110000815
:1013A0007D100008CD10000889100008E910000821
:1013B000CDCC4C3F38B500F1140504462DED028B21
:1013C000284600F0D9FB284600F0D2FB2846B0EEB4
:1013D000408A00F0BBFBD0ED007AF8EE677A88EE29
:1013E000277ABDEC028B84ED0E7A38BD38B500F15A
:1013F000140504462DED028B284600F0ABFB284671
:1014000000F0B6FB2846B0EE408A00F09FFBD0ED1E
:10141000007AF8EE677A88EE277ABDEC028B84EDCD
:101420000E7A38BDF0B5032399B000270125129339
:1014300006462C4B09A81595CDE90E7340F20453CE
:10144000ADF84030284BCDE91357099301F076F8F9
:1014500009A801F04FF9002836D1244B04AF044607
:101460000090CDF842301023394604958DF8203095
:101470001F4BCDE91650CDE906506846059301F0A3
:10148000C7FA0823009A01A909A8ADF804508DF8FD
:10149000064009940295039300F0E4F800230EA996
:1014A00038463024049302F007F803224FF07E53AD
:1014B00009A906F114000B930C93CDE90942049A93
:1014C00000F00CFB19B0F0BD40F60132074B169747
:1014D00004AFADF824200998CDF84230179500F0FC
:1014E00081F8DBE70402040403030001040604039B
:1014F0000704010B2DE9F04304462DED028B83B068
:10150000002948D0012140F2011200230091ADF8DA
:1015100004208DF80630304A0126304B271D304913
:1015200004F12908626040F20272A36040F606638B
:10153000E16004F125092682A4F8252084F82760BB
:10154000A4F8293084F82B6002F0E2FA69460546D7
:1015500048B304F130008DF8066002F037FA072D29
:1015600034D104F114052046FFF75CFF284600F053
:10157000FFFA2846B0EE408A00F0E8FAD0ED007A93
:10158000F8EE677A88EE277A84ED0E7A03B0BDEC28
:10159000028BBDE8F08340F2011300918DF8061034
:1015A000ADF80430B7E704F1300002F00FFA394625
:1015B000204601F075FC484600F0C0FF404600F0B0
:1015C000BDFF04F1120000F077F9CAE73946204662
:1015D00001F066FCC5E700BF05080509050705061B
:1015E000050A060610B584B003460124ADF80400D0
:1015F00003A8ADF80C30ADF80E4000F09FFF214677
:1016000003A801F085F8204602F014F9002103A890
:1016100001F07EF8204602F00DF9214603A801F002
:1016200077F804B010BD00BF10B5C2F3002384B03A
:101630000C46017C8DF80D2043EA4402FA24022373
:101640008DF80C2003AA009401F078FA18B1012457
:10165000204604B010BD04460A2002F0EBF82046F4
:1016600004B010BD034670B543F8042B044684B0A3
:1016700007C983E80700A37983B91A210B461E2204
:10168000FA2523742046ADF80C20022303AA009506
:1016900001F054FA28B1012004B070BD1B210B46A3
:1016A000EDE70A2002F0C6F84FF4B8520095022385
:1016B000ADF80C20204603AA217C01F03FFA002857
:1016C000E9D10A2002F0B6F841F202720095022335
:1016D000ADF80C20204603AA217C01F02FFA002847
:1016E000D9D10A2002F0A6F8042200950223ADF811
:1016F0000C20204603AA217C01F020FA0028CAD140
:101700000A2002F097F8062200950223ADF80C207B
:10171000204603AA217C01F011FA0028BBD10A203F
:1017200002F088F841F2082200950223ADF80C205F
:10173000204603AA217C01F001FA0028ABD10A203F
:10174000064602F077F80095022303AA217C204682
:10175000ADF80C6001F0F2F900289CD1304602F09F
:1017600069F8009522790C232046002A8DF80C3068
:1017700003AA4FF0020314BF622142218DF80D101D
:10178000217C01F0DBF9002885D1304602F052F8C7
:101790002279D4E902310B43DBB20AB943F04003AA
:1017A00062790AB143F020030E22FA258DF80D303C
:1017B0002046009502238DF80C2003AA217C01F01D
:1017C000BDF900287FF467AF0A2002F033F8102239
:1017D00000950223ADF80C20204603AA217C01F0DD
:1017E000ADF900287FF457AF0A2002F023F8122148
:1017F00000950223ADF80C1003AA217C204601F0CD
:101800009DF900287FF447AF0A2002F013F8012267
:1018100009212046FFF708FF003818BF01203BE7E9
:10182000F0B5102387B0234C0122002501260027A4
:1018300002A920460195CDE902234FF48052CDE95B
:10184000046709F04FFA642002F0A0FF02A94FF4E8
:1018500080522046CDE9046702261027CDE90267B1
:1018600009F040FA0322102302A92046CDE9022301
:1018700000230422CDE904234FF4805209F032FA08
:1018800040F23223042202A9019310232046CDE91D
:101890000223019A012305924FF48052049309F028
:1018A00021FA40F60601204609F03CFA284607B026
:1018B000F0BD00BF941000241C4B00221C494FF0C7
:1018C000400C30B5054689B00220596007219A6066
:1018D0001A620124DA620A224FF4006EDC6006927A
:1018E0002022CDE9000104200821CDE902010320D6
:1018F0001021CDE9040108206946C3E904024FF430
:10190000C072181DC3E906C24FF48052C3E909E250
:1019100009F0BEF938B92846FFF782FF003818BF32
:10192000012009B030BD204609B030BD9010002420
:1019300040410052614A0021D0B513688EB00A912F
:10194000002B40F0B9805E4B01214FF683700C24D0
:1019500011600221D3F8D4200026032742F48052DC
:10196000C3F8D420D3F8D42002F480520092009A15
:10197000D3F8E02042F01002C3F8E020D3F8E020D2
:1019800002F010020192019AD3F8E02042F04002E6
:10199000C3F8E020D3F8E02002F040020292029A5D
:1019A000D3F8E02042F00802C3F8E020D3F8E020AA
:1019B00002F008020392039AD3F8E02042F4807206
:1019C000C3F8E020D3F8E02002F480720492049A75
:1019D000D3F8E02042F08002C3F8E020D3F8E02002
:1019E00002F080020592059AD3F8E02042F020022E
:1019F000C3F8E020D3F8E02002F020020692069A15
:101A0000D3F8E02042F00402C3F8E020D3F8E0303D
:101A10000C9403F0040307930323079A0B93CDE977
:101A2000080108A9274804F037FD48F237120223BD
:101A300008A925480C94CDE90823CDE90A6704F0EC
:101A40002BFD4CF20372022308A920480C94CDE927
:101A50000823CDE90A6704F01FFD40F2FF6202236C
:101A600008A91B480C94CDE90823CDE90A6704F0C6
:101A700013FD4FF60C72022308A916480C94CDE909
:101A80000823CDE90A6704F007FD4FF63F02022361
:101A900008A911480C94CDE90823CDE90A6704F0A0
:101AA000FBFC2022022308A90A480C94CDE90A670E
:101AB000CDE9082304F0F0FC0EB0D0BD8C1000245A
:101AC000004402580010025800180258000C025836
:101AD00000200258001C02580014025830B5184C5F
:101AE000154685B0046004F1080EEC460FC98EE877
:101AF0000F00D4ED047AF5EEC07A8CE80F00F1EE19
:101B000010FA1ADDB7EE006A94ED057A27EE277A0F
:101B1000C6EE276A84ED0D7AC4ED0C6A6DB12046DD
:101B200040F8185F01F0C0FD064903690020064A2D
:101B30002162A262E36005B030BD012005B030BD76
:101B4000C810002400200030000000300068083079
:101B5000704700BFB1F5807F03680A4628BF4FF485
:101B60008072B1F5807F9A6094BF00200120704799
:101B70000068183001F09ABD70B504688AB0A36996
:101B8000E160CBB104F11805284601F08DFD8446D3
:101B9000EE46E668BCE80F00AEE80F00BCE80F00B8
:101BA000AEE80F009CE803008EE803006946284673
:101BB000049601F081FCF8B9E069D8B104F11C0584
:101BC000284601F071FD8446EE46E468BCE80F004B
:101BD000AEE80F00BCE80F00AEE80F009CE8030081
:101BE0008EE8030069462846049401F065FC00383D
:101BF00018BF01200AB070BD01200AB070BD00BF3F
:101C000010B4074B4FF07E5130240022032019619D
:101C10009C60D8605DF8044B5961C3E906227047A7
:101C2000C8100024704700BFF8B5134F3C687F2CE4
:101C300007D98023114A42F224411C463B60A2F896
:101C40007E100F4D2B68012B0AD90C4E0D4D2246EC
:101C50003146284600F046F90028F8D13860F8BD32
:101C600022460649074800F03DF90028F7D12B68C5
:101C7000386001332B60F8BD0411002408110024E2
:101C8000001100248811002430B4154C2168F1B1F2
:101C90004B1E144DE81810F801298C4619460A2AE3
:101CA00001D00D2A02D14BB1013BF4E70CF1020344
:101CB0007F2B10D98023236030BC70470122022380
:101CC00023600D200A236854AB5430BC70470122B6
:101CD0000223044DF4E70CF101026146F0E700BF76
:101CE000041100240811002410B5094C02460B46CB
:101CF000084821680844C1F1800110F099FA23686E
:101D000018442060FFF7C0FFFFF78EFF10BD00BF33
:101D100004110024081100240FB400B583B004A9F5
:101D200051F8040B0191FFF7DFFF03B05DF804EBFE
:101D300004B0704710B5044600210A4800F04CF882
:101D4000002C094B14BF0222002208481A60FFF73A
:101D5000E3FF0748FFF7E0FF0A20BDE8104001F06D
:101D600069BD00BF8811002400110024D844010877
:101D7000E8440108064A0749074808B50FF006FC81
:101D8000034A04490548BDE808400FF0FFBB00BF07
:101D900000000024251C0008881100248C11002458
:101DA00070B5044682B0C1F30726CDB2ADF8041079
:101DB00001F03EFD4FF480724FF001232060A01D22
:101DC000A571A280E671A36002B0BDE8704000F08A
:101DD000B5BB00BF704700BF012910B506D002296E
:101DE00015D051B1BDE8104006F038BA0A46344863
:101DF00034490AF027FAE8B1FEE7334B0A46334C80
:101E0000334934481C600AF01DFA68B1FEE701222C
:101E10002C492B480AF016FA00B1FEE72E49284853
:101E20000AF032FAC0B1FEE72B492A480AF02CFA30
:101E300060B1FEE7284922480AF026FA00B1FEE721
:101E400026491F480AF0AEF908B3FEE724492148A5
:101E50000AF0A8F9A8B1FEE7204919480AF0A2F94A
:101E600000B1FEE716480AF025FA024640B9164BC3
:101E7000164C174917481C600AF0E4F968B1FEE7F0
:101E8000FEE714480AF016FA0028ABD0FEE70C482B
:101E90000AF010FA0028A5D0FEE70F490D480AF015
:101EA000F3F900B1FEE70E490A480AF07BF900B1E8
:101EB000FEE708480AF0FEF9002893D0FEE700BFCD
:101EC0002C140024D0000024C8160024D51D0008BE
:101ED000B400002490110024380100249400002450
:101EE00084000024084691B208B501F04BFF003889
:101EF00018BF012008BD00BF014805F08DBC00BF20
:101F0000B0410024014805F087BC00BFB041002467
:101F1000014805F081BC00BFB041002482B04FF001
:101F2000000C0323ADF80410BDF8042080F810C0A5
:101F30000280438002B070472DE9F04FBE4E00256D
:101F40008FB0BE4C037006F1400342600746019219
:101F50008846202229463046C4F85831C4F85461D6
:101F6000CDE90355CDE90555CDE90755CDE909552D
:101F7000CDE90B550FF06EFB2022294604F5997030
:101F8000C4F82151C4F82551C4F82951C4F82D5181
:101F90000FF060FB019B84F8385284F820317A6896
:101FA000002A5FD02B464146B64604F59075994607
:101FB0004FF0010A03EB0310D1F800B0D1F8048010
:101FC0000133D1F808C02218CE6844F800B0C2F836
:101FD0000480C2F808C0D660087C2EF8029B1074FA
:101FE0000A7C05F8012F002A69D07A68113184F83B
:101FF00038A29A42DED84FF4802291489DF80430EE
:1020000008214FF000084FF00009C4F87431002394
:10201000C4E957020122C4F8643184F87031C4E97C
:102020005A2194F83812C4E9608981B3C4F8882130
:10203000002284F8713184F878313B78C4E9632256
:10204000A3B3012200200121013B84F89421C4E9BB
:102050006801082B2CD8DFE803F0ABB0B5BABFC4D9
:10206000C9CFD6009DF804300121C4F86421C4F81A
:1020700074314FF4802384F87021714AC4E95723E6
:1020800008230022C4E95A130023C4E96023012372
:10209000002284F87131002384F878310323C4F8D6
:1020A00088313B78C4E96322002BCAD184F894318B
:1020B000644802F0A3FF034638B1FFBEFEE77A682A
:1020C00011319A423FF676AF95E703A95D48039335
:1020D00003F0F2F80546002868D1022240F2FF73AF
:1020E000CDE9082300230422CDE90A2394F8203106
:1020F000002B00F0D5804FF0060921E0022B00F004
:102100008980012B40F0C4809AF80130012B00F047
:10211000C180002B4C4B18BF002306A94948CDE9CC
:10212000063902F097FB002840F0BF80013594F893
:102130002031EDB2AB4240F2B380444B53F82590CE
:102140002FB207EB071704EB070A504600F0F6F929
:1021500005EB051323441B7C042B7DDC022B00F3D1
:10216000918000F08D806319002283F81021E35DD7
:10217000002BC3D19AF80130062B00F08580072B85
:1021800000F08A80022B00F09680032B00F09580EF
:10219000002B00F09680012B00F09180042B00F0C2
:1021A0009280052B2A4B18BF0023B6E7FFBEFEE73F
:1021B00003224023C4E966237AE707226023C4E9A7
:1021C000662375E70F228023C4E9662370E71F2288
:1021D000A023C4E966236BE73F22C023C4E966233A
:1021E00066E77F22E023C4E9662361E7FF224FF41C
:1021F0008073C4E966235BE740F2FF124FF49073EB
:10220000C4E9662354E740F2FF324FF4A073C4E9F7
:1022100066234DE79AF80130042B37D0052B3DD0CB
:10222000002B40D0012B42D0022B42D0032B094B74
:1022300018BF002371E700BF00400030D016002413
:10224000002002402C1800240002B025F8440108A8
:102250000000B84F0020903603233E1D04EB050814
:102260004FF0000B264488F8103130460BF1010B7B
:1022700000F064F998F8103104365B45F5DC76E738
:102280000123EAE70223E8E7104B46E7104B44E757
:10229000002342E70F4B40E70F4B3EE70F4B3CE775
:1022A0000FB0BDE8F08F0E4B37E7FFBEFEE70D4BDA
:1022B00033E70D4B31E70D4B2FE70D4B2DE70D4B62
:1022C0002BE70D4B29E70D4B27E700BF0800900CCB
:1022D0001000C0102000F0148000501D000180216B
:1022E0000004002A0008302E001060320040C03A7E
:1022F0000080F03E00005247000021430000844B64
:1023000038B5094C40F2FF724FF0011104F5AE757B
:10231000284602F07FFF94F82021D4F85411284673
:10232000BDE8384002F0EABCD0160024064B0F2965
:10233000D3F8543198BF03EB41031B8800EE103AE9
:10234000BBEEC80A704700BFD0160024214B0268BC
:102350009A4200D07047204A00232048D2F8D81073
:1023600030B51F4C41F0200183B0C4F8C0010920F2
:1023700004F5E075C4E971034FF48060C2F8D81029
:10238000D2F8D8204FF40061C4E9733094F83802D1
:1023900002F02002C4F8D4114FF400519842019287
:1023A0002846C4F8D811C4E97833019B14BF002330
:1023B0004FF48073C4F8DC3103F0A4F908B1FFBE18
:1023C000FEE704F5AE73C4F8A851C4F8F83103B0C1
:1023D00030BD00BF002002400044025840000240CF
:1023E000D0160024014803F005BD00BF901800245A
:1023F00002682DE9F84F4B4B9A4201D0BDE8F88FA7
:10240000494D95F83832002BF8D095F82031002B43
:1024100077D0002405F10C0905F5997605F590773C
:10242000A04613E003F0010117F811BCA9F1080060
:1024300000F06EF9BBF1010F25D895F82031013479
:1024400009F111090236A2B293422BD917F8012FD4
:10245000002AF4D0D5F854310021327833F8140032
:10246000D5F8583103EB041323F8120033880133F5
:102470009BB233805FFA83FA3A789A42D2D88A467E
:10248000A6F80080D0E7CAF34001A9F1040000F0EB
:102490003FF9BBF1020FCAF38001CED0484600F0ED
:1024A00037F9CAE7002395F83802204909229842F3
:1024B000C5F8C8314FF48060C5F8C011C5F8C42113
:1024C0004FF400614FF40052C5F8CC3108BF4FF40F
:1024D0008073C5F8D821C5E9740100221448C5E904
:1024E0007732C5F8E42103F00DF908B1FFBEFEE72D
:1024F00095F82021D5F854110E48BDE8F84F02F0A8
:10250000FDBB0A4909224FF48060C5F8C831C5E90E
:1025100070124FF400614FF40052C5E97330C5E901
:102520007512DAE700200240D01600244000024075
:10253000901800242C180024704700BF8378022BC9
:1025400030B504468FB037D0032B33D0012B31D0B8
:1025500000230A93E378012B2AD0022B28D00023F2
:102560000B93002320460C9301F0EEFF0546204616
:1025700001F0F2FF23780990082B13D8DFE803F06D
:102580001F3245586B7E91A40500594BD3F8E020CB
:1025900042F48072C3F8E020D3F8E03003F4807393
:1025A0000893089B09A9284603F076FF0FB030BDB9
:1025B0000B93D6E70A93CDE711230A93CAE74C4B56
:1025C00009A92846D3F8E02042F00102C3F8E02030
:1025D000D3F8E03003F001030093009B03F05CFFAD
:1025E0000FB030BD424B09A92846D3F8E02042F095
:1025F0000202C3F8E020D3F8E03003F002030193B5
:10260000019B03F049FF0FB030BD394B09A92846A3
:10261000D3F8E02042F00402C3F8E020D3F8E03021
:1026200003F004030293029B03F036FF0FB030BDAA
:102630002F4B09A92846D3F8E02042F00802C3F83E
:10264000E020D3F8E03003F008030393039B03F08A
:1026500023FF0FB030BD264B09A92846D3F8E02050
:1026600042F01002C3F8E020D3F8E03003F010038A
:102670000493049B03F010FF0FB030BD1C4B09A95D
:102680002846D3F8E02042F02002C3F8E020D3F837
:10269000E03003F020030593059B03F0FDFE0FB02F
:1026A00030BD134B09A92846D3F8E02042F0400280
:1026B000C3F8E020D3F8E03003F040030693069B14
:1026C00003F0EAFE0FB030BD094B09A92846D3F844
:1026D000E02042F08002C3F8E020D3F8E03003F0BD
:1026E00080030793079B03F0D7FE0FB030BD00BFF8
:1026F0000044025838B5054601F026FF0446284636
:1027000001F02AFF01462046BDE8384004F0CCB86D
:1027100070B506460D4601F017FF0446304601F03D
:102720001BFF2A1E0146204618BF0122BDE870404B
:1027300004F0C0B80023122270B586B0CDE90223A0
:1027400004930368032B01D804230593061D841DFD
:10275000304601F0F9FE0546304601F0FDFE034625
:1027600001A92846019303F097FE204601F0ECFEF4
:10277000034620461C4601F0EFFE01A90346204611
:10278000019303F089FE06B070BD00BF634A036881
:10279000934210B58CB028D0614A934258D0614A18
:1027A000934200F09480604A934201D00CB010BD77
:1027B0005E4C5F48D4F8E03043F00203C4F8E030E8
:1027C000D4F8E03003F002030A930A9BFFF7B2FF4C
:1027D000D4F8F43043F08003C4F8F430D4F8F43083
:1027E00003F080030B930B9BE0E7504C5148D4F867
:1027F000E03043F00203C4F8E030D4F8E03003F0F6
:1028000002030193019BFFF795FFD4F8E830002203
:102810001F2043F400131146C4F8E830D4F8E83020
:1028200003F400130293029BD4F8D83043F0010361
:10283000C4F8D830D4F8D83003F001030393039BD5
:1028400002F0AEFD1F200CB0BDE8104002F0E6BD66
:10285000364C3948D4F8E03043F08003C4F8E03017
:10286000D4F8E03003F080030493049BD4F8E03004
:1028700043F00203C4F8E030D4F8E03003F0020380
:102880000593059BFFF756FFD4F8E830002221207E
:1028900043F480031146C4F8E830D4F8E83003F478
:1028A00080030693069BD4F8D83043F00103C4F8A4
:1028B000D830D4F8D83003F001030793079B02F017
:1028C0006FFD21200CB0BDE8104002F0A7BD1B48F1
:1028D000FFF730FF154B00224820D3F8E84011469F
:1028E00044F40004C3F8E840D3F8E84004F40004DA
:1028F0000894089CD3F8D84044F00104C3F8D840A9
:10290000D3F8D83003F001030993099B02F048FD86
:1029100048200CB0BDE8104002F080BD00540040DB
:1029200000580040005C0040001C00580044025861
:10293000981B002410190024E8190024C01A002450
:102940002DE9F0431A4B87B000254FF010099E4641
:10295000EC46184BFF22E04667461A700EF1180647
:102960000EF13004CDE90055CDE90255ADF80090E7
:10297000BCE80F00CDE90455AEE80F009CE8030069
:102980000095ADF800908EE80300B8E80F000FC680
:102990009CE803000095ADF8009086E803000FCF97
:1029A0000FC49CE8030084E8030007B0BDE8F0838F
:1029B000340000240C19002410B5EFF3108472B613
:1029C000084B1A78120602D504B962B610BD1B78FE
:1029D000D82205485BB202FB0300143003F00AFA68
:1029E000F2E700BF0C19002410190024014804F07C
:1029F000F9BD00BF9C190024014804F0F3BD00BFDD
:102A0000741A0024014804F0EDBD00BF4C1B0024E3
:102A10002DE9F0430F68D8243F4D85B007FB04F43F
:102A2000032F05EB0403036040DCCB680E46012B4B
:102A30003CD84DD04FF0D808B646DFF8FC9008FBE4
:102A40000758BEE80F00C446ACE80F00DEF80030BF
:102A50000DF1100ECCF80030D8F808C099E80F003E
:102A60000EE90F000EEB8703BCF1010F53F8103C89
:102A7000C8F88C3031D0BCF1020F42D0BCF1000F4D
:102A800035D0317C8C34D823002201202C4403FB28
:102A900007534900C3E92602C3F894102046C3E94E
:102AA0002822C3E92A2204F08FFB18B1012005B0C7
:102AB000BDE8F0830146204604F0A0FD0028F5D1D2
:102AC0000146204604F0C4FD003818BF0120EEE79F
:102AD0000B7C103B672BADD9E8E701F017F80F4BE3
:102AE00098420CBF0E4B0F4BC8F89030C9E701F06D
:102AF0000DF80A4B98420CBF0B4B0C4BC8F89030AA
:102B0000BFE701F003F8054B98420CBF084B094B97
:102B1000C8F89030B5E700BF10190024000E270751
:102B20002D0FB0303211D0205F4390608A62E030C8
:102B3000200BA0101A098010644401082DE9F0410F
:102B4000D0F8008082B00D4617461E4608F18C046E
:102B5000204604F04FFD2028FAD1D8F80C3073B984
:102B60006D002046089C33463A46A9B2009404F012
:102B700081FB003818BF012002B0BDE8F081089B3E
:102B800032463946204604F049FCF2E7044B102255
:102B90001A7483F8E82083F8C02183F898227047DC
:102BA0001019002430B5002395B04FF4807106222F
:102BB00004460B9306921393CDE90C13CDE90E3323
:102BC000CDE9113300F0A4FF07282BD004F1100544
:102BD00041F2883206A9284605F08CFC28B1012371
:102BE000184684F85C3015B030BD0222022306A9D5
:102BF0002846CDE9002310220123CDE9022300223B
:102C00004FF48003CDE9042305224FF08073069230
:102C10006A460F9341F2883305F0D8FD0028DED1D3
:102C200015B030BD0323012084F85C3015B030BDF1
:102C300070B50023A4B04FF080724FF48075044645
:102C4000ADF806300D93CDE910320122CDE90E53D7
:102C5000CDE91223CDE91433002943D0F02300F14C
:102C6000100508AEADF80630C02341F28832314677
:102C70002846089305F03EFC28B10123184684F845
:102C80005C3024B070BD41F288320DF10601284657
:102C900005F09AFC03460028EFD105224FF480711D
:102CA0001E93284616924FF080721B9321931F9219
:102CB00002AA9FED1F7BCDE91C13CDE922338DEDD8
:102CC000027B9FED1D7B41F2883316A98DED047BBD
:102CD0009FED1B7B8DED067B05F078FD0028CCD1A8
:102CE00024B070BD00F1100508AE612341F28832B6
:102CF00031462846089305F0FDFB0028BDD141F27E
:102D000088320DF10601284605F0DCFC0028B4D11C
:102D1000BDF80630204623F0780343F04003ADF8B9
:102D20000630FFF73FFF00289ED0A6E7AFF30080F4
:102D30000000000001000000100000000100000081
:102D400000000000000040002DE9F04F00234FF488
:102D5000807501264FF0807804462DED028BABB0D4
:102D60008DF8073013932193299314950E96CDF87F
:102D70005C80CDE91533CDE91863CDE91A33CDE98F
:102D80002253CDE92433CDE9273306231C9300F0E9
:102D9000BFFE072808D004F1100741F288321CA9B1
:102DA000384605F0A7FB40B10123184684F85C3093
:102DB0002BB0BDEC028BBDE8F08F4FF0020A4FF054
:102DC000020B4FF0050941F2883308AA1CA93846C6
:102DD000CDF89480CDF870909FED2D8BCDE908ABA8
:102DE0004FF0000A4FF4800B8DED0A8BCDE90CAB50
:102DF00005F0ECFC0028D7D141F2883238460EA904
:102E000005F078FB0028CFD1402341F288320DF144
:102E1000070138468DF8073005F0D6FB0028C3D1EE
:102E200041F288330EA902AA3846CDF83890CDF881
:102E30005C809FED197B8DED048BCDE906AB8DEDAC
:102E4000027B05F0C3FC03460028ADD1CDF870909D
:102E50004FF00109CDF894804FF00008219308AAA3
:102E600029931CA938462295CDE92333CDE9273390
:102E700041F288338DED0A8BCDE90CABCDE90889A1
:102E800005F0A4FC002893D0304684F85C608FE7FE
:102E900010000000010000004000000040000000A1
:102EA0002DE9F043624CA3B00D46046000F030FE03
:102EB000072800F0A980286823466968AA6807C324
:102EC0001E46AB8926F8043B3046257B677B05F020
:102ED000F3FAE0B9574B012D4FF00108E06123618F
:102EE00014BF4FF480134FF40003C4E9058893FA2C
:102EF000A3F3B3FA83F34FF48079013BC4F8249031
:102F0000C4E90B003046236205F06AFA38B10122A9
:102F1000134684F85C20184623B0BDE8F08366238E
:102F20000B90139041F2883206A90693CDE90C90DC
:102F3000CDE90E00CDE91100304605F0DBFA00289E
:102F4000E5D1992341F2883206A93046069305F06F
:102F5000D1FA0028DBD105231C9019906A461493FE
:102F60004FF08073219014A91D9341F288339FED97
:102F70002A7BCDE91A90CDE91F008DED007B9FEDF6
:102F8000287B30468DED027B9FED277B8DED047B0A
:102F900005F01CFC0028BAD129462046FFF748FE60
:102FA0000028B4D12046FFF7CFFE03460028AED15B
:102FB000002FB0D1189330460027002606AA14A986
:102FC000CDF86890CDE91F33EB2314934FF44063A1
:102FD0001B934FF4005317934FF440431C93A023CB
:102FE0001693062319934FF0805321934FF04073AB
:102FF000CDE906671D9305F061FC034600288AD0E1
:10300000434684F85C8086E701230322184684F84F
:103010005C2023B0BDE8F083000000000100000048
:10302000100000000100000000000000000040004F
:10303000701C0024005000522DE9F04F8FB0414B1E
:103040000024026800AF9A427C63C7E90944C7E9DB
:103050000B4403D03C37BD46BDE8F08F3A4B40F6F9
:1030600009213A48EB46D3F8D42007F11C0607F1B2
:10307000220A4FF0020942F480424FF00308C3F8DD
:10308000D420D3F8D42002F48042BA60BA68D3F8CE
:10309000E02042F04002C3F8E020D3F8E02002F044
:1030A0004002FA60FA68D3F8E02042F02002C3F848
:1030B000E020D3F8E02002F020023A613A69D3F828
:1030C000E02042F01002C3F8E020D3F8E02002F044
:1030D00010027A617A69D3F8E02042F00202C3F864
:1030E000E020D3F8E030F86103F002033984BB61DB
:1030F000174B7B60BB697B6853F8040F7B6001F062
:1031000023FA7B680546186801F026FA16F8013B99
:10311000786207F124012846C7F830807B63C7E94D
:103120000A9403F0B9F95645E5D100225C20114616
:1031300002F036F95C2002F071F93C37DD46BD46FD
:10314000BDE8F08F00500052004402580A0A0909F5
:10315000CC1C0024114B02689A4200D07047104AE0
:1031600070B5D2F8D4300F4C23F4804304F1180624
:10317000C2F8D43054F8040F01F0E6F9054620688F
:1031800001F0EAF90146284603F0C6FAB442F1D14B
:103190005C20BDE8704002F04FB900BF0050005203
:1031A00000440258CC1C0024014805F013BC00BFA9
:1031B000801C0024084B1A1D981D03F1080110B44F
:1031C0009C1C9A6603F10A02C3E91834C3E91B0187
:1031D0005DF8044B5A677047701C002438B50368CB
:1031E00071B9026A00F1280500F5AC74012A0CBF20
:1031F000002140218BBB1D4B5722C0F858310DE0F8
:10320000426A00F1C00500F5E874012A0CBF0021F4
:103210004021EBB1164B5A22C0F8D0310023204692
:10322000C4E901214FF480524FF48061636262610E
:103230004FF48042C4E903314FF48073C4E906239C
:103240004FF40033236202F05DFA58B1FFBEFEE78F
:10325000084B5822C0F8D031E0E7074B5922C0F89C
:103260005831DBE7C5E92044A56338BD10000240B2
:103270007000024028000240580002402DE9F0434F
:10328000821D05468BB0031D05F10A010830CDE90A
:10329000052305F10C02AB69CDE907010992002B6A
:1032A0003DD0EB69B3FA83F84FEA581801230222A4
:1032B00005AE0AAF4FF006090393CDE9012356F896
:1032C000044B2B792278934216D02B68F3B1012B53
:1032D00002D1F2B10A230493204601F03DF90346DE
:1032E0002046009301F030F9694603F0D5F8BE425C
:1032F000E5D10BB0BDE8F083697963789942E4D1F8
:10330000B8F1000FF3D02B68002BE0D1CDF810906E
:10331000E2E76378022B14BF0A230823DBE74FF0B0
:103320000108C3E7534A0368934230B505468BB0A2
:1033300055D02032934252D04F4A934204D020328B
:10334000934201D00BB030BD4C4C4D48D4F8E03026
:1033500043F00103C4F8E030D4F8E03003F0010397
:103360000593059BD4F8E03043F00803C4F8E0303F
:10337000D4F8E03003F008030693069BD4F8E0305D
:1033800043F04003C4F8E030D4F8E03003F04003E9
:103390000793079BD4F8F03043F40003C4F8F030EF
:1033A000D4F8F03003F400030893089BFFF766FF9E
:1033B000D4F8D830296843F001032F4A3048C4F8C4
:1033C000D830891AD4F8D83018BF012103F001038E
:1033D0000993099B0BB0BDE83040FFF7FFBE274CB7
:1033E0002848D4F8E03043F00103C4F8E030D4F8C2
:1033F000E03003F001030093009BD4F8E03043F089
:103400001003C4F8E030D4F8E03003F01003019367
:10341000019BD4F8E03043F04003C4F8E030D4F826
:10342000E03003F040030293029BD4F8F03043F401
:103430008003C4F8F030D4F8F03003F48003039331
:10344000039BFFF71BFFD4F8D830296843F0010332
:10345000084A0C48C4F8D830891AD4F8D83018BFB4
:10346000012103F001030493049B0BB0BDE830403D
:10347000FFF7B4BE04580140045C01400044025808
:10348000441F0024E81C0024014802F0B3BC00BF24
:10349000401E0024014802F0ADBC00BFB81E00244D
:1034A000014802F0A7BC00BF9C200024014802F0A4
:1034B000A1BC00BF142100242DE9F04F0C684FF48B
:1034C0001776754F87B004FB06F6012C07EB060A4A
:1034D000C0F800A000F3A0800D468E464FF0000813
:1034E000D44669A3D3E9002369A1D1E90001CDE95C
:1034F000022306ABCAF8508203EB8403CDE9040132
:1035000053F810BC53F8083CCAE992880193BEE80E
:103510000F00ACE80F00BEE80F00ACE80F00019B05
:103520009EE80300CAF828B0CAF8C0308CE803004F
:103530002B69042B0CD8DFE803F0737D879103001F
:103540004FF41773554A03FB04739A64C3F8E020E1
:10355000AA692B6A002A43D0002B4FF4177308BFC7
:10356000022203FB047318BF0322DA6201221A63EA
:10357000EA696B6A002A40D1191E4FF4177318BF0D
:10358000012103FB0473C3E931126B69022B05D8D7
:10359000434A12F80380434A52F823904FF41773BA
:1035A00006F128004246494603FB047400233844D0
:1035B00063646363E365C4F8DC30C4F8CC30C4F8FA
:1035C000F430C4E90F33C4E91533C4E93533C4E931
:1035D0003B33022307F0A0FA002849D0FFBEFEE7E4
:1035E000191E4FF4177318BF012103FB0473C3E9BD
:1035F0000B12EA696B6A002ABED0002B4FF41773D6
:1036000008BF022203FB047318BF0322C3F8C420BF
:103610000122C3F8C820B8E7012007B0BDE8F08F49
:103620004FF417734FF4FA5203FB04739A64C3F810
:10363000E0208DE74FF417734FF47A5203FB0473C5
:103640009A64C3F8E02083E74FF417734FF4FA420B
:1036500003FB04739A64C3F8E02079E74FF417730F
:103660004BF6803203FB04739A64C3F8E0206FE7E3
:1036700006F1C000022342464946384407F04CFA9E
:103680000028CAD0FFBEFEE704580140045C014098
:1036900024580140245C0140E81C0024007701000C
:1036A000384501083C4501080068704703681B69FC
:1036B000042B05D8044A02EB830393ED000A7047FC
:1036C0009FED020A704700BF4845010800803B4754
:1036D000704700BF08B501F047F8BDE8084001F0A9
:1036E00027BF00BF064808B503680BB103F0E6F832
:1036F000044803681BB1BDE8084004F08DB808BD5C
:10370000C04B0024B8450024064808B503680BB137
:1037100003F0D4F8044803681BB1BDE8084004F086
:103720007BB808BDC04B0024B8450024064808B546
:1037300003680BB103F0C2F8044803681BB1BDE88D
:10374000084004F069B808BDC04B0024B845002407
:10375000364BDA6A520062D59A6A9A6A9A6A9B6A0A
:10376000180600D500BE314B9B6A990600D500BEF5
:103770002E4B9B6ADA0600D500BE2C4B9B6A1B07BA
:1037800000D500BE294B9B6A980700D500BE274B89
:103790009B6AD90700D500BE244B9B6A1A0400D54A
:1037A00000BE224B9B6A9B0400D500BE1F4B9B6A48
:1037B000D80400D500BE1D4B9B6A190500D500BE7C
:1037C0001A4B9B6A5A0500D500BE184B9B6A9B0595
:1037D00000D500BE154B9B6AD80500D500BE134B23
:1037E0009B6A990100D500BE104B9B6ADA0100D597
:1037F00000BE0E4B9B6A1B0300D500BE0B4B9B6AA1
:10380000580300D500BE094B9B6A990300D500BE42
:10381000064B9B6ADA0306D400BE00BEFEE7DB6AF5
:103820009B07FAD5F8E700BEF6E700BF00ED00E021
:1038300000F0A6BF00F0AABF2DE9F041CEB00446CB
:103840004C2200210AA80DF005FF2022002102A829
:103850000DF000FFBC2200211EA80DF0FBFE02208F
:1038600004F0D6FC2368012B4FF0000354D0534AD8
:1038700002250193C820D16A514B21F00101D16288
:10388000D26A02F0010201929A6942F440429A61BE
:103890009B6903F440430193019B494A93699B044C
:1038A000FCD548490224002201268B6A04274FF0E8
:1038B000080823F0030323438B62052316900AA80C
:1038C00018934FF480331096179419941597CDF8E8
:1038D0006880CDE91B222122CDE91344CDE90A23DA
:1038E00005F080F900B1FEE73F220323294602A834
:1038F000CDE9022300220823CDE9042340224023FE
:10390000CDE9062340234FF48062CDE9082305F07A
:1039100097FC0346B8B1FEE7294A04250093F0203E
:103920009169264B41F440419161926902F4404211
:103930000092DA6A42F00102DA62DB6A03F0010304
:103940000093009BA9E720224FF4805125934FF468
:1039500040152B9280222D931EA8309326913591ED
:103960004FF48071249234920C223394439140F2AC
:10397000271120921022CDF884802A971F96CDE936
:103980002E34CDE93B334FF48033CDE922463193D9
:10399000002446930623CDE93E4527934FF48063E8
:1039A000094C2C931E94CDE9281205F0A5FE00B118
:1039B000FEE704F053FC4EB0BDE8F081000400586F
:1039C00000480258004402580F130F032DE9F0413C
:1039D0000D46044684B0D1E9000184E8030000F0FC
:1039E00093FEAE79002E37D06F460AF0CDFFFEF77A
:1039F000A7FF09F0A3FC0AF05BFD2B79002B54D143
:103A00006B799BB1BFF34F8FBFF36F8F3C4B00229D
:103A1000C3F85022BFF34F8FBFF36F8F5A6942F440
:103A200000325A61BFF34F8FBFF36F8F4FF0FF32F9
:103A30000023002400253946324802928DF80C30CC
:103A4000CDE900450AF09AF82E480AF0FFF809F08F
:103A5000A5F804B0BDE8F08120466F46FFF7ECFE04
:103A6000012401F013FD4FF040534FF480783846A5
:103A70000193254BADF80040CDE9023801F024FD5B
:103A800019224FF0404338468DF80F40ADF80D80B5
:103A90008DF801408DF80A608DF80820019301F03F
:103AA00013FD042001F000FD9FE7154C0023C4F82E
:103AB0008430BFF34F8FD4F8803043F6E07EC3F3F9
:103AC000C906C3F34E334FEA431C0CEA0E003346DB
:103AD00040EA8372013BC4F860225A1CF8D1ACF171
:103AE000200C1CF1200FF0D1BFF34F8F636943F41A
:103AF00080336361BFF34F8FBFF36F8F80E700BFE9
:103B000000ED00E0A02100240E00010305F0C8BC78
:103B10001C4B9B6803F17842B2F5003F25D3B3F507
:103B2000803F20D303F16042B2F5003F1FD303F181
:103B30005C42B2F5002F1CD303F17042B2F5902F16
:103B400019D303F14842B2F5803F16D303F1804206
:103B5000B2F1806F13D303F1E043B3F5000F2CBF34
:103B6000082007207047012070470020704702207E
:103B700070470320704704207047052070470620D7
:103B8000704700BF00ED00E003480023034A0449EA
:103B900003600DF0FBBC00BFA02100240000002446
:103BA000D136000810B4204C0022204B83B0D4F84A
:103BB00088101F4841F47001C4F8881019681D4C22
:103BC00041F0010119601A61196808401A4918602A
:103BD0009A61DA611A629A62DA621A635A639A63C4
:103BE000DA631A645A64186820F4802018601A6630
:103BF000D3F8DC2042F06042C3F8DC20D3F8DC309C
:103C00000193019B23681940B1F1005F03D20B4B74
:103C10000122C3F80821044B4FF000629A6003B000
:103C20005DF8044B704700BF00ED00E0004402580F
:103C30007FEDF6EA0010005C0000FFFF00800051FD
:103C4000704700BF0020704770B50446074E0D4610
:103C50003046214608F0B8FA304608F0D7FA044B4F
:103C6000204629461B689847002070BD901100240B
:103C7000A441002470B50446074E0D463046214647
:103C800008F0A2FA304608F0C1FA044B2046294653
:103C90001B689847002070BD2C140024A841002404
:103CA00000220949094808B508F084FA084907487C
:103CB00008F08AFA074B1A680AB1002008BD064AC4
:103CC00000201A6008BD00BFA43100249011002418
:103CD000A4210024A4410024413C000800220949F9
:103CE000094808B508F066FA0849074808F06CFA70
:103CF000074B1A680AB1002008BD064A00201A6066
:103D000008BD00BFA43900242C140024A4290024D9
:103D1000A8410024413C000820280AD0212806D1CF
:103D2000094B18689A889B7908608A808B710020FB
:103D30007047054B0868B1F804C08A791860002004
:103D4000A3F804C09A717047A400002420280AD068
:103D5000212806D1094B18689A889B7908608A80C7
:103D60008B7100207047054B0868B1F804C08A7950
:103D700018600020A3F804C09A717047AC000024BA
:103D80000020704710B5094CD4F89032D3F81432A3
:103D90000BB1012010BD0A460146204608F00AFA80
:103DA0002046BDE8104008F017BA00BF901100246B
:103DB0004B4A036830B593428BB04FF00004CDE915
:103DC0000444CDE90644089404D0464A934249D0BD
:103DD0000BB030BD444D4FF4C0524448D5F8E030EC
:103DE00043F00103C5F8E030D5F8E03003F00103FB
:103DF00000930223009904A9CDE904230A23089320
:103E000002F04AFB4FF40072002304A937480694DD
:103E1000CDE9042302F040FBD5F8D83022462146F4
:103E200043F000636220C5F8D830D5F8D83003F0ED
:103E300000630193019B01F0B3FA622001F0EEFAF6
:103E400022462146632001F0ABFA632001F0E6FA36
:103E500022462146652001F0A3FA652001F0DEFA32
:103E60000BB030BD204D4FF4404204A9D5F8E030EE
:103E700043F00203C5F8E030D5F8E03003F0020368
:103E80000293022302981A48CDE904230C230893D5
:103E900002F002FBD5F8D830224621464A2043F0F2
:103EA0000073C5F8D830D5F8D83003F00073039309
:103EB000039B01F075FA4A2001F0B0FA2246214630
:103EC0004B2001F06DFA4B2001F0A8FA2246214662
:103ED0004D2001F065FA4D2001F0A0FA0BB030BD85
:103EE000000008400000044000440258000002584E
:103EF0000004025800F57171D0F8040408F0F2B91A
:103F0000C1EBC10300EB8303D0F80404D3F808220B
:103F100008F016BAC1EBC10300EB8303D0F8040428
:103F20009A6C08F04BBA00BFD0F8040408F0EABA63
:103F3000C16810B5044619B1022900D0FEE701217D
:103F4000D4F8040408F0C8FAD4F80404BDE810401A
:103F500008F09ABA10B50446D0F8040408F0C0FA84
:103F60002268D2F8003E43F00103C2F8003E236A03
:103F700023B1034A136943F00603136110BD00BF68
:103F800000ED00E0D0F8040408F0B4BAD0F804045E
:103F900008F0C8BAD0F8040408F0C2BAD0F8040493
:103FA00008F0C2BAD0F8040408F0C0BA70B50678B8
:103FB00004461EB1012E30D0002070BD304D0923C3
:103FC000304AC5F80404C0F8985228462E612E6382
:103FD000C5E9002302230222EB600023C5E9062382
:103FE00000220023C5E9082301220123C5E90A2391
:103FF00003F05AFB00B1FEE78021284604F0E8F800
:1040000031464022284604F0B9F880220121284692
:1040100004F0B4F82678012ECED11B4D09221B4B9B
:1040200000216A6002222B600223C5F8044428465E
:10403000EB600023C4F898522961C5E906230022E9
:104040000023C5E90823C5E90C2301220023C5E9A3
:104050000A2303F029FB044600B1FEE74FF4007188
:10406000284604F0B5F821468022284604F086F858
:104070004FF4BA723146284604F080F89CE700BF3E
:10408000B041002400000840B8450024000004406E
:10409000D0F8980208B503F09DFB032802D8024B24
:1040A000185C08BD022008BD6C4501089446D0F894
:1040B00098021A4608B5634603F012FF032802D897
:1040C000024B185C08BD022008BD00BF6C4501080A
:1040D000D0F8980208B503F041FF032802D8024B3C
:1040E000185C08BD022008BD6C450108D0F8980294
:1040F00008B503F0C3FF032802D8024B185C08BDC3
:10410000022008BD6C450108D0F8980208B503F0FC
:10411000F9FF032802D8024B185C08BD022008BD35
:104120006C4501080A06D0F8983206D4C1EBC101EB
:1041300003EB810191F8FE01704701F07F01C1EBB3
:10414000C10103EB810191F83E007047D0F898025D
:1041500008B503F0AFFE032802D8024B185C08BD77
:10416000022008BD6C450108D0F8980208B503F09C
:104170005DFF032802D8024B185C08BD022008BD71
:104180006C450108D0F8980208B503F01DFF03281C
:1041900002D8024B185C08BD022008BD6C4501081E
:1041A000D0F8980203F038BF122301480B80704703
:1041B00000010024122301480B807047EC0000240A
:1041C000042301480B8070471401002410B5044CEF
:1041D0000A460448214608F029FC204610BD00BFCD
:1041E000C04900247045010810B5044C0A46044833
:1041F000214608F01BFC204610BD00BFC04900242A
:104200008045010810B5044C0A460448214608F0D0
:104210000DFC204610BD00BFC04900249445010894
:1042200010B5044C0A460448214608F0FFFB20461E
:1042300010BD00BFC0490024A045010810B5044CC2
:104240000A460448214608F0F1FB204610BD00BF95
:10425000C0490024B0450108042301480B80704781
:104260001401002410B5044C0A460448214608F005
:10427000DDFB204610BD00BFC04900247045010889
:10428000464A4FF01A0CD2F80008D2F80838A1F8C4
:1042900000C0C31801D142487047180FB3F1204F36
:1042A000D2F804184FF0000C3D4A2CBF37303030A4
:1042B00082F803C04FF0000C9070C3F3036082F8E3
:1042C00005C04FF0000C092882F807C04FF0000C21
:1042D0008CBF3730303082F809C04FF0000C1071BD
:1042E000C3F3035082F80BC04FF0000C092882F88A
:1042F0000DC08CBF373030309071C3F303400928B4
:104300008CBF373030301072C3F3033009288CBFB4
:10431000373030309072C3F3032009288CBF373018
:1043200030301073C3F3031003F00F0309288CBF60
:1043300037303030092B90734FF0000094BF30338A
:104340003733B1F1204FD07313744FEA11734FF02C
:1043500000002CBF37333033507400209374C1F306
:104360000363D0740020092B50754FF000008CBF00
:1043700037333033D0751375C1F303530848092B15
:104380008CBF373330339375C1F30343092B94BF8C
:1043900030333733137600235376704700E0F11F34
:1043A00018010024464A4FF01A0CD2F80008D2F83F
:1043B0000838A1F800C0C31801D142487047180F4F
:1043C000B3F1204FD2F804184FF0000C3D4A2CBF37
:1043D0003730303082F803C04FF0000C9070C3F3D8
:1043E000036082F805C04FF0000C092882F807C06E
:1043F0004FF0000C8CBF3730303082F809C04FF0DE
:10440000000C1071C3F3035082F80BC04FF0000C86
:10441000092882F80DC08CBF373030309071C3F35B
:10442000034009288CBF373030301072C3F303309B
:1044300009288CBF373030309072C3F3032009282D
:104440008CBF373030301073C3F3031003F00F0309
:1044500009288CBF37303030092B90734FF00000A3
:1044600094BF30333733B1F1204FD07313744FEA18
:1044700011734FF000002CBF3733303350740020DD
:104480009374C1F30363D0740020092B50754FF06F
:1044900000008CBF37333033D0751375C1F303532D
:1044A0000848092B8CBF373330339375C1F303436E
:1044B000092B94BF3033373313760023537670477C
:1044C00000E0F11F1801002410B5044C0A4604480E
:1044D000214608F0ABFA204610BD00BFC0490024B9
:1044E000A045010810B5044C0A460448214608F0CE
:1044F0009DFA204610BD00BFC04900249445010824
:10450000D0F8C00208F004BBD0F8C00208F018BB15
:10451000D0F8C00208F020BB704700BFD0F8C0023E
:1045200008F006BBD0F8C00208F006BBD0F8D003F4
:1045300008B502F083FD032802D8024B185C08BDC1
:10454000022008BDC4450108024B027853F822003E
:10455000704700BFE8450108024B427833F812006B
:10456000704700BFC84501088CB00A2814D8DFE89E
:1045700000F01523313F4D5B6977859306004D4B65
:10458000D3F8E02042F48062C3F8E020D3F8E030B2
:1045900003F480630B930B9B0CB07047454BD3F82F
:1045A000E02042F00102C3F8E020D3F8E03003F04D
:1045B00001030193019BEFE73E4BD3F8E02042F06B
:1045C0000202C3F8E020D3F8E03003F002030293C4
:1045D000029BE1E7374BD3F8E02042F00402C3F836
:1045E000E020D3F8E03003F004030393039BD3E708
:1045F000304BD3F8E02042F00802C3F8E020D3F8B3
:10460000E03003F008030493049BC5E7294BD3F87B
:10461000E02042F01002C3F8E020D3F8E03003F0CD
:1046200010030593059BB7E7224BD3F8E02042F037
:104630002002C3F8E020D3F8E03003F02003069313
:10464000069BA9E71B4BD3F8E02042F04002C3F8D9
:10465000E020D3F8E03003F040030793079B9BE78B
:10466000144BD3F8E02042F08002C3F8E020D3F8E6
:10467000E03003F080030893089B8DE70D4BD3F8DF
:10468000E02042F48072C3F8E020D3F8E03003F475
:1046900080730993099B7FE7064BD3F8E02042F42F
:1046A0000072C3F8E020D3F8E03003F400730A93FB
:1046B0000A9B71E700440258704700BF0F4B1B78FC
:1046C0000BB90120704710B504464FF47A700C4ABC
:1046D000B0FBF3F31068B0FBF3F000F0C1FE0F2C59
:1046E00000D808B1012010BD002221464FF0FF3054
:1046F00000F056FE034B00201C6010BD3201002468
:104700007C0000243401002438B50320124D00F051
:1047100035FE124C04F0F4FC114A12499369C3F3BC
:104720000323CB5C03F01F0320FA03F30E202B605E
:10473000926902F00F028A5C02F01F02D3402360EC
:10474000FFF7BCFF10B10124204638BD0446FFF737
:10475000B3FF204638BD00BF7C0000248000002449
:10476000004402585C450108034A044B11681B7859
:104770000B441360704700BF844E002432010024B4
:10478000014B1868704700BF844E002438B50446BA
:10479000FFF7F6FF0546631C02D0044B1B781C4450
:1047A000FFF7EEFF431BA342FAD338BD32010024CA
:1047B000014B1868000C70470010005C704700BF88
:1047C000806B08B5FFF7FAFF08BD00BF836B5A6D19
:1047D00012F0500F5A6D10B51DD1196842F40072D5
:1047E0005A650A6812F0080FCA681BD012F4406FAD
:1047F0000DD1CA6894040AD45A6D22F480725A65A5
:104800005A6DD10403D45A6D42F001025A6518461C
:10481000FDF7EEFD10BDD2060AD4DB6CBDE81040FA
:10482000DB6C18479007E7D01846FDF7E1FDF1E78C
:104830001846FDF781FE10BD806B08B5436D43F04F
:1048400040034365836D43F004038365FDF774FE05
:1048500008BD00BFF0B5002283B0019290F850204F
:10486000012A00F01C81034601201A6883F85000D9
:104870009468640700F18A800C68C4F31305002D66
:1048800040F08F80C4F38464A0404D684FF01F0E49
:10489000D6694FEA951C30430CF00C0CD06105F042
:1048A0001F0002F1300584400EFA00FE5CF805009E
:1048B00020EA0E0004434CF80540906840076ED48F
:1048C000956815F0080547D10C68072002F1140619
:1048D000B94F4FEAD45CC4F304540CF0040C00FA52
:1048E00004FE886800FA04F45CF8060020EA0E0072
:1048F00020434CF80600386800F07040B0F1805F4B
:1049000000F0C580D068D668C70600F1E880C6F31D
:1049100082064869760000FA06F60F69042F00F057
:10492000C18002F16004086854F827C000F0F84024
:104930000CF0004C40EA0C00304344F82700487E5D
:104940000E69012854F8260008BF4FF0004520F0FA
:104950000040054344F826509068C40714D4CE683C
:10496000086806F01807954CD2F8C050FC40C0F318
:104970001307044025EA07052C43C2F8C040904CB9
:10498000A64246D0002816DB002003E05A6D42F014
:1049900020025A65002283F8502003B0F0BD9068D1
:1049A000DAE794FAA4F5B5FA85F5C4F3846405F062
:1049B0001F05A84069E783498A4200F0B68001F5E7
:1049C00080718A4200F0B1807F4D804CA968A46854
:1049D00001F0E076E44304F00104002C00F0B48020
:1049E0007B4CA04200F0FC807A4CA04200F01A817F
:1049F000794CA042C8D14902C6D474498A42C3D175
:104A0000AA68002022F0E072324342F48002AA60D9
:104A1000C0E7002F6AD090FAA0F4B4FA84F401340D
:104A200004F01F04092C00F2A48090FAA0F4B4FA58
:104A300084F490FAA0F5B5FA85F501340126013524
:104A4000A40605F01F0504F0F84406FA05F52C430A
:104A500090FAA0F0B0FA80F0304400F01F0000EBB4
:104A6000400000052043C60D02F11405C0F30450B8
:104A7000072406F0040604FA00F7745924EA070430
:104A80008F6807FA00F02043705108687AE7D6680B
:104A90004869C6F38206760000FA06F63DE7022072
:104AA00003B0F0BD106E0C6800F0F840A506B0EB46
:104AB000846F30D0506E00F0F840854226D0906E62
:104AC00000F0F84085422BD0D06E00F0F8408542CF
:104AD0007FF442AFD06E20F00040D0663CE776080D
:104AE000486906F0080600FA06F616E7800E441C30
:104AF00004F01F06092E2DD8A406012004F0F84466
:104B0000B040044306EB46000005ABE7506E20F0D2
:104B100000405066D3E7106E20F000401066C9E7F1
:104B2000906E20F000409066CEE7264C2B4D04F5A9
:104B30008074A96854F8F86CA468344301F0E076F6
:104B4000E44304F0010448E75A6D012042F02002DA
:104B50005A651FE706EB4600A50601241E3805F03E
:104B6000F84504FA06F60005354340F00070284386
:104B700079E790FAA0F5B5FA85F590FAA0F4B4FAC1
:104B800084F4013501260134AD0604F01F0405F05C
:104B9000F84506FA04F4254390FAA0F4B4FA84F434
:104BA000344404F01F0404EB4404A4F11E00000587
:104BB00040F00070DBE700BF0010005CFFFF0F005B
:104BC0000000FF47002002400063025800600258C6
:104BD000000084CB000052C70000B8CF0023024081
:104BE00008023FF5D1AE17498A427FF4CDAE164A8E
:104BF000A9681268154821F0E07192093143A0FBC1
:104C0000020241F400019209A96052000192019A46
:104C1000002A3FF4B9AE019A013A0192019A002AA2
:104C2000F9D1B1E611F080707FF4AEAE05498A4249
:104C30007FF4AAAEAA6822F0E072324342F080729A
:104C4000AA60A7E6006002587C000024632D3E05A0
:104C500003689A68D20701D5002070479968214AF5
:104C6000114270B5044608D0636D012043F0100373
:104C70006365A36D0343A36570BD99681A4A0A4032
:104C800042F001029A60FFF77BFD2368174A054650
:104C900093421ED002F5807293421AD0144A926851
:104CA000114E0AE09A68324042F001029A60FFF722
:104CB00067FD401B0228D7D823681A68D2070FD493
:104CC0009A68D107EED5FFF75BFD401B0228F3D9A8
:104CD000CAE7084A9268D006E2D0074A9342DFD179
:104CE000002070BD3F000080C0FFFF7F0020024019
:104CF0000063025800230240002102402DE9F041E8
:104D00003A4D044600680F461646A84219D0384B63
:104D1000984216D0374DAB688068420716D494F895
:104D20005020012A12D003F01F080122B8F1090F08
:104D300084F850200DD90023012084F85030BDE8BC
:104D4000F0812D4DAB6880684207E8D50220BDE8B0
:104D5000F08140F2212323FA08F3DB4313EA020532
:104D6000E9D12046FFF774FF002839D1626D234B4B
:104D70002168134043F480736365B8F1000F02D0DB
:104D80001B4B994203D0636D23F480136365636DFD
:104D900013F4805328D0A36D23F00603A365E06CC1
:104DA0003346174D3A464031C563164D0564164DDE
:104DB000C5641C2541F8405C002584F8505051F82A
:104DC0003C5C45F0100541F83C5C00F059FE22685F
:104DD0000E4B91680B4043F004039360BDE8F081F3
:104DE00084F85050BDE8F081A365D8E70020024068
:104DF000002102400063025800230240FEF0FFFF42
:104E0000CD470008C147000839480008C0FFFF7FB0
:104E100038B503689A68910702D59B68002038BDB1
:104E20009A68D20723D59A68044602F00D02012A37
:104E300008D0636D012043F010036365A36D034345
:104E4000A36538BD986803210A4A024042F0020275
:104E50009A601960FFF794FC054604E0FFF790FCA8
:104E6000401B0228E5D823689B68DB07F6D40020A6
:104E700038BD00BFC0FFFF7F38B5574A04460368FE
:104E8000934226D002F58072934222D0534B9B6806
:104E900013F4403F22D004F0EDFA63680546B3F501
:104EA000003F00F08880B3F5403F70D0B3F5803FFD
:104EB00000F08180FFF77CFC41F2030398422DD87B
:104EC000474B9D425DD92268936843F48073936099
:104ED00038BD444B9B6813F4403FDCD14FF40020B5
:104EE00005F094FB63680546B3F5101F6DD008D834
:104EF000B3F5E01F55D01AD9B3F5001FDAD1450933
:104F0000D8E7B3F5201F4AD0B3F5301FD2D1FFF751
:104F10004FFC41F20303984233D92D0A324B9D4294
:104F20001DD82268936823F44073936038BDB3F5AD
:104F3000801F06D00AD9B3F5A01F02D0B3F5C01F59
:104F4000B8D19B0C5B00B5FBF3F5B3E7B3F5002FCD
:104F5000F7D023F40022B2F5802FF2D0AAE7234B3A
:104F6000234A2B4493421ED9224B234A2B4493427B
:104F7000226893682BD823F4407343F40073936042
:104F800038BD2268936823F48073936038BD850828
:104F9000FFF70EFC41F203039842BFD890E7C50922
:104FA00088E7050986E72268936823F4407343F491
:104FB0008073936038BD1B0CB5FBF3F5FFF7F8FB6E
:104FC00041F203039842A9D87AE7850972E743F4CE
:104FD0004073936038BD00BF002002400063025858
:104FE000002D310100230240105E5F00EFA1A0FF01
:104FF0000F5E5F00DF4341FF1FBCBE0030B50023E2
:1050000083B00193002800F0D080456D0446002D48
:1050100000F0BA80226893689B0003D59168714BB9
:105020000B4093609368DD0015D46F4B90686F4917
:105030001B6801406E489B0941F08051A0FB0303AF
:1050400091609B090193019B2BB1019B013B019353
:10505000019B002BF9D19368D80024D4636D0125FE
:1050600043F010036365A36D2B43A365936813F0AE
:10507000040F636D1DD1D9061BD4636D23F48173B6
:1050800043F0020363659368DB0728D4594B9A42C7
:1050900017D003F580739A4213D0574B9B68D907FA
:1050A0001DD4564A15E09368002513F0040F636D74
:1050B000E1D0636D012543F010032846636503B01A
:1050C00030BD4C4A4E4B92689B681343D80706D4B8
:1050D0004C4A9368616823F47C130B439360FFF799
:1050E00067FB41F20303A1689842237F52D894F8EA
:1050F00015C01A04206B42EA4C3202430A43012BCA
:1051000003D1236A013B42EA4342636A23B103F4B9
:105110007873A16A0B431A4323683B49D86801405E
:105120000A43DA609A6812F0040F9A681CD11207D9
:105130001AD4D868354A217D024042EA8132E16AB8
:105140000A43DA6094F83820012A3AD01A6922F02A
:1051500001021A611A692046616B22F070420A430B
:105160001A61FFF789FE2368E268012A21D01A6BD1
:1051700022F00F021A63636D284623F0030343F005
:105180000103636503B030BDFDF7E0F8A56584F861
:1051900050503FE71029AAD1617D1A0442EA4132FA
:1051A000216B0A4342F01C02A9E70125284603B0FF
:1051B00030BD196BA26921F00F01013A0A431A634D
:1051C000D9E7D4E9102118690A43114901400A437B
:1051D000A16C0A43E16B42EA014242F001021A610A
:1051E000B8E700BFC0FFFF5F7C000024C0FFFF6F77
:1051F000632D3E0500200240006002580063025803
:10520000002102400023024003C0F0FFFCBFFFFF6B
:105210001EF800FCF0B5002383B0019390F85030E5
:10522000012B40D0012304460E46154680F850302D
:10523000FFF7EEFDE8B9676D05F080421B4B06F401
:1052400080311B4D3B401B4F43F0020363652368D5
:105250009E68354015430D4345F000459D609A68B2
:10526000002A0FDB636D23F0030343F00103636542
:1052700003E0636D43F010036365002384F850304E
:1052800003B0F0BD019A01320192019ABA42E6D907
:10529000636D0022012023F0120384F8502043F0B4
:1052A00010036365ECE7022003B0F0BDFDEEFFFFE5
:1052B000C0FFFE3FFF955A55F0B490F850200E689D
:1052C000012A49D00346294A01201C6883F850006E
:1052D000944208D05A6D002142F0200283F8501009
:1052E0005A65F0BC7047224DAA6852070AD5A268D9
:1052F0005A6D012042F020025A65002283F85020A6
:10530000F0BC7047A06810F00400F1D1C6B1DFF81E
:1053100068C04F68DCF8082022F440423A43CCF8D9
:105320000820A468AA682243D40713D48A68DCF84A
:10533000081016430F4A0A401643CCF80860DCE711
:105340000D498A6822F440428A60A068AA68024334
:10535000D00704D50020D0E70220F0BC70478C684D
:105360003046044A22408A60C7E700BF002002405E
:1053700000210240E0F0FFFF0023024006494FF603
:10538000FF0C0002054BCA6800F4E06002EA0C0260
:1053900010430343CB60704700ED00E00000FA05C6
:1053A0001B4BDB68C3F3022300B5C3F1070E03F107
:1053B000040CBEF1040F28BF4FF0040EBCF1060F21
:1053C0001AD9033B4FF0FF3C0CFA03FC22EA0C0213
:1053D0004FF0FF3C00280CFA0EFC21EA0C0101FA08
:1053E00003F141EA02010ADB09010A4BC9B2034495
:1053F00083F800135DF804FB00221346E8E700F091
:105400000F000901044BC9B2034419765DF804FB8F
:1054100000ED00E000E100E0FCEC00E0002807DB2C
:1054200000F01F0101234009024A8B4042F820305E
:10543000704700BF00E100E000280DDB43090122B6
:1054400000F01F000549203302FA00F041F8230064
:10545000BFF34F8FBFF36F8F704700BF00E100E0D5
:10546000431EB3F1807F0CD24FF0E02200200649AA
:105470004FF0F00C5361072381F823C09061136152
:1054800070470120704700BF00ED00E0BFF35F8F61
:10549000044B00215A6A22F480325A62C3F89410F5
:1054A000704700BF00ED00E0064B40F00100C3F87C
:1054B00094005A6A42F480325A62BFF34F8FBFF3AE
:1054C0006F8F704700ED00E0174A4378C2F89830BC
:1054D000017821B3436800B5C2F89C30C37A90F8D4
:1054E0000CC01B0690F80FE043EA0C7390F80AC05A
:1054F0000B43817B43EACC4390F80DC043EA8C43D5
:1055000090F809C043EA4143017A43EA0E4343EA73
:105510000C2343EA4103C2F8A0305DF804FBC2F853
:105520009C10C2F8A010704700ED00E0704700BF6B
:1055300008B5FFF7FBFF08BD0268344B344930B4AF
:10554000344D354CAA4218BF9A420CBF01230023A8
:105550008A4208BF43F001033031A24208BF43F042
:10556000010330348A4208BF43F001033031A242C4
:1055700008BF43F0010330348A4208BF43F00103FF
:1055800001F55C71A24208BF43F0010304F55C74AD
:105590008A4208BF43F001033031A24208BF43F002
:1055A000010330348A4208BF43F001033031A24284
:1055B00008BF43F0010330348A4208BF43F00103BF
:1055C0003031A24208BF43F001038A4208BF43F0D2
:1055D000010313B9114B9A4213D1D3B21049114CA4
:1055E000103BA1FB03515F2B0F4BC1F3021103EAE8
:1055F0000203615C88BF0433C1658365184630BC13
:10560000704722F0FF038365F8E700BF10000240F7
:10561000400002402800024058000240B804024006
:10562000ABAAAAAA1846010800FCFFFF0368294A92
:10563000294930B4294D2A4CAB4218BF93420CBFC4
:10564000012200228B4208BF42F001022831A3420E
:1056500008BF42F0010228348B4208BF42F0010229
:105660002831A34208BF42F001028B4208BF42F03A
:10567000010212B91B4A934213D1DBB21A4C1B4AE6
:105680000121083B1A4DA4FB0343456602EB1312AC
:10569000C3F30413920001FA03F30266836630BC7D
:1056A0007047DAB21349144C1944103AA829A4FBE4
:1056B00002234FEA131300D80833104A03F01F05E2
:1056C00001210F4C1A44A94044669200816602668B
:1056D000E5E700BF08540258305402581C540258E1
:1056E0004454025894540258CDCCCCCC00960016A9
:1056F00080580258F0FBFDBFABAAAAAA0082001096
:105700008008024070B50446FFF73AF8002C00F01C
:10571000C68023680546954A934248D01832934282
:1057200045D0303292498B4218BF934201F130018B
:105730000CBF012200228B4208BF42F00102183147
:105740008B4208BF42F0010218318B4208BF42F081
:10575000010218318B4208BF42F0010201F5567177
:105760008B4208BF42F0010218318B4208BF42F061
:10577000010218318B4208BF42F0010218318B42FE
:1057800008BF42F0010218318B4208BF42F001020B
:1057900018318B4208BF42F0010218318B4208BF1A
:1057A00042F001021AB9734A934240F0F580022296
:1057B000002184F8352084F834101A6822F00102A0
:1057C0001A6005E0FEF7DCFF431B052B40D8236879
:1057D0001A68D107F6D4D4E9022521692A43A069C1
:1057E0001D680A4361690A43E16902430A43624949
:1057F0002940256A2A430A43616A04292FD01A6086
:105800005A6922F00702114359612046FFF794FEBE
:10581000E26D3F2302F01F02934083602046FFF7B2
:1058200005FFA368802B3CD06368A06EDAB2013B11
:10583000D4E91851072B2A60486026D90023C4E90F
:105840001B33636700200123606584F8353070BD29
:10585000202203230120626584F8353070BDD4E92D
:105860000B5129430A431A605969A26A21F00701C2
:10587000114341F00401002DC6D000284FD1012A68
:105880006ED032F00202BFD151E0501E072810D96D
:10589000626FD4E91B31002018604A60D2E7012012
:1058A00070BD0023A16ED4E91802636003605160EB
:1058B000C4E72168314B324DA94218BF994205F126
:1058C00014050CBF01230023A94208BF43F00103C4
:1058D0001435A94208BF43F001031435A94208BF9B
:1058E00043F001031435A94208BF43F00103143506
:1058F000A94208BF43F001033BB9224B994204D0AF
:10590000214B224913449B0003E0214B21491344BE
:105910009B0001228240C4E91B316267BBE7B0F5FE
:10592000005F0ED0022A05D9032A7FF46DAFEA0189
:105930007FF56AAF012340221846626584F835304E
:1059400070BD032A3FF660AF01A050F822F000BFFF
:10595000355900082F5900083559000861590008C9
:10596000B5F1C07F7FF450AFE4E700BF1000024004
:1059700040000240B80402403F8010FE0854025824
:105980001C540258945402583F82001040090240AF
:105990003F96001640590258324A334833498342F1
:1059A00018BF934200F128000CBF012200228B4255
:1059B00008BF42F001022831834208BF42F00102D1
:1059C00028308B4208BF42F001022831834208BFD1
:1059D00042F001028B4208BF42F0010212B9244A90
:1059E000934238D102220021224D84F8341084F8E9
:1059F00035201A681540A268402A2AD0802A0CBF98
:105A00004FF480400846266AD4E90312D20842EADD
:105A1000D102616942EAD102A16942EAD102E16997
:105A200042EAD102144942EA161219442A430243B7
:105A30001248A0FB010120461A600B099B00E36598
:105A4000FFF77AFDE26D012302F01F0293404360ED
:105A5000E4E61020D7E7402203230120626584F8A2
:105A6000353070BD085402581C5402583054025846
:105A7000945402580F00FEFFF8ABFDA7CDCCCCCC60
:105A8000002800F0BC80844690F83400012800F023
:105A9000B88001202DE9F0419CF835408CF83400A5
:105AA000844208D000224FF400638CF83420CCF8F4
:105AB0005430BDE8F0810220DCF800507A4C8CF8BC
:105AC00035000020794ECCF854007948854218BF43
:105AD000A54200F118000CBF01240024854208BF34
