:02000004900466
:1000000000000220110A04900D0A049079890490DE
:100010000D0A04900D0A04900D0A049000000000DF
:100020000000000000000000000000000D0A049025
:100030000D0A0490000000000D0A0490FD88049051
:100040000D0A04900D0A04900D0A04900D0A049004
:100050000D0A04900D0A04900D0A04900D0A0490F4
:100060000D0A04900D0A04900D0A049091760490F4
:100070009D760490F5630490A9760490B57604907B
:10008000ED2A0590C16B04900D0A04900D0A0490AE
:100090000D0A04900D0A04900D0A04900D0A0490B4
:1000A0000D0A04900D0A04900D0A04900D0A0490A4
:1000B000191F0590251F0590311F0590F56B0490C1
:1000C0000D0A0490016C04900D0A0490698204905A
:1000D00075820490212905904D290590812905906C
:1000E0000D0A04900D0A0490000000000D0A04900F
:1000F0000D0A04900D0A04900D0A04900D0A049054
:100100000D0A04900D0A04903D1F05908182049011
:10011000B5290590E92905900D0A04900D0A04906F
:100120000D0A04900D0A0490A5820490D9820490CF
:10013000212B05900D0A04900D0A04900D0A0490DD
:1001400000000000000000000000000000000000AF
:100150000D0A04900D0A04900D0A04901D2A0590C2
:100160000D6C04900D0A04900D890490318904905F
:100170000D0A0490558904900D0A04900D0A04900C
:100180000D0A04900D0A0490512A0590852A0590C5
:100190008D820490998204900D0A04900D0A0490B7
:1001A0000D0A04900D0A04900D0A04900D0A0490A3
:1001B000B17304900D0A04900D0A04900D0A049086
:1001C0000D0A04900D0A04900D0A04900D0A049083
:1001D0000D0A04900D0A04900D0A04900D0A049073
:1001E0000D0A04900D0A04900D0A04900D0A049063
:1001F0000D0A04900D0A04900D0A04900D0A049053
:100200000D0A04900D0A04900D0A04900D0A049042
:100210000D0A04900D0A04900D0A04900D0A049032
:100220000D0A04900D0A04900D0A049000000000CD
:100230000D0A04900D0A0490000000000D0A0490BD
:100240000D0A04900D0A04900D0A04900D0A049002
:100250000D0A04900D0A04900D0A04900D0A0490F2
:100260000D0A04900D0A04900D0A04900D0A0490E2
:100270000D0A04900D0A0490B92A059000000000B0
:100280000D0A04900D0A04900D0A0490000000006D
:08029000000000000D0A0490BB
:1002A00010B5054C237833B9044B13B10448AFF3B0
:1002B00000800123237010BDB80500240000000059
:1002C000BCA3059008B5034B1BB103490348AFF32A
:1002D000008008BD00000000BC050024BCA3059000
:1002E00001F0FF01102A2BDB10F0070F08D010F8E7
:1002F000013B013A8B422DD010F0070F42B3F6D1EB
:10030000F0B441EA012141EA014122F007047FF003
:1003100000070023F0E80256083C85EA010586EA5A
:10032000010685FA47F5A3FA87F586FA47F6A5FA96
:1003300087F68EB9EED1F0BC01F0FF0102F00702A2
:1003400032B110F8013B013A83EA010313B1F8D14D
:100350000020704701387047002D06BF354603382E
:10036000073815F0010F07D1013015F4807F02BF67
:10037000013015F4C03F0130F0BC0138704700BFB8
:10038000034613F8012B002AFBD1181A01387047D5
:1003900081F0004102E000BF83F0004330B54FEA36
:1003A00041044FEA430594EA050F08BF90EA020FA3
:1003B0001FBF54EA000C55EA020C7FEA645C7FEA36
:1003C000655C00F0E2804FEA5454D4EB5555B8BF59
:1003D0006D420CDD2C4480EA020281EA030382EACA
:1003E000000083EA010180EA020281EA0303362D5C
:1003F00088BF30BD11F0004F4FEA01314FF4801C2F
:100400004CEA113102D0404261EB410113F0004F40
:100410004FEA03334CEA133302D0524263EB4303F7
:1004200094EA050F00F0A780A4F10104D5F1200E95
:100430000DDB02FA0EFC22FA05F2801841F10001F0
:1004400003FA0EF2801843FA05F359410EE0A5F1C4
:1004500020050EF1200E012A03FA0EFC28BF4CF0F5
:10046000020C43FA05F3C01851EBE37101F00045AB
:1004700007D54FF0000EDCF1000C7EEB00006EEBB8
:100480000101B1F5801F1BD3B1F5001F0CD3490842
:100490005FEA30004FEA3C0C04F101044FEA445299
:1004A00012F5800F80F09A80BCF1004F08BF5FEA20
:1004B000500C50F1000041EB045141EA050130BD00
:1004C0005FEA4C0C404141EB0101013C28BFB1F512
:1004D000801FE9D291F0000F04BF01460020B1FA5D
:1004E00081F308BF2033A3F10B03B3F120020CDA30
:1004F0000C3208DD02F1140CC2F10C0201FA0CF00E
:1005000021FA02F10CE002F11402D8BFC2F1200C72
:1005100001FA02F120FA0CFCDCBF41EA0C01904028
:10052000E41AA2BF01EB0451294330BD6FEA040471
:100530001F3C1CDA0C340EDC04F11404C4F120025C
:1005400020FA04F001FA02F340EA030021FA04F36E
:1005500045EA030130BDC4F10C04C4F1200220FAC5
:1005600002F001FA04F340EA0300294630BD21FA03
:1005700004F0294630BD94F0000F83F4801306BFC9
:1005800081F480110134013D4EE77FEA645C18BFBD
:100590007FEA655C29D094EA050F08BF90EA020F54
:1005A00005D054EA000C04BF1946104630BD91EA4C
:1005B000030F1EBF0021002030BD5FEA545C05D14F
:1005C0004000494128BF41F0004130BD14F580048E
:1005D0003CBF01F5801130BD01F0004545F0FE4102
:1005E00041F470014FF0000030BD7FEA645C1ABF37
:1005F000194610467FEA655C1CBF0B46024650EA6E
:10060000013406BF52EA033591EA030F41F4002199
:1006100030BD00BF90F0000F04BF0021704730B51F
:100620004FF4806404F132044FF000054FF00001F4
:1006300050E700BF90F0000F04BF0021704730B5B5
:100640004FF4806404F1320410F0004548BF40428A
:100650004FF000013EE700BF42004FEAE2014FEADF
:1006600031014FEA02701FBF12F07F4393F07F4FBA
:1006700081F06051704732F07F4208BF704793F0BD
:100680007F4F04BF41F40021704730B54FF46074D0
:1006900001F0004521F000411CE700BF50EA0102D3
:1006A00008BF704730B54FF000050AE050EA01027C
:1006B00008BF704730B511F0004502D5404261EBEC
:1006C00041014FF4806404F132045FEA915C3FF42D
:1006D000D8AE4FF003025FEADC0C18BF03325FEACA
:1006E000DC0C18BF033202EBDC02C2F1200300FA7B
:1006F00003FC20FA02F001FA03FE40EA0E0021FAA0
:1007000002F11444BDE600BF53B94AB9002908BF3D
:1007100000281CBF4FF0FF314FF0FF3000F074B9DC
:10072000ADF1080C6DE904CE00F006F8DDF804E048
:10073000DDE9022304B070472DE9F047089D044627
:100740008E46002B4DD18A42944669D9B2FA82F284
:1007500052B101FA02F3C2F1200120FA01F10CFAC0
:1007600002FC41EA030E94404FEA1C48210CBEFBF8
:10077000F8F61FFA8CF708FB16E341EA034306FB81
:1007800007F199420AD91CEB030306F1FF3080F010
:100790001F81994240F21C81023E63445B1AA4B25D
:1007A000B3FBF8F008FB103344EA034400FB07F7FF
:1007B000A7420AD91CEB040400F1FF3380F00A8140
:1007C000A74240F207816444023840EA0640E41B35
:1007D00000261DB1D4400023C5E900433146BDE8E1
:1007E000F0878B4209D9002D00F0EF800026C5E983
:1007F000000130463146BDE8F087B3FA83F6002E9B
:100800004AD18B4202D3824200F2F980841A61EB12
:10081000030301209E46002DE0D0C5E9004EDDE730
:1008200002B9FFDEB2FA82F2002A40F09280A1EB18
:100830000C014FEA1C471FFA8CFE0126200CB1FB6D
:10084000F7F307FB131140EA01410EFB03F0884266
:1008500008D91CEB010103F1FF3802D2884200F2F3
:10086000CB804346091AA4B2B1FBF7F007FB101185
:1008700044EA01440EFB00FEA64508D91CEB040423
:1008800000F1FF3102D2A64500F2BB800846A4EB7E
:100890000E0440EA03409CE7C6F12007B34022FA69
:1008A00007FC4CEA030C20FA07F401FA06F31C4398
:1008B000F9404FEA1C4900FA06F3B1FBF9F8200CA5
:1008C0001FFA8CFE09FB181140EA014108FB0EF0EB
:1008D000884202FA06F20BD91CEB010108F1FF3A3B
:1008E00080F08880884240F28580A8F10208614447
:1008F000091AA4B2B1FBF9F009FB101144EA014155
:1009000000FB0EFE8E4508D91CEB010100F1FF34FF
:100910006CD28E456AD90238614440EA0840A0FB97
:100920000294A1EB0E01A142C846A64656D353D06D
:100930005DB1B3EB080261EB0E0101FA07F722FA91
:1009400006F3F1401F43C5E9007100263146BDE8BA
:10095000F087C2F12003D8400CFA02FC21FA03F31D
:10096000914001434FEA1C471FFA8CFEB3FBF7F09E
:1009700007FB10360B0C43EA064300FB0EF69E42C3
:1009800004FA02F408D91CEB030300F1FF382FD25C
:100990009E422DD9023863449B1B89B2B3FBF7F604
:1009A00007FB163341EA034106FB0EF38B4208D9DD
:1009B0001CEB010106F1FF3816D28B4214D9023E1E
:1009C0006144C91A46EA004638E72E46284605E73C
:1009D0000646E3E61846F8E64B45A9D2B9EB02080D
:1009E00064EB0C0E0138A3E74646EAE7204694E79D
:1009F0004046D1E7D0467BE7023B614432E73046D0
:100A000009E76444023842E7704700BFFEE7000090
:100A10000848094A0949121A16F076F80848094A9E
:100A20000021121A16F098F816F03AF800F080FC3F
:100A3000FEE700BF00000024B8050024F0A30590E5
:100A4000B805002468BF0724704770477047704797
:100A5000012A02D1016000207047022A04BF0B68FE
:100A60000360F8E70368184737B504460D46403081
:100A70000121019205F050FF6423019A294604F1F7
:100A80000C0003B0BDE8304007F054BE13B5044677
:100A90008DF807104030002105F03EFF642301224D
:100AA0000DF1070104F10C0007F044FE02B010BD87
:100AB00070477047836810B5044613B1032201469E
:100AC0009847204610BD10B504467830FFF7F2FF76
:100AD00004F15800FFF7EEFF04F13800FFF7EAFFDA
:100AE00004F11800FFF7E6FF204610BD70B504467C
:100AF000D0E90B56AE4204D028461035FFF7DAFF96
:100B0000F8E7E06A18B1616B091A14F024FC206A56
:100B100018B1A16A091A14F01EFC04F10C00FFF7C9
:100B2000C9FF204670BD000070B508228AB00023BE
:100B30002A4D012604460793403009938670049697
:100B4000CDE90523CDE90233022308932B88ADF8C4
:100B500000306B88ADF80430AB88ADF80630EB8818
:100B6000038005F0EFFD2B8904F13C0084F83E6022
:100B7000A38705F0E7FDBDF80630204684F84660FF
:100B8000174D20F8443F05F0DDFD694604F10C00E7
:100B9000144E07F047FD1449144B1548C4E90413DB
:100BA000144BC4E90603144BC4E9085303F1B243E0
:100BB00003F533230633A362104BC4E90B63A3F19F
:100BC000C653A3F55433A3F28A23636303F184531A
:100BD00003F50633C333A3630AB070BDB094059028
:100BE000E1F98048652975AD0000FFFFFF5AEB1859
:100BF000FD76E0FFE149E0FBE73FE001718C694AE7
:100C0000F0B500F10C0485B005462046FFF78CFFD7
:100C10009F4B05F1480600216B652823304685F877
:100C2000583005F079FE0A2007F018FF0121304600
:100C3000984E05F071FE782007F010FF0121204644
:100C4000FFF724FF642007F009FFCB212046FFF7C0
:100C50001DFFD6F80A00B37B0522694600902046A6
:100C60008DF80430FFF700FFCF212046FFF70EFF7D
:100C7000B6F80F20737C69462046ADF800200322A9
:100C80008DF80230FFF7F0FEE8212046FFF7FEFE68
:100C9000728A337D69462046ADF8002003228DF824
:100CA00002300026FFF7E0FEEA212046FFF7EEFEC5
:100CB000022269462046ADF80060FFF7D5FEED211F
:100CC0002046FFF7E3FE744B04226946204600935A
:100CD000FFF7CAFEF7212046FFF7D8FE20230122A6
:100CE000694620468DF80030FFF7BEFEC021204641
:100CF000FFF7CCFE23230122694620468DF8003001
:100D0000FFF7B2FEC1212046FFF7C0FE10230122EB
:100D1000694620468DF80030FFF7A6FEC521204623
:100D2000FFF7B4FE42F63E03022269462046ADF8C4
:100D30000030FFF799FEC7212046FFF7A7FE862364
:100D40000122694620468DF80030FFF78DFE3621DE
:100D50002046FFF79BFE48230122694620468DF876
:100D60000030FFF781FE3A212046FFF78FFE552322
:100D70000122694620468DF80030FFF775FEB1214B
:100D80002046FFF783FE4FF4C053022269462046F7
:100D9000ADF80030FFF768FEB6212046FFF776FE7B
:100DA0003E4B694620461A889B78ADF80020032206
:100DB0008DF80230FFF758FEF2212046FFF766FE5D
:100DC0000122694620468DF80060FFF74DFE26217E
:100DD0002046FFF75BFE0122694620468DF8002081
:100DE000FFF742FEE0212046FFF750FE2C4B6A46FB
:100DF00003F108071868083353F8041C1646BB4271
:100E000003C63246F6D118680F2299889B79306064
:100E10002046B371B1806946FFF726FEE1212046E6
:100E2000FFF734FE1F4B6A4603F1080718680833C2
:100E300053F8041C1646BB4203C63246F6D1186866
:100E40000F2299889B7930602046B371B180694642
:100E5000FFF70AFE11212046FFF718FE782007F061
:100E6000FDFD20462921FFF711FE36212046FFF720
:100E70000DFE0A2007F0F2FD95F858300122694670
:100E800020468DF80030FFF7EFFD05B0F0BD00BF44
:100E90004001F000B094059064031281C395059061
:100EA000C7950590C594059038B500F5EF35044613
:100EB00005F5DA70FFF7FEFD05F5C670FFF7FAFDE0
:100EC00005F5B270FFF7F6FD05F59E70FFF7F2FD30
:100ED00005F58A70FFF7EEFD04F59D402C30FFF715
:100EE000E9FD04F59D400430FFF7E4FD04F59C4066
:100EF0005C30FFF7DFFD04F59C403430FFF7DAFD8E
:100F000004F59C401030FFF7D5FD04F59B405430AC
:100F1000FFF7D0FD04F59B402C30FFF7CBFD04F527
:100F20009B400430FFF7C6FD04F599400430FFF7FD
:100F3000C1FD04F598405C30FFF7BCFD04F14800AA
:100F4000FFF7B8FD04F12800FFF7B4FD204638BDD7
:100F500038B5002400F5804305460463046500F5B8
:100F60009D40C3F8644CC3F88C4C6830C3F88C4D7A
:100F7000C3F8B44DC3F8DC4DC3F8184EC3F83C4E6B
:100F8000C3F8644EC3F88C4EC3F8B44E03F0B8F8FF
:100F900005F5E8330A4A284603F57D61C3F81C4F7E
:100FA000C3F8444FC3F86C4FC3F8944FC3F8BC4F19
:100FB0008A60C3F8F84F05F5F033DA60DC6238BDBB
:100FC0000AD7233C10B5044600F5F0302430FFF773
:100FD00071FD04F5EF3000F5F870FFF76BFD20466A
:100FE000FFF762FF204610BD10B5044600F5F02063
:100FF00000F58270FFF75EFD04F5B420A830FFF71E
:10100000E1FF04F570307030FFF7DCFF04F5F030DD
:101010003830FFF7D7FF2046FFF7D4FF204610BD3A
:101020002DE9F0410026344D4FF002080446C66118
:1010300000F14C03C0F8488004F15C074FF0030E48
:1010400004F5A67CD5E9090183E8030005F12C032A
:1010500066650FCB87E80F0005F13C0204F1C00381
:10106000C4F8806004F1D407C4F8BCE007CA83E880
:10107000070005F14803C4F8CC600FCB87E80F00E8
:1010800005F1580205F1640704F59C73C4F8F86093
:10109000C4F834E107CA83E8070097E80F00C4F8F2
:1010A00044618CE80F00D5E91D0104F5D073C4F844
:1010B0007061C4F89C8104F5D87C83E8030005F1D5
:1010C0007C038C35C4F8A8610FCB8CE80F00C4F802
:1010D000D46104F50573C4F810E295E8070004F53F
:1010E0000A7583E8070097E80F00C4F8206285E8D6
:1010F0000F002046BDE8F081B094059010B504467D
:1011000000F5E670FFF7D6FC04F5B470FFF7D2FCEB
:1011100004F1F000FFF7CEFC04F17800FFF7CAFC01
:1011200004F11400FFF7C6FC204610BD10B50446BC
:1011300000F5ED60FFF7E2FF04F5A560FFF7DEFFC5
:1011400004F53A70FFF7DAFF04F1A800FFF7D6FFC5
:10115000204610BDF0B501218FB05C4803F0CAFCF9
:1011600004215A4803F0EEFB0321584803F0CEFB5C
:10117000574B584A0193584B544958480093584B81
:1011800000F058FB574B584A0193584B5849534865
:101190000093584B00F066FC574B584C0193584B4A
:1011A0002146584A00934D48574B00F02DFE574BAF
:1011B000226A0693564B0993564B089301238DF8E8
:1011C0000C3008238DF80D30A36A9B1AB3F58A7F83
:1011D0001CD8666A4FF48C70B61A14F0BEF8054637
:1011E000D4E90872D21B002A08DD394615F09AFCB2
:1011F000A16A3846C91B14F0AEF801E0002FF7D100
:101200002E44256205F58C756662A56200230122D5
:101210000AAE636023700C93089B22723BB10222DA
:1012200006A930469847099B0D93089B0C933A4DAD
:1012300004AB96E8030083E8030095E8030086E822
:10124000030093E803000C9B85E8030062693046C5
:1012500063610D9B0C92A269A3610D92FFF72AFCBA
:1012600000239FED2E0A05F12C00E3614FF6FF737A
:10127000A4F85030039904F0E1FD294B05F13C003E
:10128000A36403F58063E36405F05CFA05F14000B4
:1012900005F058FA032306A8E361FFF70BFCA5F15C
:1012A0000C020A491F4B204803F0E0F81F4C222390
:1012B000636007F0D1FB20602046FFF7A1FC6420AB
:1012C0000FB0BDE8F04007F0C9BB00BF28060024FE
:1012D000640000244C0000245C000024F00600247C
:1012E00054000024440000242C0000243C0000246E
:1012F00024000024340000241C000024D405002411
:1013000014000024040000240C0000244B0A049064
:10131000650A0490510A0490E005002400000000D2
:10132000010500016806002414880724C4910724DD
:1013300000B502249DB00025FFF70CFF204921488D
:1013400003F0E0FA204B8DF8005022468DF8014062
:1013500005A800991D6004F0B9FD07238DF804501D
:1013600022460DF126008DF80530019904F0AEFDFE
:10137000012322460EA88DF808308DF80930029915
:1013800004F0A4FD03238DF80C5022468DF80D3097
:101390000DF14A00039904F099FD8DF810408DF885
:1013A00011502246049917A804F090FD0748042321
:1013B000052205A904F09EFD044804F0A9FFFEE7FC
:1013C000F114049028060024C0910724400600244C
:1013D00007B582688DED010A0AB913F0F1FFC36801
:1013E00001A9984703B05DF804FB826810B50AB9FB
:1013F00013F0E6FFC368BDE81040184710B5044677
:1014000004F036FD237933B1A37A802B03D104F1A4
:101410001000FFF7EAFF10BD38B5044607F01CFBCB
:101420006368834236D094F85050606004F14800FD
:101430006D0005F063FA6DB2284394F851506D00C9
:1014400084F8500004F14C006DB205F057FA237A8D
:101450002843C0B284F85100E3B994F8503000F04A
:10146000030003F00303022B2AD198B9D4E9072320
:1014700053F8220090ED037AD0ED017AB4EEE77ACA
:10148000F1EE10FA15D8C0ED037A143010ED020A0F
:10149000FFF79EFF04F1380004F0EAFC94F84230B4
:1014A000FF2B05D1237A1BB104F10C00FFF79DFF40
:1014B00038BDD0ED037A90ED047A77EEC77AE2E793
:1014C0000228E7D1002BE5D1D4E9072353F8220005
:1014D00090ED037AD0ED027AB4EEE77AF1EE10FAED
:1014E000D1DAD0ED037A90ED047A77EE877ACAE705
:1014F00073B5184E134605460C463268B2F5007FA8
:1015000024D315480193FFF779FF1448FFF776FFBE
:101510001348FFF773FF1348FFF770FF1248FFF7F8
:101520007BFF124800F0D8FD0022019B32600F487B
:101530000193D5E9001200F087FC019B0B48D4E928
:10154000001202B0BDE8704000F03EBD1A443260A7
:10155000EDE700BFC0910724700600249006002428
:10156000B0060024D0060024D4050024F006002490
:10157000F8B54A4800244A4E4A4D32464A4904606A
:1015800044610462C46313F0E1FE2846FFF7E0FC07
:101590004648FFF7DDFC4648FFF7DAFC4548FFF711
:1015A000D7FC454F05F5F0232846444D3246C3F895
:1015B000EC70C3F80C41424913F0C8FE05F1040C6D
:1015C0002F626F63EF60AF6405F15807BCE80F004E
:1015D0000FC7DCF8003005F1180C3B6005F16C0713
:1015E000BCE80F000FC7DCF8003005F12C0C3B60A5
:1015F00005F18007BCE80F000FC7DCF8003005F1EB
:10160000400C3B6005F19407BCE80F000FC7DCF805
:10161000003005F1A8003B60FFF702FD05F53A70C8
:10162000FFF7FEFC05F5A560FFF7FAFC05F5ED6098
:10163000FFF7F6FC32462349284613F087FE22487E
:10164000324622494461C0E90844C0E90A44C0E97D
:101650000C4413F07BFE1E4832461E4904620464AB
:101660000466C0F88040C0E9004413F06FFE3246C3
:101670001949204613F06AFE32461849204613F0F5
:1016800065FE32461649204613F060FE324620467B
:101690001449BDE8F84013F059BE00BF28060024E5
:1016A00000000024F0060024490A049028E70124E1
:1016B00060C7032498A705240AD7233C148807246D
:1016C000E90F04902D110490D4050024ED0A049034
:1016D00068060024C70A04904D0A0490B30A0490D7
:1016E0004F0A0490B10A049003680A6803F5F033C6
:1016F0005A63704703680A6803F57033DA66704707
:1017000003680A6803F5B423C3F8A420704703688C
:101710000A6803F5F023C3F8DC20704703680A6801
:1017200003F5F023C3F814217047012A02D10160A8
:1017300000207047022A04BF0B680360F8E7012A03
:1017400002D1016000207047022A04BF0B680360C9
:10175000F8E7012A02D1016000207047022A04BF85
:101760000B680360F8E7012A02D10160002070478E
:10177000022A04BF0B680360F8E7012A02D1016066
:1017800000207047022A04BF0B680360F8E770B5B9
:10179000002386B004460E46049302AD8B6833B135
:1017A000022228469847F3680593B36804936B4672
:1017B000A26895E8030083E8030094E8030085E845
:1017C000030093E80300049B0492A360059BE26876
:1017D000E360059284E803002846FFF76BF906B042
:1017E00070BD00000000000000F5F03393ED0D0A1D
:1017F0009FED0D7BB7EEC06AB4EEC76BF1EE10FA49
:101800000ED40379022B0BD001F5EF41723150F861
:10181000213003EB8202D2ED007A20EE270A7047D6
:101820009FED030A704700BF7B14AE47E17A743F17
:10183000000000002DE9F04F00F5F02400251F46C0
:101840004FF004087B4B4FF0010B8A46114664228F
:1018500006462DED028B8FB0C4F8203106F5F03925
:10186000F7EE008A8DF80D808DF80C50BDF80C3025
:101870008DF808508DF809B0ADF80030029B00F0EB
:10188000E1FC05238DF8158039468DF811304FF0B5
:1018900002038DF8105009F138008DF81430C82279
:1018A000BDF81430062706F570389FED638AADF851
:1018B0000030049B00F0C6FC4FF002038DF81D7051
:1018C00008F170008DF818304FF496728DF81C50A6
:1018D000BDF81C308DF819B01A99ADF80030069B90
:1018E00000F0B0FC07238DF8257006F5B4278DF8BD
:1018F00021304FF4C8728DF824B007F1A800BDF86C
:1019000024308DF820B01B99ADF80030089B00F012
:1019100099FC4A4B0AA909F124000D93484BC9F8D8
:1019200004A089ED028A89ED048A89ED058AC9ED52
:10193000068A89F82050C9F81C500C930A96FFF7C4
:1019400026FF0AA8FFF7B6F83E4B0AA908F15C008B
:101950000D933D4BC8F83CA088ED108A88ED128AA3
:1019600088ED138AC8ED148A88F85850C8F854B026
:101970000C930A96FFF70BFF0AA8FFF79BF8334B6F
:101980000AA907F194000D93314BC7F874A00C938A
:10199000022387ED1E8AC7F88C3087ED208A87EDF9
:1019A000218AC7ED228A87F890500A96FFF7EFFE4A
:1019B0000AA8FFF77FF8274B0AA904F1CC000D9382
:1019C000254BC4F8ACA00C93032384ED2C8AC4F8F7
:1019D000C43084ED2E8A84ED2F8AC4ED308A84F8D9
:1019E000C8500A96FFF7D3FE0AA8FFF763F81B4B0F
:1019F0000AA904F582700D93194BC4F8E0500C93BA
:101A00000423C4F8E4A0C4F8FC3084ED3A8A84EDE1
:101A10003C8A84ED3D8AC4ED3E8A84F800510A96E2
:101A2000FFF7B5FE0AA8FFF745F80FB0BDEC028B33
:101A3000BDE8F08F0053070000000000E916049095
:101A40007B170490F5160490671704900117049013
:101A5000531704900F1704903F1704901D1704901C
:101A60002B1704902DE9F04F00F5F02C0C6887B08F
:101A700000F5E837CCF8184100F5703AD2F800B01C
:101A800000F5B4200294C7F8C8BFD3F80080DDE9A0
:101A9000105ECAF800802E688663DEF80040CCF83D
:101AA00070404968CCF81C11D2F8049000910F31B5
:101AB000C7F8CC9F5F68029BCAF8047003F10F025D
:101AC00008F10F036D68019307F10F03C5630BF174
:101AD0000F00039306F10F03DEF804A0A2EB0B0E38
:101AE000049305F10F03CCF874A009F10F0C0593D2
:101AF000009BD31ABEF11E0F88BF1E2BA2EB090E4E
:101B00008CBF01230023BEF11E0F94BF002303F0FE
:101B10000103A2EB080EBEF11E0F94BF002303F0D9
:101B20000103A2EB070EBEF11E0F94BF002303F0CA
:101B30000103A2EB060EBEF11E0F94BF002303F0BB
:101B40000103A2EB050EBEF11E0F94BF002303F0AC
:101B50000103A2EB040EA2EB0A02BEF11E0F94BF1A
:101B6000002303F001031E2A94BF002303F00103A6
:101B7000A1EB0B021E2A94BF002303F00103A1EB8B
:101B800009021E2A94BF002303F00103A1EB0802FF
:101B90001E2A94BF002303F00103CA1B1E2A94BF10
:101BA000002303F001038A1B1E2A94BF002303F0C5
:101BB00001034A1B1E2A94BF002303F001030A1BE2
:101BC000A1EB0A011E2A94BF002303F00103A0EB3E
:101BD00009021E2994BF002303F001031E2A94BFAB
:101BE000002303F00103A0EB08021E2A94BF002388
:101BF00003F00103C21B1E2A94BF002303F001035C
:101C0000821B1E2A94BF002303F00103421B1E2ADD
:101C100094BF002303F00103021BA0EB0A001E2A5D
:101C200094BF002303F00103ACEB08021E2894BF0D
:101C3000002303F001031E2A94BF002303F00103D5
:101C4000ACEB07021E2A94BF002303F00103ACEBA8
:101C500006021E2A94BF002303F00103ACEB050229
:101C60001E2A94BF002303F00103ACEB0402ACEB8B
:101C70000A0C1E2A94BF002303F00103019ABCF151
:101C80001E0F94BF002303F00103D21B1E2A94BF32
:101C9000002303F00103019A921B1E2A94BF002324
:101CA00003F00103019A521B1E2A94BF002303F084
:101CB0000103019A121B1E2A94BF002303F00103A3
:101CC000019AA2EB0A021E2A94BF002303F001032B
:101CD000039A921B1E2A94BF002303F00103039A68
:101CE000521B1E2A94BF002303F00103039A121B08
:101CF0001E2A94BF002303F00103039AA2EB0A02F9
:101D00001E2A94BF002303F00103049A521B1E2ACB
:101D100094BF002303F00103049A121B1E2A94BFF0
:101D2000002303F00103049AA2EB0A021E2A94BFC7
:101D3000002303F00103059A121B1E2A94BF0023FF
:101D400003F00103059AA2EB0A021E2A94BF0023A6
:101D500003F00103D3B304F10F03A3EB0A031E2B1B
:101D600034D910220021029814F0F6FE102200212E
:101D7000504614F0F1FE10220021204614F0ECFE33
:101D800010220021284614F0E7FE102200213046E0
:101D900014F0E2FE10220021384614F0DDFE10227D
:101DA0000021404614F0D8FE10220021484614F0CD
:101DB000D3FE10220021584614F0CEFE102200213E
:101DC000009807B0BDE8F04F14F0C6BE0298009A24
:101DD00000F11001002340F8043B884242F8043B24
:101DE0004BF8043B49F8043B48F8043B47F8043BF4
:101DF00046F8043B45F8043B44F8043B4AF8043BEE
:101E0000E8D107B0BDE8F08F2DE9F04104460D465A
:101E10001E46DDE9068700F0D1F904F5F0303246C0
:101E20002946383000F0CAF904F570304246294698
:101E3000703000F0C3F904F5B4203A462946A830C2
:101E4000BDE8F04100F0BAB92DE9F04104460D4675
:101E500016461F4600F099FA04F5F0303B4632462C
:101E60002946383000F091FA04F570303B4632468E
:101E70002946703000F089FA04F5B4203B4632461A
:101E80002946A830BDE8F04100F07FBA00F5F02304
:101E90000022C3F8E0200279022A1CBF0122C3F805
:101EA000E02000F5F03292F83C20022A1EBFD3F861
:101EB000E0200132C3F8E02000F5703200F5B420D4
:101EC00092F87420022A1EBFD3F8E0200132C3F832
:101ED000E02090F8AC20022A1EBFD3F8E0200132A7
:101EE000C3F8E020D3F8E020042AC4BF0422C3F8DA
:101EF000E02070472DE9F84F8946002405462DED76
:101F0000048BFFF7C3FF4C455AD005F5F038224645
:101F100000212846FFF768FC08F13808F0EE408AF7
:101F200005F5703722460021404605F5B426FFF737
:101F30005BFC703778EE808AA836224605F5F02AD9
:101F400000213846FFF750FC224678EE808A0021B7
:101F500030464FEA840BFFF747FCDAED387A38EE6B
:101F6000800ADAF81831B8EEE79A224603EB8403C8
:101F700001212846C0EE097AC3ED007AFFF734FC50
:101F8000F0EE408A224601214046FFF72DFC78EE14
:101F9000808A224601213846FFF726FC78EE808AA7
:101FA0002246012130460134FFF71EFC38EE800A3C
:101FB000DAF81C31C0EE097A5B44C3ED007AA2E77F
:101FC000BDEC048BBDE8F88F2DE9F8430E4600F513
:101FD000EF310546174601F5E4711A461C4605F532
:101FE000703800F0EFF905F5F03022464146383000
:101FF00005F5B42900F0E6F908F1700005F5F028C0
:10200000224609F1380100F0DDF9224608F170019D
:1020100009F1A80000F0D6F92146284607EB840410
:10202000FFF768FF31463B46A34217D0DD1BD8F8C7
:10203000180198ED457A2844D8F81C21D0ED007A93
:102040002A4467EE877AE1EC017AD2ED007A98EDC6
:10205000457A67EE877AE3EC017AE5E7BDE8F88335
:1020600013B504460068217E183004F067F9D4EDFA
:10207000017A94ED027A77EE876AF4EEC06AF1EEA7
:1020800010FA06D477EEC77AF4EEC07AF1EE10FAC1
:1020900020DD237F84ED010A3BB1012B10D0E368E2
:1020A0000193A36A8BB913F08BF9D4ED047A94ED04
:1020B000057A37EE677AE0EE077AC4ED037AEEE749
:1020C00020EE000AD4ED047AF1E7E36A01A904F1F5
:1020D0002000984702B010BD38B5044600F096F8CD
:1020E00004F5F035281DFFF7BBFF05F1380004F5B6
:1020F000703500F08BF805F13C00FFF7B1FF05F1FA
:10210000700004F5B42500F081F804F5F02405F121
:102110007400FFF7A5FF05F1A80000F077F804F1BF
:10212000AC00FFF79DFF04F1E400FFF799FF38BD15
:10213000012A02D1016000207047022A04BF0B6807
:102140000360F8E7012A02D1016000207047022AEB
:1021500004BF0B680360F8E770B588B01646044604
:10216000ADF8041004AD019903F068FE0023069356
:10217000B3683BB10222314628469847F36807937B
:10218000B368069302AA04F1100395E8030082E8FD
:10219000030093E8030085E8030092E8030083E866
:1021A0000300069B2846A269A361079B0692E26989
:1021B000E3610792FEF77EFC08B070BD37B50446B8
:1021C000019250F86C2B0D4601F02CFA04F5994061
:1021D00022682946183000F073FE04F59B402268FF
:1021E0002946683001F0E4FB04F59C40226829464A
:1021F000019B443000F030FB04F59D4022682946E5
:10220000483003B0BDE8304001F030BD10B50446A1
:102210001830FFF7F3F804F13800FFF7EFF810BDBE
:1022200010B50023046E9C420AD0826D002102EB9F
:1022300083021160C26D02EB830201331160F2E789
:1022400010BD000030B587B09FED1E0A04460D4654
:10225000ADF804301C4B019905931C4B026002AA97
:102260000290183004938DED000AFFF775FF02A865
:10227000FEF720FC164B02AA0A99059304F13800D8
:10228000144B9DED000A04930294FFF765FF02A82A
:10229000FEF710FC02230122204623710023227442
:1022A0006361C4E902330C4B23662B68A3656B683A
:1022B000E365FFF7B5FF094B63660023A36607B02C
:1022C00030BD00BF00007A443123049045210490C2
:1022D0005323049031210490005307000000704103
:1022E000037933B1013B012B1AD90023C0E9023332
:1022F000704790ED1A7A0223DFED0B6A9FED0B6AAF
:1023000027EE267AD0ED187A0371F8EE677A8368A3
:10231000C7EE066A436177EEE67AC0ED1A7AE4E723
:1023200000230371E1E700BF00803B4700007A44CF
:102330000068FFF7D5BF0379012B08D013F0FD0F1C
:1023400001D1012303710023C0E902337047022346
:10235000F8E70068FFF7EFBF8368026E934234BF6F
:102360000133002383607047037933B9836813B95D
:102370000023C3607047013BFBE7012BFAD1C36820
:1023800042699342F4D20133F3E72DE9F041047935
:102390001E46ACB90F4690462146B14210D0856822
:1023A0000131846D57F8043BC26D04EB850402EBE8
:1023B0008502236058F8043B1360FFF7CDFFECE77C
:1023C000BDE8F081F8B5037904460E461746022BA6
:1023D00066D00025BD423FD0E168336807EE101A91
:1023E000D4ED1A6A03EB8502236EB8EE477AA06D2E
:1023F0005B1A90ED006A77EE266A07EE903A00EBE2
:1024000081032046F8EE677A26EE866AD3ED005AFD
:10241000736877EEA66AA5EEA76A03EB850301351C
:10242000C6EE265AC2ED005AD4ED1A6AE26D37EEB6
:10243000267AD2ED006A02EB810167EE266A91ED01
:10244000006AE6EE276A77EE277A86EEA77A83EDB2
:10245000007AFFF789FFBDE72A46314604F16C0098
:1024600001F076F804F599402A463146183000F01C
:1024700017FC04F59B402A463146683001F062FAA9
:1024800004F59C402A463146443000F06FF804F5CC
:102490009D402A4631464830BDE8F84001F09FBBD8
:1024A000F8BD0A6803689A6270470A6803689A6709
:1024B0007047012A02D1016000207047022A04BF40
:1024C0000B680360F8E7012A02D101600020704721
:1024D000022A04BF0B680360F8E7012A02D10160F9
:1024E00000207047022A04BF0B680360F8E7012A46
:1024F00002D1016000207047022A04BF0B6803600C
:10250000F8E70268137883F0010313707047000046
:10251000D1ED007A00210268FCEEE77AD06FD2F8A4
:102520008020F8EE677A10B5FCEEE77A054C016082
:1025300017EE903AA34228BF234683601160936050
:1025400010BD00BF7FA903000123C26F41F2883193
:1025500003704FF07C5310B50024836291601460C7
:10256000D0F8802014609160836710BD2DE9F0479A
:102570000578002D4AD1954248D04FEA850800F1F0
:102580007C07A1F1040C00F1840E57F8046BDFF80E
:10259000809096ED006ABE45D6E901341C44B4FB38
:1025A000F9FA09FB1A4A04F1010406EB8A0ADAED8A
:1025B000037AB4FBF9FA09FB1A4406EB8404D4ED60
:1025C000036A5CF8044F76EEE76A4444E6EE867AE6
:1025D000D0ED0A6AB0EE677AD4ED007AE6EE877A3B
:1025E000C4ED007A06EB830490ED1E7A03F56A339E
:1025F000E7EE277A03F27F13C4ED037AB3FBF9F415
:1026000009FB14337360C0D10135B4E7BDE8F0872E
:1026100080A9030038B5002304460D4683608B680B
:102620002BB102229847EB68E360AB68A3602046B9
:1026300038BD00002DE9F84FD0E9008993466FF0CE
:102640006043A9EB080207468A46B3EBA20F4FEAA4
:10265000A20402D11E4812F094FE012C2246A1EBE6
:10266000080538BF0122A4182ED27CB39C4228BF93
:102670001C46A00012F071FE0646DBF80030002D6B
:10268000735104DD2A464146304614F04BFAA9EB5B
:102690000A090435B9F1000F354404DD4A465146B4
:1026A000284614F031FA4D44B8F1000F05D0B9684E
:1026B0004046A1EB080112F04EFE06EB8404C7E988
:1026C0000065BC60BDE8F88F1C46D2E72646D4E71B
:1026D000D69505900A4610B5D0E90114A14204D060
:1026E000126841F8042B416010BDFFF7A3FFFBE720
:1026F00013B50B4602466C46D0E9000184E803009E
:1027000093E8030082E8030094E8030083E80300F1
:1027100002B010BD30B5002385B004460D460293CB
:102720008B6833B1022268469847EB680393AB6825
:10273000029321466846FFF7DBFF029BA2686846CA
:10274000A360039B0292E268E3600392FEF7B2F992
:1027500005B030BD2DE9F74FD0E9009B8A466FF0F8
:1027600078431146ABEB09028046B3EB221F4FEAD8
:10277000221602D1374812F004FE012E3246AAEB8F
:10278000090438BF0122B6182ED27EB39E4228BF5C
:102790001E463001019112F0E0FD019907463819FB
:1027A0003D464C46FFF736FFA24505F110051FD008
:1027B00000232046A5F1100145F8083CFFF798FFDB
:1027C000A36855F8082C2046103444F8082C55F816
:1027D000042C45F8083C54F8043C44F8042C45F813
:1027E000043CFEF767F9DFE71E46D2E73746D6E737
:1027F0005C451BD0002329462046103545F8083C8F
:10280000FFF776FFA36855F8082C2046103444F8EB
:10281000082C45F8083C55F8042C54F8043C44F8BE
:10282000042C45F8043CFEF745F9E1E7B9F1000F47
:1028300006D0D8F808104846A1EB090112F08BFD2C
:1028400007EB0616C8E90075C8F8086003B0BDE8D4
:10285000F08F00BFD69505902DE9F04F0446002774
:1028600018684FF0010998461646E0670D464B4A36
:1028700039464FF0000ADFF850B12DED028BC0E968
:10288000017987B00C3014F067F9D8F80400434A96
:102890003946C4F88000B7EE008A04F12C08C0E97C
:1028A00001790C3004F1040914F056F93C4B02A9EB
:1028B00004F11800059304F154073A4BC4F808A03A
:1028C000049306F1290384ED038A6360C4F814B00D
:1028D0000294FFF71FFF02A8FEF7ECF8324B02A9A3
:1028E00004F140000593314BC4F830A0049306F185
:1028F0002A0302942B36E3622D4B63632D4BE36373
:10290000FFF708FF02A8FEF7D5F82B4B02A904F148
:1029100068000593294B6665C4F858A084ED178AB2
:10292000C4F864B004930294FFF7F4FE02A8FEF723
:10293000C1F8234B02940593224B0493D5E90C0371
:10294000984223D002A9FFF765FE2B6B10332B634F
:1029500002A8FEF7AFF805F1200002A9CDF8089013
:102960000190FFF7B7FE02A90198CDF80880FFF7A4
:10297000B1FE019802A90297FFF7ACFE204607B00E
:10298000BDEC028BBDE8F04FFFF7DEBD014602AAA9
:1029900005F12C00FFF7DEFEDAE700BF00A60E000F
:1029A000A3240490EF24049011250490DB240490C8
:1029B00000401C4600002041AB240490C724049032
:1029C00003250490B3240490CDCC4C3D0A680368E1
:1029D000C3F8FC2070470A680368C3F84C217047AD
:1029E000012A02D1016000207047022A04BF0B684F
:1029F0000360F8E7012A02D1016000207047022A33
:102A000004BF0B680360F8E7012A02D101600020CF
:102A10007047022A04BF0B680360F8E7012A02D15D
:102A2000016000207047022A04BF0B680360F8E7CA
:102A3000026892F8D43083F0010382F8D4307047F2
:102A4000D0ED537AFDEEE77A10B517EE903A0446D2
:102A5000022B02D0032B18D010BDF7EE007A90EDB8
:102A6000497A90ED0D0A083037EE677AD0ED0C7A8E
:102A700077EEC07AA7EE270A80ED0D0A80ED020AF4
:102A800012F05EFC84ED090AE6E7D0E91023F7EEC8
:102A9000007AD0ED496A9B1A76EEE76A07EE903A23
:102AA000B8EEE77A07EE902AF8EEE77AE6EE877A54
:102AB000FDEEE77AC0ED147ACEE738B501230025A4
:102AC000044680F8D4304FF07C53C0F82451C0F84D
:102AD000FC30FFF7B5FFC4F84C5138BD08B50068AD
:102AE0000B68C0F82431FFF7ABFF08BD2DE9F047B4
:102AF00089469046002747454CD0D9F800604FEAF8
:102B0000870A06EB8706D6ED007AF5EEC07AF1EE7D
:102B100010FA0BD4B1EE007AF4EEC77AF1EE10FAA7
:102B200002DB4FF07E533360012401E04FF0FF34AD
:102B300096ED000A12F0A6FE07EE904AD9F804506E
:102B4000F8EEE77A554427EE800A86ED000AD5EDC7
:102B5000007AF5EEC07AF1EE10FA0BD4B1EE007AFD
:102B6000F4EEC77AF1EE10FA02DB4FF07E532B60E1
:102B7000012401E04FF0FF3495ED000A013712F017
:102B800081FE07EE904AF8EEE77A27EE800A85ED9F
:102B9000000AB0E7BDE8F0872DE9F04706460F468A
:102BA000914600244C4516D03B6830464FEA840AD3
:102BB00003EB8408013498ED000A12F0E3F97D6814
:102BC00088ED000A3046554495ED000A12F0DAF916
:102BD00085ED000AE6E7BDE8F08738B508300C4619
:102BE000154612F0F3F90023AB4213D02168606858
:102BF00001EB830100EB83000133D1ED007A67EE36
:102C0000807AC1ED007AD0ED007A67EE807AC0ED6F
:102C1000007AE9E738BD036D10B55C1E0123A340BF
:102C200007EE103A0023934239D0D0ED137AB7EE75
:102C3000006AD0ED126A77EEA67AF4EEC67AC0ED9D
:102C4000137AF1EE10FA10DB0C68F8EEC76A04EBA9
:102C50008304D4ED007A66EEA77AFDEEE77AF8EE0B
:102C6000E77AC7EEA65AC4ED005AD0ED137AF4EE17
:102C7000C67AF1EE10FA10DB4C68F8EEC76A04EB86
:102C80008304D4ED007A66EEA77AFDEEE77AF8EEDB
:102C9000E77A87EEA66A84ED006A0133C3E710BDC8
:102CA0002DE9F843154690F8D42004460E46002A34
:102CB00040F0E18000F17407D1E9003039469542D7
:102CC0000DD003EB820CDCF800C041F804CB00EB24
:102CD000820C0132DCF800C0C1F80CC0EFE704F14F
:102CE00054080246844603F1100E41461846D0F8B7
:102CF0000090C1F80090DCF8009041F8049B50F877
:102D0000049B41F8049C70455CF8049B41F8049CCA
:102D1000EDD1D4ED537AF5EE407ABDEEE77AF1EEDF
:102D200010FA17EE109A0DD0B7EE007AF4EE477A4B
:102D3000F1EE10FA06D0B9F1030F1BD8DFE809F065
:102D40001542484E93ED007AD4ED497A67EE877AC2
:102D5000E3EC017A734592ED007AD4ED497A67EE9F
:102D6000877AE2EC017AEDD1E5E72A463146204642
:102D7000FFF7BCFEB9F1010FD6E9003252D804F1D9
:102D8000940000218D422FD1AD0005F17401214442
:102D9000B94234D1194604F1B40610461D448D429F
:102DA00040D0B6EC017AD1ED007A77EEC77AE1EC4B
:102DB000017AD0ED007A96ED037A77EEC77AE0ECEF
:102DC000017AECE72A4631462046FFF7E5FED1E7D7
:102DD0002A4631462046FFF700FFCBE72A46314618
:102DE0002046FFF718FFC5E703EB8106366840F879
:102DF000046B02EB810601313668C660C2E73846D3
:102E0000043790ED007AD0ED087A77EEC77A97ED27
:102E1000037AC7ED0F7AD7ED0B7A77EEC77AC7ED55
:102E2000137AB5E704F164000221B7EE007AD4ED1D
:102E30003F7A98ED006A012977EE676A67EE867A35
:102E400093ED006AE6EE267AC3ED007AD4ED3F7A80
:102E5000D8ED046A37EE677A67EEA67AD2ED006A9B
:102E6000E6EE877AC2ED007A07D108F10408043350
:102E700004324045D8D1BDE8F8830121D5E730B50B
:102E8000002385B004460D4602938B6833B10222BD
:102E900068469847EB680393AB68029321466846FF
:102EA000FFF726FC029BA2686846A360039B029280
:102EB000E268E3600392FDF7FDFD05B030BD000060
:102EC0002DE9F04F044687B017460D4660220021D9
:102ED0007430002613F040FE204612F04DF8574B98
:102EE0004FF07C589FED560AA36104F10800554B42
:102EF0004FF07E5BC4F80C8004F1D80AE36104F55E
:102F00008079C4F8148084ED040A266212F018FA5D
:102F1000002340F201120421237204F1EC00228606
:102F20004FF07D522365484BE2600593474A484B7A
:102F300062634FF08642049307F11503A2631022E7
:102F4000C4F8D830434B84ED090AC4F8E830C4F81B
:102F5000488004F594782662E663E664C4F8DC6091
:102F6000C4F8E0B00294C4E9101202A9FFF787FF89
:102F700002A8FDF79FFD384B02A904F58A7005935E
:102F8000364BC4F80461049307F11603C4F808B182
:102F90001737C4F80031324B0294C4F81031FFF7F0
:102FA0006EFF02A8FDF786FD2E4B02A904F59E7068
:102FB00005932D4BC4F8287104934FF08143C4F856
:102FC0002C61C4F83031C4F838B10294FFF757FFD0
:102FD00002A8FDF76FFD254B02940593244B049343
:102FE000D5E90C03984222D002A9FFF713FB2B6B03
:102FF00010332B6302A8FDF75DFD05F1200002A947
:10300000CDF808A00190FFF765FB02A90198CDF863
:103010000890FFF75FFB019802A9CDF80880FFF741
:1030200059FB204607B0BDE8F04FFFF746BD01460B
:1030300002AA05F12C00FFF78DFBDBE700803B4780
:103040000000C8423EC3AE37CD2904900000A04125
:103050001D2A0490CDCC4C3DDD2A0490092A049011
:103060000AD7A33CD7290490F5290490312A04906B
:10307000E129049003680A6803F598431A607047D1
:10308000012A02D1016000207047022A04BF0B68A8
:103090000360F8E7012A02D1016000207047022A8C
:1030A00004BF0B680360F8E7012A02D10160002029
:1030B0007047022A04BF0B680360F8E7036803F552
:1030C000804393F8D82B82F0010283F8D82B704705
:1030D00073B500F58044054604F53663D3ED007AF8
:1030E000F4EE407AF1EE10FA03D194F8243B002B71
:1030F00062D0F0EEC07A04F53663B2EE086A0C22B4
:1031000083ED000AB5EEC00ABCEEE77A9FED2B0A0C
:1031100004F61C3605F59640F1EE10FA8DED017AB5
:1031200087EE867A9DF8043000F13000B3FBF2F1AF
:1031300002FB113341F2E22252FA83F305EB8303DF
:10314000FCEEC77AD3ED006ACCBF01230023BFEEAB
:10315000007A84F82C3BCDED017A9DF804300133E0
:1031600007EE903A04F62833F8EEE77AA6EEA77A4F
:10317000D3ED007AD4F8203B67EE277A07EE103AB9
:10318000B8EE477AC7EE876AF5EEC06AF1EE10FA3C
:1031900058BFB0EE660A86ED000A11F0BFFE05F5D5
:1031A000964096ED000A403011F0B8FE94F8243BAA
:1031B00013B1002384F8243B02B070BD000000006E
:1031C000006891ED000A2030FFF782BF044B1868B9
:1031D00080EA403080EA504080EA40101860704732
:1031E0006C00002473B500F5984300F58045012676
:1031F0004FF07C520446203085F8D86BB2EE080AB6
:103200001A6004F597440190FFF762FF05F68433D6
:10321000002201981A604FF4166394ED000AC5F875
:10322000403B85F8446B02B0BDE87040FFF750BFEB
:10323000FDEEC07A40F65F13B8EEE77A17EE902AFB
:103240009A4294BF8260836030EE470A80ED000AA4
:103250007047D0E901324FF4166190ED007A1344C3
:10326000B3FBF1F201FB1232013300EB820292ED6B
:10327000030AB3FBF1F201FB123300EB8303D3ED3E
:10328000037A77EEC07AA7EE870A70472DE9F047F8
:10329000054600F596400E46303005F5804405F5AC
:1032A00097472DED068B11F049FE05F59640F0EE9F
:1032B000408A403011F042FE04F53763B0EE408A98
:1032C000D3ED007AF4EEE87AF1EE10FA38DD04F688
:1032D00064334FF0FF089FED999AD3ED009AFFF702
:1032E00075FF04F66832B0FBF8F3C3EB0323C01A92
:1032F000D4F8203B07EE900AF8EEE77A87EE897A59
:1033000067EE297A07EE103ABBEEEF7A67EE877A1E
:10331000C2ED007AFFF75AFF9FED897AB0FBF8F80B
:10332000C8EB0828A0EB080007EE900AF8EEE77A51
:10333000C7EE896ADFED837AE6EE877AC7ED007A19
:1033400004F67433D3ED007AF4EEC87AF1EE10FA95
:103350003ADD04F664334FF0FF089FED789AD3ED21
:10336000009AFFF733FF04F66C32B0FBF8F3C3EBBF
:103370000323C01AD4F8203B07EE900AF8EEE77A50
:1033800087EE897A67EE297A07EE103ABBEEEF7A7C
:1033900067EE877AC2ED007AFFF718FF9FED687A33
:1033A00004F68433B0FBF8F8C8EB0828A0EB08005B
:1033B00007EE900AF8EEE77AC7EE896ADFED617AE8
:1033C000E6EE877AC3ED007A04F6783304F66832C5
:1033D000D7ED006A04F66C31D3ED007AD2ED009A95
:1033E00004F67C3239EEE77AE6EE877A91ED007AE0
:1033F000C3ED007A04F68433D2ED007AD3ED006A8F
:1034000004F5376337EE677AE6EE877AC2ED007A25
:10341000C3ED008A04F6743383ED008A94F82C3BE4
:103420002BB1F7EE007A77EEE88A37EEC88AD4F847
:10343000203B04F65C3704F6583A9FED43AA013B63
:1034400004F5356928EE8A0A04F6543807EE903AF6
:10345000F8EE677A27EEA89A67EE887A8AED009AE6
:10346000C7ED007A12F06CFA89ED000A28EE0A0A1C
:103470009FED368A12F064FA6A684FF4166188ED9F
:10348000000A05EB8203D6F800C002F65F1239EE9F
:10349000890AC3F80CC005F51656B2FBF1F301FB1F
:1034A00013220C366A6005F50052D2F8903502EB13
:1034B000830003F65F1300F29450C0F804C0B3FB1E
:1034C000F1F001FB10332846C2F89035FFF7B0FE4B
:1034D00004F66C3397ED000A3046D3ED007A30EEF7
:1034E000270AFFF7A5FE04F678339AED000A04F6E2
:1034F0007C34D3ED007A284630EE270AFFF798FE99
:10350000D4ED007A97ED000A304630EE270AFFF737
:103510008FFE2846FFF79DFED9ED007A3046A0EEDB
:10352000278AFFF796FED8ED007AA0EE278AB0EE44
:10353000480ABDEC068BBDE8F08700BF00007F4362
:103540006F12833A17B75139DB0F49400000000072
:1035500000F580432DE9F74393F8D84B06460D4616
:103560009046002C3BD10746444538D0296806F1E7
:1035700020004FEA840901EB84010190FFF786FEE9
:103580006968A7EC010A013449440198FFF77EFEFF
:1035900006F598422968B7EE007A87ED030A17ED21
:1035A000016A4944D2ED007A6B6877EE676A67EE8C
:1035B000867A91ED006A4B44E6EE267AC1ED007AF8
:1035C000D7ED036AD2ED007A37EE677A67EEA67A16
:1035D000D3ED006AE6EE877AC3ED007AC4E703B064
:1035E000BDE8F08330B5002385B004460D46029354
:1035F0008B6833B1022268469847EB680393AB6847
:10360000029321466846FFF773F8029BA26868465A
:10361000A360039B0292E268E3600392FDF74AFA1B
:1036200005B030BD2DE9F04F00F5804500269146EC
:103630004FF0000805F64833734A00F5974B0446EF
:103640000F4600F1200A0BF1280B2DED028B0660CE
:1036500087B006614660466186608661C660C66165
:1036600085F8448B1A6005F63C33684A1A6007EE09
:10367000908AB2EE088A08F10108B0EE000AF8EE6E
:10368000E70AC0EE880A11F03FFFB8F10C0FABEC6F
:10369000010AECD105F537634FF41652002104F10D
:1036A0002C001E604FF0010813F056FA4FF0000B8B
:1036B00005F65433DFED568A04F596409FED550A22
:1036C000C4E909B8C3ED008A05F65C3350301E60CA
:1036D00011F024FC4FF4165205F674335946A01825
:1036E0001E60383013F038FA04F500534A4AC3F824
:1036F000B0B504F1200BC3F8B48505F664330BF5BF
:1037000096409FED440AC3ED008A05F66C334030C5
:103710001A6011F003FC4FF4166385F84C8B504689
:10372000C5F8403B04F5974385F8448B04F597486A
:1037300093ED000A4FF07E5AFFF7CAFC05F684337A
:10374000364A08F15C081E6002A9354B08F11400E6
:1037500002940593334B049309F10B03C5F8DC3B4A
:1037600005F6DC3305F604455E6004F598461A61FB
:10377000C3F808A00436FFF735FF02A8FDF79AF951
:10378000294B09F10C0202A9059306F11400274BFD
:103790002A600493264B85ED028A6B60C5F810A061
:1037A0000294FFF71FFF02A8FDF784F9214B029452
:1037B0000593214B0493D7E90C03984206D10146A7
:1037C00002AA07F12C00FEF7C5FF05E002A9FEF7EB
:1037D00021FF3B6B10333B6302A8FDF76BF907F148
:1037E000200002A9CDF808800190FEF773FF019830
:1037F00002A90296FEF76EFF204607B0BDEC028BD1
:10380000BDE8F04FFFF7EEBC00803B470000A04052
:1038100000803B4700004842DB0F4940CDCC4C3D87
:1038200075300490A9300490C13104909530049013
:10383000000040C1BD30049081300490012A02D1C3
:10384000016000207047022A04BF0B680360F8E79C
:10385000012A02D1016000207047022A04BF0B68D0
:103860000360F8E7012A02D1016000207047022AB4
:1038700004BF0B680360F8E70268137C83F0010360
:1038800013747047D1ED007A0368F5EE407AF1EEDB
:1038900010FA14BF012200221A737047D1ED007A8A
:1038A0009FED0D7A9FED0D0AF4EEC77A10B5F1EE9B
:1038B00010FA046858BFF0EE477A27EE800A11F03C
:1038C000B7FFF7EE007A84ED000A30EE270A87EEA4
:1038D000807A84ED017A10BDC976FE3EDB0F494047
:1038E000013A1DD391ED007AD0ED006AD0ED027A55
:1038F00090ED016AE7EE267A037B67EE867A37EE73
:10390000677AB0EE676AA6EE876A80ED026A23B135
:10391000012BDFED047A47FE277AE1EC017ADFE73D
:10392000704700BF000000000123037400230373ED
:10393000024B0360024B4360704700BF5F33D442C9
:1039400061FA183CF8B5047C05460F4616466CB97A
:10395000B4420BD03246396828460134FFF7C0FF25
:10396000324679682846FFF7BBFFF1E7F8BD30B56E
:10397000002385B004460D4602938B6833B10222C2
:1039800068469847EB680393AB6802932146684604
:10399000FEF7AEFE029BA2686846A360039B0292FC
:1039A000E268E3600392FDF785F805B030BD0000E2
:1039B00000232DE9F043037387B0314B4FF000092A
:1039C00004460D46059302A92E4B00F11408C0F8D9
:1039D00008901646049302F11F03C0F81890203691
:1039E00043614FF07E530290283040F80C3C04F1C4
:1039F000380740F8043CFFF7BAFF02A8FDF75AF871
:103A0000214B02A904F14C000593204BA6630493BB
:103A10001F4BC4F83C9023641E4B0294A364FFF731
:103A2000A6FF02A8FDF746F81B4B029405931B4B1B
:103A30000493D5E90C0398421BD002A9FEF7EAFDD6
:103A40002B6B10332B6302A8FDF734F805F120002F
:103A500002A9CDF808800190FEF73CFE019802A96A
:103A60000297FEF737FE204607B0BDE8F043FFF7A8
:103A70005BBF014602AA05F12C00FEF76BFEE2E7F0
:103A800085380490653804909D380490513804902E
:103A900048E1FA3E0AD7233C793804903D38049037
:103AA000012A02D1016000207047022A04BF0B687E
:103AB0000360F8E7012A02D1016000207047022A62
:103AC00004BF0B680360F8E7012A02D101600020FF
:103AD0007047022A04BF0B680360F8E7012A02D18D
:103AE000016000207047022A04BF0B680360F8E7FA
:103AF000012A02D1016000207047022A04BF0B682E
:103B00000360F8E7012A02D1016000207047022A11
:103B100004BF0B680360F8E7036803F5C83393F844
:103B2000342082F0010283F834207047006891ED60
:103B3000000A203000F05BBC006891ED000A2030E4
:103B400000F03EBC006891ED000A203000F02ABC75
:103B5000006891ED000A203000F04DBC00B5203027
:103B60002DED028B83B0B0EE408A019000F032FC64
:103B7000B7EE000A019830EE480A03B0BDEC028BA4
:103B80005DF804EB00F02EBC00F5C8330122B6EE60
:103B9000000A13B5044683F83420FFF7DFFF9FEDDA
:103BA0000C0A04F12000019000F025FC0198B6EE0B
:103BB000000A00F0F7FB0198B6EE000A00F000FCE6
:103BC000B6EE000A019802B0BDE8104000F00FBC4C
:103BD0000000000091ED000A0068FFF7BFBF00F58C
:103BE000C833F0B593F8345085B004460E461746F6
:103BF000D5B900F11003CDE901250093034620302B
:103C0000D1E9001200F0A6F92B46BB420CDA32686B
:103C100054F8041B02EB830211607268E16802EB46
:103C2000830201331160F0E705B0F0BD30B5002329
:103C300085B004460D4602938B6833B10222684674
:103C40009847EB680393AB68029321466846FEF7FA
:103C50004FFD029BA2686846A360039B0292E26844
:103C6000E3600392FCF726FF05B030BD2DE9F04F6D
:103C70001646694A00F5C8340546884604F1380BF3
:103C800004F1600A04F1880904F1D8072DED048BD2
:103C900087B0B7EE008ADFED618A059202A9604A1B
:103CA0009FED609A049206F13302029004F14C00F9
:103CB000A263C4ED0F8A84ED108A84ED129AFFF797
:103CC000B5FF02A8FCF7F6FE574A02A904F17400FA
:103CD0000592564AC4ED198A049206F1340284ED25
:103CE0001A8A22664FF07A5202952267FFF79EFFEA
:103CF00002A8FCF7DFFE4E4A02A904F19C000592DF
:103D00004C4AC4ED238A049206F1350284ED248ADC
:103D1000C4F8882084ED269A0295FFF787FF02A851
:103D2000FCF7C8FE444A04F1B00302A9059204F16D
:103D3000C400424AC4ED2D8A049206F1360284ED95
:103D40002E8A3736C4F8B02084ED309A009302955D
:103D5000FFF76CFF02A8FCF7ADFE394A02A904F197
:103D6000EC000592374AC4F8D860C4ED378A84ED78
:103D7000388A84ED3A9A04920295FFF757FF02A819
:103D8000FCF798FE304A02950592304A0492D8E931
:103D90000C02904238D002A9FEF73CFCD8F8302043
:103DA0001032C8F8302002A8FCF784FE08F1200089
:103DB00002A9CDF808B00190FEF78CFC02A9019889
:103DC000CDF808A0FEF786FC02A90198CDF808906E
:103DD000FEF780FC009B02A9019802930090FEF779
:103DE00079FC02A900980297FEF774FC05F1200007
:103DF000B7EE000A00F0F6FA284607B0BDEC048BD7
:103E0000BDE8F04FFFF7C0BE014602AA08F12C0042
:103E1000FEF7A0FCC7E700BFD53B04900000000000
:103E2000053B0490CDCC4C3D513B0490F13A0490BD
:103E3000453B0490DD3A0490393B0490C93A049024
:103E40002D3B0490B53A0490193B0490A13A04909C
:103E50008269B0EE407A0169D0ED017A01EB82010E
:103E600090ED026ADFED156A013291ED000A67EE0E
:103E7000867A90ED036A10EE103A13F0FF4F06FEBB
:103E8000800AE6EE007A17EE903AF0EE477A13F0E9
:103E9000FF4F14BF4360C0ED016AD0ED006A90EDA2
:103EA000016A4369E6EE267A9A42A8BF0023C1ED73
:103EB000007A8261A8BF8361704700BF00000000E4
:103EC000C368F0EE407A4268DFED0D6A02EB8302D0
:103ED000013392ED007A17EE101A11F0FF4F06FE33
:103EE000877AD0ED006A37EE400AE6EE877AC2EDB7
:103EF000007A8268C3609342A4BF0023C360704706
:103F000000000000F6EE007A90ED0A7A70B5B4EE8B
:103F1000E77A0446F1EE10FA1BDA00F12C0500F501
:103F20008676284600F073FA05F1E0001C3500F0B3
:103F30006EFAB542F5D104F5F67504F50B74284612
:103F400000F084FA05F14000103500F07FFAAC4231
:103F5000F5D170BD2DE9F04F2DED048B87B09A4659
:103F600004460026169B159F4FEA830BCDE90312EA
:103F7000149B002F33440293049B03EB06080AEBC7
:103F800006030193039B03EB060962DDD8ED007A7B
:103F9000254699ED009A04F58671DFED308A2C35BF
:103FA00039EE279AD4ED007AB0EE688A29EE279A86
:103FB0002846B0EE490A0591FFF74AFF05F1E000F7
:103FC00038EE008AB0EE490A1C35FFF741FF05992B
:103FD00078EE808A8D42EBD104F5F67504F50B710D
:103FE0002846B0EE480A0591FFF76AFF05F1400048
:103FF000B0EE408AB0EE680A1035FFF761FF059910
:10400000F0EE408A8D42EBD1D4ED077A5E4494ED18
:10401000067A013F60EE277AD9ED006A019BE7EE50
:10402000087A94ED087AE6EE877AC3ED007A94ED8B
:10403000070AD4ED067A28EE008A98ED007A029BF2
:10404000A7EEA88AD4ED087AA7EE278A83ED008A26
:104050008EE707B0BDEC048BBDE8F08F00000000D8
:10406000B6EE007AD0ED097A90ED056AF0EE476A77
:10407000F8B5E7EE876A00F12C05044600F586776F
:104080002E4666EE266AC0ED066AF7EE006A76EE08
:10409000E77A67EE877A67EE867AC0ED077AD0ED29
:1040A0000A7AF4EEC77AF1EE10FAB3BF4368002340
:1040B000C0ED026A8360B7BFC368036103610F4B41
:1040C0000360304694ED020A00F0B7F906F1E00013
:1040D0001C3694ED020A00F0B0F9BE42F1D1284638
:1040E00094ED040A00F0A0F905F1E0001C3594ED10
:1040F000040A00F099F9BD42F1D1F8BD8FC2753CB8
:104100002DE9F74F00F12C09044600F586784D465D
:1041100028461C3500F073F94545F9D1454604F5AC
:10412000F67728461C3500F06AF9AF42F9D13D46D2
:1041300004F50B762846103500F082F9B542F9D126
:10414000354604F51B7A2846103500F079F95545B7
:10415000F9D12946484640F25C4204F50F7B00F055
:1041600053F904F59E51404640F273421C3104F568
:10417000037A00F049F904F5165104F1480040F2C1
:10418000A442283104F5137900F03EF904F560519A
:1041900004F5947040F2BB42383104F5077800F022
:1041A00033F904F5964104F1640040F2FD422431F4
:1041B00004F5177500F028F904F5BE4104F5A27066
:1041C00040F21452183100F01FF904F5E64104F1F1
:1041D000800040F24C52683100F016F904F50841B5
:1041E00004F5B07040F26352983100F00DF904F517
:1041F0001E4104F19C0040F28E52243100F004F97B
:1042000004F5344104F5BE7040F2A5525C3100F073
:10421000FBF804F54A4104F1B80040F2D352F03102
:1042200000F0F2F804F5624104F5CC7040F2EA5275
:104230003C3100F0E9F804F5794104F1D40040F292
:104240001562E43100F0E0F804F5893104F5DA7024
:1042500040F22C62383100F0D7F804F5953104F1C2
:10426000F00040F25162E83100F0CEF804F5A231DE
:1042700004F5E8704FF4CD622C3100F0C5F804F578
:10428000AE3138464FF40B7201F5E67100F0DBF801
:1042900004F5B331304640F243227C3100F0D3F8CC
:1042A00004F5FE7304F5B73140F2B91218460193D4
:1042B00001F5C47100F0C7F804F5BB3158464FF45E
:1042C000E8726C3100F0BFF804F5BE31504640F2A0
:1042D000551201F5D67100F0B6F804F5C131484623
:1042E0004FF4B67201F5807100F0ADF804F5C431F9
:1042F0004046E122B03100F0A6F804F5C631F822BC
:104300002846343100F09FF83846B6EE000A00F037
:10431000AAF83046B6EE000A4FF07E5600F0A3F839
:10432000019BB6EE000A184600F09DF85846B6EE1E
:10433000000A00F098F85046B6EE000A00F093F834
:104340004846B6EE000A00F08EF84046B6EE000A87
:1043500000F089F8B6EE000A2846002500F083F840
:1043600020466661FFF77CFE0C4B20466360FFF73A
:1043700077FE0B4B20462562E360FFF771FE204677
:104380006662FFF76DFE2046A562FFF769FE2046D4
:10439000FFF7B8FD204603B0BDE8F08F3D0A573F58
:1043A000CDCC4C3E9FED047ADFED047AE0EE077A47
:1043B000C0ED017AFFF754BE295C8F3E3333333FA3
:1043C000DFED037A20EE270A80ED030AFFF748BEEF
:1043D000CDCCCC3EF0EE087A20EE270A80ED050A1F
:1043E000FFF73EBE30EE000A80ED080A704780ED10
:1043F000090AFFF735BE80ED0A0AFFF731BE002239
:104400004260002282617047C0E90412704710B513
:10441000002344699C4206DD0269002102EB83020D
:1044200001331160F6E710BDF7EE007A80ED020A65
:1044300037EEC00A80ED030A704780ED000A70472E
:104440000022C2607047C0E90112704710B5002316
:1044500084689C4206DD4268002102EB830201333E
:104460001160F6E710BD80ED000A704770B5044694
:104470000E46154604300A46002100F05DF832462B
:1044800004F11800012100F057F8324604F12C0025
:10449000022100F051F8324604F14000032100F0FF
:1044A0004BF8204600232A460121636550F8A83BBB
:1044B00000F017F823682A4604F53A70022100F04C
:1044C00010F823682A4604F5A560032100F009F8D6
:1044D00023682A4604F5ED600421BDE8704000F031
:1044E00000B870B504460D461646C0E90013083002
:1044F00000F0E2F863683246294604F16C0000F0EF
:104500008FF963683246294604F1E40000F078F838
:1045100063683246294604F5E07000F015F86368D8
:104520003246294604F5AE7000F01AF90023C4F8AB
:104530003832A4F83C3270BD00230260C160436091
:10454000012303747047000070B5C0E900131931EE
:10455000044615468AB050F82110D2E90B031B1A05
:10456000B1EB231F4FEA231202D3244810F00CFFB3
:1045700006AE00EB011102A8FEF74CF802A9304686
:10458000A560FEF747F86A4604F10C0396E80300BD
:1045900082E8030093E8030086E8030092E8030042
:1045A00083E80300089B304662696361099B0892B7
:1045B000A269A3610992FCF77DFA4FF4807302A807
:1045C000A383FCF777FA20462A4650F8201B2931AE
:1045D00000F01AF920462A4650F8301B2A3100F024
:1045E00013F920462A4650F8401B2B3100F00CF9F5
:1045F0000023A4F864300AB070BD00BFF0950590A8
:1046000070B5C0E900131931044615468AB050F858
:104610002110D2E90B031B1AB1EB231F4FEA23121F
:1046200002D3244810F0B0FE06AE00EB011102A840
:10463000FDF7F0FF02A93046A560FDF7EBFF6A46E3
:1046400004F10C0396E8030082E8030093E80300FA
:1046500086E8030092E8030083E80300089B3046E5
:1046600062696361099B0892A269A3610992FCF7E0
:1046700021FA4FF4807302A8A383FCF71BFA2046AB
:104680002A4650F8201B1F3100F0BEF820462A466B
:1046900050F8301B203100F0B7F820462A4650F879
:1046A000401B213100F0B0F80023A4F864300AB0B8
:1046B00070BD00BFF095059070B5C0E900130446C9
:1046C00000EB810115468AB0096DD2E90B031B1A74
:1046D000B1EB231F4FEA231202D3204810F054FEFF
:1046E00006AE00EB011102A8FDF794FF02A93046C7
:1046F000A560FDF78FFF6A4604F10C0396E80300FE
:1047000082E8030093E8030086E8030092E80300D0
:1047100083E80300089B304662696361099B089245
:10472000A269A3610992FCF7C5F94FF4807302A84E
:10473000A383FCF7BFF920462A4650F8201B0B3113
:1047400000F062F820462A4650F8301B0C3100F089
:104750005BF80023A4F850300AB070BDF0950590C6
:1047600070B5C0E90013044600EB810115468AB01C
:10477000096DD2E90B031B1AB1EB231F4FEA231279
:1047800002D3204810F000FE06AE00EB011102A893
:10479000FDF740FF02A93046A560FDF73BFF6A46E2
:1047A00004F10C0396E8030082E8030093E8030099
:1047B00086E8030092E8030083E80300089B304684
:1047C00062696361099B0892A269A3610992FCF77F
:1047D00071F94FF4807302A8A383FCF76BF92046AC
:1047E0002A4650F8201B333100F00EF820462A46A6
:1047F00050F8301B353100F007F80023A4F8503092
:104800000AB070BDF0950590136A1B68C0E90021DD
:104810001A68914218BF002383600023C360704769
:1048200070B5C0E900131931044615468AB050F836
:104830002110D2E90B031B1AB1EB231F4FEA2312FD
:1048400002D3244810F0A0FD06AE00EB011102A82F
:10485000FDF7E0FE02A93046A560FDF7DBFE6A46E3
:1048600004F10C0396E8030082E8030093E80300D8
:1048700086E8030092E8030083E80300089B3046C3
:1048800062696361099B0892A269A3610992FCF7BE
:1048900011F94FF4807302A8A383FCF70BF92046AB
:1048A0002A4650F8201B1531FFF7AEFF20462A4656
:1048B00050F8301B1631FFF7A7FF20462A4650F864
:1048C000401B1731FFF7A0FF0023A4F864300AB0A3
:1048D00070BD00BFF0950590094B4FF44841002290
:1048E000998214211A7383F859100D211A619A6163
:1048F00083F85A10A3F86020A3F86620704700BF21
:10490000C4910724143001F065BA00BF38B500F136
:10491000140504462DED028B284601F017FA2846AF
:1049200001F010FA2846B0EE408A01F0F9F9D0ED16
:10493000007AF8EE677A88EE277ABDEC028B84ED78
:104940000E7A38BD38B500F1140504462DED028B02
:10495000284601F0E9F9284601F0F4F92846B0EEBE
:10496000408A01F0DDF9D0ED007AF8EE677A88EE42
:10497000277ABDEC028B84ED0E7A38BD10B540F27B
:1049800003338EB000244FF60B7240F20341ADF8B2
:10499000083009A80123ADF81020ADF824202246E4
:1049A000ADF80C100094029907940C94CDE90544DD
:1049B000CDE90A4401F0CAFD04A801232246039967
:1049C000009401F0C3FD09A801F0A6FE10B9012072
:1049D0000EB010BD04A801F09FFEA0420CBF022043
:1049E00020460EB010BD00BF2DE9F04103239AB060
:1049F000012700240646CDE914373B4BCDE910438F
:104A000040F20453CDE91647ADF84830FFF7B6FF42
:104A1000B842054625D0022845D040F60132334B36
:104A20000DF12C081894ADF82C200B981997CDF89F
:104A30004A3000F0E3F810A906F13C0002F0B4FEA1
:104A4000302003224FF07E5341460D930E93CDE963
:104A50000B02F26B06F1140001F02AF91AB0BDE85E
:104A6000F0811023214A06A906908DF828300DF117
:104A70002C081F4BCDF84A2007930294CDE9180467
:104A8000CDE9080402A802F0C7F80823029A03A996
:104A90004046ADF80C508DF80E40049505930B94EC
:104AA00000F0ECF8C7E700200121104B0DF12C08B5
:104AB0003A460094CDF84A304FF60B730C94ADF89B
:104AC0002C302346CDE9180140F601314046ADF8BF
:104AD00018100699CDE90D4401F038FD21464046F5
:104AE00001F026FEA7E700BF040204040406040345
:104AF0000704010B2DE9F04704462DED028B82B02F
:104B000000294DD0012140F2011200230091ADF89F
:104B100004208DF80630364A0127364B04F104098B
:104B2000354904F12908626040F20272A36040F640
:104B30000663E16004F1250AA4F82520A4F82930D1
:104B4000278284F8277084F82B7004F023F9054637
:104B500003F086FF6946064650BB4DB304F13000B2
:104B60008DF8067004F09EF8072D3CD104F1140571
:104B70002046FFF739FF284601F0E4F82846B0EE5A
:104B8000408A01F0CDF8D0ED007AF8EE677A88EE31
:104B9000277A84ED0E7A02B0BDEC028BBDE8F08777
:104BA00040F2011300918DF80610ADF80430B2E721
:104BB00004F1300004F076F8072D11D04946204664
:104BC00002F072FA0EB9002DD0D1504601F0BAFDB4
:104BD000404601F0B7FD04F1120000F079F9C5E795
:104BE000002EF2D1C2E74946204602F05DFABDE749
:104BF0000508050905070506050A060610B584B06F
:104C000003460124ADF8040003A8ADF80C30ADF85C
:104C10000E4001F097FD214603A801F07DFE2046DD
:104C200003F01CFF002103A801F076FE204603F0EC
:104C300015FF214603A801F06FFE04B010BD00BFB0
:104C400010B5C2F3002384B00C46017C8DF80D2012
:104C500043EA4402FA2402238DF80C2003AA0094AC
:104C600002F070F818B10124204604B010BD0446CB
:104C70000A2003F0F3FE204604B010BD034670B5D1
:104C800043F8042B044684B007C983E80700A379DE
:104C900083B91A210B461E22FA2523742046ADF84B
:104CA0000C20022303AA009502F04CF828B1012041
:104CB00004B070BD1B210B46EDE70A2003F0CEFEC9
:104CC0004FF4B85200950223ADF80C20204603AAF9
:104CD000217C02F037F80028E9D10A2003F0BEFE5B
:104CE00041F2027200950223ADF80C20204603AA7F
:104CF000217C02F027F80028D9D10A2003F0AEFE6B
:104D0000042200950223ADF80C20204603AA217C42
:104D100002F018F80028CAD10A2003F09FFE0622EC
:104D200000950223ADF80C20204603AA217C02F056
:104D300009F80028BBD10A2003F090FE41F20822B6
:104D400000950223ADF80C20204603AA217C01F037
:104D5000F9FF0028ABD10A20064603F07FFE00953C
:104D6000022303AA217C2046ADF80C6001F0EAFF83
:104D700000289CD1304603F071FE009522790C2367
:104D80002046002A8DF80C3003AA4FF0020314BF0E
:104D9000622142218DF80D10217C01F0D3FF002803
:104DA00085D1304603F05AFE2279D4E902310B4313
:104DB000DBB20AB943F0400362790AB143F0200341
:104DC0000E22FA258DF80D302046009502238DF82D
:104DD0000C2003AA217C01F0B5FF00287FF467AF07
:104DE0000A2003F03BFE102200950223ADF80C20B0
:104DF000204603AA217C01F0A5FF00287FF457AFCD
:104E00000A2003F02BFE122100950223ADF80C10AE
:104E100003AA217C204601F095FF00287FF447AFCC
:104E20000A2003F01BFE012209212046FFF708FF9C
:104E3000003818BF01203BE7F0B5102387B0234CA2
:104E4000012200250126002702A920460195CDE96F
:104E500002234FF48052CDE904670AF005FD642077
:104E600004F0F0F902A94FF480522046CDE904671E
:104E700002261027CDE902670AF0F6FC0322102370
:104E800002A92046CDE9022300230422CDE9042310
:104E90004FF480520AF0E8FC40F23223042202A9C7
:104EA000019310232046CDE90223019A01230592A4
:104EB0004FF4805204930AF0D7FC40F606012046D6
:104EC0000AF0F2FC284607B0F0BD00BF3492072478
:104ED0001C4B00221C494FF0400C30B5054689B0F0
:104EE0000220596007219A601A620124DA620A22BC
:104EF0004FF4006EDC6006922022CDE90001042010
:104F00000821CDE9020103201021CDE90401082088
:104F10006946C3E904024FF4C072181DC3E906C212
:104F20004FF48052C3E909E20AF074FC38B928460C
:104F3000FFF782FF003818BF012009B030BD2046BE
:104F400009B030BD3092072440410052614A00212F
:104F5000D0B513688EB00A91002B40F0B9805E4B3B
:104F600001214FF683700C2411600221D3F8D42064
:104F70000026032742F48052C3F8D420D3F8D4206B
:104F800002F480520092009AD3F8E02042F010021E
:104F9000C3F8E020D3F8E02002F010020192019A59
:104FA000D3F8E02042F04002C3F8E020D3F8E0203C
:104FB00002F040020292029AD3F8E02042F0080286
:104FC000C3F8E020D3F8E02002F008020392039A2D
:104FD000D3F8E02042F48072C3F8E020D3F8E02058
:104FE00002F480720492049AD3F8E02042F0800226
:104FF000C3F8E020D3F8E02002F080020592059A81
:10500000D3F8E02042F02002C3F8E020D3F8E020FB
:1050100002F020020692069AD3F8E02042F0040241
:10502000C3F8E020D3F8E0300C9403F004030793B6
:105030000323079A0B93CDE9080108A9274805F037
:1050400087FF48F23712022308A925480C94CDE9BE
:105050000823CDE90A6705F07BFF4CF203720223B7
:1050600008A920480C94CDE90823CDE90A6705F08A
:105070006FFF40F2FF62022308A91B480C94CDE9A0
:105080000823CDE90A6705F063FF4FF60C7202238F
:1050900008A916480C94CDE90823CDE90A6705F064
:1050A00057FF4FF63F02022308A911480C94CDE99F
:1050B0000823CDE90A6705F04BFF2022022308A947
:1050C0000A480C94CDE90A67CDE9082305F040FFB2
:1050D0000EB0D0BD2C920724004402580010025894
:1050E00000180258000C025800200258001C0258F8
:1050F000001402582DE9F04FDFF8108406460D46E3
:10510000144608F118002DED028B89B000AF02F0B3
:1051100043FCD8F8183073B3D8F81C30D8F8049092
:10512000002B43690BBF4FF0080A4FF0100A4FF0F5
:10513000020B4FF0040BB9F1000F2AD0A200EA468F
:10514000012B02F1070222F00702ADEB020D6846C7
:10515000ADEB020D694600F03F81022B00F0D680D6
:10516000002B6FD02246C847D5462437BD46BDEC3C
:10517000028BBDE8F08FD8F81C30002BF5D0D8F8A2
:1051800004904FF0080A4FF0020B4369B9F1000F89
:10519000D4D1FB61D8F80030BB61002BE5D0D548F5
:1051A00002F06CFC6B46BBF1020F786108EE103A1E
:1051B000FB6900F083816A465146A2EBC402954622
:1051C0006200EA46B2FBFBF2AAEBC40085460AEB9A
:1051D0008200EE46F861ADEB010DF8690EEB820C32
:1051E000C7F810C0EC46ADEB010D00EB8201CCF826
:1051F0000400CCF8081001EB82013869E946CCF8CC
:105200000C1000EB8201CCF800A001EB8202C9E98E
:1052100000E0C9E90212012B00F06483022B00F0C8
:105220006C82002B00F08081620849466046BB69B1
:10523000984718EE103A24379D46BD46BDEC028BC8
:10524000BDE8F08F002C8DD01A46D8ED0C6A9FED8A
:10525000B27A8446331D36F922E00CF1080C07EED1
:1052600090EA33F922E00232F8EEE77A944267EEF0
:10527000877A67EEA67A4CED027A07EE90EAF8EEAE
:10528000E77A67EE877A67EEA67A4CED017AE2D884
:10529000F9612246C847984ED8ED0D6A0020F96999
:1052A0002B1D9FED9E7A9FED9E6ADFED9E5A22E0B8
:1052B000F4EEC67AF1EE10FAC0F2C88447F6FE7238
:1052C000D1ED017A45F8202066EEA77AF4EEC77A90
:1052D000F1EE10FA40F2F080F4EEC67AF1EE10FA38
:1052E000C0F2D58447F6FE7243F820200230083120
:1052F00084427FF639AFD1ED007A66EEA77AF4EEFC
:10530000C77AF1EE10FAD3D83246D9E7002C3FF431
:1053100029AFD8ED0C6A84469FED787A0022331DC0
:105320008E4656F822100CF1080C07EE901A53F82E
:1053300022100232F8EEE77A944267EE877A67EE3F
:10534000A67A4CED027A07EE901AF8EEE77A67EE4D
:10535000877A67EEA67A4CED017AE2D8714622464A
:10536000C7F81CE0C847664ED8ED0D6A0020F96901
:105370002B1D9FED6A7A9FED6A6ADFF894C120E0E9
:10538000F4EEC67AF1EE10FAC0F279843246D1ED2D
:10539000017A45F8202066EEA77AF4EEC77AF1EE9E
:1053A00010FA40F28780F4EEC67AF1EE10FAC0F2FD
:1053B0005E84324643F820200230083184427FF672
:1053C000D3AED1ED007A66EEA77AF4EEC77AF1EEAD
:1053D00010FAD5D86246DAE7002C3FF4C3AED8ED18
:1053E0000C6A86469FED477A4FF0000C331D56F845
:1053F0002C200EF1080E82F40002A2F5000207EE46
:10540000902A53F82C200CF1020CF8EEE77A82F483
:1054100000026445A2F5000267EE877A67EEA67A7D
:105420004EED027A07EE902AF8EEE77A67EE877A79
:1054300067EEA67A4EED017AD9D8F9612246C847BF
:10544000314ED8ED0D6A0020F9692B1D9FED337A9E
:105450009FED336ADFF8BCC01FE0F4EEC67AF1EED0
:1054600010FAC0F2FC833246D1ED017A45F82020D3
:1054700066EEA77AF4EEC77AF1EE10FA18D9F4EED8
:10548000C67AF1EE10FAC0F2DA83324643F82020F1
:105490000230083184427FF667AED1ED007A66EEC5
:1054A000A77AF4EEC77AF1EE10FAD6D86246DBE7B7
:1054B0006246EBE762467DE7324615E7A100D64635
:1054C0006208073121F00701ADEB010DEA46ADEBB3
:1054D000010D6946ADEB0E0D0AEB8200EC46ADEB1B
:1054E0000E0D01EB8202F861E946CCE900A0C9E9A2
:1054F000001290E6849207240280FFFF0000003033
:105500000082FF7F0000003482FF7F006892072442
:10551000007E00807E0080FF0000003804FF7FBF17
:1055200004FF7F3F00FEFF46002C00F0C982BBF164
:10553000020FD8F8242000F0FA827969C7F80490A5
:1055400002EB810E5FED0C5A8A00DCF808100EF1B8
:1055500004007A611A46DCF80C303B61331DD7F841
:1055600010903D61FD69C7E902CB8C46834636F950
:105570002210D8ED0C7A06EE101A33F9221006EE3E
:10558000901A3EF92210B8EEC66A07EE101AF8EE2D
:10559000E66A3BF92210B8EEC77A26EE256A66EE77
:1055A000A56A27EE257A26EE276A66EEA76A27EE19
:1055B000277A07EE901A51080232F8EEE77A0AEBE2
:1055C0008100944280ED006A05EB810067EEA57AC8
:1055D000C0ED006A0CEB810009EB810180ED007ADF
:1055E00098ED0C7A67EE877AC1ED007ABFD8D7F8CC
:1055F00004903D69D7E902CB60466208BB69494621
:105600009847D8F82C307A69D8ED0D6A1A441FED06
:105610003D7A1FED3D6A2B1D904602F1040A5FEDB5
:105620003F5A0022A84ED9E900EC51E0F4EEC67AC8
:10563000F1EE10FAC0F2C78247F6FE7045F822007C
:105640000CEB0100D0ED007A66EEA77AF4EEC77A93
:10565000F1EE10FA4BD9F4EEC67AF1EE10FAC0F280
:10566000BA8247F6FE70BBF1020F43F822002BD03E
:10567000D9F808000844D0ED007A66EEA77AF4EE77
:10568000C77AF1EE10FA36D9F4EEC67AF1EE10FAD6
:10569000C0F2CD8247F6FE7048F82200D9F80C001F
:1056A0000144D1ED007A66EEA77AF4EEC77AF1EE06
:1056B00010FA1ED9F4EEC67AF1EE10FAC0F2AF82FB
:1056C00047F6FE714AF82210023294427FF6B1ADDD
:1056D00051080EEB81008900D0ED007A66EEA77AC2
:1056E000F4EEC77AF1EE10FAA0D83046A6E73046BD
:1056F000B9E73146E6E73046CEE7002C00F0E0811E
:10570000BBF1020FD8F8243000F0E1817A69DCF8AF
:10571000081003EB820EC7F804909300DFED6B5A7C
:105720000EF1040000227B61DCF80C303B61331D7C
:10573000D7F810903D61FD69C7E902CB8C468346DE
:1057400056F82210D8ED0C7A07EE101A53F82210F2
:10575000B8EEC76A07EE101A5EF82210F8EEC76AB4
:1057600007EE101A26EE256A5BF82210B8EEC77A0B
:1057700066EEA56A26EE276A27EE257A66EEA76A08
:1057800027EE277A07EE901A51080232F8EEE77AF0
:105790000AEB8100944280ED006A05EB810067EE20
:1057A000A57AC0ED006A0CEB810009EB810180ED68
:1057B000007A98ED0C7A67EE877AC1ED007ABFD84F
:1057C000D7F804903D69D7E902CB60466208BB690F
:1057D00049469847D8F82C307A69D8ED0D6A1A44B2
:1057E0009FED3E7A9FED3E6A131D9246DFF8E4C0BE
:1057F0000022FB612B1D364ED9E9008E4EE0F4EEFF
:10580000C67AF1EE10FAC0F2FC81304645F822006B
:105810000EEB0100D0ED007A66EEA77AF4EEC77ABF
:10582000F1EE10FA49D9F4EEC67AF1EE10FAC0F2B0
:10583000EF813046BBF1020F43F822002AD0D9F89D
:1058400008000844D0ED007A66EEA77AF4EEC77A35
:10585000F1EE10FA35D9F4EEC67AF1EE10FAC0F294
:10586000C98130464AF82200D9F80C000144D1ED34
:10587000007A66EEA77AF4EEC77AF1EE10FA1ED936
:10588000F4EEC67AF1EE10FAC0F2AD813146F86955
:1058900040F82210023294427FF6CBAC510808EB5C
:1058A00081008900D0ED007A66EEA77AF4EEC77A1F
:1058B000F1EE10FAA3D86046A8E76046BAE7614661
:1058C000E5E76046CEE700BF0280FFFF0000003042
:1058D0000082FF7F007E00800000003404FF7FBF55
:1058E00004FF7F3F002C00F0EB807A690021D8F89C
:1058F0002430C7F8109003EB820ED7F81C90930069
:10590000FD610EF104021FED0C6A7B61331D15462B
:1059100056F821204808D8ED0C6ABBF1020F82F43A
:105920000002A2F5000207EE902A53F8212082F42B
:105930000002B8EEE77AA2F5000227EE067A07EE3B
:10594000902A0AEB8002F8EEE77A27EE267A67EED5
:10595000867A82ED007A09EB80024FEA800067EEDA
:10596000A67AC2ED007A27D05EF8212082F40002E8
:10597000A2F5000207EE902A55F8212082F40002D9
:10598000B8EEE77AA2F5000227EE067A07EE902A33
:10599000DCF80820F8EEE77A024427EE267A67EE74
:1059A000867A82ED007A98ED0C7ADCF80C2067EEAE
:1059B000877A0244C2ED007A02318C42A8D8D7F827
:1059C000109060466208BB694946FD699847D8F85F
:1059D0002C307A69D8ED0D6A1A441FED407A1FED1C
:1059E000406A131D9246DFF8C4C20022FB612B1DE2
:1059F000AB4ED9E9008E4EE0F4EEC67AF1EE10FA25
:105A0000C0F2C580304645F822000EEB0100D0ED13
:105A1000007A66EEA77AF4EEC77AF1EE10FA49D969
:105A2000F4EEC67AF1EE10FAC0F2BF803046BBF158
:105A3000020F43F822002AD0D9F808000844D0ED1C
:105A4000007A66EEA77AF4EEC77AF1EE10FA35D94D
:105A5000F4EEC67AF1EE10FAC0F2AE8030464AF8A3
:105A60002200D9F80C000144D1ED007A66EEA77A45
:105A7000F4EEC77AF1EE10FA1ED9F4EEC67AF1EE22
:105A800010FAC0F28B803146F86940F822100232D9
:105A900094427FF6CEAB510808EB81008900D0ED2F
:105AA000007A66EEA77AF4EEC77AF1EE10FAA3D880
:105AB0006046A8E76046BAE76146E5E76046CEE79C
:105AC000224649466046BB699847FFF7B2BBC7F814
:105AD00010B0002298ED0C6A331DDFED726AD7F822
