:02000004900466
:1000000000000220110A04900D0A04901D5F049064
:100010000D0A04900D0A04900D0A049000000000DF
:100020000000000000000000000000000D0A049025
:100030000D0A0490000000000D0A0490A15E0490D7
:100040000D0A04900D0A04900D0A04900D0A049004
:100050000D0A04900D0A04900D0A04900D0A0490F4
:100060000D0A04900D0A04900D0A0490A95A0490F8
:10007000B55A0490054A0490C15A0490CD5A049090
:10008000F5110590D94F04900D0A04900D0A0490C3
:100090000D0A04900D0A04900D0A04900D0A0490B4
:1000A0000D0A04900D0A04900D0A04900D0A0490A4
:1000B000C9050590D5050590E10505900D50049002
:1000C0000D0A0490195004900D0A049039FE049012
:1000D00045FE049029100590591005908D1005904B
:1000E0000D0A04900D0A0490000000000D0A04900F
:1000F0000D0A04900D0A04900D0A04900D0A049054
:100100000D0A04900D0A0490ED05059051FE04902F
:10011000C1100590F51005900D0A04900D0A049089
:100120000D0A04900D0A049075FE0490A9FE049037
:10013000291205900D0A04900D0A04900D0A0490EE
:1001400000000000000000000000000000000000AF
:100150000D0A04900D0A04900D0A049029110590CF
:10016000255004900D0A0490B15E0490D55E049071
:100170000D0A0490F95E04900D0A04900D0A049093
:100180000D0A04900D0A04905D1105908D110590E3
:100190005DFE049069FE04900D0A04900D0A04901F
:1001A0000D0A04900D0A04900D0A04900D0A0490A3
:1001B000C95704900D0A04900D0A04900D0A04908A
:1001C0000D0A04900D0A04901945049025450490E9
:1001D0000D0A0490314504900D0A04900D0A049014
:1001E0000D0A04900D0A04900D0A04900D0A049063
:1001F0000D0A04900D0A04900D0A04900D0A049053
:100200000D0A04900D0A04900D0A04900D0A049042
:100210000D0A04900D0A04900D0A04900D0A049032
:100220000D0A04900D0A04900D0A049000000000CD
:100230000D0A04900D0A0490000000000D0A0490BD
:100240000D0A04900D0A04900D0A04900D0A049002
:100250000D0A04900D0A04900D0A04900D0A0490F2
:100260000D0A04900D0A04900D0A04900D0A0490E2
:100270000D0A04900D0A0490C111059000000000C1
:100280000D0A04900D0A04900D0A0490000000006D
:08029000000000000D0A0490BB
:1002A00010B5054C237833B9044B13B10448AFF3B0
:1002B00000800123237010BDE0070024000000002F
:1002C000CC81059008B5034B1BB103490348AFF33C
:1002D000008008BD00000000E4070024CC810590E8
:1002E000034613F8012B002AFBD1181A0138704776
:1002F00001F0FF01102A2BDB10F0070F08D010F8D7
:10030000013B013A8B422DD010F0070F42B3F6D1DA
:10031000F0B441EA012141EA014122F007047FF0F3
:1003200000070023F0E80256083C85EA010586EA4A
:10033000010685FA47F5A3FA87F586FA47F6A5FA86
:1003400087F68EB9EED1F0BC01F0FF0102F0070292
:1003500032B110F8013B013A83EA010313B1F8D13D
:100360000020704701387047002D06BF354603381E
:10037000073815F0010F07D1013015F4807F02BF57
:10038000013015F4C03F0130F0BC0138704700BFA8
:1003900081F0004102E000BF83F0004330B54FEA36
:1003A00041044FEA430594EA050F08BF90EA020FA3
:1003B0001FBF54EA000C55EA020C7FEA645C7FEA36
:1003C000655C00F0E2804FEA5454D4EB5555B8BF59
:1003D0006D420CDD2C4480EA020281EA030382EACA
:1003E000000083EA010180EA020281EA0303362D5C
:1003F00088BF30BD11F0004F4FEA01314FF4801C2F
:100400004CEA113102D0404261EB410113F0004F40
:100410004FEA03334CEA133302D0524263EB4303F7
:1004200094EA050F00F0A780A4F10104D5F1200E95
:100430000DDB02FA0EFC22FA05F2801841F10001F0
:1004400003FA0EF2801843FA05F359410EE0A5F1C4
:1004500020050EF1200E012A03FA0EFC28BF4CF0F5
:10046000020C43FA05F3C01851EBE37101F00045AB
:1004700007D54FF0000EDCF1000C7EEB00006EEBB8
:100480000101B1F5801F1BD3B1F5001F0CD3490842
:100490005FEA30004FEA3C0C04F101044FEA445299
:1004A00012F5800F80F09A80BCF1004F08BF5FEA20
:1004B000500C50F1000041EB045141EA050130BD00
:1004C0005FEA4C0C404141EB0101013C28BFB1F512
:1004D000801FE9D291F0000F04BF01460020B1FA5D
:1004E00081F308BF2033A3F10B03B3F120020CDA30
:1004F0000C3208DD02F1140CC2F10C0201FA0CF00E
:1005000021FA02F10CE002F11402D8BFC2F1200C72
:1005100001FA02F120FA0CFCDCBF41EA0C01904028
:10052000E41AA2BF01EB0451294330BD6FEA040471
:100530001F3C1CDA0C340EDC04F11404C4F120025C
:1005400020FA04F001FA02F340EA030021FA04F36E
:1005500045EA030130BDC4F10C04C4F1200220FAC5
:1005600002F001FA04F340EA0300294630BD21FA03
:1005700004F0294630BD94F0000F83F4801306BFC9
:1005800081F480110134013D4EE77FEA645C18BFBD
:100590007FEA655C29D094EA050F08BF90EA020F54
:1005A00005D054EA000C04BF1946104630BD91EA4C
:1005B000030F1EBF0021002030BD5FEA545C05D14F
:1005C0004000494128BF41F0004130BD14F580048E
:1005D0003CBF01F5801130BD01F0004545F0FE4102
:1005E00041F470014FF0000030BD7FEA645C1ABF37
:1005F000194610467FEA655C1CBF0B46024650EA6E
:10060000013406BF52EA033591EA030F41F4002199
:1006100030BD00BF90F0000F04BF0021704730B51F
:100620004FF4806404F132044FF000054FF00001F4
:1006300050E700BF90F0000F04BF0021704730B5B5
:100640004FF4806404F1320410F0004548BF40428A
:100650004FF000013EE700BF42004FEAE2014FEADF
:1006600031014FEA02701FBF12F07F4393F07F4FBA
:1006700081F06051704732F07F4208BF704793F0BD
:100680007F4F04BF41F40021704730B54FF46074D0
:1006900001F0004521F000411CE700BF50EA0102D3
:1006A00008BF704730B54FF000050AE050EA01027C
:1006B00008BF704730B511F0004502D5404261EBEC
:1006C00041014FF4806404F132045FEA915C3FF42D
:1006D000D8AE4FF003025FEADC0C18BF03325FEACA
:1006E000DC0C18BF033202EBDC02C2F1200300FA7B
:1006F00003FC20FA02F001FA03FE40EA0E0021FAA0
:1007000002F11444BDE600BF53B94AB9002908BF3D
:1007100000281CBF4FF0FF314FF0FF3000F074B9DC
:10072000ADF1080C6DE904CE00F006F8DDF804E048
:10073000DDE9022304B070472DE9F047089D044627
:100740008E46002B4DD18A42944669D9B2FA82F284
:1007500052B101FA02F3C2F1200120FA01F10CFAC0
:1007600002FC41EA030E94404FEA1C48210CBEFBF8
:10077000F8F61FFA8CF708FB16E341EA034306FB81
:1007800007F199420AD91CEB030306F1FF3080F010
:100790001F81994240F21C81023E63445B1AA4B25D
:1007A000B3FBF8F008FB103344EA034400FB07F7FF
:1007B000A7420AD91CEB040400F1FF3380F00A8140
:1007C000A74240F207816444023840EA0640E41B35
:1007D00000261DB1D4400023C5E900433146BDE8E1
:1007E000F0878B4209D9002D00F0EF800026C5E983
:1007F000000130463146BDE8F087B3FA83F6002E9B
:100800004AD18B4202D3824200F2F980841A61EB12
:10081000030301209E46002DE0D0C5E9004EDDE730
:1008200002B9FFDEB2FA82F2002A40F09280A1EB18
:100830000C014FEA1C471FFA8CFE0126200CB1FB6D
:10084000F7F307FB131140EA01410EFB03F0884266
:1008500008D91CEB010103F1FF3802D2884200F2F3
:10086000CB804346091AA4B2B1FBF7F007FB101185
:1008700044EA01440EFB00FEA64508D91CEB040423
:1008800000F1FF3102D2A64500F2BB800846A4EB7E
:100890000E0440EA03409CE7C6F12007B34022FA69
:1008A00007FC4CEA030C20FA07F401FA06F31C4398
:1008B000F9404FEA1C4900FA06F3B1FBF9F8200CA5
:1008C0001FFA8CFE09FB181140EA014108FB0EF0EB
:1008D000884202FA06F20BD91CEB010108F1FF3A3B
:1008E00080F08880884240F28580A8F10208614447
:1008F000091AA4B2B1FBF9F009FB101144EA014155
:1009000000FB0EFE8E4508D91CEB010100F1FF34FF
:100910006CD28E456AD90238614440EA0840A0FB97
:100920000294A1EB0E01A142C846A64656D353D06D
:100930005DB1B3EB080261EB0E0101FA07F722FA91
:1009400006F3F1401F43C5E9007100263146BDE8BA
:10095000F087C2F12003D8400CFA02FC21FA03F31D
:10096000914001434FEA1C471FFA8CFEB3FBF7F09E
:1009700007FB10360B0C43EA064300FB0EF69E42C3
:1009800004FA02F408D91CEB030300F1FF382FD25C
:100990009E422DD9023863449B1B89B2B3FBF7F604
:1009A00007FB163341EA034106FB0EF38B4208D9DD
:1009B0001CEB010106F1FF3816D28B4214D9023E1E
:1009C0006144C91A46EA004638E72E46284605E73C
:1009D0000646E3E61846F8E64B45A9D2B9EB02080D
:1009E00064EB0C0E0138A3E74646EAE7204694E79D
:1009F0004046D1E7D0467BE7023B614432E73046D0
:100A000009E76444023842E7704700BFFEE7000090
:100A10000848094A0949121A13F0C4FF0848094A4C
:100A20000021121A13F0CCFF13F088FF00F0DEF95A
:100A3000FEE700BF00000024DC07002400820590D0
:100A4000E007002424EA07247047704773B5104E6E
:100A5000134605460C463268B2F5007F15DB0D489B
:100A6000019300F076FE0022019B32600948019359
:100A7000D5E9001200F070FB019B0648D4E9001292
:100A800002B0BDE8704000F02EBC04323260EDE7E9
:100A900038880724380800247047704770478368F7
:100AA00010B5044613B1032201469847204610BDF5
:100AB00038B500F5EF35044605F5BC70FFF7EFFFDC
:100AC00005F5A670FFF7EBFF05F59070FFF7E7FF60
:100AD00005F1F400FFF7E3FF05F1C800FFF7DFFFC2
:100AE00005F19800FFF7DBFF04F59C403830FFF775
:100AF000D6FF04F59C400C30FFF7D1FF04F59B4076
:100B00005C30FFF7CCFF04F59B402C30FFF7C7FFAC
:100B100004F59B400430FFF7C2FF04F59A405430BF
:100B2000FFF7BDFF04F59A402430FFF7B8FF04F546
:100B300099407430FFF7B3FF04F599405430FFF744
:100B4000AEFF04F599402830FFF7A9FF04F598405F
:100B50007830FFF7A4FF04F598404830FFF79FFF77
:100B600004F14400FFF79BFF04F12400FFF797FF17
:100B7000204638BD00F5804370B503F65C42002482
:100B8000314D0646C462C46400F59C40C3F8504C25
:100B9000956003F68C42C3F8804C7430956003F680
:100BA000B842C3F8B04C956003F60852C3F8DC4C69
:100BB000C3F8FC4C956003F63852C3F82C4D956091
:100BC00003F66852C3F85C4D956003F55C62C3F8A8
:100BD0008C4DC3F8B44D956003F55F62C3F8E44DE6
:100BE000956003F61C62C3F8144E9560C3F8404E3E
:100BF00001F002FF06F5E833304603F6AC62C3F8B5
:100C0000A04E956003F6D862C3F8D04E956003F607
:100C10000472C3F8FC4E956003F57362C3F8284F65
:100C2000956003F65C72C3F8544F956003F57962E2
:100C3000C3F8804F956003F57C62C3F8B44F9560AC
:100C4000C3F8E44F70BD00BF0AD7233C38B500F5A8
:100C5000EF35044605F5EE70FFF721FF05F5D67078
:100C6000FFF71DFF2046FFF723FF204638BD10B5D4
:100C7000044600F5EF2000F5FC60FFF710FF04F5D7
:100C8000B32000F5FA60FFF7E1FF04F56F3000F5DF
:100C90007870FFF7DBFF04F5EF3000F5F870FFF731
:100CA000D5FF2046FFF7D2FF204610BD1FB5194CD7
:100CB000204602F057F82046002102F0FDF82046B9
:100CC000042102F075F82046032102F051F8124B7E
:100CD0000022214611481A60114B124A0293124B0E
:100CE0000193124B0093124B00F08AFB114B124AF6
:100CF00000931249124B094800F0E8F9114B124ACF
:100D000021460193114B05480093114B00F001FA65
:100D100004B010BDFC0700243888072438080024DC
:100D200064000024240000245C00002454000024FB
:100D30004C00002444000024340000242C00002433
:100D40003C0000241C0000240400002414000024A3
:100D50000C00002410B506238EB0002201218DF86E
:100D60001A300223ADF8292004208DF82320052411
:100D70008DF820108DF821308DF82B208DF828303B
:100D80008DF82C10ADF8182003228DF81B308DF84B
:100D90001C100C218DF831308DF834300EAB8DF8ED
:100DA00022008DF824408DF82A008DF830208DF82F
:100DB00032108DF8332013E9030004908DF81410DD
:100DC000DDE90A0102908DF80C10DDE908010090C0
:100DD0008DF8041003480449DDE9062300F07EFB8A
:100DE0000EB010BD38080024FC07002400B5002414
:100DF000A1B00225FFF75AFFFFF7ACFF23492448B3
:100E000001F0B2FF8DF800508DF8014006A800995E
:100E100003F094FB03238DF804400DF129008DF8B5
:100E20000530019903F08AFB01230DF13A008DF89A
:100E300008308DF80930029903F080FB07238DF804
:100E40000C400DF14B008DF80D30039903F076FB4B
:100E50008DF810408DF8115017A8049903F06EFB1F
:100E60008DF814408DF815400DF16D00059903F0D3
:100E700065FB0423062206A9064803F06DFB05481E
:100E800003F04EFD204603F037FAFEE74D0A0490CA
:100E9000FC0700241408002438B51C4800241C4D0D
:100EA0001C4A1D4904604461046213F0BDF82846E1
:100EB000FFF760FE1948FFF75DFE1948FFF75AFE7D
:100EC0001848FFF757FE05F5EE23174803F6CC71D7
:100ED000C3F8E84F0F4A08602846144913F0A4F8F5
:100EE0000C4A1349204613F09FF80A4A114920463C
:100EF00013F09AF8074A1049204613F095F8204657
:100F0000044A0E49BDE8384013F08EB8FC070024AF
:100F10003808002400000024490A049028E801242D
:100F200018C8032408A805240AD7233C6F0C049092
:100F30004B0A04909D0A0490990A04909B0A04901D
:100F400003680A6803F5EF2303F5FE631A60704730
:100F500003680A6803F5EF33C3F8EC2170470368B0
:100F60000A6803F56F33C3F8DC23704703680A6827
:100F700003F5B32303F2CC731A60704703680A6861
:100F800003F5EF2303F2BC731A60704703680A6825
:100F900003F5EF33C3F8BC21704703680A6803F513
:100FA0006F33C3F8AC23704703680A6803F5B323B3
:100FB00003F29C731A60704703680A6803F5EF2315
:100FC00003F28C731A607047012A02D1016000207D
:100FD0007047022A04BF0B680360F8E7012A02D1B8
:100FE000016000207047022A04BF0B680360F8E725
:100FF000012A02D1016000207047022A04BF0B6859
:101000000360F8E7012A02D1016000207047022A3C
:1010100004BF0B680360F8E7012A02D101600020D9
:101020007047022A04BF0B680360F8E7012A02D167
:10103000016000207047022A04BF0B680360F8E7D4
:10104000012A02D1016000207047022A04BF0B6808
:101050000360F8E7012A02D1016000207047022AEC
:1010600004BF0B680360F8E7012A02D10160002089
:101070007047022A04BF0B680360F8E70000000015
:1010800000F5EF3393ED7B0A9FED0D7BB7EEC06A61
:10109000B4EEC76BF1EE10FA0ED40378022B0BD02E
:1010A00001F5EF41623150F8213003EB8202D2EDBD
:1010B000007A20EE270A70479FED030A704700BFB1
:1010C0007B14AE47E17A743F00000000F0B500F5F4
:1010D000E83C0D6800F56C37059CCCF8885F156816
:1010E000C7F8785F00F5B2251E6800F5EE20C5F858
:1010F000686F2668C0F8586F4968CCF88C1F526832
:10110000C7F87C2F5B68C5F86C3F6368C0F85C3F2C
:10111000F0BD2DE9F04104460D461E46DDE9068787
:1011200000F020FC04F5EF303246294600F5F87057
:1011300000F018FC04F56F304246294600F578703F
:1011400000F010FC04F5B3203A46294600F5FA6099
:10115000BDE8F04100F006BC2DE9F04104460D4623
:1011600016461F4600F077FC04F5EF303B4632464A
:10117000294600F5F87000F06EFC04F56F303B4630
:101180003246294600F5787000F065FC04F5B3207E
:101190003B463246294600F5FA60BDE8F04100F0D2
:1011A0005ABC00F5EE230022C3F8C02F0278022AB1
:1011B0001CBF0122C3F8C02F00F5E83292F8F02FCF
:1011C000022A1EBFD3F8C02F0132C3F8C02F00F58A
:1011D0006C3200F5B22092F8E02F022A1EBFD3F83D
:1011E000C02F0132C3F8C02F90F8D02F022A1EBFA3
:1011F000D3F8C02F0132C3F8C02FD3F8C02F042A70
:10120000C4BF0422C3F8C02F70472DE9F84F8946A8
:10121000002405462DED048BFFF7C3FF4C455ED03F
:1012200005F5EF38224600212846FFF729FF08F58B
:10123000F878F0EE408A05F56F3705F5B3262246BB
:101240000021404607F57877FFF71AFF06F5FA66A2
:1012500078EE808A224605F5EE2A00213846FFF70F
:101260000FFF22460021304678EE808AFFF708FF04
:10127000DAF8C03F22460121284607EE903A38EEC0
:10128000800ADAF8F43F4FEA840BB8EEE79A03EBF2
:101290008403C0EE097AC3ED007AFFF7F1FEF0EEA9
:1012A000408A224601214046FFF7EAFE78EE808A16
:1012B000224601213846FFF7E3FE78EE808A224677
:1012C000012130460134FFF7DBFE38EE800ADAF800
:1012D000F83FC0EE097A5B44C3ED007A9EE7BDECAF
:1012E000048BBDE8F88F2DE9F843054600F5EF388B
:1012F0001C4617460E461A4608F5C47105F56F39A7
:1013000000F0C6FB08F5F87005F5B328224609F58C
:101310005E7100F0BDFB224608F5ED6109F57870BD
:1013200000F0B6FB05F5EF21224608F5FA6001F55D
:10133000EB6100F0ADFB2146284607EB8404FFF784
:1013400064FF31463B46A3421CD005F5EE20A3EBDB
:10135000070ED0F8F46F00F57F6CD0F8F82F7644C4
:101360009CED007A7244D6ED007A67EE877AE1EC64
:10137000017AD2ED007A9CED007A67EE877AE3EC91
:10138000017AE0E7BDE8F88370B586B00376002304
:1013900001600A9E002104930446B36802AD4160D7
:1013A000C16080ED040AC0ED050A42763BB102221D
:1013B000314628469847F3680593B36804936A4614
:1013C00004F11C0395E8030082E8030093E803009E
:1013D00085E8030092E8030083E80300049B2846A5
:1013E000626A6362059B0492A26AA3620592FFF798
:1013F00056FB237E052B1CBF0123A37606B070BDD0
:101400002DE9F04100F5EE260446106898462D4B74
:101410000F46C6F8F40F86B0556800F5EA12C6F814
:10142000FC3F02F6FF332849C6F8F85F5B1B8B428E
:101430003DD9264A002113F0C3FA244A0021284648
:1014400013F0BEFA4146204600F01AFA04F5EF30D8
:101450000C9902AD00F5F87000F012FA04F56F3047
:101460000D9900F5787000F00BFA04F5B3200E9991
:1014700000F5FA6000F004FA154B002204F5EF20A5
:101480000593F7EE000A134B3946C6F8C02F00F259
:10149000C4709FED110A0493042300950294FFF792
:1014A00073FF2846FFF7FBFA06B0BDE8F08102F5AE
:1014B0004062002340F8043B824245F8043BF8D1E7
:1014C000C0E700BF00530700FE973A00004C1D0024
:1014D000410F049069100490000000002DE9F04FC6
:1014E0002DED028B89B09FED6A8A00F5EF3A044634
:1014F00002AF04ADB0EE480A0E46F7EE000A04F55E
:101500006F3904F5B32804F5EF2B87E80C00614B25
:10151000002204900AF5E07007935F4B0095069354
:101520009DF80830FFF730FF2846FFF7B8FA5B4B0D
:10153000B0EE480A31460793F7EE000A584B0022F6
:1015400009F56C70009506939DF850300494FFF7F0
:101550001BFF2846FFF7A3FA524BB0EE480A31466C
:101560000793F7EE000A504B002208F5F46000954F
:1015700006939DF858300494FFF706FF2846FFF7BE
:101580008EFA4A4BB0EE480A31460793F7EE000A4E
:10159000474B00220BF5F260009506939DF86030F2
:1015A0000494FFF7F1FE2846FFF779FA414BB0EEBD
:1015B000480A31460793F7EE000A3F4B00220AF52E
:1015C000C8700095069305230494FFF7DDFE2846B6
:1015D000FFF765FA394BB0EE480A31460793F7EE4C
:1015E000000A374B002209F5607000950693052329
:1015F0000494FFF7C9FE2846FFF751FA314BB0EECD
:10160000480A31460793F7EE000A2F4B002208F5EF
:10161000EE600095069305230494FFF7B5FE284677
:10162000FFF73DFA294BF7EE000A31460793B0EE7B
:10163000480A274B00220BF5EC6000950693052322
:101640000494FFF7A1FE2846FFF729FA204604F587
:10165000E83497E8060000F047F914AB0AF5F87093
:1016600093E8060000F040F909F57870DDE91612FC
:1016700000F03AF908F5FA60DDE9181200F034F9E3
:10168000012384F8AA3F09B0BDEC028BBDE8F08FBE
:1016900000000000510F0490551004905F0F04905B
:1016A000411004906D0F04902D1004907D0F049054
:1016B000191004908D0F0490051004909B0F049056
:1016C000F10F0490A90F0490DD0F0490B90F04905E
:1016D000C90F0490837E13B50446002B37D00068F1
:1016E000217E183003F032F9D4ED017A94ED027ABC
:1016F00077EE876AB4EEE60AF1EE10FA06DC77EED2
:10170000C77AB4EEE70AF1EE10FA20D5637E84EDD5
:10171000010A3BB1012B10D0E3680193636A8BB9D6
:1017200012F087FCD4ED047A94ED057A37EE677AEF
:10173000E0EE077AC4ED037AEEE720EE000AD4ED7E
:10174000047AF1E7A36A01A904F11C00984702B0EA
:1017500010BD38B5044600F022F904F5EF3505F563
:10176000E070FFF7B7FF05F5C870FFF7B3FF05F5A9
:10177000F87004F56F3500F012F905F56C70FFF79D
:10178000A9FF05F56070FFF7A5FF05F5787004F572
:10179000B32500F004F904F5EF2405F5F460FFF734
:1017A00099FF05F5EE60FFF795FF05F5FA6000F08B
:1017B000F6F804F5F260FFF78DFF04F5EC60FFF733
:1017C00089FF04F2C470FFF785FF38BD012A02D1FA
:1017D000016000207047022A04BF0B680360F8E72D
:1017E000012A02D1016000207047022A04BF0B6861
:1017F0000360F8E770B588B016460446ADF80410EB
:1018000004AD019902F0AEFD00230693B3683BB12D
:101810000222314628469847F3680793B368069337
:1018200002AA04F1100395E8030082E8030093E89C
:10183000030085E8030092E8030083E80300069BA9
:101840002846A269A361079B0692E269E3610792B9
:10185000FFF725F908B070BD10B5044602F09CFDF5
:10186000237963B1A37A802B09D1A3690BB912F054
:10187000E0FBE36904F11000BDE81040184710BD1B
:1018800038B5022300250370012305610373134B50
:10189000C3650B6803F5EA1243654C6802F6FF3135
:1018A0008465091BC0E901550D4881420BD92946C1
:1018B0000C4A184613F084F829462046094ABDE828
:1018C000384013F07DB802F54062002143F8041B54
:1018D0009A4244F8041BF8D138BD00BF00530700FA
:1018E000FE973A00004C1D0010B588B09FED180A15
:1018F000044602AB8DED010A83E80600154B04AAED
:101900009DF80A100793144B0490143006939DF829
:10191000093043EA0121FFF76DFF04A8FFF7BFF884
:101920000E4B9DF80C1004AA079304F134000C4BE5
:101930009DED010A06939DF80B30049443EA0121C2
:10194000FFF758FF04A8FFF7AAF808B010BD00BFC2
:1019500000007A44FD190490E11704901F1A0490C6
:10196000CD17049037B5044660300D46019200F063
:10197000D7FD04F59B40019A29461C3000F08CF9F4
:1019800004F599402946643000F0B6FB04F59C400C
:101990002946543003B0BDE8304000F04DBF10B5CB
:1019A00004461430FFF758FF04F13400FFF754FFEA
:1019B00004F1600000F0F8FC04F59940643000F098
:1019C0001BFB04F59B401C3000F0D9F804F59C404B
:1019D000BDE81040543000F087BF037833B1013BBD
:1019E000012B08D90023C0E901337047022303709B
:1019F00043680361F6E700230370F3E70068FFF72D
:101A0000ECBF0378012B08D013F0FD0F01D10123A7
:101A100003700023C0E9013370470223F8E7006830
:101A2000FFF7EFBF4368C26D934234BF0133002319
:101A300043607047037833B9436813B90023836068
:101A40007047013BFBE7012BFAD18368026993429F
:101A5000F4D20133F3E72DE9F04104781E46ACB926
:101A60000F4690462146B14210D045680131446D81
:101A700057F8043B826D04EB850402EB850223607A
:101A800058F8043B1360FFF7CDFFECE7BDE8F081A9
:101A90000378022B70B516461FD00024B44214D030
:101AA0008268456D05EB82052B680D6805EB8405A2
:101AB0002B60836D03EB82031A684B6803EB84038E
:101AC00001341A60FFF7B6FFE8E700F599402246B7
:101AD0006430BDE8704000F075BA70BD0A680368F4
:101AE0001A6570470A680368C3F8AC207047012A7A
:101AF00002D1016000207047022A04BF0B68036016
:101B0000F8E7012A02D1016000207047022A04BFD1
:101B10000B680360F8E7012A02D1016000207047DA
:101B2000022A04BF0B680360F8E700000B6800217D
:101B3000026810B5064CD2F8B000A342D2F8B42027
:101B4000016028BF234683601160936010BD00BF11
:101B50007FA903000123D0F8B02041F2883180F83A
:101B600020304FF07C5310B5002403659160146061
:101B7000D0F8B42014609160C0F8AC3010BD13B53B
:101B8000044602F009FC237953B1A37A802B07D1D4
:101B9000A3690BB912F04DFAE36904F110009847FC
:101BA00004F12400FFF796FD94F86E3043B3606DA6
:101BB00094F86C10183002F0C9FED4ED167A94ED4A
:101BC000177A77EE876AB4EEE60AF1EE10FA06DCD1
:101BD00077EEC77AB4EEE70AF1EE10FA10D594F872
:101BE0006D3084ED160A9BB1012B0FD0236E01934B
:101BF000A36F002BCED0E36F01A904F170009847CA
:101C000004F18000FFF766FD02B010BD20EE000A6F
:101C1000D4E919239B1A07EE903AB8EE677A07EEDB
:101C2000902AF8EE677AE0EE077AFCEEE77AC4EDE8
:101C3000187ADBE713B50B4602466C46D0E9000183
:101C400084E8030093E8030082E8030094E80300BB
:101C500083E8030002B010BD30B5002385B0044610
:101C60000D4602938B6833B1022268469847EB68B1
:101C70000393AB68029321466846FFF7DBFF029BA4
:101C8000A2686846A360039B0292E268E360039245
:101C9000FEF705FF05B030BD2DE9F04104460025F3
:101CA00010684FF00108174688B00E46C4F8B0001F
:101CB0002946444AC0E901580C3012F081FE786888
:101CC000404A2946C4F8B4004FF07E57C0E9015895
:101CD0000C30002512F074FE3B4B04A904F14000C7
:101CE00007933A4B666206930323A562A387256395
:101CF0006563A7630494FFF7AFFF94F83C3004A832
:101D0000052B18BF84F83E804FF00108FEF7C7FE90
:101D10002F4B42F210726946039304A82D4BA26622
:101D20000222029300236665A565A4F86C800693E1
:101D30000094C4E91833FFF7E4FE039B04F170013B
:101D400004A80793029B0693FFF774FF069B04A861
:101D5000A26FA367079B0692E26FE3670792FEF705
:101D60009EFE94F86C306846052B18BF84F86E8090
:101D7000FEF795FE184B04A904F19C000793174B3E
:101D8000C4F8806006930223C4F88450A4F8983005
:101D9000C4F88C50C4F89050C4F894700494FFF7C1
:101DA0005BFF94F8983004A8052B1CBF012384F82E
:101DB0009A30FEF774FE204608B0BDE8F041FFF708
:101DC000C9BE00BF00A60E00DD1A0490171B0490C8
:101DD0002D1B0490031B0490E51A0490EF1A049045
:101DE0000A6803681A6570470A680368C3F88020A8
:101DF00070470A680368C3F8B0207047012A02D10F
:101E0000016000207047022A04BF0B680360F8E7F6
:101E1000012A02D1016000207047022A04BF0B682A
:101E20000360F8E7012A02D1016000207047022A0E
:101E300004BF0B680360F8E7012380F820304FF0FF
:101E40007C530365C0F880300023C0F8B030002315
:101E5000C0F8B43070472DE9F04706460F4691466A
:101E600000242DED028B4C452AD03B68B7EE008A4A
:101E70004FEA840A03EB84080134D8ED008AB0EEFF
:101E8000680A12F0D9F8D6ED147A7D6838EE677AD0
:101E900020EE270A5544A8EE870A88ED000AD5ED02
:101EA000008AB0EE680A12F0C7F8D6ED147A38EE60
:101EB000678A20EE270AA8EE880A85ED000AD2E795
:101EC000BDEC028BBDE8F0872DE9F04706460F46D2
:101ED000914600242DED028B4C452AD03B68B7EE8D
:101EE000008A4FEA840A03EB84080134D8ED008AA3
:101EF000B0EE680A12F064FBD6ED147A7D6838EE15
:101F0000677A20EE270A5544A8EE870A88ED000A72
:101F1000D5ED008AB0EE680A12F052FBD6ED147AC5
:101F200038EE678A20EE270AA8EE880A85ED000AB7
:101F3000D2E7BDEC028BBDE8F08770B50024944277
:101F40003FD00D68B7EE007A90ED146A05EB84057A
:101F500077EE465AD5ED006AF5EEC06AF1EE10FA5A
:101F60004CBF01260026CCBF012300239B1B07EE9C
:101F7000903AF8EEE77A67EE867AE5EEA67AC5ED56
:101F8000007A4D6890ED146A05EB8405013437EE54
:101F9000467AD5ED006AF5EEC06AF1EE10FACCBFD4
:101FA000012300234CBF012600269B1B07EE903A1D
:101FB000F8EEE77A67EE867AE6EE877AC5ED007A84
:101FC000BDE770BD10B490F8204094B9D0F8B0309F
:101FD000012B06D0022B08D05BB95DF8044BFFF74C
:101FE0003ABF5DF8044BFFF76FBF5DF8044BFFF796
:101FF000A4BF5DF8044B704713B5044602F0CCF95A
:10200000237953B1A37A802B07D1A3690BB912F0BE
:1020100010F8E36904F11000984704F12400FFF779
:1020200059FB04F15400FFF755FB94F89E3063B35D
:10203000D4F8840094F89C10183002F087FCD4ED9A
:10204000227A94ED237A77EE876AB4EEE60AF1EE0F
:1020500010FA06DC77EEC77AB4EEE70AF1EE10FA72
:1020600013D594F89D3084ED220A93B1012B0ED044
:10207000D4F890300193D4F8A830002BC7D0D4F80E
:10208000AC3001A904F1A000984702B010BD20EEC9
:10209000000AD4E925239B1A07EE903AB8EEE77AB6
:1020A00007EE902AF8EEE77AE0EE077AFDEEE77A9F
:1020B000C4ED247ADCE730B5002385B004460D4634
:1020C00002938B6833B1022268469847EB6803930A
:1020D000AB68029321466846FFF7ACFD029BA268FD
:1020E0006846A360039B0292E268E3600392FEF7F6
:1020F000D6FC05B030BD0000F0B53D4B89B00025E1
:102100004FF07E57079304463A4B0E46416204A9AE
:102110000693022385620563456387638387049082
:102120004030FFF7C8FF94F83C3004A8052B1CBFD3
:10213000012384F83E30FEF7B2FC2F4B04A904F1D2
:10214000700007932D4BA5650693052325666566EC
:10215000A4F86C306665A7660494FFF7ACFF94F8AA
:102160006C3004A8052B1CBF012384F86E30FEF7E9
:1021700096FC234BC4F88850032203930125214B7E
:102180006946C4F8982004A8029300230222C4F8E8
:102190008460A4F89C5006930094C4E92433FFF7AC
:1021A0002DFE039B04F1A00104A80793029B069354
:1021B000FFF740FD069B04A8D4F8A820C4F8A83077
:1021C000079B0692D4F8AC20C4F8AC300792FEF717
:1021D00066FC94F89C306846052B18BF84F89E5026
:1021E000FEF75DFC204609B0BDE8F040FFF724BED5
:1021F000E11D0490251E0490E91D0490111E049019
:10220000F31D0490FD1D049003680A6803F59843CC
:102210009A62704703680A6803F597435A607047EB
:10222000012A02D1016000207047022A04BF0B6816
:102230000360F8E7012A02D1016000207047022AFA
:1022400004BF0B680360F8E7012A02D10160002097
:102250007047022A04BF0B680360F8E773B500F506
:102260008044054604F53663D3ED007AF4EE407AF7
:10227000F1EE10FA03D194F8243B002B62D0F0EE7B
:10228000C07A04F53663B2EE086A0C2283ED000AC8
:10229000B5EEC00ABCEEE77A9FED2B0A04F61C36B9
:1022A00005F59640F1EE10FA8DED017A87EE867A0B
:1022B0009DF8043000F13000B3FBF2F102FB113362
:1022C00041F2E22252FA83F305EB8303FCEEC77A74
:1022D000D3ED006ACCBF01230023BFEE007A84F85F
:1022E0002C3BCDED017A9DF80430013307EE903A96
:1022F00004F62833F8EEE77AA6EEA77AD3ED007A53
:10230000D4F8203B67EE277A07EE103AB8EE477A0A
:10231000C7EE876AF5EEC06AF1EE10FA58BFB0EE6C
:10232000660A86ED000A11F06FFE05F5964096EDFF
:10233000000A403011F068FE94F8243B13B10023EA
:1023400084F8243B02B070BD0000000091ED000A4B
:102350000068B8EEC00A2030FFF780BF73B500F503
:10236000804501264FF07C52044605F62843203074
:1023700085F8F86BB2EE080A1A6004F597440190EC
:10238000FFF76CFF05F68433002201981A604FF4C2
:10239000166394ED000AC5F8403B85F8446B02B023
:1023A000BDE87040FFF75ABF37B500F580440546D9
:1023B00094F8463C002B4AD0D4F82C0C94F8441CDA
:1023C000183002F0C3FA04F62C43D3ED017A93EDF2
:1023D000027A77EE876AB4EEE60AF1EE10FA06DCCE
:1023E00077EEC77AB4EEE70AF1EE10FA2FD504F6CD
:1023F0002C4383ED010A94F8453C5BB1012B07D0D7
:10240000D4F8383C0093D4F8503CCBB911F011FE0D
:1024100020EE000AD4F83C2CD4F8403C9B1A07EE7E
:10242000903AB8EEE77A07EE902AF8EEE77AE0EE17
:10243000077AFDEEE77A17EE903AC4F8383CDFE70A
:1024400005F59840D4F8543C69464830984794F8CC
:10245000723C93B3D4F8580C94F8701C183002F006
:1024600075FA04F65843D3ED017A93ED027A77EECC
:10247000876AB4EEE60AF1EE10FA06DC77EEC77A68
:10248000B4EEE70AF1EE10FA17D504F6584394F8C3
:10249000712C83ED010A92B1012A1BD004F6584336
:1024A000DB680193D4F87C3C002BAFD005F5984055
:1024B000D4F8803C01A97430984703B030BDD3ED07
:1024C000047A93ED057A37EE677AE0EE077AC3ED8A
:1024D000037AE3E720EE000AD3ED047AF1E730B5A2
:1024E000002385B004460D4602938B6833B1022267
:1024F00068469847EB680393AB68029321466846A9
:10250000FFF798FB029BA2686846A360039B0292B8
:10251000E268E3600392FEF7C2FA05B030BD000046
:102520002DE9F0470546002600F12009884605F50B
:102530008044002705F5974A2DED028B066088B090
:1025400006610AF1280A4660466186608661C660B7
:10255000C661084600F028FC04F64833B0EE408A15
:1025600084F8447B764A83ED000A04F63C331A6013
:1025700007EE907A0137B0EE000AF8EEE70AF2EEC5
:10258000087AC0EEA70A11F087FE0C2FAAEC010A08
:10259000EED104F537634FF41652002105F12C00FB
:1025A0001E60012712F00CFA4FF0000A04F65433B3
:1025B00009F596409FED630A3030C5E909A783ED20
:1025C000008A04F65C331E6011F01EFD4FF41652B3
:1025D00004F674335146A8181E60383012F0F0F932
:1025E00005F50053584A09F59640C3F8B0A5C3F85D
:1025F000B47504F664339FED530A403083ED008ACE
:1026000004F66C331A6011F0FFFC4FF41663484671
:1026100084F84C7BC4F8403B05F5974384F8447B31
:102620004FF07E5993ED000AFFF718FE04F684334D
:1026300005F5984004A91E60444B1830C4F8FC8B83
:102640000793434B0495069304F6FC335E60DE600B
:102650001E61C3F814900523A4F8143CFFF73FFF54
:1026600094F8143C052B67D104A80127FEF717FA4C
:10267000384BC4F82C8C022203936946364B04A8CD
:102680000095029304F62C435E600023C4F8407C5E
:10269000C4F8383CC4F83C3CA4F8447C0693FFF7EB
:1026A000C9FD039B05F5984104A807934831029B97
:1026B0000693FFF7BFFA069B04A8D4F8502CC4F881
:1026C000503C079B0692D4F8542CC4F8543C079213
:1026D000FEF7E5F994F8443C6846052B18BF84F8EA
:1026E000467CFEF7DCF91D4BC4F8588C05F5984084
:1026F000079304A91A4B74300495069304F65843C3
:102700005E60DE601E61C3F814900323A4F8703C81
:10271000FFF7E5FE94F8703C04A8052B1CBF0123CD
:1027200084F8723CFEF7BBF9284608B0BDEC028B7A
:10273000BDE8F047FFF712BE84F8167C94E700BFAF
:102740000000A04000004842DB0F494009220490ED
:10275000492204904D2304903522049015220490C0
:1027600021220490012A02D1016000207047022A30
:1027700004BF0B680360F8E7012A02D10160002062
:102780007047022A04BF0B680360F8E7012A02D1F0
:10279000016000207047022A04BF0B680360F8E75D
:1027A000006891ED000A203000F078BA006891EDE1
:1027B000000A203000F09BBA00B520302DED028BCE
:1027C00083B0B0EE408A019000F080FAB7EE000AC4
:1027D000019830EE480A03B0BDEC028B5DF804EBC3
:1027E00000F07CBA00F5C8330122B6EE000A13B53A
:1027F000044683F85420FFF7DFFFB7EE000A04F128
:102800002000019000F073FA0198B6EE000A00F083
:1028100045FA0198B6EE000A00F04EFAB6EE000A4C
:10282000019802B0BDE8104000F05DBA91ED000AD9
:102830000068FFF7C1BF0000F0B5244B89B000F578
:10284000C8379FED230A04AD0793224B0446F7EEE9
:10285000000A0022049007F1580006930223009515
:102860000E468DED030AFEF78FFD2846FEF717F999
:10287000194B9DED030A31460793F7EE000A174BFB
:10288000002207F184000095069305230494FEF7C7
:102890007BFD2846FEF703F9114BF7EE000A0022F4
:1028A000079331460F4B07F1B0009DED030A0693E5
:1028B000012300950494FEF767FD2846FEF7EFF824
:1028C000204609B0BDE8F040FFF78CBF2D280490EA
:1028D000000000008D270490AD2704907927049014
:1028E000A12704906527049010B500F5C83404F1C1
:1028F0005800FEF7EFFE04F18400FEF7EBFE04F152
:10290000B000FEF7E7FE10BDF6EE007A90ED0A7A11
:1029100070B5B4EEE77A0446F1EE10FA1BDA00F176
:102920002C0500F58676284600F0EDF905F1E0006B
:102930001C3500F0E8F9B542F5D104F5F67504F55B
:102940000B74284600F0FEF905F14000103500F048
:10295000F9F9AC42F5D170BDB6EE007AD0ED097A46
:1029600090ED056AF0EE476AF8B5E7EE876A00F188
:102970002C05044600F586772E4666EE266AC0EDE5
:10298000066AF7EE006A76EEE77A67EE877A67EE18
:10299000867AC0ED077AD0ED0A7AF4EEC77AF1EEC6
:1029A00010FAB3BF43680023C0ED026A8360B7BF6B
:1029B000C368036103610F4B0360304694ED020A64
:1029C00000F0B7F906F1E0001C3694ED020A00F0C1
:1029D000B0F9BE42F1D1284694ED040A00F0A0F906
:1029E00005F1E0001C3594ED040A00F099F9BD42B0
:1029F000F1D1F8BD8FC2753C2DE9F74F00F12C09DC
:102A0000044600F586784D4628461C3500F073F9DB
:102A10004545F9D1454604F5F67728461C3500F0C2
:102A20006AF9AF42F9D13D4604F50B7628461035D8
:102A300000F082F9B542F9D1354604F51B7A2846F3
:102A4000103500F079F95545F9D12946484640F24C
:102A50005C4204F50F7B00F053F904F59E514046AB
:102A600040F273421C3104F5037A00F049F904F591
:102A7000165104F1480040F2A442283104F51379BC
:102A800000F03EF904F5605104F5947040F2BB4249
:102A9000383104F5077800F033F904F5964104F174
:102AA000640040F2FD42243104F5177500F028F966
:102AB00004F5BE4104F5A27040F21452183100F042
:102AC0001FF904F5E64104F1800040F24C526831F0
:102AD00000F016F904F5084104F5B07040F26352B5
:102AE000983100F00DF904F51E4104F19C0040F20C
:102AF0008E52243100F004F904F5344104F5BE701F
:102B000040F2A5525C3100F0FBF804F54A4104F1B3
:102B1000B80040F2D352F03100F0F2F804F562410F
:102B200004F5CC7040F2EA523C3100F0E9F804F5CB
:102B3000794104F1D40040F21562E43100F0E0F88C
:102B400004F5893104F5DA7040F22C62383100F076
:102B5000D7F804F5953104F1F00040F25162E83104
:102B600000F0CEF804F5A23104F5E8704FF4CD6220
:102B70002C3100F0C5F804F5AE3138464FF40B7235
:102B800001F5E67100F0DBF804F5B331304640F2B0
:102B900043227C3100F0D3F804F5FE7304F5B7311D
:102BA00040F2B9121846019301F5C47100F0C7F85C
:102BB00004F5BB3158464FF4E8726C3100F0BFF8B1
:102BC00004F5BE31504640F2551201F5D67100F0C1
:102BD000B6F804F5C13148464FF4B67201F580717C
:102BE00000F0ADF804F5C4314046E122B03100F008
:102BF000A6F804F5C631F8222846343100F09FF8D3
:102C00003846B6EE000A00F0AAF83046B6EE000AE2
:102C10004FF07E5600F0A3F8019BB6EE000A18466E
:102C200000F09DF85846B6EE000A00F098F85046BD
:102C3000B6EE000A00F093F84846B6EE000A00F03F
:102C40008EF84046B6EE000A00F089F8B6EE000AAB
:102C50002846002500F083F820466661FFF77CFED9
:102C60000C4B20466360FFF777FE0B4B2046256236
:102C7000E360FFF771FE20466662FFF76DFE2046B7
:102C8000A562FFF769FE2046FFF73EFE204603B02F
:102C9000BDE8F08F3D0A573FCDCC4C3E9FED047A06
:102CA000DFED047AE0EE077AC0ED017AFFF754BE5B
:102CB000295C8F3E3333333FDFED037A20EE270A62
:102CC00080ED030AFFF748BECDCCCC3EF0EE087A8B
:102CD00020EE270A80ED050AFFF73EBE30EE000A1F
:102CE00080ED080A704780ED090AFFF735BE80EDD8
:102CF0000A0AFFF731BE002242600022826170475B
:102D0000C0E90412704710B5002344699C4206DDF7
:102D10000269002102EB830201331160F6E710BD66
:102D2000F7EE007A80ED020A37EEC00A80ED030A62
:102D3000704780ED000A70470022C2607047C0E90A
:102D40000112704710B5002384689C4206DD42687A
:102D5000002102EB830201331160F6E710BD80ED24
:102D6000000A7047704700BF143001F009BA00BF75
:102D700038B500F1140504462DED028B284601F00C
:102D8000BBF9284601F0B4F92846B0EE408A01F0BC
:102D90009DF9D0ED007AF8EE677A88EE277ABDECDF
:102DA000028B84ED0E7A38BD143001F0A1B900BF5A
:102DB00038B500F1140504462DED028B284601F0CC
:102DC00089F9284601F094F92846B0EE408A01F0CE
:102DD0007DF9D0ED007AF8EE677A88EE277ABDECBF
:102DE000028B84ED0E7A38BDF0B5032399B000272D
:102DF0000125129306462C4B09A81595CDE90E73B3
:102E000040F20453ADF84030284BCDE913570993F5
:102E100001F0A4FE09A801F07DFF002836D1244B63
:102E200004AF04460090CDF8423010233946049593
:102E30008DF820301F4BCDE91650CDE9065068467D
:102E4000059302F0F5F80823009A01A909A8ADF846
:102E500004508DF8064009940295039300F0E4F8BD
:102E600000230EA938463024049302F0A9FE032261
:102E70004FF07E5309A906F114000B930C93CDE992
:102E80000942049A01F0EAF819B0F0BD40F60132A7
:102E9000074B169704AFADF824200998CDF84230BF
:102EA000179500F081F8DBE7040204040303000136
:102EB000040604030704010B2DE9F04304462DED3D
:102EC000028B83B0002948D0012140F20112002377
:102ED0000091ADF804208DF80630304A0126304BC1
:102EE000271D304904F12908626040F20272A36094
:102EF00040F60663E16004F125092682A4F8252046
:102F000084F82760A4F8293084F82B6003F0E6F9F0
:102F10006946054648B304F130008DF8066003F0B9
:102F20003BF9072D34D104F114052046FFF75CFF6F
:102F3000284601F0DDF82846B0EE408A01F0C6F8D8
:102F4000D0ED007AF8EE677A88EE277A84ED0E7A73
:102F500003B0BDEC028BBDE8F08340F20113009199
:102F60008DF80610ADF80430B7E704F1300003F037
:102F700013F93946204602F0A3FA484601F0EEFD67
:102F8000404601F0EBFD04F1120000F077F9CAE7CA
:102F90003946204602F094FAC5E700BF0508050946
:102FA00005070506050A060610B584B00346012488
:102FB000ADF8040003A8ADF80C30ADF80E4001F0F8
:102FC000CDFD214603A801F0B3FE204603F018F81A
:102FD000002103A801F0ACFE204603F011F82146C1
:102FE00003A801F0A5FE04B010BD00BF10B5C2F3E8
:102FF000002384B00C46017C8DF80D2043EA440286
:10300000FA2402238DF80C2003AA009402F0A6F8FB
:1030100018B10124204604B010BD04460A2002F075
:10302000EFFF204604B010BD034670B543F8042BF3
:10303000044684B007C983E80700A37983B91A213D
:103040000B461E22FA2523742046ADF80C200223DD
:1030500003AA009502F082F828B1012004B070BDE7
:103060001B210B46EDE70A2002F0CAFF4FF4B852CD
:1030700000950223ADF80C20204603AA217C02F023
:103080006DF80028E9D10A2002F0BAFF41F202727D
:1030900000950223ADF80C20204603AA217C02F003
:1030A0005DF80028D9D10A2002F0AAFF0422009579
:1030B0000223ADF80C20204603AA217C02F04EF832
:1030C0000028CAD10A2002F09BFF062200950223A5
:1030D000ADF80C20204603AA217C02F03FF800281E
:1030E000BBD10A2002F08CFF41F208220095022396
:1030F000ADF80C20204603AA217C02F02FF800280E
:10310000ABD10A20064602F07BFF0095022303AAFA
:10311000217C2046ADF80C6002F020F800289CD1FC
:10312000304602F06DFF009522790C232046002ADC
:103130008DF80C3003AA4FF0020314BF6221422124
:103140008DF80D10217C02F009F8002885D1304659
:1031500002F056FF2279D4E902310B43DBB20AB9FF
:1031600043F0400362790AB143F020030E22FA25AE
:103170008DF80D302046009502238DF80C2003AA0F
:10318000217C01F0EBFF00287FF467AF0A2002F0FA
:1031900037FF102200950223ADF80C20204603AA29
:1031A000217C01F0DBFF00287FF457AF0A2002F0FA
:1031B00027FF122100950223ADF80C1003AA217CF1
:1031C000204601F0CBFF00287FF447AF0A2002F031
:1031D00017FF012209212046FFF708FF003818BF1A
:1031E00001203BE7F0B5102387B0234C01220025D6
:1031F0000126002702A920460195CDE902234FF4BC
:103200008052CDE904670AF0ABFA642003F056FE61
:1032100002A94FF480522046CDE904670226102708
:10322000CDE902670AF09CFA0322102302A9204686
:10323000CDE9022300230422CDE904234FF4805278
:103240000AF08EFA40F23223042202A901931023DD
:103250002046CDE90223019A012305924FF48052C2
:1032600004930AF07DFA40F6060120460AF098FA27
:10327000284607B0F0BD00BF448807241C4B00223D
:103280001C494FF0400C30B5054689B0022059600A
:1032900007219A601A620124DA620A224FF4006E52
:1032A000DC6006922022CDE9000104200821CDE94E
:1032B000020103201021CDE9040108206946C3E979
:1032C00004024FF4C072181DC3E906C24FF48052C5
:1032D000C3E909E20AF01AFA38B92846FFF782FF73
:1032E000003818BF012009B030BD204609B030BDFC
:1032F0004088072440410052614A0021D0B513683C
:103300008EB00A91002B40F0B9805E4B01214FF640
:1033100083700C2411600221D3F8D42000260327E7
:1033200042F48052C3F8D420D3F8D42002F480525F
:103330000092009AD3F8E02042F01002C3F8E02097
:10334000D3F8E02002F010020192019AD3F8E020B5
:1033500042F04002C3F8E020D3F8E02002F040023F
:103360000292029AD3F8E02042F00802C3F8E0206B
:10337000D3F8E02002F008020392039AD3F8E02089
:1033800042F48072C3F8E020D3F8E02002F48072A7
:103390000492049AD3F8E02042F08002C3F8E020BF
:1033A000D3F8E02002F080020592059AD3F8E020DD
:1033B00042F02002C3F8E020D3F8E02002F020021F
:1033C0000692069AD3F8E02042F00402C3F8E02007
:1033D000D3F8E0300C9403F0040307930323079A17
:1033E0000B93CDE9080108A9274805F0EDFB48F249
:1033F0003712022308A925480C94CDE90823CDE90A
:103400000A6705F0E1FB4CF20372022308A9204889
:103410000C94CDE90823CDE90A6705F0D5FB40F20D
:10342000FF62022308A91B480C94CDE90823CDE9CB
:103430000A6705F0C9FB4FF60C72022308A916486B
:103440000C94CDE90823CDE90A6705F0BDFB4FF6E2
:103450003F02022308A911480C94CDE90823CDE9C5
:103460000A6705F0B1FB2022022308A90A480C9440
:10347000CDE90A67CDE9082305F0A6FB0EB0D0BD63
:103480003C880724004402580010025800180258D3
:10349000000C025800200258001C02580014025868
:1034A0002DE9F04FDFF8108406460D46144608F16A
:1034B00018002DED028B89B000AF02F079FCD8F82E
:1034C000183073B3D8F81C30D8F80490002B436937
:1034D0000BBF4FF0080A4FF0100A4FF0020B4FF0ED
:1034E000040BB9F1000F2AD0A200EA46012B02F129
:1034F000070222F00702ADEB020D6846ADEB020DAC
:10350000694600F03F81022B00F0D680002B6FD07F
:103510002246C847D5462437BD46BDEC028BBDE8E0
:10352000F08FD8F81C30002BF5D0D8F804904FF06D
:10353000080A4FF0020B4369B9F1000FD4D1FB61C7
:10354000D8F80030BB61002BE5D0D54802F0A2FCD2
:103550006B46BBF1020F786108EE103AFB6900F090
:1035600083816A465146A2EBC40295466200EA4650
:10357000B2FBFBF2AAEBC40085460AEB8200EE46E2
:10358000F861ADEB010DF8690EEB820CC7F810C0C5
:10359000EC46ADEB010D00EB8201CCF80400CCF859
:1035A000081001EB82013869E946CCF80C1000EBF9
:1035B0008201CCF800A001EB8202C9E900E0C9E970
:1035C0000212012B00F06483022B00F06C82002BAE
:1035D00000F08081620849466046BB69984718EE52
:1035E000103A24379D46BD46BDEC028BBDE8F08FF6
:1035F000002C8DD01A46D8ED0C6A9FEDB27A844625
:10360000331D36F922E00CF1080C07EE90EA33F98D
:1036100022E00232F8EEE77A944267EE877A67EEAC
:10362000A67A4CED027A07EE90EAF8EEE77A67EEBA
:10363000877A67EEA67A4CED017AE2D8F9612246E4
:10364000C847984ED8ED0D6A0020F9692B1D9FEDF3
:103650009E7A9FED9E6ADFED9E5A22E0F4EEC67AD6
:10366000F1EE10FAC0F2C88447F6FE72D1ED017A8D
:1036700045F8202066EEA77AF4EEC77AF1EE10FA4C
:1036800040F2F080F4EEC67AF1EE10FAC0F2D58482
:1036900047F6FE7243F820200230083184427FF65C
:1036A00039AFD1ED007A66EEA77AF4EEC77AF1EE83
:1036B00010FAD3D83246D9E7002C3FF429AFD8ED21
:1036C0000C6A84469FED787A0022331D8E4656F8A8
:1036D00022100CF1080C07EE901A53F82210023257
:1036E000F8EEE77A944267EE877A67EEA67A4CEDB9
:1036F000027A07EE901AF8EEE77A67EE877A67EEBD
:10370000A67A4CED017AE2D871462246C7F81CE051
:10371000C847664ED8ED0D6A0020F9692B1D9FED54
:103720006A7A9FED6A6ADFF894C120E0F4EEC67A07
:10373000F1EE10FAC0F279843246D1ED017A45F803
:10374000202066EEA77AF4EEC77AF1EE10FA40F286
:103750008780F4EEC67AF1EE10FAC0F25E8432464B
:1037600043F820200230083184427FF6D3AED1EDF9
:10377000007A66EEA77AF4EEC77AF1EE10FAD5D8A1
:103780006246DAE7002C3FF4C3AED8ED0C6A8646F9
:103790009FED477A4FF0000C331D56F82C200EF1A8
:1037A000080E82F40002A2F5000207EE902A53F8F8
:1037B0002C200CF1020CF8EEE77A82F4000264454A
:1037C000A2F5000267EE877A67EEA67A4EED027ADE
:1037D00007EE902AF8EEE77A67EE877A67EEA67A28
:1037E0004EED017AD9D8F9612246C847314ED8ED5D
:1037F0000D6A0020F9692B1D9FED337A9FED336A26
:10380000DFF8BCC01FE0F4EEC67AF1EE10FAC0F2A9
:10381000FC833246D1ED017A45F8202066EEA77A86
:10382000F4EEC77AF1EE10FA18D9F4EEC67AF1EE9A
:1038300010FAC0F2DA83324643F820200230083111
:1038400084427FF667AED1ED007A66EEA77AF4EE99
:10385000C77AF1EE10FAD6D86246DBE76246EBE7AC
:1038600062467DE7324615E7A100D6466208073179
:1038700021F00701ADEB010DEA46ADEB010D694604
:10388000ADEB0E0D0AEB8200EC46ADEB0E0D01EB3D
:103890008202F861E946CCE900A0C9E9001290E68D
:1038A000948807240280FFFF000000300082FF7F21
:1038B0000000003482FF7F0078880724007E0080AB
:1038C0007E0080FF0000003804FF7FBF04FF7F3FC1
:1038D00000FEFF46002C00F0C982BBF1020FD8F8B1
:1038E000242000F0FA827969C7F8049002EB810E77
:1038F0005FED0C5A8A00DCF808100EF104007A61C2
:103900001A46DCF80C303B61331DD7F810903D614E
:10391000FD69C7E902CB8C46834636F92210D8ED03
:103920000C7A06EE101A33F9221006EE901A3EF9C0
:103930002210B8EEC66A07EE101AF8EEE66A3BF9F6
:103940002210B8EEC77A26EE256A66EEA56A27EE43
:10395000257A26EE276A66EEA76A27EE277A07EE13
:10396000901A51080232F8EEE77A0AEB810094428D
:1039700080ED006A05EB810067EEA57AC0ED006A74
:103980000CEB810009EB810180ED007A98ED0C7A57
:1039900067EE877AC1ED007ABFD8D7F804903D6909
:1039A000D7E902CB60466208BB6949469847D8F818
:1039B0002C307A69D8ED0D6A1A441FED3D7A1FED5F
:1039C0003D6A2B1D904602F1040A5FED3F5A00222A
:1039D000A84ED9E900EC51E0F4EEC67AF1EE10FA07
:1039E000C0F2C78247F6FE7045F822000CEB0100DA
:1039F000D0ED007A66EEA77AF4EEC77AF1EE10FA0F
:103A00004BD9F4EEC67AF1EE10FAC0F2BA8247F65C
:103A1000FE70BBF1020F43F822002BD0D9F808004A
:103A20000844D0ED007A66EEA77AF4EEC77AF1EE9C
:103A300010FA36D9F4EEC67AF1EE10FAC0F2CD8261
:103A400047F6FE7048F82200D9F80C000144D1ED89
:103A5000007A66EEA77AF4EEC77AF1EE10FA1ED974
:103A6000F4EEC67AF1EE10FAC0F2AF8247F6FE71BC
:103A70004AF82210023294427FF6B1AD51080EEBA3
:103A800081008900D0ED007A66EEA77AF4EEC77A5D
:103A9000F1EE10FAA0D83046A6E73046B9E7314635
:103AA000E6E73046CEE7002C00F0E081BBF1020FE4
:103AB000D8F8243000F0E1817A69DCF8081003EBD3
:103AC000820EC7F804909300DFED6B5A0EF10400EC
:103AD00000227B61DCF80C303B61331DD7F810907D
:103AE0003D61FD69C7E902CB8C46834656F822103A
:103AF000D8ED0C7A07EE101A53F82210B8EEC76A08
:103B000007EE101A5EF82210F8EEC76A07EE101AD8
:103B100026EE256A5BF82210B8EEC77A66EEA56A33
:103B200026EE276A27EE257A66EEA76A27EE277A21
:103B300007EE901A51080232F8EEE77A0AEB81009C
:103B4000944280ED006A05EB810067EEA57AC0ED36
:103B5000006A0CEB810009EB810180ED007A98EDA1
:103B60000C7A67EE877AC1ED007ABFD8D7F8049057
:103B70003D69D7E902CB60466208BB694946984770
:103B8000D8F82C307A69D8ED0D6A1A449FED3E7A48
:103B90009FED3E6A131D9246DFF8E4C00022FB61F0
:103BA0002B1D364ED9E9008E4EE0F4EEC67AF1EECA
:103BB00010FAC0F2FC81304645F822000EEB0100FD
:103BC000D0ED007A66EEA77AF4EEC77AF1EE10FA3D
:103BD00049D9F4EEC67AF1EE10FAC0F2EF81304620
:103BE000BBF1020F43F822002AD0D9F8080008449C
:103BF000D0ED007A66EEA77AF4EEC77AF1EE10FA0D
:103C000035D9F4EEC67AF1EE10FAC0F2C981304629
:103C10004AF82200D9F80C000144D1ED007A66EE92
:103C2000A77AF4EEC77AF1EE10FA1ED9F4EEC67A4E
:103C3000F1EE10FAC0F2AD813146F86940F8221079
:103C4000023294427FF6CBAC510808EB8100890028
:103C5000D0ED007A66EEA77AF4EEC77AF1EE10FAAC
:103C6000A3D86046A8E76046BAE76146E5E7604644
:103C7000CEE700BF0280FFFF000000300082FF7F20
:103C8000007E00800000003404FF7FBF04FF7F3F00
:103C9000002C00F0EB807A690021D8F82430C7F8B6
:103CA000109003EB820ED7F81C909300FD610EF18B
:103CB00004021FED0C6A7B61331D154656F8212066
:103CC0004808D8ED0C6ABBF1020F82F40002A2F59D
:103CD000000207EE902A53F8212082F40002B8EE89
:103CE000E77AA2F5000227EE067A07EE902A0AEBA1
:103CF0008002F8EEE77A27EE267A67EE867A82ED82
:103D0000007A09EB80024FEA800067EEA67AC2EDE6
:103D1000007A27D05EF8212082F40002A2F500028A
:103D200007EE902A55F8212082F40002B8EEE77AD7
:103D3000A2F5000227EE067A07EE902ADCF80820AA
:103D4000F8EEE77A024427EE267A67EE867A82ED6D
:103D5000007A98ED0C7ADCF80C2067EE877A024442
:103D6000C2ED007A02318C42A8D8D7F81090604694
:103D70006208BB694946FD699847D8F82C307A69D2
:103D8000D8ED0D6A1A441FED407A1FED406A131DED
:103D90009246DFF8C4C20022FB612B1DAB4ED9E96D
:103DA000008E4EE0F4EEC67AF1EE10FAC0F2C58055
:103DB000304645F822000EEB0100D0ED007A66EEA9
:103DC000A77AF4EEC77AF1EE10FA49D9F4EEC67A82
:103DD000F1EE10FAC0F2BF803046BBF1020F43F89B
:103DE00022002AD0D9F808000844D0ED007A66EE07
:103DF000A77AF4EEC77AF1EE10FA35D9F4EEC67A66
:103E0000F1EE10FAC0F2AE8030464AF82200D9F83E
:103E10000C000144D1ED007A66EEA77AF4EEC77A81
:103E2000F1EE10FA1ED9F4EEC67AF1EE10FAC0F2F5
:103E30008B803146F86940F82210023294427FF6B6
:103E4000CEAB510808EB81008900D0ED007A66EE18
:103E5000A77AF4EEC77AF1EE10FAA3D86046A8E785
:103E60006046BAE76146E5E76046CEE72246494646
:103E70006046BB699847FFF7B2BBC7F810B0002295
:103E800098ED0C6A331DDFED726AD7F81CB07869C3
:103E900056F8221007EE901A53F82210B8EEE77A7F
:103EA00007EE901A51080232F8EEE77A27EE267AEA
:103EB0000AEB810E94420BEB810167EEA67A27EEA6
:103EC000067A67EE867A8EED007AC1ED007ADFD849
:103ED0008300D7F810B07B614DE61A46C7F810B0E2
:103EE00098ED0C6A331DDFED5B6AD7F81CB078697A
:103EF00036F9221007EE101A33F9221007EE901A45
:103F0000B8EEC77A51080232F8EEE77A27EE267A41
:103F10000AEB810E94420BEB810167EEA67A27EE45
:103F2000067A67EE867A8EED007AC1ED007ADFD8E8
:103F30008300D7F810B07B6134E5F0EE675AFEEEEF
:103F4000E45A15EE900A34E7F0EE675AFEEEE45AB2
:103F500015EE901A6EE7F0EE675AFEEEE45A15EE93
:103F6000900A3AE7F0EE675AFEEEE45A15EE900A30
:103F70004BE767EEA57AFDEEE77A17EE900A00B2FE
:103F800032E567EEA57AFDEEE77A17EE900A00B209
:103F90003FE5F0EE675AFEEEE05A15EE901A4CE659
:103FA000F0EE675AFEEEE05A15EE900A30E6F0EEBB
:103FB000675AFEEEE05A15EE900AFDE5F0EE675AFC
:103FC000FEEEE05A15EE900A0AE667EEA57AFDEEDF
:103FD000E77A17EE901A09B24AE567EEA57AFDEE88
:103FE000E77A17EE900A00B22CE5F0EE675AFEEE83
:103FF000E45A15EE902A1FE467EEA57AFDEEE77A03
:1040000017EE902A12B2FFF731BBF0EE675AFEEEC0
:10401000E45A15EE902AFFF7FDBBF0EE675AFEEE6C
:10402000E05A15EE902AFFF79BBBF0EE675AFEEEC2
:10403000E05A15EE902AFFF780BB67EEA57AFDEEF9
:10404000E77A17EE902A12B2FFF724BB82FF7F00B7
:1040500000000030000000387E0080FF30B5184CB2
:10406000154685B0046004F1080EEC460FC98EE8D1
:104070000F00D4ED047AF5EEC07A8CE80F00F1EE73
:1040800010FA1ADDB7EE006A94ED057A27EE277A6A
:10409000C6EE276A84ED0D7AC4ED0C6A6DB1204638
:1040A00040F8185F01F084FE064903690020064AC3
:1040B0002162A262E36005B030BD012005B030BDD1
:1040C00078880724002000300000003000680830A5
:1040D000704700BFB1F5807F03680A4628BF4FF4E0
:1040E0008072B1F5807F9A6094BF002001207047F4
:1040F0000068183001F0BCBE70B504688AB0A369CE
:10410000E160CBB104F11805284601F051FE844668
:10411000EE46E668BCE80F00AEE80F00BCE80F0012
:10412000AEE80F009CE803008EE8030069462846CD
:10413000049601F045FDF8B9E069D8B104F11C0519
:10414000284601F035FE8446EE46E468BCE80F00E0
:10415000AEE80F00BCE80F00AEE80F009CE80300DB
:104160008EE8030069462846049401F029FD0038D2
:1041700018BF01200AB070BD01200AB070BD00BF99
:1041800030B5046883B00D46E3694BB1A3680020E5
:10419000E26A616A9B00009004F11C0001F00AFED3
:1041A000A3680748A26A9B00216A009004F11800E6
:1041B00001F000FE0020C4E9005003B030BD00BF94
:1041C000A134049010B4074B4FF07E5130240022EC
:1041D000032019619C60D8605DF8044B5961C3E904
:1041E0000622704778880724704700BFF8B5134F40
:1041F0003C687F2C07D98023114A42F224411C4697
:104200003B60A2F87E100F4D2B68012B0AD90C4E93
:104210000D4D22463146284600F074F90028F8D1A9
:104220003860F8BD22460649074800F06BF90028BF
:10423000F7D12B68386001332B60F8BDB4880724B0
:10424000B8880724B08807243889072430B4154C6F
:104250002168F1B14B1E144DE81810F801298C4665
:1042600019460A2A01D00D2A02D14BB1013BF4E7CD
:104270000CF102037F2B10D98023236030BC7047E0
:104280000122022323600D200A236854AB5430BC62
:10429000704701220223044DF4E70CF1010261464C
:1042A000F0E700BFB4880724B888072410B5094C8C
:1042B00002460B46084821680844C1F1800111F00C
:1042C0006FF9236818442060FFF7C0FFFFF78EFFE7
:1042D00010BD00BFB4880724B88807240FB400B508
:1042E00083B004A951F8040B0191FFF7DFFF03B07D
:1042F0005DF804EB04B0704710B5044600210A488D
:1043000000F07AF8002C094B14BF02220022084862
:104310001A60FFF7E3FF0748FFF7E0FF0A20BDE858
:10432000104001F06DBE00BF38890724B088072413
:104330000878059018780590064A0749074808B597
:104340000FF072FE034A04490548BDE808400FF02B
:104350006BBE00BF00000024E941049038890724A7
:104360003C89072470B5044682B0C1F30726CDB25C
:10437000ADF8041001F042FE4FF480724FF00123BB
:104380002060A01DA571A280E671A36002B0BDE807
:10439000704000F0E3BB00BF38B5044601F02EFECC
:1043A000002223682271834210D00122A57AE37A89
:1043B000954020602271A01D6DB243B900F0AAFCA7
:1043C00040B22843C0B27F28A0720AD038BD00F0A6
:1043D000A1FCB0FA80F040092843C0B27F28A07247
:1043E000F4D101F00BFE07EE900AF8EE677AC4ED07
:1043F000037A38BD704700BF012910B506D00229E5
:1044000015D051B1BDE8104006F0C0BA0A46344894
:1044100034490AF055FCE8B1FEE7334B0A46334C09
:10442000334934481C600AF04BFC68B1FEE70122B6
:104430002C492B480AF044FC00B1FEE72E492848DD
:104440000AF060FCC0B1FEE72B492A480AF05AFC8A
:1044500060B1FEE7284922480AF054FC00B1FEE7AB
:1044600026491F480AF0DCFB08B3FEE7244921482F
:104470000AF0D6FBA8B1FEE7204919480AF0D0FBA4
:1044800000B1FEE716480AF053FC024640B9164B4D
:10449000164C174917481C600AF012FC68B1FEE779
:1044A000FEE714480AF044FC0028ABD0FEE70C48B5
:1044B0000AF03EFC0028A5D0FEE70F490D480AF09F
:1044C00021FC00B1FEE70E490A480AF0A9FB00B141
:1044D000FEE708480AF02CFC002893D0FEE700BF56
:1044E000DC8B072400010024788E0724F543049018
:1044F000E40000244089072468010024C40000244B
:10450000B4000024084691B208B501F0D3FF00388A
:1045100018BF012008BD00BF014805F015BD00BF50
:1045200060B90724014805F00FBD00BF60B907243A
:10453000014805F009BD00BF60B9072482B04FF003
:10454000000C0323ADF80410BDF8042080F810C05F
:104550000280438002B070472DE9F04FBE4E002527
:104560008FB0BE4C037006F14003426007460192D3
:104570008846202229463046C4F85831C4F8546190
:10458000CDE90355CDE90555CDE90755CDE90955E7
:10459000CDE90B5510F014FA2022294604F5997044
:1045A000C4F82151C4F82551C4F82951C4F82D513B
:1045B00010F006FA019B84F8385284F820317A68AA
:1045C000002A5FD02B464146B64604F590759946C1
:1045D0004FF0010A03EB0310D1F800B0D1F80480CA
:1045E0000133D1F808C02218CE6844F800B0C2F8F0
:1045F0000480C2F808C0D660087C2EF8029B1074B4
:104600000A7C05F8012F002A69D07A68113184F8F4
:1046100038A29A42DED84FF4802291489DF80430A7
:1046200008214FF000084FF00009C4F8743100234E
:10463000C4E957020122C4F8643184F87031C4E936
:104640005A2194F83812C4E9608981B3C4F88821EA
:10465000002284F8713184F878313B78C4E9632210
:10466000A3B3012200200121013B84F89421C4E975
:104670006801082B2CD8DFE803F0ABB0B5BABFC493
:10468000C9CFD6009DF804300121C4F86421C4F8D4
:1046900074314FF4802384F87021714AC4E95723A0
:1046A00008230022C4E95A130023C4E9602301232C
:1046B000002284F87131002384F878310323C4F890
:1046C00088313B78C4E96322002BCAD184F8943145
:1046D000644803F02BF8034638B1FFBEFEE77A6862
:1046E00011319A423FF676AF95E703A95D480393EF
:1046F00003F07AF90546002868D1022240F2FF73E0
:10470000CDE9082300230422CDE90A2394F82031BF
:10471000002B00F0D5804FF0060921E0022B00F0BD
:104720008980012B40F0C4809AF80130012B00F001
:10473000C180002B4C4B18BF002306A94948CDE986
:10474000063902F01FFC002840F0BF80013594F8C4
:104750002031EDB2AB4240F2B380444B53F8259088
:104760002FB207EB071704EB070A504600F0F6F9E3
:1047700005EB051323441B7C042B7DDC022B00F38B
:10478000918000F08D806319002283F81021E35D91
:10479000002BC3D19AF80130062B00F08580072B3F
:1047A00000F08A80022B00F09680032B00F09580A9
:1047B000002B00F09680012B00F09180042B00F07C
:1047C0009280052B2A4B18BF0023B6E7FFBEFEE7F9
:1047D00003224023C4E966237AE707226023C4E961
:1047E000662375E70F228023C4E9662370E71F2242
:1047F000A023C4E966236BE73F22C023C4E96623F4
:1048000066E77F22E023C4E9662361E7FF224FF4D5
:104810008073C4E966235BE740F2FF124FF49073A4
:10482000C4E9662354E740F2FF324FF4A073C4E9B1
:1048300066234DE79AF80130042B37D0052B3DD085
:10484000002B40D0012B42D0022B42D0032B094B2E
:1048500018BF002371E700BF00400030808E07249E
:1048600000200240DC8F07240002B0252878059044
:104870000000B84F0020903603233E1D04EB0508CE
:104880004FF0000B264488F8103130460BF1010B35
:1048900000F064F998F8103104365B45F5DC76E7F2
:1048A0000123EAE70223E8E7104B46E7104B44E711
:1048B000002342E70F4B40E70F4B3EE70F4B3CE72F
:1048C0000FB0BDE8F08F0E4B37E7FFBEFEE70D4B94
:1048D00033E70D4B31E70D4B2FE70D4B2DE70D4B1C
:1048E0002BE70D4B29E70D4B27E700BF0800900C85
:1048F0001000C0102000F0148000501D0001802125
:104900000004002A0008302E001060320040C03A37
:104910000080F03E00005247000021430000844B1D
:1049200038B5094C40F2FF724FF0011104F5AE7535
:10493000284603F007F894F82021D4F854112846AB
:10494000BDE8384002F072BD808E0724064B0F2967
:10495000D3F8543198BF03EB41031B8800EE103AA3
:10496000BBEEC80A704700BF808E0724214B026847
:104970009A4200D07047204A00232048D2F8D8102D
:1049800030B51F4C41F0200183B0C4F8C0010920AC
:1049900004F5E075C4E971034FF48060C2F8D810E3
:1049A000D2F8D8204FF40061C4E9733094F838028B
:1049B00002F02002C4F8D4114FF400519842019241
:1049C0002846C4F8D811C4E97833019B14BF0023EA
:1049D0004FF48073C4F8DC3103F02CFA08B1FFBE49
:1049E000FEE704F5AE73C4F8A851C4F8F83103B07B
:1049F00030BD00BF00200240004402584000024089
:104A0000808E0724014803F08DBD00BF409007242D
:104A100002682DE9F84F4B4B9A4201D0BDE8F88F60
:104A2000494D95F83832002BF8D095F82031002BFD
:104A300077D0002405F10C0905F5997605F59077F6
:104A4000A04613E003F0010117F811BCA9F108001A
:104A500000F06EF9BBF1010F25D895F82031013433
:104A600009F111090236A2B293422BD917F8012F8E
:104A7000002AF4D0D5F854310021327833F81400EC
:104A8000D5F8583103EB041323F8120033880133AF
:104A90009BB233805FFA83FA3A789A42D2D88A4638
:104AA000A6F80080D0E7CAF34001A9F1040000F0A5
:104AB0003FF9BBF1020FCAF38001CED0484600F0A7
:104AC00037F9CAE7002395F83802204909229842AD
:104AD000C5F8C8314FF48060C5F8C011C5F8C421CD
:104AE0004FF400614FF40052C5F8CC3108BF4FF4C9
:104AF0008073C5F8D821C5E9740100221448C5E9BE
:104B00007732C5F8E42103F095F908B1FFBEFEE75E
:104B100095F82021D5F854110E48BDE8F84F02F061
:104B200085BC0A4909224FF48060C5F8C831C5E93F
:104B300070124FF400614FF40052C5E97330C5E9BB
:104B40007512DAE700200240808E07244000024000
:104B500040900724DC8F0724704700BF8378022B26
:104B600030B504468FB037D0032B33D0012B31D072
:104B700000230A93E378012B2AD0022B28D00023AC
:104B80000B93002320460C9302F076F8054620464E
:104B900002F07AF823780990082B13D8DFE803F0A5
:104BA0001F3245586B7E91A40500594BD3F8E02085
:104BB00042F48072C3F8E020D3F8E03003F480734D
:104BC0000893089B09A9284603F0FEFF0FB030BDEB
:104BD0000B93D6E70A93CDE711230A93CAE74C4B10
:104BE00009A92846D3F8E02042F00102C3F8E020EA
:104BF000D3F8E03003F001030093009B03F0E4FFDF
:104C00000FB030BD424B09A92846D3F8E02042F04E
:104C10000202C3F8E020D3F8E03003F0020301936E
:104C2000019B03F0D1FF0FB030BD394B09A92846D5
:104C3000D3F8E02042F00402C3F8E020D3F8E030DB
:104C400003F004030293029B03F0BEFF0FB030BDDC
:104C50002F4B09A92846D3F8E02042F00802C3F8F8
:104C6000E020D3F8E03003F008030393039B03F044
:104C7000ABFF0FB030BD264B09A92846D3F8E02082
:104C800042F01002C3F8E020D3F8E03003F0100344
:104C90000493049B03F098FF0FB030BD1C4B09A98F
:104CA0002846D3F8E02042F02002C3F8E020D3F8F1
:104CB000E03003F020030593059B03F085FF0FB060
:104CC00030BD134B09A92846D3F8E02042F040023A
:104CD000C3F8E020D3F8E03003F040030693069BCE
:104CE00003F072FF0FB030BD094B09A92846D3F875
:104CF000E02042F08002C3F8E020D3F8E03003F077
:104D000080030793079B03F05FFF0FB030BD00BF28
:104D10000044025838B5054601F0AEFF0446284667
:104D200001F0B2FF01462046BDE8384004F054B916
:104D300070B506460D4601F09FFF0446304601F06F
:104D4000A3FF2A1E0146204618BF0122BDE870407D
:104D500004F048B90023122270B586B0CDE90223D1
:104D600004930368032B01D804230593061D841DB7
:104D7000304601F081FF0546304601F085FF0346CD
:104D800001A92846019303F01FFF204601F074FF9C
:104D9000034620461C4601F077FF01A90346204642
:104DA000019303F011FF06B070BD00BF634A0368B2
:104DB000934210B58CB028D0614A934258D0614AD2
:104DC000934200F09480604A934201D00CB010BD31
:104DD0005E4C5F48D4F8E03043F00203C4F8E030A2
:104DE000D4F8E03003F002030A930A9BFFF7B2FF06
:104DF000D4F8F43043F08003C4F8F430D4F8F4303D
:104E000003F080030B930B9BE0E7504C5148D4F820
:104E1000E03043F00203C4F8E030D4F8E03003F0AF
:104E200002030193019BFFF795FFD4F8E8300022BD
:104E30001F2043F400131146C4F8E830D4F8E830DA
:104E400003F400130293029BD4F8D83043F001031B
:104E5000C4F8D830D4F8D83003F001030393039B8F
:104E600002F036FE1F200CB0BDE8104002F06EBE0E
:104E7000364C3948D4F8E03043F08003C4F8E030D1
:104E8000D4F8E03003F080030493049BD4F8E030BE
:104E900043F00203C4F8E030D4F8E03003F002033A
:104EA0000593059BFFF756FFD4F8E8300022212038
:104EB00043F480031146C4F8E830D4F8E83003F432
:104EC00080030693069BD4F8D83043F00103C4F85E
:104ED000D830D4F8D83003F001030793079B02F0D1
:104EE000F7FD21200CB0BDE8104002F02FBE1B489A
:104EF000FFF730FF154B00224820D3F8E840114659
:104F000044F40004C3F8E840D3F8E84004F4000493
:104F10000894089CD3F8D84044F00104C3F8D84062
:104F2000D3F8D83003F001030993099B02F0D0FDB8
:104F300048200CB0BDE8104002F008BE005400400C
:104F400000580040005C0040001C0058004402581B
:104F500048930724C090072498910724709207244F
:104F60002DE9F0431A4B87B000254FF010099E46FB
:104F7000EC46184BFF22E04667461A700EF1180601
:104F80000EF13004CDE90055CDE90255ADF80090A1
:104F9000BCE80F00CDE90455AEE80F009CE8030023
:104FA0000095ADF800908EE80300B8E80F000FC63A
:104FB0009CE803000095ADF8009086E803000FCF51
:104FC0000FC49CE8030084E8030007B0BDE8F08349
:104FD0006C000024BC90072410B5EFF3108472B667
:104FE000084B1A78120602D504B962B610BD1B78B8
:104FF000D82205485BB202FB0300143003F092FA9A
:10500000F2E700BFBC900724C0900724014804F0D9
:1050100081BE00BF4C910724014804F07BBE00BF55
:1050200024920724014804F075BE00BFFC920724B7
:105030002DE9F0430F68D8243F4D85B007FB04F4F9
:10504000032F05EB0403036040DCCB680E46012B05
:105050003CD84DD04FF0D808B646DFF8FC9008FB9E
:105060000758BEE80F00C446ACE80F00DEF8003079
:105070000DF1100ECCF80030D8F808C099E80F00F8
:105080000EE90F000EEB8703BCF1010F53F8103C43
:10509000C8F88C3031D0BCF1020F42D0BCF1000F07
:1050A00035D0317C8C34D823002201202C4403FBE2
:1050B00007534900C3E92602C3F894102046C3E908
:1050C0002822C3E92A2204F017FC18B1012005B0F8
:1050D000BDE8F0830146204604F028FE0028F5D103
:1050E0000146204604F04CFE003818BF0120EEE7D0
:1050F0000B7C103B672BADD9E8E701F0EDF80F4BC7
:1051000098420CBF0E4B0F4BC8F89030C9E701F026
:10511000E3F80A4B98420CBF0B4B0C4BC8F890308D
:10512000BFE701F0D9F8054B98420CBF084B094B7B
:10513000C8F89030B5E700BFC0900724000E2707DD
:105140002D0FB0303211D0205F4390608A62E03082
:10515000200BA0101A098010D47705902DE9F0419A
:10516000D0F8008082B00D4617461E4608F18C0428
:10517000204604F0D7FD2028FAD1D8F80C3073B9B6
:105180006D002046089C33463A46A9B2009404F0CC
:1051900009FC003818BF012002B0BDE8F081089B6F
:1051A00032463946204604F0D1FCF2E7044B102287
:1051B0001A7483F8E82083F8C02183F89822704796
:1051C000C090072430B5002395B04FF480710622BB
:1051D00004460B9306921393CDE90C13CDE90E33DD
:1051E000CDE9113301F07AF807282BD004F110052E
:1051F00041F2883206A9284605F014FD28B10123A2
:10520000184684F85C3015B030BD0222022306A98E
:105210002846CDE9002310220123CDE902230022F4
:105220004FF48003CDE9042305224FF080730692EA
:105230006A460F9341F2883305F060FE0028DED104
:1052400015B030BD0323012084F85C3015B030BDAB
:1052500070B50023A4B04FF080724FF480750446FF
:10526000ADF806300D93CDE910320122CDE90E5391
:10527000CDE91223CDE91433002943D0F02300F106
:10528000100508AEADF80630C02341F28832314631
:105290002846089305F0C6FC28B10123184684F877
:1052A0005C3024B070BD41F288320DF10601284611
:1052B00005F022FD03460028EFD105224FF480714E
:1052C0001E93284616924FF080721B9321931F92D3
:1052D00002AA9FED1F7BCDE91C13CDE922338DED92
:1052E000027B9FED1D7B41F2883316A98DED047B77
:1052F0009FED1B7B8DED067B05F000FE0028CCD1D9
:1053000024B070BD00F1100508AE612341F288326F
:1053100031462846089305F085FC0028BDD141F2AE
:1053200088320DF10601284605F064FD0028B4D14D
:10533000BDF80630204623F0780343F04003ADF873
:105340000630FFF73FFF00289ED0A6E7AFF30080AE
:10535000000000000100000010000000010000003B
:1053600000000000000040002DE9F04F00234FF442
:10537000807501264FF0807804462DED028BABB08E
:105380008DF8073013932193299314950E96CDF839
:105390005C80CDE91533CDE91863CDE91A33CDE949
:1053A0002253CDE92433CDE9273306231C9300F0A3
:1053B00095FF072808D004F1100741F288321CA994
:1053C000384605F02FFC40B10123184684F85C30C4
:1053D0002BB0BDEC028BBDE8F08F4FF0020A4FF00E
:1053E000020B4FF0050941F2883308AA1CA9384680
:1053F000CDF89480CDF870909FED2D8BCDE908AB62
:105400004FF0000A4FF4800B8DED0A8BCDE90CAB09
:1054100005F074FD0028D7D141F2883238460EA934
:1054200005F000FC0028CFD1402341F288320DF175
:10543000070138468DF8073005F05EFC0028C3D11F
:1054400041F288330EA902AA3846CDF83890CDF83B
:105450005C809FED197B8DED048BCDE906AB8DED66
:10546000027B05F04BFD03460028ADD1CDF87090CE
:105470004FF00109CDF894804FF00008219308AA5D
:1054800029931CA938462295CDE92333CDE927334A
:1054900041F288338DED0A8BCDE90CABCDE908895B
:1054A00005F02CFD002893D0304684F85C608FE72F
:1054B000100000000100000040000000400000005B
:1054C0002DE9F043624CA3B00D46046000F006FFE6
:1054D000072800F0A980286823466968AA6807C3DE
:1054E0001E46AB8926F8043B3046257B677B05F0DA
:1054F0007BFBE0B9574B012D4FF00108E0612361C0
:1055000014BF4FF480134FF40003C4E9058893FAE5
:10551000A3F3B3FA83F34FF48079013BC4F82490EA
:10552000C4E90B003046236205F0F2FA38B10122DB
:10553000134684F85C20184623B0BDE8F083662348
:105540000B90139041F2883206A90693CDE90C9096
:10555000CDE90E00CDE91100304605F063FB0028CF
:10556000E5D1992341F2883206A93046069305F029
:1055700059FB0028DBD105231C9019906A4614932F
:105580004FF08073219014A91D9341F288339FED51
:105590002A7BCDE91A90CDE91F008DED007B9FEDB0
:1055A000287B30468DED027B9FED277B8DED047BC4
:1055B00005F0A4FC0028BAD129462046FFF748FE92
:1055C0000028B4D12046FFF7CFFE03460028AED115
:1055D000002FB0D1189330460027002606AA14A940
:1055E000CDF86890CDE91F33EB2314934FF440635B
:1055F0001B934FF4005317934FF440431C93A02385
:105600001693062319934FF0805321934FF0407364
:10561000CDE906671D9305F0E9FC034600288AD012
:10562000434684F85C8086E701230322184684F809
:105630005C2023B0BDE8F083000000000100000002
:105640001000000001000000000000000000400009
:1056500020940724005000522DE9F04F8FB0414BA9
:105660000024026800AF9A427C63C7E90944C7E995
:105670000B4403D03C37BD46BDE8F08F3A4B40F6B3
:1056800009213A48EB46D3F8D42007F11C0607F16C
:10569000220A4FF0020942F480424FF00308C3F897
:1056A000D420D3F8D42002F48042BA60BA68D3F888
:1056B000E02042F04002C3F8E020D3F8E02002F0FE
:1056C0004002FA60FA68D3F8E02042F02002C3F802
:1056D000E020D3F8E02002F020023A613A69D3F8E2
:1056E000E02042F01002C3F8E020D3F8E02002F0FE
:1056F00010027A617A69D3F8E02042F00202C3F81E
:10570000E020D3F8E030F86103F002033984BB6194
:10571000174B7B60BB697B6853F8040F7B6001F01B
:10572000ABFA7B680546186801F0AEFA16F8013B43
:10573000786207F124012846C7F830807B63C7E907
:105740000A9403F041FA5645E5D100225C20114647
:1057500002F0BEF95C2002F0F9F93C37DD46BD46A7
:10576000BDE8F08F00500052004402580A0A0909AF
:105770007C940724114B02689A4200D07047104A6B
:1057800070B5D2F8D4300F4C23F4804304F11806DE
:10579000C2F8D43054F8040F01F06EFA05462068C0
:1057A00001F072FA0146284603F04EFBB442F1D1F3
:1057B0005C20BDE8704002F0D7B900BF0050005235
:1057C000004402587C940724014805F09BBC00BFAC
:1057D00030940724084B1A1D981D03F1080110B4DA
:1057E0009C1C9A6603F10A02C3E91834C3E91B0141
:1057F0005DF8044B5A6770472094072438B5036856
:1058000071B9026A00F1280500F5AC74012A0CBFD9
:10581000002140218BBB1D4B5722C0F858310DE0B1
:10582000426A00F1C00500F5E874012A0CBF0021AE
:105830004021EBB1164B5A22C0F8D031002320464C
:10584000C4E901214FF480524FF4806163626261C8
:105850004FF48042C4E903314FF48073C4E9062356
:105860004FF40033236202F0E5FA58B1FFBEFEE7C1
:10587000084B5822C0F8D031E0E7074B5922C0F856
:105880005831DBE7C5E92044A56338BD100002406C
:105890007000024028000240580002402DE9F04309
:1058A000821D05468BB0031D05F10A010830CDE9C4
:1058B000052305F10C02AB69CDE907010992002B24
:1058C0003DD0EB69B3FA83F84FEA5818012302225E
:1058D00005AE0AAF4FF006090393CDE9012356F850
:1058E000044B2B792278934216D02B68F3B1012B0D
:1058F00002D1F2B10A230493204601F0C5F9034610
:105900002046009301F0B8F9694603F05DF9BE4204
:10591000E5D10BB0BDE8F083697963789942E4D1B1
:10592000B8F1000FF3D02B68002BE0D1CDF8109028
:10593000E2E76378022B14BF0A230823DBE74FF06A
:105940000108C3E7534A0368934230B505468BB05C
:1059500055D02032934252D04F4A934204D0203245
:10596000934201D00BB030BD4C4C4D48D4F8E030E0
:1059700043F00103C4F8E030D4F8E03003F0010351
:105980000593059BD4F8E03043F00803C4F8E030F9
:10599000D4F8E03003F008030693069BD4F8E03017
:1059A00043F04003C4F8E030D4F8E03003F04003A3
:1059B0000793079BD4F8F03043F40003C4F8F030A9
:1059C000D4F8F03003F400030893089BFFF766FF58
:1059D000D4F8D830296843F001032F4A3048C4F87E
:1059E000D830891AD4F8D83018BF012103F0010348
:1059F0000993099B0BB0BDE83040FFF7FFBE274C71
:105A00002848D4F8E03043F00103C4F8E030D4F87B
:105A1000E03003F001030093009BD4F8E03043F042
:105A20001003C4F8E030D4F8E03003F01003019321
:105A3000019BD4F8E03043F04003C4F8E030D4F8E0
:105A4000E03003F040030293029BD4F8F03043F4BB
:105A50008003C4F8F030D4F8F03003F480030393EB
:105A6000039BFFF71BFFD4F8D830296843F00103EC
:105A7000084A0C48C4F8D830891AD4F8D83018BF6E
:105A8000012103F001030493049B0BB0BDE83040F7
:105A9000FFF7B4BE04580140045C014000440258C2
:105AA000F496072498940724014802F03BBD00BFF8
:105AB000F0950724014802F035BD00BF6896072421
:105AC000014802F02FBD00BF4C980724014802F0A6
:105AD00029BD00BFC49807241A4A0368934210B432
