:020000040800F2
:10000000000002209906000895060008CD6C000843
:1000100095060008950600089506000800000000F7
:10002000000000000000000000000000950600082D
:10003000950600080000000095060008516C0008B5
:100040009506000895060008950600089506000824
:100050009506000895060008950600089506000814
:1000600095060008950600089506000859680008DE
:1000700065680008B1570008716800087D680008CD
:1000800041200108855D00089506000895060008D6
:1000900095060008950600089506000895060008D4
:1000A00095060008950600089506000895060008C4
:1000B00015140108211401082D140108B95D000868
:1000C00095060008C55D000895060008850C010826
:1000D000910C0108751E0108A51E0108D91E010812
:1000E0009506000895060008000000009506000827
:1000F0009506000895060008950600089506000874
:100100009506000895060008391401089D0C0108A1
:100110000D1F0108411F01089506000895060008FB
:100120009506000895060008C10C0108F50C0108A9
:100130007520010895060008950600089506000838
:1001400000000000000000000000000000000000AF
:10015000950600089506000895060008751F010819
:10016000D15D000895060008616C0008856C0008E8
:1001700095060008A96C0008950600089506000879
:100180009506000895060008A91F0108D91F010857
:10019000A90C0108B50C0108950600089506000891
:1001A00095060008950600089506000895060008C3
:1001B0007965000895060008950600089506000870
:1001C0009506000895060008C5520008D15200089F
:1001D00095060008DD5200089506000895060008FF
:1001E0009506000895060008950600089506000883
:1001F0009506000895060008950600089506000873
:100200009506000895060008950600089506000862
:100210009506000895060008950600089506000852
:1002200095060008950600089506000800000000E5
:1002300095060008950600080000000095060008D5
:100240009506000895060008950600089506000822
:100250009506000895060008950600089506000812
:100260009506000895060008950600089506000802
:1002700095060008950600080D2001080000000002
:100280009506000895060008950600080000000085
:080290000000000095060008C3
:1002A00010B5054C237833B9044B13B10448AFF3B0
:1002B00000800123237010BDE0070024000000002F
:1002C0007C83010808B5034B1BB103490348AFF316
:1002D000008008BD00000000E40700247C830108C2
:1002E000034613F8012B002AFBD1181A0138704776
:1002F00001F0FF01102A2BDB10F0070F08D010F8D7
:10030000013B013A8B422DD010F0070F42B3F6D1DA
:10031000F0B441EA012141EA014122F007047FF0F3
:1003200000070023F0E80256083C85EA010586EA4A
:10033000010685FA47F5A3FA87F586FA47F6A5FA86
:1003400087F68EB9EED1F0BC01F0FF0102F0070292
:1003500032B110F8013B013A83EA010313B1F8D13D
:100360000020704701387047002D06BF354603381E
:10037000073815F0010F07D1013015F4807F02BF57
:10038000013015F4C03F0130F0BC0138704700BFA8
:1003900053B94AB9002908BF00281CBF4FF0FF31EC
:1003A0004FF0FF3000F074B9ADF1080C6DE904CEE8
:1003B00000F006F8DDF804E0DDE9022304B0704740
:1003C0002DE9F047089D04468E46002B4DD18A4208
:1003D000944669D9B2FA82F252B101FA02F3C2F13B
:1003E000200120FA01F10CFA02FC41EA030E9440CC
:1003F0004FEA1C48210CBEFBF8F61FFA8CF708FBED
:1004000016E341EA034306FB07F199420AD91CEBC4
:10041000030306F1FF3080F01F81994240F21C81F6
:10042000023E63445B1AA4B2B3FBF8F008FB10333E
:1004300044EA034400FB07F7A7420AD91CEB040473
:1004400000F1FF3380F00A81A74240F20781644443
:10045000023840EA0640E41B00261DB1D4400023C8
:10046000C5E900433146BDE8F0878B4209D9002D2C
:1004700000F0EF800026C5E9000130463146BDE8B6
:10048000F087B3FA83F6002E4AD18B4202D3824220
:1004900000F2F980841A61EB030301209E46002DCF
:1004A000E0D0C5E9004EDDE702B9FFDEB2FA82F224
:1004B000002A40F09280A1EB0C014FEA1C471FFA82
:1004C0008CFE0126200CB1FBF7F307FB131140EA69
:1004D00001410EFB03F0884208D91CEB010103F136
:1004E000FF3802D2884200F2CB804346091AA4B2F8
:1004F000B1FBF7F007FB101144EA01440EFB00FECC
:10050000A64508D91CEB040400F1FF3102D2A64530
:1005100000F2BB800846A4EB0E0440EA03409CE7CF
:10052000C6F12007B34022FA07FC4CEA030C20FA7C
:1005300007F401FA06F31C43F9404FEA1C4900FA9C
:1005400006F3B1FBF9F8200C1FFA8CFE09FB181119
:1005500040EA014108FB0EF0884202FA06F20BD98C
:100560001CEB010108F1FF3A80F08880884240F2DC
:100570008580A8F102086144091AA4B2B1FBF9F020
:1005800009FB101144EA014100FB0EFE8E4508D91B
:100590001CEB010100F1FF346CD28E456AD90238A0
:1005A000614440EA0840A0FB0294A1EB0E01A14285
:1005B000C846A64656D353D05DB1B3EB080261EBF3
:1005C0000E0101FA07F722FA06F3F1401F43C5E9CD
:1005D000007100263146BDE8F087C2F12003D84003
:1005E0000CFA02FC21FA03F3914001434FEA1C4745
:1005F0001FFA8CFEB3FBF7F007FB10360B0C43EA37
:10060000064300FB0EF69E4204FA02F408D91CEBE6
:10061000030300F1FF382FD29E422DD902386344E4
:100620009B1B89B2B3FBF7F607FB163341EA034184
:1006300006FB0EF38B4208D91CEB010106F1FF38D3
:1006400016D28B4214D9023E6144C91A46EA0046CA
:1006500038E72E46284605E70646E3E61846F8E65C
:100660004B45A9D2B9EB020864EB0C0E0138A3E7A5
:100670004646EAE7204694E74046D1E7D0467BE786
:10068000023B614432E7304609E76444023842E7FE
:10069000704700BFFEE700BF0B480C4A904203D0F2
:1006A000121A0B4914F030FC0A480B4A904203D04E
:1006B000121A002114F036FC06F032FD14F0F0FBA3
:1006C00000F0BCFBFEE700BF00000024DC070024B4
:1006D000B0830108E007002444B90624704700BF36
:1006E000704700BF10B5844682B00C461346019295
:1006F0000648DCE9001201F00DFD019B0348D4E936
:10070000001202B0BDE8104001F064BEFC070024F6
:10071000704700BF704700BF704700BF38B500F595
:10072000C8250446D5F8083F23B19D49032201445A
:1007300008469847D5F8D43E23B19A49032221446C
:1007400008469847D5F8A43E23B19749032221448F
:1007500008469847D5F8703E23B1944903222144B6
:1007600008469847D5F8443E23B1914903222144D5
:1007700008469847D5F8183E23B18E4903222144F4
:1007800008469847D5F8EC3D23B18B490322214414
:1007900008469847D5F8C03D23B188490322214433
:1007A00008469847D5F8943D23B185490322214452
:1007B00008469847D5F8643D23B182490322214475
:1007C0000846984704F59625D5F8E43C23B17E49C0
:1007D0000322214408469847D5F8B43C23B17B490D
:1007E0000322214408469847D5F8883C23B178492C
:1007F0000322214408469847D5F8583C23B175494F
:100800000322214408469847D5F8303C23B1724969
:100810000322214408469847D5F8003C23B16F498C
:100820000322214408469847D5F8D03B23B16C49B0
:100830000322214408469847D5F8A03B23B16949D3
:100840000322214408469847D5F8743B23B16649F2
:100850000322214408469847D5F8543B23B1634905
:100860000322214408469847D5F81C3B23B1604930
:100870000322214408469847D5F8EC3A23B15D4954
:100880000322214408469847D5F8B83A23B15A497B
:100890000322214408469847D5F88C3A23B157499A
:1008A0000322214408469847D5F8603A23B15449B9
:1008B0000322214408469847D5F8343A23B15149D8
:1008C0000322214408469847D5F8083A23B14E49F7
:1008D0000322214408469847D5F8DC3923B14B4917
:1008E0000322214408469847D5F8AC3923B148493A
:1008F000032221440846984704F54835D5F82C3999
:1009000023B144490322214408469847D5F8FC38CE
:1009100023B141490322214408469847D5F8D038ED
:1009200023B13E490322214408469847D5F8A03810
:1009300023B13B490322214408469847D5F878382B
:1009400023B138490322214408469847D5F848384E
:1009500023B135490322214408469847D5F8183871
:1009600023B132490322214408469847D5F8E83795
:1009700023B12F490322214408469847D5F8BC37B4
:1009800023B12C490322214408469847D5F89C37C7
:10099000002B53D0284903222144084698474DE0B4
:1009A000004F0600CC4E06009C4E0600684E060026
:1009B0003C4E0600104E0600E44D0600B84D060001
:1009C0008C4D06005C4D0600DCBC0400ACBC040091
:1009D00080BC040050BC040028BC0400F8BB040028
:1009E000C8BB040098BB04006CBB04004CBB0400F3
:1009F00014BB0400E4BA0400B0BA040084BA0400D2
:100A000058BA04002CBA040000BA0400D4B9040097
:100A1000A4B9040024290300F4280300C828030013
:100A200098280300702803004028030010280300C2
:100A3000E0270300B427030094270300D5F86437A8
:100A400023B197490322214408469847D5F8343703
:100A500023B194490322214408469847D5F800372A
:100A600023B191490322214408469847D5F8D4364A
:100A700023B18E490322214408469847D5F8A83669
:100A800023B18B490322214408469847D5F87C3688
:100A900023B188490322214408469847D5F85036A7
:100AA00023B185490322214408469847D5F82436C6
:100AB00023B182490322214408469847D5F8F435EA
:100AC00023B17F49032221440846984704F5C835DD
:100AD000D5F8743523B17B49032221440846984751
:100AE000D5F8443523B17849032221440846984774
:100AF000D5F8183523B17549032221440846984793
:100B0000D5F8E83423B172490322214408469847B6
:100B1000D5F8C03423B16F490322214408469847D1
:100B2000D5F8903423B16C490322214408469847F4
:100B3000D5F8603423B16949032221440846984717
:100B4000D5F8303423B1664903222144084698473A
:100B5000D5F8043423B16349032221440846984759
:100B6000D5F8E43323B1604903222144084698476D
:100B7000D5F8AC3323B15D49032221440846984798
:100B8000D5F87C3323B15A490322214408469847BB
:100B9000D5F8483323B157490322214408469847E2
:100BA000D5F81C3323B15449032221440846984701
:100BB000D5F8F03223B15149032221440846984721
:100BC000D5F8C43223B14E49032221440846984740
:100BD000D5F8983223B14B4903222144084698475F
:100BE000D5F86C3223B1484903222144084698477E
:100BF000D5F83C3223B145490322214408469847A1
:100C0000D4F8BC3123B104F5DA71032208469847C1
:100C1000D4F88C3123B104F5C271032208469847F9
:100C2000D4F8603123B104F5AC710322084698472B
:100C3000D4F8303123B104F5947103220846984763
:100C4000D4F8083123B104F580710322084698478F
:100C5000D4F8D83023B104F1D001032208469847D4
:100C6000D4F8A83023B104F1A00103220846984724
:100C7000A36F23B104F17001032208469847E36C87
:100C800023B104F14401032208469847E36A23B1E3
:100C900004F12401032208469847204638BD00BFCE
:100CA0005C2703002C270300F8260300CC26030052
:100CB000A026030074260300482603001C26030018
:100CC000EC2503006C9501003C9501001095010096
:100CD000E0940100B8940100889401005894010048
:100CE00028940100FC930100DC930100A49301000F
:100CF000749301004093010014930100E8920100F5
:100D0000BC920100909201006492010034920100B3
:100D100070B5174C84B00021164D2046164E02F0D7
:100D2000A1FF2046042102F019FF2046032102F012
:100D3000F9FE124A124B28461249CDE901320091C0
:100D40002146114B114A00F01BFB11492846114B5B
:100D50000091114A114900F0AFFB114A114B214695
:100D60002846CDE90026104A00F076FE04B070BD9A
:100D70001C570624FC0700241C00002464000024E7
:100D80005C000024540000244C00002424000024B3
:100D9000440000243C000024340000242C000024E3
:100DA000140000240C0000240400002400B50023DB
:100DB0008FB002211E4AADF829304FF0010C0C9281
:100DC00040F201208DF82B3004228DF8341040F2CF
:100DD000062E8DF828100521ADF818300EAB8DF8D1
:100DE0002A20ADF8222008AA8DF82CC0ADF82000EA
:100DF0008DF8241013E903000AABADF81AE0049053
:100E00008DF8141093E803008DF81CC006AB029017
:100E10008DF80C1092E803000CCB00908DF80410B4
:100E20000448054900F06CFB0FB05DF804FB00BFFF
:100E300003020C03FC0700241C57062400B5A1B0D4
:100E40000024FFF765FFFFF7B1FF2249224802F0B7
:100E500065FE022306A8ADF80030009904F044FABC
:100E60004FF440730DF12900ADF80430019904F0FE
:100E70003BFA40F201130DF13A00ADF80830029947
:100E800004F032FA4FF4E0630DF14B00ADF80C3092
:100E9000039904F029FA4FF4007317A8ADF8103045
:100EA000049904F021FAADF8144005990DF16D0094
:100EB00004F01AFA0423062206A9084804F022FACC
:100EC000064804F003FC204604F0ECF8044800F067
:100ED000E7FDFBE7E50600081C5706243457062407
:100EE000FC07002470B5B9480024B94EB94DBA4A80
:100EF000BA4904604461046213F0ACFF06F5047063
:100F0000F462F464B467C6F88C50C6F8A840C6F81A
:100F1000BC50C6F8D840C6F8EC50C6F80841C6F830
:100F20003041C6F84451C6F86041C6F87051C6F861
:100F30008C41C6F8A051C6F8BC4102F0A3FB06F5EF
:100F4000C83303F2444103F5B960C3F83C420D6075
:100F500003F27441C3F850520D6003F2A441C3F888
:100F60006C420D6003F2FC41C3F87C520D6003F546
:100F7000A561C3F898420D6003F5AB61C3F8A852B0
:100F80000D60C3F8C442C3F8D452C3F8F042C3F8AA
:100F90000053C3F81C43C3F82C53C3F84843C3F8A9
:100FA0006053C3F87C43C3F89053C3F8AC43C3F811
:100FB000E443C3F80444C3F83044C3F86044C3F8BE
:100FC0009044C3F8C044C3F8E844C3F81845C3F8D4
:100FD0004445C3F8744502F055FB06F5483303F564
:100FE000C16103F51860C3F8F4450D6003F2346184
:100FF000C3F824460D6003F5CC61C3F850460D607C
:1010000003F28C61C3F87C460D6003F5D761C3F829
:10101000A8460D6003F2E461C3F8D4460D6003F501
:10102000E361C3F800470D6003F5E961C3F8344795
:101030000D6003F2FC71C3F864470D6003F62C01E8
:10104000C3F89C470D6003F65C01C3F8BC470D6014
:1010500003F6B401C3F8E8470D6003F50E61C3F869
:1010600018480D6003F51161C3F848480D60C3F8D6
:101070007848C3F8A048C3F8D048C3F8FC48C3F880
:101080002C4902F0FFFA06F5962303F51C6103F6DE
:101090003850C3F8AC490D6003F6EC11C3F8DC49D5
:1010A0000D6003F61821C3F8084A0D6003F64421C9
:1010B000C3F8344A0D6003F52761C3F8604A0D6038
:1010C00003F69C21C3F88C4A0D6003F52D61C3F82B
:1010D000B84A0D6003F53061C3F8EC4A0D6003F6C1
:1010E000B431C3F81C4B0D6003F6E431C3F8544B24
:1010F0000D6003F61441C3F8744B0D6003F66C41A8
:10110000C3F8A04B0D6003F69841C3F8D04B0D60B7
:1011100003F6C841C3F8004C0D60C3F8304CC3F867
:10112000584CC3F8884CC3F8B44CC3F8E44C02F0F4
:10113000A9FA06F5C8233046274A03F67851C3F8C2
:10114000184EC3F8444E0D6003F6A451C3F8704E18
:101150000D6003F55D61C3F8A44E0D6003F6FC510C
:10116000C3F8D44E0D6003F62861C3F8084F0D6034
:1011700003F65461C3F8644D0D6003F68861C3F84B
:10118000944D0D6003F6B861C3F8C04DC3F8EC4D43
:1011900003F6EC630D601D60114913F05BFE0E4A0F
:1011A0001049204613F056FE0B4A0F49204613F013
:1011B00051FE094A0D49204613F04CFE2046064ACE
:1011C0000B49BDE8704013F045BE00BF1C57062414
:1011D000FC0700240AD7233C00000024DD06000899
:1011E0001D070008E106000819070008110700089C
:1011F000150700080068024B0A6803441A6070472C
:10120000104F060003680A6803F5C833C3F8B42317
:10121000704700BF0068024B0A6803441A607047B9
:101220006C2703000068024B0A6803441A60704789
:1012300024BB04000068024B0A6803441A6070472C
:10124000DC4E060003680A6803F5C833C3F884233C
:10125000704700BF0068024B0A6803441A60704779
:101260003C2703000068024B0A6803441A60704779
:10127000F4BA04000068024B0A6803441A6070471D
:10128000AC4E0600012A03D0022A04D00020704789
:101290000160002070470B6803600020704700BFAA
:1012A000012A03D0022A04D00020704701600020E8
:1012B00070470B6803600020704700BF012A03D00D
:1012C000022A04D0002070470160002070470B689C
:1012D00003600020704700BF012A03D0022A04D017
:1012E000002070470160002070470B6803600020F9
:1012F000704700BF012A03D0022A04D000207047A3
:101300000160002070470B6803600020704700BF39
:10131000012A03D0022A04D0002070470160002077
:1013200070470B6803600020704700BF012A03D09C
:10133000022A04D0002070470160002070470B682B
:1013400003600020704700BF012A03D0022A04D0A6
:10135000002070470160002070470B680360002088
:10136000704700BF012A03D0022A04D00020704732
:101370000160002070470B6803600020704700BFC9
:101380002DE9F04100F5C825064610689846424B05
:101390008AB0C5F8140F0F46546803443F4A1B1B1C
:1013A000C5F8184FC5F81C2F02F54D1202F2FE4287
:1013B000934263D93A4A002113F0B4FD2046384ADB
:1013C000002113F0AFFD3046414601F099F8354851
:1013D000109906AC304401F093F833481199304429
:1013E00001F08EF831481299304401F089F805F681
:1013F000E46300220021C5F8E47EC5F8E01E5A60CF
:10140000DA601A614FF07E5206965A610423029602
:101410006E46A5F8FC3E05F57063254F254A0597F5
:10142000049294E8030086E8030093E8030084E84C
:10143000030096E8030083E80300D5F8083FD5F8D9
:101440000C1FC5F8082F0893C5F80C7F099183B1CC
:10145000032221462046984795F8FC2E049B052A36
:1014600008D11BB102A90322084698470AB0BDE87B
:10147000F0811346012285F8FE2EF2E7084B024662
:10148000A64603444FF0000C42F804CB9A424EF8B3
:1014900004CBF7D197E700BFFF4B1D0000530700B7
:1014A000004C1D00B89301007027030028BB040006
:1014B000F51100088512000870B50E6800F5C835F2
:1014C00000F5483E00F5962CC5F8506300F5C8209D
:1014D0001668049CCEF808671E68CCF8C06A2668B7
:1014E000C0F8786E4968C5F854135268CEF80C27D6
:1014F0005B68CCF8C43A6368C0F87C3E70BD00BF3E
:101500002DE9F04F8DB000F5C83607468B4608AC84
:10151000089002AD0490DFF864C38DE80C004FF032
:101520007E53C6F8881306F569729DF800E0C6F888
:101530009C33002386F8A0E3C6F88C33C6F89433B6
:10154000C6F898330023CDF81CC086F8A133C74BEA
:1015500094E80300069385E8030092E8030084E81A
:10156000030095E8030082E80300D6F8AC83D6F8C0
:10157000B023C6F8AC33CDF82880C6F8B0C30B92C0
:10158000B8F1000F00F03082032221462046C04708
:1015900096F8A023069B052A02D0012286F8A223F2
:1015A0001BB104A903220846984707F548384FF0B5
:1015B0007E52089708F5E863C8F840B79DF858E0F0
:1015C0005A610022DFF8B8C25A60DA601A6108F284
:1015D0005C72002388F858E7049788F85937A44BC1
:1015E000CDF81CC0069394E8030085E8030092E858
:1015F000030084E8030095E8030082E80300D8F8BC
:101600006497D8F86827C8F86437CDF82890C8F8E8
:1016100068C70B92B9F1000F00F00882032221463F
:101620002046C84798F85827069B052A02D0012271
:1016300088F85A271BB104A903220846984707F5E2
:1016400096294FF07E52089709F6F823C9F8F8BAA0
:101650009DF860E05A610022DFF828C25A60DA6023
:101660001A6109F61433002289F810EB049789F8FF
:10167000112B804ACDF81CC0069294E8030085E83F
:10168000030093E8030084E8030095E8030083E87F
:101690000300D9F81C3BD9F8201BC9F81C2B0A936E
:1016A000C9F820CB0B91002B00F0B7810322214613
:1016B0002046984799F8102B069B052A02D0012254
:1016C00089F8122B1BB104A903220846984707F595
:1016D000C82A4FF07E5208970AF56B63CAF8B0BE6D
:1016E0009DF868E05A610022DFF89CC15A60DA6018
:1016F0001A610AF6CC6300228AF8C8EE04978AF8C9
:10170000C92E5D4ACDF81CC0069294E8030085E816
:10171000030093E8030084E8030095E8030083E8EE
:101720000300DAF8D43EDAF8D81ECAF8D42E0A93A9
:10173000CAF8D8CE0B91002B00F066810322214617
:10174000204698479AF8C82E069B052A02D0012207
:101750008AF8CA2E1BB104A90322084698474FF005
:101760007E5306F55D720897C6F86C330023C6F801
:1017700058B3C6F85C33C6F86433C6F8683305233B
:10178000DFF808E1A6F87033DFF804C10497CDF85C
:101790001CE0CDF818C094E8030085E8030092E847
:1017A000030084E8030095E8030082E80300D6F80C
:1017B0007C33D6F88023C6F87CC30A93C6F880E34E
:1017C0000B92002B00F01E810322214620469847F1
:1017D00096F87023069B052A02D0012286F8722310
:1017E0001BB104A903220846984708F5E2634FF0AD
:1017F0007E52C8F810B75A61002208975A60DA6022
:101800001A6108F22C720523DFF888E0DFF888C03F
:10181000A8F828370497CDF81CE0CDF818C094E854
:10182000030085E8030092E8030084E8030095E8DC
:10183000030082E80300D8F83437D8F83827C8F80E
:1018400034C70A93C8F838E70B92002B00F0D88011
:10185000032221462046984798F82827069B052A08
:1018600002D0012288F82A27E3B117E0A11200086C
:10187000BD120008D9120008F51200080512000870
:10188000151200082512000835120008451200083C
:1018900011130008551200082D13000804A9032293
:1018A0000846984709F6C8234FF07E52C9F8C8BACF
:1018B0005A61002208975A60DA601A6109F6E42337
:1018C0000522DFF88CC10497A9F8E02A5B4ACDF81D
:1018D0001CC0069294E8030085E8030093E8030027
:1018E00084E8030095E8030083E80300D9F8EC3AA4
:1018F000D9F8F01AC9F8EC2A0A93C9F8F0CA0B9182
:10190000002B7BD0032221462046984799F8E02AF5
:10191000069B052A02D0012289F8E22A1BB104A9FC
:101920000322084698470AF568634FF07E52CAF8CA
:1019300080BE5A61002208975A60DA601A610AF67E
:101940009C630522DFF80CC10497AAF8982E3C4A44
:10195000CDF81CC0069294E8030085E8030093E8E4
:10196000030084E8030095E8030083E80300DAF845
:10197000A43EDAF8A81ECAF8A42E0A93CAF8A8CE84
:101980000B91002B38D003222146204698479AF825
:10199000982E069B052A02D001228AF89A2E1BB1A6
:1019A00004A903220846984738469DE8060000F03F
:1019B000DBFD16AB234893E80600384400F0D4FD65
:1019C00018AB214893E80600384400F0CDFD1AAB6F
:1019D0001E4893E80600384400F0C6FD012386F84F
:1019E00072330DB0BDE8F08FBEF1050F3FF4D9ADF5
:1019F000012286F8A223D3E51346D1E713468EE7EA
:101A000063464BE76346ECE6BEF1050F13463FF431
:101A1000A2AE01228AF8CA2E9CE6BEF1050F13463B
:101A20003FF451AE012289F8122B4BE6BEF1050FAF
:101A30003FF401AE012288F85A27FBE5491300085C
:101A400065130008B89301007027030028BB040049
:101A500065120008751200082DE9F04104461E4683
:101A60000D46DDE9068700F00BFE0A48324629469E
:101A7000204400F005FE084842462946204400F074
:101A8000FFFD06483A4629462044BDE8F04100F0F3
:101A9000F7BD00BFB89301007027030028BB040006
:101AA00030B504468BB000F0F9FD04F5C83595F863
:101AB000A233002B3AD195F87233002B76D19E4891
:101AC00004F54835204400F0E9FD95F85A37002B1D
:101AD00040F0AA8095F82A37002B40F0EB80974819
:101AE00004F59625204400F0D9FD95F8123B002B13
:101AF00040F0308195F8E23A002B40F07181904837
:101B000004F5C825204400F0C9FD95F8CA3E002B15
:101B100040F0A88195F89A3E002B40F0E98195F8B5
:101B2000FE3E002B40F029820BB030BDD5F8880373
:101B300095F8A013183003F0DFFDD5EDE37A95EDAD
:101B4000E47A77EE876AB4EEE60AF1EE10FA06DC84
:101B500077EEC77AB4EEE70AF1EE10FAABD595F856
:101B6000A13385EDE30A002B00F06482012B40F0E5
:101B70004682D5EDE67A20EE000A95EDE77A37EE5B
:101B8000677AE0EE077AC5EDE57AD5F8AC33CDEDAE
:101B9000017A002B00F0B1826A4801A9D5F8B03370
:101BA0002044984795F87233002B88D0D5F8580315
:101BB00095F87013183003F09FFDD5EDD77A95EDA9
:101BC000D87A77EE876AB4EEE60AF1EE10FA07DC0F
:101BD00077EEC77AB4EEE70AF1EE10FA7FF56FAF51
:101BE00095F8713385EDD70A002B00F04F82012B59
:101BF00040F00B82D5EDDA7A20EE000A95EDDB7A23
:101C000037EE677AE0EE077AC5EDD97AD5F87C33FE
:101C1000CDED027A002B00F070824B4802A9D5F876
:101C20008033204498474AE7D5F8400795F858177D
:101C3000183003F061FD05F5E863D3ED017A93ED0B
:101C4000027A77EE876AB4EEE60AF1EE10FA07DC64
:101C500077EEC77AB4EEE70AF1EE10FA7FF53AAF05
:101C600005F5E86395F8592783ED010A002A00F08D
:101C70002E82012A40F0CC81D3ED047A20EE000AB6
:101C800093ED057A37EE677AE0EE077AC3ED037AD3
:101C9000D5F86437CDED037A002B00F02E822B4867
:101CA00003A9D5F868372044984795F82A37002BC0
:101CB0003FF415AFD5F8100795F82817183003F042
:101CC0001BFD05F5E263D3ED017A93ED027A77EE21
:101CD000876AB4EEE60AF1EE10FA07DC77EEC77A0F
:101CE000B4EEE70AF1EE10FA7FF5F9AE05F5E2631E
:101CF00095F8292783ED010A002A00F0BC81012A0A
:101D000040F08081D3ED047A20EE000A93ED057A4D
:101D100037EE677AE0EE077AC3ED037AD5F8343709
:101D2000CDED047A002B00F0E881094804A9D5F82C
:101D3000383720449847D2E6B89301007027030053
:101D400028BB0400A4930100749301005C270300E6
:101D50002C270300D5F8F80A95F8101B183003F06B
:101D6000CBFC05F6F823D3ED017A93ED027A77EEFA
:101D7000876AB4EEE60AF1EE10FA07DC77EEC77A6E
:101D8000B4EEE70AF1EE10FA7FF5B4AE05F6F823EB
:101D900095F8112B83ED010A002A00F06181012AD8
:101DA00040F03F81D3ED047A20EE000A93ED057AEE
:101DB00037EE677AE0EE077AC3ED037AD5F81C3B7D
:101DC000CDED057A002B00F09881CD4805A9D5F816
:101DD000203B2044984795F8E23A002B3FF48FAE21
:101DE000D5F8C80A95F8E01A183003F085FC05F616
:101DF000C823D3ED017A93ED027A77EE876AB4EEC9
:101E0000E60AF1EE10FA07DC77EEC77AB4EEE70ADD
:101E1000F1EE10FA7FF573AE05F6C82395F8E12AC6
:101E200083ED010A002A00F01081012A40F0FC80B5
:101E3000D3ED047A20EE000A93ED057A37EE677A47
:101E4000E0EE077AC3ED037AD5F8EC3ACDED067AE9
:101E5000002B00F05281AB4806A9D5F8F03A204497
:101E600098474CE6D5F8B00E95F8C81E183003F028
:101E700043FC05F56B63D3ED017A93ED027A77EEBF
:101E8000876AB4EEE60AF1EE10FA07DC77EEC77A5D
:101E9000B4EEE70AF1EE10FA7FF53CAE05F56B63A0
:101EA00095F8C92E83ED010A002A00F00581012A68
:101EB00040F0B480D3ED047A20EE000A93ED057A69
:101EC00037EE677AE0EE077AC3ED037AD5F8D43EB1
:101ED000CDED077A002B00F010818B4807A9D5F8CB
:101EE000D83E2044984795F89A3E002B3FF417AE11
:101EF000D5F8800E95F8981E183003F0FDFB05F517
:101F00006863D3ED017A93ED027A77EE876AB4EED7
:101F1000E60AF1EE10FA07DC77EEC77AB4EEE70ACC
:101F2000F1EE10FA7FF5FBAD05F5686395F8992E93
:101F300083ED010A002A00F0B480012A6BD1D3EDB1
:101F4000047A20EE000A93ED057A37EE677AE0EE28
:101F5000077AC3ED037AD5F8A43ECDED087A002BBD
:101F600000F0CB80694808A9D5F8A83E20449847DE
:101F700095F8FE3E002B3FF4D7ADD5F8E40E95F86A
:101F8000FC1E183003F0B8FB05F6E463D3ED017ACC
:101F900093ED027A77EE876AB4EEE60AF1EE10FA74
:101FA00007DC77EEC77AB4EEE70AF1EE10FA7FF5B8
:101FB000BBAD05F6E46395F8FD2E83ED010A002A1A
:101FC00000F09080012A32D1D3ED047A20EE000A8D
:101FD00093ED057A37EE677AE0EE077AC3ED037A80
:101FE000D5F8083FCDED097A002B00F086804848EF
:101FF00009A9D5F80C3F204498470BB030BDD5ED6A
:10200000E57AC2E5D3ED037A88E6D5EDD97AFDE528
:10201000D3ED037A3CE6D3ED037A9CE7D3ED037A64
:1020200054E7D3ED037AC9E6D3ED037A0CE7D3ED99
:10203000037AD5E7D5EDE67A95EDE77A37EE677A5C
:10204000E0EE077AC5EDE57A9FE5D3ED047A93EDEE
:10205000057A37EE677AE0EE077AC3ED037AF3E6A6
:10206000D3ED047A93ED057A37EE677AE0EE077ADE
:10207000C3ED037AA2E6D3ED047A93ED057A37EE49
:10208000677AE0EE077AC3ED037A47E6D5EDDA7AB0
:1020900095EDDB7A37EE677AE0EE077AC5EDD97A0F
:1020A000B4E5D3ED047A93ED057A37EE677AE0EE86
:1020B000077AC3ED037A4EE7D3ED047A93ED057A00
:1020C00037EE677AE0EE077AC3ED037AFEE6D3EDEA
:1020D000047A93ED057A37EE677AE0EE077AC3ED7E
:1020E000037AD5E5D3ED047A93ED057A37EE677A76
:1020F000E0EE077AC3ED037A72E712F0B0FE00BF9C
:1021000014BB0400E4BA0400CC4E06009C4E06004A
:10211000004F06002DE9F04104460D4616461F46C5
:1021200000F0F4FA0B483B4632462946204400F0C2
:10213000EDFA09483B4632462946204400F0E6FACB
:1021400006483B46324629462044BDE8F04100F0AF
:10215000DDBA00BFB89301007027030028BB04005C
:102160002DE9F04F90F80080002300F5C82EB8F15B
:10217000020FCEF8E03E00F0218101230222CEF8CA
:10218000E03E00F5C83C9CF8B873022F02D013461D
:10219000CEF8E02E00F5483292F87067022E02D099
:1021A0000133CEF8E03E00F5962090F8285B022D32
:1021B00002D00133CEF8E03E002900F0FD8007EEAA
:1021C000903ADEF8184FDEF814BF0023F8EEE76A05
:1021D00004EB8109B4E0022F00F0D680D2F8081792
:1021E00001EB030A9AED006A67EE867ADFF8DCA15C
:1021F00077EE877A92449AEDED7A9FED715BB7EEB8
:10220000C74AB4EEC54BF1EE10FA00F1D280022EAF
:1022100000F0CF80D0F8C01A01EB030A9AED006AF3
:1022200027EE067ADFF8A8A177EE877A82449AED46
:10223000ED7A9FED635BB7EEC74AB4EEC54BF1EEA6
:1022400010FA00F1B380022D00F0B080DEF8781EA5
:1022500001EB030A9AED006A27EE067A77EE877A99
:102260009FED575B87EEA67AABEC017ADCEDED7A59
:10227000B7EEE74AB4EEC54BF1EE10FA00F19380E9
:10228000B8F1020F00F08F80DCF8541301EB030A61
:102290009AED007A27EE877A02F26C7ADAED007A0C
:1022A0009FED475BB7EEE74AB4EEC54BF1EE10FA8F
:1022B00076D4022F74D0D2F80C1701EB030A9AEDF2
:1022C000006A67EE867ADFF804A177EE877A924497
:1022D0009AEDED7A9FED3A5BB7EEC74AB4EEC54B87
:1022E000F1EE10FA59D4022E57D0D0F8C41A01EBEF
:1022F000030A9AED006A27EE067ADFF8D4A077EE9B
:10230000877A82449AEDED7A9FED2D5BB7EEC74A4E
:10231000B4EEC54BF1EE10FA3CD4022D3AD0DEF803
:102320007C1E01EB030A9AED006A27EE067A77EE2F
:10233000877A043387EEA67AA4EC017AA1453BD0D4
:10234000DCEDED7A9FED1E5BB7EEE74AB4EEC54BD0
:10235000F1EE10FA1BD4B8F1020F18D0DCF85013CC
:1023600001EB030A9AED007A27EE877A02F26C7A83
:10237000DAED007A9FED125BB7EEE74AB4EEC54B9B
:10238000F1EE10FA7FF527AFDFED0F7A2EE79FED24
:102390000E7AEBE79FED0C7AC9E79FED0B7AACE77D
:1023A000DFED097A8FE79FED087A75E79FED067AF2
:1023B00054E79FED057A35E7BDE8F08F0122E0E6AE
:1023C0007B14AE47E17A743F000000007097010073
:1023D000289B0100F8B50E46204915461A460144CF
:1023E00004461F4600F0B2F91D491E483A462144F2
:1023F000204400F0ABF91C491C483A4621442044D3
:1024000000F0A4F91A491B483A462144204400F040
:102410009DF939462046FFF7A3FEEFB104F5C82E1B
:1024200031462C46DEF8140FDEF8182F00EB870338
:102430000EF5716CB0EC017ADCED007A984267EE33
:10244000877AE1EC017AB2EC017ADCED007A67EE92
:10245000877AE4EC017AEBD1F8BD00BF509301001C
:1024600008270300B8930100C0BA040070270300D6
:10247000784E060028BB040003681A78012A08D0A9
:1024800012F0FD0F01D101221A700022C3E90122CE
:10249000704702221A700022C3E90122704700BF70
:1024A000012A03D0022A04D00020704701600020D6
:1024B00070470B6803600020704700BF012A03D0FB
:1024C000022A04D0002070470160002070470B688A
:1024D00003600020704700BF03681A7842B1013AD8
:1024E000012A01D800221A700022C3E90122704794
:1024F0005A6802211A6100221970C3E9012270474B
:1025000038B502220123002502700373124A0B68BA
:10251000056143654C68C265104A11491A448465D7
:10252000121B8A42C0E901550BD929460D4A1846AB
:1025300012F0F8FC294620460A4ABDE8384012F05D
:10254000F1BC084821461844002243F8042B984265
:1025500041F8042BF8D138BD00530700FF4B1D0094
:10256000FE973A00004C1D00F0B58FB004463F4D79
:1025700014306B469FED3E0A83E80600BDF801204B
:102580003C4BADF80C20039908930995069402F092
:10259000BFFD0023089F0C93002F61D00AAD0222DB
:1025A00006A92846B847DDE9087295E8030004F15A
:1025B000240304AE86E8030093E8030085E80300E3
:1025C00096E8030083E80300E36A216BE7620C935B
:1025D00022630D9123B10322294628469847089F7C
:1025E0001FB106A903220846B847BDF8032004F12D
:1025F0003400214BADF80C200993204B9FED1C0AB1
:1026000003990893069402F083FD0022089B0C9224
:102610004BB3022206A928469847DDE9083795E81A
:10262000030004F1440286E8030092E8030085E811
:10263000030096E8030082E80300E66C226DE36481
:102640000C9627650D9226B1032229462846B047ED
:10265000089B1BB106A90322084698470FB0F0BD9E
:102660000D9A0AADA1E70D9FD9E700BFD924000854
:1026700000007A44A124000879240008BD24000841
:1026800038B504460D4600F58C7000F005F9294672
:1026900004F16000BDE8384000F05CBB10B50446B2
:1026A000143002F04FFD237E43B1A37F802B05D170
:1026B000E36A43B3236B04F124009847052004F038
:1026C00077FB04F1340002F03DFD94F838304BB153
:1026D00094F83E30802B05D1E36CA3B1236D04F157
:1026E00044009847052004F063FB04F1600000F00B
:1026F0005DFC04F58C7000F0D1F904F5E870BDE8DC
:10270000104000F065BD12F0AAFB00BFF0B50478E0
:10271000D4B9CBB101EB8304476D4368D0E91665AA
:10272000F1EC017A07EB830E9D4206EB830CCEEDB4
:10273000007A03F1010352F804EB98BF00238C42A6
:10274000CCF800E0ECD14360F0BD00BF2DE9F043D0
:102750000778022F16D0AAB1456D866D8468D1E93D
:1027600000318FB1012F30D005EB840503EB8202DD
:1027700006EB8404286843F8040B9A42206841F869
:10278000040BF7D1BDE8F083476803EB8202002F0A
:1027900007F1FF380CBF4FF00009C14605EB840C70
:1027A000002F06EB840E4C46DCED007A0CBFBC46D5
:1027B000C446E3EC017A9A42DEF800E041F804EB0B
:1027C000C0F808C0EAD1BDE8F08303EB820ED0F870
:1027D00010C002E084607345D4D005EB84076445E3
:1027E0004FF000023F6843F8047B06EB840704F1D6
:1027F00001043F6841F8047BECD314468260EAE7A9
:102800000B684FF0000C026810B4084CD2F8B010FE
:10281000A342D2F8B420C1F800C028BF23465DF817
:10282000044B8B60C2F800C0936070477FA903001F
:1028300003680A68DA67704703680A68C3F8AC205F
:10284000704700BF012A03D0022A04D0002070473D
:102850000160002070470B6803600020704700BFD4
:10286000012A03D0022A04D0002070470160002012
:1028700070470B6803600020704700BF012A03D037
:10288000022A04D0002070470160002070470B68C6
:1028900003600020704700BF2DE9F0430446002686
:1028A00010684FF0010815468BB0C4F8B0000F4611
:1028B000724A3146C0E901680C3012F033FB686897
:1028C00031466E4AC4F8B40006ADC0E901680C3068
:1028D00012F028FB42F2107304F140020694A36345
:1028E00005236762A3870023DFF8A8C1A362644BB6
:1028F0000294CDF814C0049395E80300C4E90C6673
:102900006E4686E8030092E8030085E8030096E837
:10291000030082E80300D4F84890E26CA364CDF889
:102920002090C4F84CC00992B9F1000F0BD00322DB
:1029300029462846C84794F83C20049B052A18BF1E
:1029400084F83E801BB102A90322084698474FF045
:102950007E530522069463660023A4F8682063650D
:10296000E365236604F16C032765DFF82CC1454A53
:102970000294CDF814C0049295E8030086E80300A1
:1029800093E8030085E8030096E8030083E803006A
:10299000636FA16F62670893C4F878C00991002B38
:1029A00067D0032229462846984794F86820049B5C
:1029B000052A02D0012284F86A201BB102A9032251
:1029C0000846984700234FF07E520694C4F894209E
:1029D0000522C4F88430C4F88C30C4F8903004F177
:1029E0009C03C4F88070A4F89820274F274A0294CB
:1029F0000597049295E8030086E8030093E8030036
:102A000085E8030096E8030083E80300D4F8A430C7
:102A1000D4F8A810C4F8A4200893C4F8A8700991A9
:102A20004BB3032229462846984794F89820049BE4
:102A3000052A02D0012284F89A201BB102A90322A0
:102A4000084698470023D4F8B000002149F64042D8
:102A500084F820304FF07C550D4BC4F8AC50E36740
:102A6000D4F8B4300160826019609A600BB0BDE8A0
:102A7000F0831346A2E71346E0E700BF00A60E006E
:102A80004528000861280008392800087D2800082A
:102A9000CDCC4C3F012800083128000810B5044671
:102AA00086B0019002F04EFB237913B1A37A802BFC
:102AB00010D0052004F07CF994F83E30CBB994F89E
:102AC0006A30002B5ED194F89A30002B40F095804C
:102AD00006B010BDA369002B00F0E980E36904F1A2
:102AE00010009847052004F063F994F83E30002B5D
:102AF000E5D0606A94F83C10183002F0FDFD94EDCA
:102B00000A7AD4ED0B6AF0EE407A8DED010A37EEC9
:102B1000266AB4EEC60AF1EE10FA06DC37EE667AE3
:102B2000B4EEC70AF1EE10FAC9D594F83D30C4ED01
:102B30000A7A002B00F0B980012B40F09E8067EEEE
:102B4000A77AA36B626B9B1A07EE102A06EE903AE7
:102B5000B8EE477AF8EE666AA7EEA67AFCEEC77A78
:102B600017EE903AC4ED0C7AA26C0393002A00F0A1
:102B70009E80E36C03A904F14000984794F86A3002
:102B8000002BA0D0206D94F86810183002F0B4FD2E
:102B9000D4ED157A94ED167A77EE876AB4EEE60AEC
:102BA000F1EE10FA06DC77EEC77AB4EEE70AF1EE42
:102BB00010FA88D594F8693084ED150A002B69D095
:102BC000012B57D1D4ED187A20EE000A94ED197A32
:102BD00037EE677AE0EE077AC4ED177A636FCDEDD2
:102BE000047A002B63D0A36F04A904F16C0098470A
:102BF00094F89A30002B3FF46BAFD4F8800094F82F
:102C00009810183002F078FDD4ED217A94ED227AF4
:102C100077EE876AB4EEE60AF1EE10FA07DC77EE9B
:102C2000C77AB4EEE70AF1EE10FA7FF551AF94F8E7
:102C3000993084ED210A13B3012B18D1D4ED247AF5
:102C400020EE000A94ED257A37EE677AE0EE077AF7
:102C5000C4ED237AD4F8A430CDED057A3BB3D4F893
:102C6000A83005A904F19C00984706B010BDD4ED2A
:102C7000237AEFE7D4ED177AB0E7236B74E7D4ED4E
:102C8000247A94ED257A37EE677AE0EE077AC4ED80
:102C9000237ADFE7D4ED187A94ED197A37EE677A64
:102CA000E0EE077AC4ED177A98E7A36B4AE712F0D3
:102CB000D6F800BF026892F8203083F0010382F852
:102CC0002030704703680A681A65704703680A680D
:102CD000C3F88020704700BF03680A68C3F8B020BB
:102CE000704700BF012A03D0022A04D00020704799
:102CF0000160002070470B6803600020704700BF30
:102D0000012A03D0022A04D000207047016000206D
:102D100070470B6803600020704700BF012A03D092
:102D2000022A04D0002070470160002070470B6821
:102D300003600020704700BF012A03D0022A04D09C
:102D4000002070470160002070470B68036000207E
:102D5000704700BF2DE9F04103238CB002269FEDA0
:102D60008A0A8DF804300F46884B04468DF80560BA
:102D70000793874B01990693049002F0C9F9002349
:102D8000DDF818800A93B8F1000F00F0F38008AD69
:102D9000324604A92846C047DDE9068295E80300CB
:102DA00004F1100302AE86E8030093E8030085E80F
:102DB000030096E8030083E80300A369E169C4F80F
:102DC00018800A93E2610B912BB103222946284611
:102DD0009847DDF81880B8F1000F03D004A903224A
:102DE0000846C0474FF07E5305220894A363002392
:102DF000A287A3622363636304F140036762DFF881
:102E0000A4C1644A0494CDF81CC0069295E803005E
:102E100086E8030093E8030085E8030096E80300D2
:102E200083E80300A36CE16CA2640A93C4F84CC06D
:102E30000B91002B00F0A5800322294628469847D5
:102E400094F83C20069B052A02D0012284F83E20FB
:102E50001BB104A9032208469847002300220894C6
:102E60004FF0030EA26505226765A4F86C20C4F834
:102E700068E0DFF834C1484A0494CDF81CC00692DB
:102E800095E80300C4E9183304F1700386E80300F1
:102E900093E8030085E8030096E8030083E8030055
:102EA000A36FE16FA2670A93C4F87CC00B91002B5B
:102EB00065D0724629462846984794F86C20069BB0
:102EC000052A02D0012284F86E201BB104A9032236
:102ED0000846984700234FF07E520894C4F8982083
:102EE0000522C4F88830C4F89030C4F8943004F156
:102EF000A003C4F88470A4F89C20284F284A0494A6
:102F00000797069295E8030086E8030093E803001C
:102F100085E8030096E8030083E80300D4F8A830AE
:102F2000D4F8AC10C4F8A8200A93C4F8AC700B9184
:102F30001BB3032229462846984794F89C20069BF9
:102F4000052A02D0012284F89E201BB104A9032285
:102F500008469847012200234FF07E5184F8202034
:102F6000C4F880202365C4F8B010C4F8B4300CB0A5
:102F7000BDE8F0810B9A08AD10E71346E6E713466B
:102F8000A4E7134665E700BF00007A44B52C0008AB
:102F9000E52C0008012D00081D2D0008D92C000883
:102FA000392D0008C52C0008CD2C000810B50446AA
:102FB00086B002F0C7F8237913B1A37A802B10D022
:102FC000052003F0F5FE94F83E30CBB994F86E304E
:102FD000002B56D194F89E30002B40F0998006B01B
:102FE00010BDA369002B00F0F180E36904F110002B
:102FF0009847052003F0DCFE94F83E30002BE5D026
:10300000606A94F83C10183002F076FB94ED0A7A6E
:10301000D4ED0B6AF0EE407A8DED010A37EE266AA8
:10302000B4EEC60AF1EE10FA06DC37EE667AB4EEBC
:10303000C70AF1EE10FAC9D594F83D30C4ED0A7A0A
:10304000002B00F0B880012B40F0A58094ED0D7AA4
:1030500067EEA77AD4ED0E6A76EEC76AA7EEA67A77
:1030600084ED0C7AA36C8DED037A002B00F0AE801A
:10307000E36C03A904F14000984794F86E30002BEC
:10308000A8D0606D94F86C10183002F035FB94ED08
:10309000167AD4ED176AF0EE407A8DED010A37EE1C
:1030A000266AB4EEC60AF1EE10FA06DC37EE667A4E
:1030B000B4EEC70AF1EE10FA8CD594F86D30C4ED79
:1030C000167A002B75D0012B63D167EEA77AA36E19
:1030D000626E9B1A07EE102A06EE903AB8EEC77A97
:1030E000F8EEE66AA7EEA67AFDEEC77A17EE903AFA
:1030F000C4ED187AA26F0493002A67D0E36F04A985
:1031000004F17000984794F89E30002B3FF467AFAD
:10311000D4F8840094F89C10183002F0EDFA94ED85
:10312000227AD4ED236AF0EE407A8DED010A37EE73
:10313000266AB4EEC60AF1EE10FA07DC37EE667ABC
:10314000B4EEC70AF1EE10FA7FF549AF94F89D305E
:10315000C4ED227A13B3012B18D194ED257A67EED2
:10316000A77AD4ED266A76EEC76AA7EEA67A84ED32
:10317000247AD4F8A8308DED057A3BB3D4F8AC307E
:1031800005A904F1A000984706B010BD94ED247A7B
:10319000EFE7236EAEE794ED0C7A63E794ED257AC2
:1031A000D4ED266A76EEC76AA7EEA67A84ED247A75
:1031B000DFE7A36E8CE794ED0D7AD4ED0E6A76EE20
:1031C000C76AA7EEA67A84ED0C7A4BE711F047FEAA
:1031D00030B500F5C83487B0054694F89230CBB9C5
:1031E00094F8BE30002B54D194F8EA30002B40F014
:1031F000918094F81631002B40F0CE8094F8423143
:10320000002B40F00B8194F86E31002B40F046818A
:1032100007B030BDA06F94F89010183002F06CFA2F
:10322000D4ED1F7A94ED207A77EE876AB4EEE60A41
:10323000F1EE10FA06DC77EEC77AB4EEE70AF1EEAB
:1032400010FACDD594F8913084ED1F0A002B00F0D0
:103250007381012B40F05E81D4ED227A20EE000ACA
:1032600094ED237A37EE677AE0EE077AC4ED217A9F
:10327000D4F89C30CDED007A002B00F09F81D0482F
:103280006946D4F8A0302844984794F8BE30002B03
:10329000AAD0D4F8A40094F8BC10183002F02CFA8C
:1032A000D4ED2A7A94ED2B7A77EE876AB4EEE60AAB
:1032B000F1EE10FA06DC77EEC77AB4EEE70AF1EE2B
:1032C00010FA91D594F8BD3084ED2A0A002B00F055
:1032D0005F81012B40F02481D4ED2D7A20EE000A8D
:1032E00094ED2E7A37EE677AE0EE077AC4ED2C7A09
:1032F000D4F8C830CDED017A002B00F05F81B148E1
:1033000001A9D4F8CC302844984794F8EA30002B2F
:103310003FF46FAFD4F8D00094F8E810183002F002
:10332000EBF9D4ED357A94ED367A77EE876AB4EE20
:10333000E60AF1EE10FA07DC77EEC77AB4EEE70A98
:10334000F1EE10FA7FF555AF94F8E93084ED350AC7
:10335000002B00F02881012B40F0E580D4ED387A75
:1033600020EE000A94ED397A37EE677AE0EE077ABC
:10337000C4ED377AD4F8F430CDED027A002B00F0AA
:103380001D81914802A9D4F8F8302844984794F850
:103390001631002B3FF432AFD4F8FC0094F814112E
:1033A000183002F0A9F9D4ED407A94ED417A77EE25
:1033B000876AB4EEE60AF1EE10FA07DC77EEC77A18
:1033C000B4EEE70AF1EE10FA7FF518AF94F8153174
:1033D00084ED400A002B00F0D080012B40F09D804E
:1033E000D4ED437A20EE000A94ED447A37EE677A02
:1033F000E0EE077AC4ED427AD4F82031CDED037ABD
:10340000002B00F0DB80714803A9D4F82431284454
:10341000984794F84231002B3FF4F5AED4F82801D8
:1034200094F84011183002F067F9D4ED4B7A94ED1E
:103430004C7A77EE876AB4EEE60AF1EE10FA07DC12
:1034400077EEC77AB4EEE70AF1EE10FA7FF5DBAE5D
:1034500094F8413184ED4B0A002B78D0012B65D1D3
:10346000D4ED4E7A20EE000A94ED4F7A37EE677A6B
:10347000E0EE077AC4ED4D7AD4F84C31CDED047A04
:10348000002B00F09B80524804A9D4F85031284406
:10349000984794F86E31002B3FF4BAAED4F854013B
:1034A00094F86C11183002F027F9D4ED567A94EDA7
:1034B000577A77EE876AB4EEE60AF1EE10FA07DC87
:1034C00077EEC77AB4EEE70AF1EE10FA7FF5A0AE18
:1034D00094F86D3184ED560A002B43D0012B28D18E
:1034E000D4ED597A20EE000A94ED5A7A37EE677AD5
:1034F000E0EE077AC4ED587AD4F87831CDED057A4C
:10350000002B5BD0334805A9D4F87C312844984778
:1035100007B030BDD4ED217AAAE6D4ED427A6BE74C
:10352000D4ED2C7AE4E6D4ED377A23E7D4ED4D7A66
:10353000A2E7D4ED587ADFE7D4ED227A94ED237A2E
:1035400037EE677AE0EE077AC4ED217A90E6D4EDA3
:103550004E7A94ED4F7A37EE677AE0EE077AC4ED53
:103560004D7A89E7D4ED597A94ED5A7A37EE677A35
:10357000E0EE077AC4ED587ABEE7D4ED437A94EDD5
:10358000447A37EE677AE0EE077AC4ED427A33E7A1
:10359000D4ED2D7A94ED2E7A37EE677AE0EE077A45
:1035A000C4ED2C7AA4E6D4ED387A94ED397A37EE6E
:1035B000677AE0EE077AC4ED377ADBE611F04FFC6C
:1035C00094900100C0900100EC900100189101005E
:1035D0004491010070910100B6EE007AD0ED097AB5
:1035E000F7EE005A90ED0A5A90ED056AF0EE476A40
:1035F000B4EEC75AE7EE876A75EEE77AF1EE10FA95
:1036000067EE877A66EE266A67EE867AF8B5044634
:10361000C0ED066AC0ED077A29DBB0EE650A00232B
:10362000C0ED025A0361036004F12C0504F58677AE
:103630002E4601E094ED020A304600F055FA06F1FC
:10364000E0001C3694ED020A00F04EFAB742F1D1C8
:10365000284694ED040A00F03DFA05F1E0001C351F
:1036600094ED040A00F036FABD42F1D1F8BD90EDB8
:10367000010AC268024B80ED020A02610360D3E7CF
:103680008FC2753C00F12C032DE9F04F04461F4614
:1036900000F586751E462DED068B83B000933846E7
:1036A0001C3700F003FAAF42F9D12F4604F5F67843
:1036B00038461C3700F0FAF94745F9D1474604F57A
:1036C0000B79C24650460AF1100A00F011FAD145B2
:1036D000F8D1CB4604F51B7A58460BF1100B00F0DD
:1036E00007FADA45F8D1514640F25C42009804F5F9
:1036F000077B00F0E1F941F2DC3140F273422846E9
:10370000214404F5177A00F0D7F942F2A85140F2AB
:10371000A44204F148002144F7EE008A00F0CCF9FD
:1037200043F6380140F2BB4204F5947021449FED0A
:10373000D08A00F0C1F944F6243140F2FD4204F190
:103740006400214400F0B8F945F6187140F21452B3
:1037500004F5A270214400F0AFF947F2683140F25D
:103760004C5204F18000214400F0A6F948F698017B
:1037700040F2635204F5B070214400F09DF949F61F
:10378000246140F28E5204F19C00214400F094F92F
:103790004BF25C4140F2A55204F5BE70214400F0AA
:1037A0008BF94CF6F02140F2D35204F1B8002144D9
:1037B00000F082F94EF23C2140F2EA5204F5CC705E
:1037C000214400F079F94FF6E41140F2156204F15A
:1037D000D400214400F070F9A64940F22C6204F5AF
:1037E000DA70214400F068F9A34940F2516204F113
:1037F000F000214400F060F9A0494FF4CD6204F5D7
:10380000E870214400F058F99D494FF40B7240468E
:10381000214400F071F99B4940F24322484621447B
:1038200000F06AF904F5FE73974940F2B9121846A0
:103830000AEE103A214400F05FF904F50F73934942
:103840004FF4E872184609EE903A214400F054F91A
:1038500004F503738E4940F25512184609EE103AEA
:10386000214400F049F904F513738A494FF4B67204
:1038700018460193214400F03FF98749E122584658
:10388000214400F039F98549F8225046214400F0DE
:1038900033F9B6EE000A404600F03CF9B6EE000AF5
:1038A000484600F037F9B6EE000A1AEE100A00F0AA
:1038B00031F9B6EE000A19EE900A00F02BF9B6EED7
:1038C000000A19EE100A00F025F9019BB6EE000A75
:1038D000184600F01FF9B6EE000A584600F01AF933
:1038E000B6EE000A504600F015F92046C4ED058AF0
:1038F000FFF772FE6A4B20466360FFF76DFE694B6F
:10390000204684ED088AE360FFF766FEB6EE007A93
:10391000D4ED0A6AD4ED057AF4EEC76AC4ED098ADB
:1039200027EE886AC4ED067AF1EE10FA84ED076A94
:10393000C0F29480B0EE680AC4ED028A84ED048A75
:1039400084ED008ADDF8008001E094ED020A404633
:1039500000F0CAF808F1E00008F11C0894ED020A32
:1039600000F0C2F84545F0D1DDF80080404694ED06
:10397000040A00F0AFF808F1E00008F11C0894ED2B
:10398000040A00F0A7F84545F0D1F6EE006AD4ED40
:10399000095AF7EE007A002394ED056AB0EE667AD4
:1039A000A36277EEE57AE36894ED010AA5EEA67AC4
:1039B000236167EEA67A3C4BDDF8008084ED020AB5
:1039C00067EE867A236026EE077AC4ED077A84EDE7
:1039D000067A01E094ED020A404600F085F808F10D
:1039E000E00008F11C0894ED020A00F07DF8A845FB
:1039F000F0D1DDF80080404694ED040A00F06AF84A
:103A000008F1E00008F11C0894ED040A00F062F8E7
:103A10004545F0D1F6EE007A94ED0A7AB4EEE77AF5
:103A2000F1EE10FA05DB204603B0BDEC068BBDE8D5
:103A3000F08F304600F044F806F1E0001C3600F04C
:103A40003FF8B542F5D1384600F05AF807F140008A
:103A5000103700F055F84F45F5D1E4E7E36894EDF1
:103A6000010A2361104B84ED020A23606AE700BF5C
:103A70000000000038120100E82A01002C44010077
:103A8000CC5D01007C660100886F01006C7601004E
:103A9000AC7D010000830100B0880100348C01007E
:103AA0003D0A573FCDCC4C3E8FC2753C00210022D1
:103AB00041608261704700BFC0E90412704700BFD7
:103AC0004269002A04DD92000021006911F02ABA3F
:103AD000704700BFF7EE007A80ED020A77EEC07AF9
:103AE000C0ED037A704700BF80ED000A704700BF49
:103AF0000022C260704700BFC0E90112704700BFDA
:103B00008268002A04DD92000021406811F00ABAA0
:103B1000704700BF80ED000A704700BF143001F00D
:103B200005BA00BF38B500F1140504462DED028B2F
:103B3000284601F0B7F9284601F0B0F92846B0EE62
:103B4000408A01F099F9D0ED007AF8EE677A88EEB4
:103B5000277ABDEC028B84ED0E7A38BD38B500F1C2
:103B6000140504462DED028B284601F089F92846FC
:103B700001F094F92846B0EE408A01F07DF9D0EDCD
:103B8000007AF8EE677A88EE277ABDEC028B84ED36
:103B90000E7A38BDF0B5032399B0002701251293A2
:103BA00006462C4B09A81595CDE90E7340F2045337
:103BB000ADF84030284BCDE91357099301F0A4FE2E
:103BC00009A801F07DFF002836D1244B04AF04463C
:103BD0000090CDF842301023394604958DF82030FE
:103BE0001F4BCDE91650CDE906506846059302F00B
:103BF000F5F80823009A01A909A8ADF804508DF83A
:103C0000064009940295039300F0E4F800230EA9FE
:103C100038463024049302F0ABFE03224FF07E536B
:103C200009A906F114000B930C93CDE90942049AFB
:103C300001F0EAF819B0F0BD40F60132074B1697D3
:103C400004AFADF824200998CDF84230179500F064
:103C500081F8DBE704020404030300010406040303
:103C60000704010B2DE9F04304462DED028B83B0D0
:103C7000002948D0012140F2011200230091ADF843
:103C800004208DF80630304A0126304B271D30497C
:103C900004F12908626040F20272A36040F60663F4
:103CA000E16004F125092682A4F8252084F8276024
:103CB000A4F8293084F82B6003F0E8F9694605463A
:103CC00048B304F130008DF8066003F03DF9072D8C
:103CD00034D104F114052046FFF75CFF284601F0BB
:103CE000DDF82846B0EE408A01F0C6F8D0ED007A43
:103CF000F8EE677A88EE277A84ED0E7A03B0BDEC91
:103D0000028BBDE8F08340F2011300918DF806109C
:103D1000ADF80430B7E704F1300003F015F9394687
:103D2000204602F0A5FA484601F0EEFD404601F0BB
:103D3000EBFD04F1120000F077F9CAE7394620469E
:103D400002F096FAC5E700BF050805090507050654
:103D5000050A060610B584B003460124ADF8040038
:103D600003A8ADF80C30ADF80E4001F0CDFD2146B2
:103D700003A801F0B3FE204603F01AF8002103A8BF
:103D800001F0ACFE204603F013F8214603A801F031
:103D9000A5FE04B010BD00BF10B5C2F3002384B06F
:103DA0000C46017C8DF80D2043EA4402FA240223DC
:103DB0008DF80C2003AA009402F0A6F818B1012493
:103DC000204604B010BD04460A2002F0F1FF204650
:103DD00004B010BD034670B543F8042B044684B00C
:103DE00007C983E80700A37983B91A210B461E226D
:103DF000FA2523742046ADF80C20022303AA00956F
:103E000002F082F828B1012004B070BD1B210B46DE
:103E1000EDE70A2002F0CCFF4FF4B85200950223E0
:103E2000ADF80C20204603AA217C02F06DF8002892
:103E3000E9D10A2002F0BCFF41F202720095022390
:103E4000ADF80C20204603AA217C02F05DF8002882
:103E5000D9D10A2002F0ACFF042200950223ADF86C
:103E60000C20204603AA217C02F04EF80028CAD17B
:103E70000A2002F09DFF062200950223ADF80C20D7
:103E8000204603AA217C02F03FF80028BBD10A207B
:103E900002F08EFF41F2082200950223ADF80C20BB
:103EA000204603AA217C02F02FF80028ABD10A207B
:103EB000064602F07DFF0095022303AA217C2046DE
:103EC000ADF80C6002F020F800289CD1304602F0DA
:103ED0006FFF009522790C232046002A8DF80C30C4
:103EE00003AA4FF0020314BF622142218DF80D1086
:103EF000217C02F009F8002885D1304602F058FFF5
:103F00002279D4E902310B43DBB20AB943F0400312
:103F100062790AB143F020030E22FA258DF80D30A4
:103F20002046009502238DF80C2003AA217C01F085
:103F3000EBFF00287FF467AF0A2002F039FF102260
:103F400000950223ADF80C20204603AA217C01F045
:103F5000DBFF00287FF457AF0A2002F029FF12216F
:103F600000950223ADF80C1003AA217C204601F035
:103F7000CBFF00287FF447AF0A2002F019FF01228F
:103F800009212046FFF708FF003818BF01203BE752
:103F9000F0B5102387B0234C01220025012600270D
:103FA00002A920460195CDE902234FF48052CDE9C4
:103FB00004670AF0FBFA642003F0A6FE02A94FF49E
:103FC00080522046CDE9046702261027CDE902671A
:103FD0000AF0ECFA0322102302A92046CDE90223BD
:103FE00000230422CDE904234FF480520AF0DEFAC4
:103FF00040F23223042202A9019310232046CDE986
:104000000223019A012305924FF4805204930AF08F
:10401000CDFA40F6060120460AF0E8FA284607B035
:10402000F0BD00BF605706241C4B00221C494FF016
:10403000400C30B5054689B00220596007219A60CE
:104040001A620124DA620A224FF4006EDC600692E2
:104050002022CDE9000104200821CDE9020103203E
:104060001021CDE9040108206946C3E904024FF498
:10407000C072181DC3E906C24FF48052C3E909E2B9
:104080000AF06AFA38B92846FFF782FF003818BFED
:10409000012009B030BD204609B030BD5C57062470
:1040A00040410052614A0021D0B513688EB00A9198
:1040B000002B40F0B9805E4B01214FF683700C2439
:1040C00011600221D3F8D4200026032742F4805245
:1040D000C3F8D420D3F8D42002F480520092009A7E
:1040E000D3F8E02042F01002C3F8E020D3F8E0203B
:1040F00002F010020192019AD3F8E02042F040024F
:10410000C3F8E020D3F8E02002F040020292029AC5
:10411000D3F8E02042F00802C3F8E020D3F8E02012
:1041200002F008020392039AD3F8E02042F480726E
:10413000C3F8E020D3F8E02002F480720492049ADD
:10414000D3F8E02042F08002C3F8E020D3F8E0206A
:1041500002F080020592059AD3F8E02042F0200296
:10416000C3F8E020D3F8E02002F020020692069A7D
:10417000D3F8E02042F00402C3F8E020D3F8E030A6
:104180000C9403F0040307930323079A0B93CDE9E0
:10419000080108A9274805F03DFC48F23712022320
:1041A00008A925480C94CDE90823CDE90A6705F054
:1041B00031FC4CF20372022308A920480C94CDE98B
:1041C0000823CDE90A6705F025FC40F2FF620223CF
:1041D00008A91B480C94CDE90823CDE90A6705F02E
:1041E00019FC4FF60C72022308A916480C94CDE96D
:1041F0000823CDE90A6705F00DFC4FF63F020223C4
:1042000008A911480C94CDE90823CDE90A6705F007
:1042100001FC2022022308A90A480C94CDE90A6770
:10422000CDE9082305F0F6FB0EB0D0BD58570624A3
:10423000004402580010025800180258000C02589E
:1042400000200258001C0258001402582DE9F04FBB
:10425000DFF8108406460D46144608F118002DEDCF
:10426000028B89B000AF02F07BFCD8F8183073B332
:10427000D8F81C30D8F80490002B43690BBF4FF0DE
:10428000080A4FF0100A4FF0020B4FF0040BB9F17F
:10429000000F2AD0A200EA46012B02F1070222F009
:1042A0000702ADEB020D6846ADEB020D694600F06A
:1042B0003F81022B00F0D680002B6FD02246C847EA
:1042C000D5462437BD46BDEC028BBDE8F08FD8F84B
:1042D0001C30002BF5D0D8F804904FF0080A4FF0AE
:1042E000020B4369B9F1000FD4D1FB61D8F800305B
:1042F000BB61002BE5D0D54802F0A4FC6B46BBF1B6
:10430000020F786108EE103AFB6900F083816A467B
:104310005146A2EBC40295466200EA46B2FBFBF2AC
:10432000AAEBC40085460AEB8200EE46F861ADEBCD
:10433000010DF8690EEB820CC7F810C0EC46ADEB2E
:10434000010D00EB8201CCF80400CCF8081001EB61
:1043500082013869E946CCF80C1000EB8201CCF8F8
:1043600000A001EB8202C9E900E0C9E90212012BB9
:1043700000F06483022B00F06C82002B00F080813F
:10438000620849466046BB69984718EE103A2437E0
:104390009D46BD46BDEC028BBDE8F08F002C8DD054
:1043A0001A46D8ED0C6A9FEDB27A8446331D36F971
:1043B00022E00CF1080C07EE90EA33F922E0023219
:1043C000F8EEE77A944267EE877A67EEA67A4CEDCC
:1043D000027A07EE90EAF8EEE77A67EE877A67EE00
:1043E000A67A4CED017AE2D8F9612246C847984E88
:1043F000D8ED0D6A0020F9692B1D9FED9E7A9FED87
:104400009E6ADFED9E5A22E0F4EEC67AF1EE10FAD3
:10441000C0F2C88447F6FE72D1ED017A45F820203B
:1044200066EEA77AF4EEC77AF1EE10FA40F2F08069
:10443000F4EEC67AF1EE10FAC0F2D58447F6FE72B9
:1044400043F820200230083184427FF639AFD1EDA5
:10445000007A66EEA77AF4EEC77AF1EE10FAD3D8B6
:104460003246D9E7002C3FF429AFD8ED0C6A8446D8
:104470009FED787A0022331D8E4656F822100CF1FB
:10448000080C07EE901A53F822100232F8EEE77A81
:10449000944267EE877A67EEA67A4CED027A07EED1
:1044A000901AF8EEE77A67EE877A67EEA67A4CED17
:1044B000017AE2D871462246C7F81CE0C847664E2A
:1044C000D8ED0D6A0020F9692B1D9FED6A7A9FEDEA
:1044D0006A6ADFF894C120E0F4EEC67AF1EE10FAD1
:1044E000C0F279843246D1ED017A45F8202066EE9B
:1044F000A77AF4EEC77AF1EE10FA40F28780F4EE74
:10450000C67AF1EE10FAC0F25E84324643F82020FB
:104510000230083184427FF6D3AED1ED007A66EEE8
:10452000A77AF4EEC77AF1EE10FAD5D86246DAE748
:10453000002C3FF4C3AED8ED0C6A86469FED477A57
:104540004FF0000C331D56F82C200EF1080E82F4AB
:104550000002A2F5000207EE902A53F82C200CF17D
:10456000020CF8EEE77A82F400026445A2F500023C
:1045700067EE877A67EEA67A4EED027A07EE902A0A
:10458000F8EEE77A67EE877A67EEA67A4EED017A63
:10459000D9D8F9612246C847314ED8ED0D6A0020BE
:1045A000F9692B1D9FED337A9FED336ADFF8BCC0AC
:1045B0001FE0F4EEC67AF1EE10FAC0F2FC83324648
:1045C000D1ED017A45F8202066EEA77AF4EEC77A9D
:1045D000F1EE10FA18D9F4EEC67AF1EE10FAC0F244
:1045E000DA83324643F820200230083184427FF6D5
:1045F00067AED1ED007A66EEA77AF4EEC77AF1EEF7
:1046000010FAD6D86246DBE76246EBE762467DE702
:10461000324615E7A100D6466208073121F00701AE
:10462000ADEB010DEA46ADEB010D6946ADEB0E0DAC
:104630000AEB8200EC46ADEB0E0D01EB8202F86155
:10464000E946CCE900A0C9E9001290E6B05706247B
:104650000280FFFF000000300082FF7F0000003476
:1046600082FF7F0094570624007E00807E0080FF3A
:104670000000003804FF7FBF04FF7F3F00FEFF46BD
:10468000002C00F0C982BBF1020FD8F8242000F002
:10469000FA827969C7F8049002EB810E5FED0C5A3B
:1046A0008A00DCF808100EF104007A611A46DCF882
:1046B0000C303B61331DD7F810903D61FD69C7E9AF
:1046C00002CB8C46834636F92210D8ED0C7A06EEE2
:1046D000101A33F9221006EE901A3EF92210B8EEA5
:1046E000C66A07EE101AF8EEE66A3BF92210B8EE39
:1046F000C77A26EE256A66EEA56A27EE257A26EEAB
:10470000276A66EEA76A27EE277A07EE901A510805
:104710000232F8EEE77A0AEB8100944280ED006AFB
:1047200005EB810067EEA57AC0ED006A0CEB810015
:1047300009EB810180ED007A98ED0C7A67EE877ABB
:10474000C1ED007ABFD8D7F804903D69D7E902CB14
:1047500060466208BB6949469847D8F82C307A69A8
:10476000D8ED0D6A1A441FED3D7A1FED3D6A2B1DF1
:10477000904602F1040A5FED3F5A0022A84ED9E9A3
:1047800000EC51E0F4EEC67AF1EE10FAC0F2C78206
:1047900047F6FE7045F822000CEB0100D0ED007AE0
:1047A00066EEA77AF4EEC77AF1EE10FA4BD9F4EE82
:1047B000C67AF1EE10FAC0F2BA8247F6FE70BBF18B
:1047C000020F43F822002BD0D9F808000844D0ED9E
:1047D000007A66EEA77AF4EEC77AF1EE10FA36D9CF
:1047E000F4EEC67AF1EE10FAC0F2CD8247F6FE7012
:1047F00048F82200D9F80C000144D1ED007A66EEA9
:10480000A77AF4EEC77AF1EE10FA1ED9F4EEC67A62
:10481000F1EE10FAC0F2AF8247F6FE714AF82210AC
:10482000023294427FF6B1AD51080EEB810089004F
:10483000D0ED007A66EEA77AF4EEC77AF1EE10FAC0
:10484000A0D83046A6E73046B9E73146E6E730461D
:10485000CEE7002C00F0E081BBF1020FD8F8243045
:1048600000F0E1817A69DCF8081003EB820EC7F8EA
:1048700004909300DFED6B5A0EF1040000227B617F
:10488000DCF80C303B61331DD7F810903D61FD69B9
:10489000C7E902CB8C46834656F82210D8ED0C7A35
:1048A00007EE101A53F82210B8EEC76A07EE101A76
:1048B0005EF82210F8EEC76A07EE101A26EE256A97
:1048C0005BF82210B8EEC77A66EEA56A26EE276A74
:1048D00027EE257A66EEA76A27EE277A07EE901A6A
:1048E00051080232F8EEE77A0AEB8100944280ED3B
:1048F000006A05EB810067EEA57AC0ED006A0CEB5B
:10490000810009EB810180ED007A98ED0C7A67EE69
:10491000877AC1ED007ABFD8D7F804903D69D7E90E
:1049200002CB60466208BB6949469847D8F82C30EC
:104930007A69D8ED0D6A1A449FED3E7A9FED3E6A82
:10494000131D9246DFF8E4C00022FB612B1D364E9A
:10495000D9E9008E4EE0F4EEC67AF1EE10FAC0F21C
:10496000FC81304645F822000EEB0100D0ED007AC4
:1049700066EEA77AF4EEC77AF1EE10FA49D9F4EEB2
:10498000C67AF1EE10FAC0F2EF813046BBF1020FA9
:1049900043F822002AD0D9F808000844D0ED007A64
:1049A00066EEA77AF4EEC77AF1EE10FA35D9F4EE96
:1049B000C67AF1EE10FAC0F2C98130464AF82200F8
:1049C000D9F80C000144D1ED007A66EEA77AF4EE36
:1049D000C77AF1EE10FA1ED9F4EEC67AF1EE10FAAB
:1049E000C0F2AD813146F86940F82210023294429B
:1049F0007FF6CBAC510808EB81008900D0ED007A3E
:104A000066EEA77AF4EEC77AF1EE10FAA3D8604604
:104A1000A8E76046BAE76146E5E76046CEE700BF33
:104A20000280FFFF000000300082FF7F007E0080D8
:104A30000000003404FF7FBF04FF7F3F002C00F024
:104A4000EB807A690021D8F82430C7F8109003EB86
:104A5000820ED7F81C909300FD610EF104021FED49
:104A60000C6A7B61331D154656F821204808D8EDA5
:104A70000C6ABBF1020F82F40002A2F5000207EEFD
:104A8000902A53F8212082F40002B8EEE77AA2F5CA
:104A9000000227EE067A07EE902A0AEB8002F8EE73
:104AA000E77A27EE267A67EE867A82ED007A09EBBE
:104AB00080024FEA800067EEA67AC2ED007A27D026
:104AC0005EF8212082F40002A2F5000207EE902A8F
:104AD00055F8212082F40002B8EEE77AA2F5000230
:104AE00027EE067A07EE902ADCF80820F8EEE77A3F
:104AF000024427EE267A67EE867A82ED007A98EDF8
:104B00000C7ADCF80C2067EE877A0244C2ED007A5A
:104B100002318C42A8D8D7F8109060466208BB6971
:104B20004946FD699847D8F82C307A69D8ED0D6A66
:104B30001A441FED407A1FED406A131D9246DFF8BC
:104B4000C4C20022FB612B1DAB4ED9E9008E4EE0A2
:104B5000F4EEC67AF1EE10FAC0F2C580304645F8A0
:104B600022000EEB0100D0ED007A66EEA77AF4EE9B
:104B7000C77AF1EE10FA49D9F4EEC67AF1EE10FADE
:104B8000C0F2BF803046BBF1020F43F822002AD0AA
:104B9000D9F808000844D0ED007A66EEA77AF4EE62
:104BA000C77AF1EE10FA35D9F4EEC67AF1EE10FAC2
:104BB000C0F2AE8030464AF82200D9F80C00014419
:104BC000D1ED007A66EEA77AF4EEC77AF1EE10FA2C
:104BD0001ED9F4EEC67AF1EE10FAC0F28B8031469F
:104BE000F86940F82210023294427FF6CEAB5108A9
:104BF00008EB81008900D0ED007A66EEA77AF4EE2A
:104C0000C77AF1EE10FAA3D86046A8E76046BAE783
:104C10006146E5E76046CEE7224649466046BB6905
:104C20009847FFF7B2BBC7F810B0002298ED0C6AA6
:104C3000331DDFED726AD7F81CB0786956F8221080
:104C400007EE901A53F82210B8EEE77A07EE901AA2
:104C500051080232F8EEE77A27EE267A0AEB810E47
:104C600094420BEB810167EEA67A27EE067A67EE97
:104C7000867A8EED007AC1ED007ADFD88300D7F80E
:104C800010B07B614DE61A46C7F810B098ED0C6A7B
:104C9000331DDFED5B6AD7F81CB0786936F9221056
:104CA00007EE101A33F9221007EE901AB8EEC77A01
:104CB00051080232F8EEE77A27EE267A0AEB810EE7
:104CC00094420BEB810167EEA67A27EE067A67EE37
:104CD000867A8EED007AC1ED007ADFD88300D7F8AE
:104CE00010B07B6134E5F0EE675AFEEEE45A15EE43
:104CF000900A34E7F0EE675AFEEEE45A15EE901A89
:104D00006EE7F0EE675AFEEEE45A15EE900A3AE7C7
:104D1000F0EE675AFEEEE45A15EE900A4BE767EEA6
:104D2000A57AFDEEE77A17EE900A00B232E567EE5B
:104D3000A57AFDEEE77A17EE900A00B23FE5F0EEB5
:104D4000675AFEEEE05A15EE901A4CE6F0EE675AFE
:104D5000FEEEE05A15EE900A30E6F0EE675AFEEEEF
:104D6000E05A15EE900AFDE5F0EE675AFEEEE05AC5
:104D700015EE900A0AE667EEA57AFDEEE77A17EEE1
:104D8000901A09B24AE567EEA57AFDEEE77A17EECA
:104D9000900A00B22CE5F0EE675AFEEEE45A15EEEA
:104DA000902A1FE467EEA57AFDEEE77A17EE902AC7
:104DB00012B2FFF731BBF0EE675AFEEEE45A15EE81
:104DC000902AFFF7FDBBF0EE675AFEEEE05A15EEB3
:104DD000902AFFF79BBBF0EE675AFEEEE05A15EE05
:104DE000902AFFF780BB67EEA57AFDEEE77A17EE13
:104DF000902A12B2FFF724BB82FF7F000000003030
:104E0000000000387E0080FF30B5184C154685B094
:104E1000046004F1080EEC460FC98EE80F00D4EDD3
:104E2000047AF5EEC07A8CE80F00F1EE10FA1ADD84
:104E3000B7EE006A94ED057A27EE277AC6EE276A68
:104E400084ED0D7AC4ED0C6A6DB1204640F8185F10
:104E500001F086FE064903690020064A2162A2622B
:104E6000E36005B030BD012005B030BD9457062485
:104E7000002000300000003000680830704700BF9C
:104E8000B1F5807F03680A4628BF4FF48072B1F500
:104E9000807F9A6094BF002001207047006818301E
:104EA00001F0BEBE70B504688AB0A369E160CBB101
:104EB00004F11805284601F053FE8446EE46E668E4
:104EC000BCE80F00AEE80F00BCE80F00AEE80F0032
:104ED0009CE803008EE8030069462846049601F02A
:104EE00047FDF8B9E069D8B104F11C05284601F086
:104EF00037FE8446EE46E468BCE80F00AEE80F00DB
:104F0000BCE80F00AEE80F009CE803008EE8030049
:104F100069462846049401F02BFD003818BF012093
:104F20000AB070BD01200AB070BD00BF30B5046882
:104F300083B00D46E3694BB1A3680020E26A616A61
:104F40009B00009004F11C0001F00CFEA3680748D0
:104F5000A26A9B00216A009004F1180001F002FE91
:104F60000020C4E9005003B030BD00BF4D4200082E
:104F700010B4074B4FF07E513024002203201961FA
:104F80009C60D8605DF8044B5961C3E90622704704
:104F900094570624704700BFF8B5134F3C687F2C28
:104FA00007D98023114A42F224411C463B60A2F8F3
:104FB0007E100F4D2B68012B0AD90C4E0D4D224649
:104FC0003146284600F074F90028F8D13860F8BD61
:104FD00022460649074800F06BF90028F7D12B68F4
:104FE000386001332B60F8BDD0570624D45706240F
:104FF000CC5706245458062430B4154C2168F1B11E
:105000004B1E144DE81810F801298C4619460A2A3F
:1050100001D00D2A02D14BB1013BF4E70CF10203A0
:105020007F2B10D98023236030BC704701220223DC
:1050300023600D200A236854AB5430BC7047012212
:105040000223044DF4E70CF101026146F0E700BFD2
:10505000D0570624D457062410B5094C02460B46F7
:10506000084821680844C1F1800110F049FD236817
:1050700018442060FFF7C0FFFFF78EFF10BD00BF90
:10508000D0570624D45706240FB400B583B004A922
:1050900051F8040B0191FFF7DFFF03B05DF804EB5B
:1050A00004B0704710B5044600210A4800F07AF8B1
:1050B000002C094B14BF0222002208481A60FFF797
:1050C000E3FF0748FFF7E0FF0A20BDE8104001F0CA
:1050D0006FBE00BF54580624CC570624687D0108D3
:1050E000787D0108064A0749074808B50FF0B2FE67
:1050F000034A04490548BDE808400FF0ABBE00BFB5
:1051000000000024954F00085458062458580624DF
:1051100070B5044682B0C1F30726CDB2ADF80410D5
:1051200001F044FE4FF480724FF001232060A01D77
:10513000A571A280E671A36002B0BDE8704000F0E6
:10514000E3BB00BF38B5044601F030FE00222368FF
:105150002271834210D00122A57AE37A9540206023
:105160002271A01D6DB243B900F0AAFC40B22843E1
:10517000C0B27F28A0720AD038BD00F0A1FCB0FAFE
:1051800080F040092843C0B27F28A072F4D101F01A
:105190000DFE07EE900AF8EE677AC4ED037A38BD8B
:1051A000704700BF012910B506D0022915D051B1B2
:1051B000BDE8104006F010BB0A46344834490AF0F6
:1051C000A5FCE8B1FEE7334B0A46334C334934487B
:1051D0001C600AF09BFC68B1FEE701222C492B48B9
:1051E0000AF094FC00B1FEE72E4928480AF0B0FC12
:1051F000C0B1FEE72B492A480AF0AAFC60B1FEE7DD
:10520000284922480AF0A4FC00B1FEE726491F48BD
:105210000AF02CFC08B3FEE7244921480AF026FCDA
:10522000A8B1FEE7204919480AF020FC00B1FEE7CA
:1052300016480AF0A3FC024640B9164B164C174913
:1052400017481C600AF062FC68B1FEE7FEE71448EC
:105250000AF094FC0028ABD0FEE70C480AF08EFC64
:105260000028A5D0FEE70F490D480AF071FC00B1F7
:10527000FEE70E490A480AF0F9FB00B1FEE70848CC
:105280000AF07CFC002893D0FEE700BFF85A062401
:1052900008010024945D0624A1510008EC000024BC
:1052A0005C58062470010024CC000024BC000024BB
:1052B000084691B208B502F023F8003818BF012063
:1052C00008BD00BF014805F065BD00BF8088062409
:1052D000014805F05FBD00BF80880624014805F045
:1052E00059BD00BF8088062482B04FF0000C032314
:1052F000ADF80410BDF8042080F810C0028043808F
:1053000002B070472DE9F04FBE4E00258FB0BE4C65
:10531000037006F14003426007460192884620224E
:1053200029463046C4F85831C4F85461CDE90355D4
:10533000CDE90555CDE90755CDE90955CDE90B5521
:105340000FF0F0FD2022294604F59970C4F8215190
:10535000C4F82551C4F82951C4F82D510FF0E2FDCD
:10536000019B84F8385284F820317A68002A5FD093
:105370002B464146B64604F5907599464FF0010A12
:1053800003EB0310D1F800B0D1F804800133D1F859
:1053900008C02218CE6844F800B0C2F80480C2F8F1
:1053A00008C0D660087C2EF8029B10740A7C05F8B1
:1053B000012F002A69D07A68113184F838A29A4204
:1053C000DED84FF4802291489DF8043008214FF038
:1053D00000084FF00009C4F874310023C4E95702F3
:1053E0000122C4F8643184F87031C4E95A2194F878
:1053F0003812C4E9608981B3C4F88821002284F896
:10540000713184F878313B78C4E96322A3B3012277
:1054100000200121013B84F89421C4E96801082B94
:105420002CD8DFE803F0ABB0B5BABFC4C9CFD60003
:105430009DF804300121C4F86421C4F874314FF49C
:10544000802384F87021714AC4E95723082300227D
:10545000C4E95A130023C4E960230123002284F81D
:105460007131002384F878310323C4F888313B7804
:10547000C4E96322002BCAD184F89431644803F054
:105480007BF8034638B1FFBEFEE77A6811319A42D5
:105490003FF676AF95E703A95D48039303F0CAF999
:1054A0000546002868D1022240F2FF73CDE90823A7
:1054B00000230422CDE90A2394F82031002B00F0C8
:1054C000D5804FF0060921E0022B00F08980012BE6
:1054D00040F0C4809AF80130012B00F0C180002B0D
:1054E0004C4B18BF002306A94948CDE9063902F004
:1054F0006FFC002840F0BF80013594F82031EDB2F8
:10550000AB4240F2B380444B53F825902FB207EBE7
:10551000071704EB070A504600F0F6F905EB0513F0
:1055200023441B7C042B7DDC022B00F3918000F0D4
:105530008D806319002283F81021E35D002BC3D115
:105540009AF80130062B00F08580072B00F08A8046
:10555000022B00F09680032B00F09580002B00F0CA
:105560009680012B00F09180042B00F09280052B97
:105570002A4B18BF0023B6E7FFBEFEE703224023F5
:10558000C4E966237AE707226023C4E9662375E746
:105590000F228023C4E9662370E71F22A023C4E9F9
:1055A00066236BE73F22C023C4E9662366E77F22B8
:1055B000E023C4E9662361E7FF224FF48073C4E966
:1055C00066235BE740F2FF124FF49073C4E9662351
:1055D00054E740F2FF324FF4A073C4E966234DE76D
:1055E0009AF80130042B37D0052B3DD0002B40D04A
:1055F000012B42D0022B42D0032B094B18BF0023B2
:1056000071E700BF00400030A05D0624002002408A
:10561000FC5E06240002B025887D01080000B84F1A
:105620000020903603233E1D04EB05084FF0000BCD
:10563000264488F8103130460BF1010B00F064F974
:1056400098F8103104365B45F5DC76E70123EAE78C
:105650000223E8E7104B46E7104B44E7002342E7FC
:105660000F4B40E70F4B3EE70F4B3CE70FB0BDE859
:10567000F08F0E4B37E7FFBEFEE70D4B33E70D4BC8
:1056800031E70D4B2FE70D4B2DE70D4B2BE70D4B66
:1056900029E70D4B27E700BF0800900C1000C01051
:1056A0002000F0148000501D000180210004002A19
:1056B0000008302E001060320040C03A0080F03EFA
:1056C00000005247000021430000844B38B5094CCC
:1056D00040F2FF724FF0011104F5AE75284603F059
:1056E00057F894F82021D4F854112846BDE83840E2
:1056F00002F0C2BDA05D0624064B0F29D3F8543139
:1057000098BF03EB41031B8800EE103ABBEEC80ABA
:10571000704700BFA05D0624214B02689A4200D06A
:105720007047204A00232048D2F8D81030B51F4CCB
:1057300041F0200183B0C4F8C001092004F5E075F0
:10574000C4E971034FF48060C2F8D810D2F8D820B1
:105750004FF40061C4E9733094F8380202F020027B
:10576000C4F8D4114FF40051984201922846C4F86D
:10577000D811C4E97833019B14BF00234FF4807320
:10578000C4F8DC3103F07CFA08B1FFBEFEE704F593
:10579000AE73C4F8A851C4F8F83103B030BD00BFEF
:1057A000002002400044025840000240A05D062450
:1057B000014803F0DDBD00BF605F062402682DE9EB
:1057C000F84F4B4B9A4201D0BDE8F88F494D95F800
:1057D0003832002BF8D095F82031002B77D00024F8
:1057E00005F10C0905F5997605F59077A04613E0CB
:1057F00003F0010117F811BCA9F1080000F06EF9DF
:10580000BBF1010F25D895F82031013409F11109B8
:105810000236A2B293422BD917F8012F002AF4D0F6
:10582000D5F854310021327833F81400D5F85831C6
:1058300003EB041323F81200338801339BB2338047
:105840005FFA83FA3A789A42D2D88A46A6F800805C
:10585000D0E7CAF34001A9F1040000F03FF9BBF121
:10586000020FCAF38001CED0484600F037F9CAE7EC
:10587000002395F83802204909229842C5F8C8311A
:105880004FF48060C5F8C011C5F8C4214FF4006121
:105890004FF40052C5F8CC3108BF4FF48073C5F8FF
:1058A000D821C5E9740100221448C5E97732C5F84A
:1058B000E42103F0E5F908B1FFBEFEE795F82021E9
:1058C000D5F854110E48BDE8F84F02F0D5BC0A498E
:1058D00009224FF48060C5F8C831C5E970124FF451
:1058E00000614FF40052C5E97330C5E97512DAE77B
:1058F00000200240A05D062440000240605F0624B4
:10590000FC5E0624704700BF8378022B30B5044646
:105910008FB037D0032B33D0012B31D000230A9323
:10592000E378012B2AD0022B28D000230B930023ED
:1059300020460C9302F0C6F80546204602F0CAF84D
:1059400023780990082B13D8DFE803F01F3245585D
:105950006B7E91A40500594BD3F8E02042F480728D
:10596000C3F8E020D3F8E03003F480730893089B79
:1059700009A9284604F04EF80FB030BD0B93D6E7C6
:105980000A93CDE711230A93CAE74C4B09A928468D
:10599000D3F8E02042F00102C3F8E020D3F8E03071
:1059A00003F001030093009B04F034F80FB030BD06
:1059B000424B09A92846D3F8E02042F00202C3F87E
:1059C000E020D3F8E03003F002030193019B04F0E0
:1059D00021F80FB030BD394B09A92846D3F8E02093
:1059E00042F00402C3F8E020D3F8E03003F00403EF
:1059F0000293029B04F00EF80FB030BD2F4B09A9A3
:105A00002846D3F8E02042F00802C3F8E020D3F89B
:105A1000E03003F008030393039B03F0FBFF0FB098
:105A200030BD264B09A92846D3F8E02042F01002E9
:105A3000C3F8E020D3F8E03003F010030493049B94
:105A400003F0E8FF0FB030BD1C4B09A92846D3F87E
:105A5000E02042F02002C3F8E020D3F8E03003F069
:105A600020030593059B03F0D5FF0FB030BD134B0A
:105A700009A92846D3F8E02042F04002C3F8E0200C
:105A8000D3F8E03003F040030693069B03F0C2FF17
:105A90000FB030BD094B09A92846D3F8E02042F0E9
:105AA0008002C3F8E020D3F8E03003F080030793CE
:105AB000079B03F0AFFF0FB030BD00BF004402589A
:105AC00038B5054601F0FEFF0446284602F002F80C
:105AD00001462046BDE8384004F0A4B970B506463A
